:10000000480D001051090000A53B0000A93B00006D
:10001000B13B0000B53B0000B93B0000FABEFEEF6B
:10002000000000000000000000000000BD3B0000D8
:10003000C13B000000000000C53B0000C93B0000C0
:100040000106000034060000070000008C2A0000B2
:100050000C06000029060000080000000106000050
:10006000540000008C2A0000942900005400000075
:100070008C2A000034060000FDFFFFFF380B000053
:10008000C81800000C060000010600001809000056
:10009000000B000020190000641500002C0900006E
:1000A0000C06000001060000000B0000E81800002C
:1000B0008C170000DC2100007C23000044070000B6
:1000C0001800000034060000620000008C2A0000C6
:1000D000501700000C060000340600000A00000063
:1000E0007C230000440700001400000034060000D8
:1000F000640000008C2A00000C060000340600009A
:10010000680000008C2A00000C06000001060000B8
:10011000D0200000BC2100003C200000A400000012
:100120000C06000001060000BC210000BC210000FC
:100130003C200000A40000000C06000001060000A6
:10014000180900008C170000000B000020190000A7
:10015000340600000A0000007C2300004407000071
:10016000100000000C01000034070000080000002F
:1001700024010000942900002C0900000C06000056
:10018000290600006C0B001029060000700B0010FF
:1001900029060000940B0010290600009C0B00109B
:1001A00001060000340600001A390000C8120000E1
:1001B000382A0000DC13000001060000EC0A0000F1
:1001C000C81800000C06000001060000F80B000033
:1001D0007C0B000020190000FC210000B801000089
:1001E0000C06000001060000280B0000E8180000C3
:1001F0002C24000034060000D7390000580E0000FF
:100200000C06000001060000280B0000E8180000A2
:1002100034060000F0390000580E00000C06000003
:10022000010600005C23000034060000AB3900002A
:10023000580E00000C0600000106000084160000A5
:1002400080010000E818000068170000D4230000B7
:100250003406000093390000580E00000C06000020
:1002600001060000D01600008C170000A412000048
:10027000382A0000A41200003C230000D00B00002C
:10028000041700000C06000001060000680B0000C7
:10029000340600005E000000681100004009000004
:1002A00001000000600B00100C06000001060000B9
:1002B0004C2100008C1700000417000004190000F6
:1002C000000B0000E8180000880E00004407000042
:1002D0005800000068170000000B0000E81800003C
:1002E000900800005017000040160000000B0000AE
:1002F000E8180000900800009C2000002C2000005E
:10030000E81800004C210000440700001000000025
:10031000CC2100002C200000C8180000D0160000DE
:10032000340700008CFFFFFFD01600000C06000011
:1003300001060000B80A0000480F00007C0B000016
:100340001C0D0000B80600000C06000001060000AD
:10035000D01600008C170000842100000417000054
:10036000E8180000C80100000C06000001060000AB
:1003700004170000BC210000EC160000B4080000C7
:10038000D01600006817000004170000B408000031
:10039000D01600000C0600000106000084160000C4
:1003A00090010000201900000C060000010600006A
:1003B0008416000090010000E81800005C23000093
:1003C0003406000093390000580E00000C060000AF
:1003D0000106000030030000440700003C0000005C
:1003E000280B0000E8180000AC23000044070000C0
:1003F00014000000500D0000C80100003407000088
:100400000C000000500D00006C0A000038020000D3
:1004100034070000C0FFFFFF7C0B0000C00F00008E
:100420002C200000E81800004C21000044070000C8
:1004300010000000F4190000340700000C00000058
:1004400050170000241A0000380200003407000092
:1004500084FFFFFF0106000098190000F00800006B
:100460000409000088020000D0030000280B0000EF
:10047000E81800002C2400004407000038000000A9
:10048000340600008C0B0010E81800004407000040
:1004900024000000340600008C0B0010E818000057
:1004A000C8120000382A0000000B0000E818000005
:1004B0006C27000034060000100000008C2A0000A9
:1004C0005C2B00003407000098FFFFFF01060000CE
:1004D0007C0B00005C230000540C00000C060000A4
:1004E000010600004009000000000000800B001021
:1004F0000C06000029060000800B00100106000019
:10050000502400004407000008000000D024000030
:100510000C06000001060000502400004407000003
:1005200008000000042000000C0600000106000086
:100530005C2B000034060000D8090000C81200003F
:10054000382A000034060000220A0000C812000009
:10055000382A00005C2B00000C0600000106000099
:10056000DC050000D83000000C0600000106000089
:1005700068170000241700003C2300003406000028
:100580007F0000002417000004190000AC230000C5
:1005900044070000E0FFFFFF68170000501700004D
:1005A0000C0600000A00000001000000000000002E
:1005B00000000000F00F0010700F0010980A0010EB
:1005C000FC0A0010100000100000000000000000F5
:1005D000743800002F0A000000000000E105000050
:1005E000054806490E2203680B6004300431013AC5
:1005F000F9D104CD08CA9847A40500005C0B00108F
:10060000361F3560154604CD08CA9847110600000C
:100610003568361D04CD08CA9847000001CA3F1F3F
:10062000386004CD08CA984701CA3F1F386004CD1E
:1006300008CA98473906000001CD3F1F386004CD35
:1006400008CA98474906000001CD3F1F386004CD15
:1006500008CA9847590600003D683F1D04CD08CAE6
:1006600098470000361F3560456808303F1F3860E6
:1006700004CD08CA984700007D06000004480549DB
:100680000968401A3F1F386004CD08CA9847000027
:10069000380A00107C0B00109D0600000448054934
:1006A0000968401A3F1F386004CD08CA9847000007
:1006B0005C0B0010780B0010BD0600003B683F1D6E
:1006C0003A683F1D93465A46187884461178484048
:1006D0003F24204019D1521C5B1C187811788842A5
:1006E000F9D08024001B884210D15B1C1878FF28A9
:1006F000FBD008333F1F3B60012062463F1F3A603A
:100700003F1F386004CD08CA98475B1C18788024C6
:100710002042FAD01B1D064803401B68002B00D066
:10072000D1E700203F1F386004CD08CA9847000079
:10073000FCFFFFFF390700002B68ED1804CD08CA45
:10074000984700004907000038683F1D0028F3D093
:100750002D1D04CD08CA98475D0700000123746869
:100760003268944203D0D2183260A41AE4D1083619
:100770002D1D04CD08CA98477D0700003B683F1D2A
:10078000EDE700008907000038683F1D3A683F1D0B
:10079000361F3260361F306004CD08CA984700000B
:1007A000A507000038683F1D00787F2108403F1FE3
:1007B000386004CD08CA9847BD07000039683F1D5E
:1007C000094A9246094B1C68121910780132884276
:1007D00001D00028F9D15446121B1A703F1F38600F
:1007E00004CD08CA98470000980A0010600B00105A
:1007F000F507000039683F1D3A683F1D10784840F2
:10080000107004CD08CA98470D0800000A218842DC
:1008100005D138683F1D0D203F1F386002E00D21D3
:10082000884203D100F02CF900F032F904CD08CA57
:1008300098470000390800003868017801290FD076
:10084000022910D001440A78622A12D0252A10D039
:10085000642A10D0232A0ED0682A0ED0242A0CD065
:1008600004CD08CA984742782E2AEBD104CD08CA95
:100870009847022402E00A2400E0102400220A70B3
:10088000024A146004CD08CA984700005C0B0010AF
:100890009508000038683F1D39683F1D4843C1175F
:1008A000024608463F1F3A603F1F386004CD08CA21
:1008B00098470000B908000038683F1D3B683F1D9D
:1008C0003A683F1D002808D003F0F8F83F1F3A604F
:1008D0003F1F386004CD08CA98474040401E02467A
:1008E0003F1F3A603F1F386004CD08CA9847000098
:1008F000F5080000024A176804CD08CA98470000AE
:100900006C0B001009090000024A166804CD08CAE1
:1009100098470000700B00101D090000024A116882
:100920008C4604CD08CA98475C0B001031090000C2
:10093000024A6146116004CD08CA98475C0B00105A
:100940004509000002CD04CD116004CD08CA9847C6
:100950000A490B480B4C0160001DA042FBD30A481A
:100960000A4C0160001DA042FBD3094F094E0AA5A5
:10097000361F356004CD08CA9847000011111111C7
:1009800000000010400D0010EC0E001000100010D0
:10099000F00F0010700F0010DC050000143A00008A
:1009A000A82700005C2B000034060000FB000000BC
:1009B0008C2A000034060000F70000008C2A00009A
:1009C000E414000008CA9F4603B5024908680130D4
:1009D000086003BDF80A0010464953482041524DB3
:1009E000204C504331313178203332783420524D0D
:1009F0002050726F2056312E372028432932303153
:100A0000342D3230313520412D5445414D20464F53
:100A1000525448203A204175672032382032303114
:100A200035002061742031313A30343A31300020C1
:100A30006F6B2C20676F206669736820696E204297
:100A40004153452000000000844E4F4FD0FFFFFF70
:100A500000000000590A000004CD08CA98470000B1
:100A600087455845435554C5480A0000710A00009F
:100A700000F006F800F00CF804CF08CA9847000010
:100A80007246024C21688909FCD31047148000404B
:100A90007246024913240C70104700000080004089
:100AA0007246024911240C7010470000008000407B
:100AB0008242CCFF600A00002906000020000000EE
:100AC0008255D0FFB00A000029060000780B001004
:100AD0008546454E43C5FFFFC00A000029060000B9
:100AE000840B00108244D0FFD00A000029060000C9
:100AF0007C0B001084424153C5FFFFFFE40A000055
:100B0000290600005C0B00108743555252454ED415
:100B1000F40A000029060000880B00108553544198
:100B200054C5FFFF080B000029060000680B0010E9
:100B3000834F55D41C0B000029060000640B0010E5
:100B40008249CEFF300B000029060000600B001028
:100B5000835041C4400B000029060000380A0010F1
:100B6000835449C2500B000029060000980A001067
:100B700084484552C5FFFFFF600B000001060000DE
:100B8000EC0A0000E81800000C06000085414C4CFF
:100B90004FD4FFFF700B0000010600007806000034
:100BA000241700005C2300005024000044070000CC
:100BB00008000000A0010000EC0A0000C8180000B6
:100BC0000C06000087414C49474E45C48C0B000081
:100BD000D50B000038683F1DC01C034908403F1F6B
:100BE000386004CD08CA9847FCFFFFFF85414C4997
:100BF00047CEFFFFC40B0000010600007C0B000085
:100C0000EC2100003C2300008C17000004170000BA
:100C10007C0B00008407000034060000FF00000089
:100C20006C1600003C19000058070000ECFFFFFFA5
:100C3000D016000034060000FCFFFFFF582500001E
:100C4000EC0A0000201900000C06000081ACFFFF38
:100C5000EC0B0000010600007806000050240000A4
:100C60004407000008000000A0010000C8010000C7
:100C70000C0600008243ACFF4C0C00000106000093
:100C8000780600005024000044070000080000001F
:100C9000A00100007C0B00003C190000CC210000EA
:100CA000B80100000C06000088564152414C4C4FE0
:100CB000D4FFFFFF740C000001060000980600003E
:100CC000FC210000C8220000241700005C23000063
:100CD0005024000044070000180000003406000003
:100CE00037390000C8120000382A0000DC13000069
:100CF000C80A0000E818000068170000FC21000086
:100D00008C220000C80A0000C81800000C06000071
:100D1000864C41544553D4FFA80C00000106000046
:100D2000140B0000E81800000C060000834C46C1BC
:100D3000100D0000390D000038683F1D08383F1FB6
:100D4000386004CD08CA9847834346C12C0D000083
:100D5000550D000038683F1D001F3F1F386004CD4F
:100D600008CA9847834E46C1480D0000010600009E
:100D7000540000005C230000302100008C170000AC
:100D80000419000034060000FF0000005C2300008E
:100D900044070000E4FFFFFF34060000FFFFFFFFF1
:100DA0006C0500000C060000835046C1640D000075
:100DB00001060000CC2100006C0500004C21000061
:100DC0008C1700000419000034060000FF0000002A
:100DD0005C23000044070000E4FFFFFF5400000014
:100DE0003C2300000C060000883F414C49474E451B
:100DF000C4FFFFFFA80D000001060000340600003C
:100E00000300000058250000440700003C000000DB
:100E1000600200002E56414C5545204D555354203C
:100E20004245204556454E204E4F54204F444420C5
:100E3000414E44204D554C5449504C45204F46207E
:100E4000342120FFDC1300000C060000863F4552D1
:100E5000524FD2FFE80D00000106000068170000A5
:100E60004407000010000000C0100000340700001C
:100E700008000000501700000C0600008544494798
:100E800049D4FFFF4C0E00008D0E00003A683F1D54
:100E900038683F1D30380FD4092802DDC01F0A28EA
:100EA0000ADB904208DA024601203F1F3A603F1FEA
:100EB000386004CD08CA984700203F1F386004CD31
:100EC00008CA984787454E434C4F53C57C0E0000D7
:100ED000D50E000038683F1D39680022521E491E99
:100EE000491C521C0B789842FAD03F1F3A60002BE5
:100EF00008D11846521C3F1F3A603F1F386004CD8E
:100F000008CA9847491C521C0B78984201D0002B04
:100F1000F8D11046401C3F1F3A603F1F386004CD97
:100F200008CA9847C180FFFFC40E0000310F0000BF
:100F30003568361D04CD08CA9847000084574F52C3
:100F4000C4FFFFFF240F000001060000680B000033
:100F5000480B0000E81800003C2300006817000060
:100F6000D00E0000480B0000C81800002417000035
:100F70005C23000004170000EC1600007C0B00004E
:100F80003C1900003C2300007C0B00004C210000B9
:100F9000EC1600002C180000BC2100007C0B0000A7
:100FA0004C210000D01600003C2300003C1900003A
:100FB0000C060000864E554D4245D2FF3C0F000006
:100FC000010600001809000034080000BC210000E0
:100FD000BC210000401600008C1700004C210000CE
:100FE00004190000340600002D0000007C230000DE
:100FF000CC210000582500008C17000004170000C9
:101000003C23000034060000FFFFFFFF2C200000FF
:1010100020190000AC0200008C1700000419000029
:10102000BC2100005C230000440700006C000000AD
:101030008C17000004190000340600002E00000088
:101040005C23000044070000440000008C170000EF
:1010500004190000340600002C0000007C2300006E
:10106000440700001400000034060000FFFFFFFFEB
:101070003407000098FFFFFF2C090000CC2100007E
:10108000340600007B390000580E0000BC2100002F
:101090003407000078FFFFFF50170000D016000053
:1010A0004407000008000000042000002C09000094
:1010B0000C060000854552524FD2FFFFB40F0000CE
:1010C000010600007C0B0000A4120000382A00007A
:1010D000C8120000382A00001C290000280B00005C
:1010E000E81800004407000040000000F40400007D
:1010F000E81800004407000030000000F40400007D
:10110000E8180000B00D0000340D0000E8180000E1
:10111000140B000020190000F4040000E81800007F
:10112000EC0A000020190000E0040000DC130000BD
:10113000C1A7FFFFB410000001060000300300004B
:101140002C240000340600006D390000580E000009
:1011500050170000241A00000C0600008645585065
:101160004543D4FF30110000010600004C2100006F
:10117000241700003C230000241700004C2100002D
:101180003829000084070000CC2A0000080800006D
:101190008C17000034060000090000007C230000CA
:1011A000440700000C00000050170000B80A0000BF
:1011B0008C170000540000007C230000241700005E
:1011C000340600007F0000007C230000782500002A
:1011D0004407000050000000501700008C1700006A
:1011E0006C160000302100007C2300008C170000EA
:1011F000D0160000DC2100005C2300003C2300002E
:101200000417000044070000100000004000000028
:1012100034070000600000005C000000340700009C
:10122000540000008C170000340600000D00000080
:101230007C230000440700001C000000B8160000DA
:1012400050170000B80A0000BC210000340700005D
:10125000080000008C1700006C1600003C1900000C
:10126000BC2100006C1600004C2100003C1900005D
:101270008C2A00005807000010FFFFFF1C29000007
:101280004C210000C8120000681700003021000047
:101290003C1900000C06000085434F554ED4FFFF5B
:1012A0005C110000010600008C1700004C210000BA
:1012B00068170000041900000C06000084244C4547
:1012C000CEFFFFFF98120000CD1200003A684040A8
:1012D000115C094301D0401CFAE73F1F386004CD80
:1012E00008CA984786464F524745D4FFBC120000B3
:1012F00001060000381100008C17000034060000C1
:1013000000400000AC23000034060000DE3800007E
:10131000580E00008C17000034060000008000000A
:10132000AC23000034060000FB380000580E00001B
:101330008C170000340D0000041700001C0D000085
:10134000B00D0000340D00008C170000E8180000FC
:10135000140B0000201900008C17000084210000ED
:10136000E8180000340600001D0600007C23000081
:10137000440700001400000034060000FCFFFFFFDB
:10138000C80A0000C8180000EC1600007C2300000A
:1013900044070000A8FFFFFFD0160000E818000077
:1013A000140B0000201900006C0D0000EC0A000076
:1013B00020190000743300004C3300000C060000BC
:1013C000834259C5E4120000CD130000FFF7C0FAB4
:1013D0008541424F52D4FFFFC013000001060000B8
:1013E000F0080000040900004009000000000000AF
:1013F000640B001034060000903800001C0D000043
:10140000B80600004407000010000000501700005C
:10141000500D00006C0A000034060000900B001014
:10142000E8180000440700006C00000034060000CB
:1014300098140000C8120000382A0000FC2A00009E
:1014400044070000F8FFFFFFCC2A0000340600002C
:10145000430000007C23000044070000E0FFFFFF82
:10146000CC2A0000340600004F0000007C2300005E
:1014700044070000C8FFFFFFCC2A0000340600002C
:101480000D0000007C23000044070000B0FFFFFFB8
:101490005C2B000054040000204572726F722048DB
:1014A000616C74202845484F4E2F45484F464629C9
:1014B000202D20546F20434F6E74696E7565205443
:1014C00079706520434F207468656E20456E7465A1
:1014D000723A20005404000084434F4CC4FFFFFFC5
:1014E000D0130000010600005C0500002C05000080
:1014F00054040000900D0A464953482053797374F0
:10150000656D3A0D8AFFFFFFD8140000832E53C883
:10151000F414000001060000340600001000000072
:10152000880000000C060000832E53C40C15000038
:1015300001060000340600000A00000088000000D8
:101540000C060000832E53C228150000010600007F
:10155000DC210000880000000C060000822ED3FF72
:10156000441500000106000080010000E81800009A
:1015700084160000842100007C2300002C2400003D
:1015800044070000680000006002000005544F534B
:101590003E20FFFF80010000E818000084160000D4
:1015A00084210000840700006C160000E818000089
:1015B000000B0000E8180000340600000A000000DC
:1015C0007C23000044070000100000000C01000014
:1015D00034070000080000002401000094290000E6
:1015E000FC21000078070000C0FFFFFF0C06000090
:1015F00084324455D0FFFFFF5C1500000116000047
:1016000038687A683F1F3A603F1F386004CD08CAC7
:1016100098470000842D4455D0FFFFFFF0150000CF
:10162000010600008C1700004407000008000000BD
:101630008C1700000C06000083524FD414160000D3
:10164000451600003A683F1D39683F1D38683F1D48
:101650003F1F39603F1F3A603F1F386004CD08CA02
:101660009847000081C9FFFF38160000711600007E
:1016700030683F1F386004CD08CA9847835350C074
:10168000641600008916000038463F1F386004CDFC
:1016900008CA9847835250C07C160000A11600006B
:1016A00030463F1F386004CD08CA9847854C4541F5
:1016B00056C5FFFF94160000BD1600003268726028
:1016C00004CD08CA984700008252BEFFAC16000045
:1016D000D51600003068361D3F1F386004CD08CA9B
:1016E0009847000081D2FFFFC8160000F1160000E5
:1016F00030683F1F386004CD08CA9847823ED2FF49
:10170000E41600000917000039683F1D361F3160DC
:1017100004CD08CA98470000844F5645D2FFFFFF0A
:10172000FC160000291700003A683F1D38683F1D6D
:101730003F1F38603F1F3A603F1F386004CD08CA22
:10174000984700008444524FD0FFFFFF1817000055
:10175000551700003F1D04CD08CA984784535741D0
:10176000D0FFFFFF441700006D1700003A683F1DCF
:1017700038683F1D3F1F3A603F1F386004CD08CADC
:1017800098470000834455D05C1700009117000073
:1017900038683F1F386004CD08CA9847900D0A5337
:1017A0007461636B2053747566663A0D8AFFFFFFA0
:1017B0008417000087414E44424954D39C170000CF
:1017C000C517000004CF39683F1D08681040086045
:1017D00004CD08CA9847000087534554424954D362
:1017E000B4170000E917000004CF39683F1D0868EE
:1017F0001043086004CD08CA9847000087434C5244
:10180000424954D3D81700000D18000004CF39689E
:101810003F1D08689043086004CD08CA984700003F
:1018200085434D4F56C5FFFFFC17000031180000DF
:1018300039683F1D3A683F1D3B683F1D002907D0AE
:1018400018781070491E002902D0521C5B1CF7D179
:1018500004CD08CA984700008446494CCCFFFFFFDE
:10186000201800006918000038683F1D39683F1DC6
:101870003A683F1D002904D08B181070521C9A4200
:10188000FBD104CD08CA98478545524153C5FFFF97
:101890005818000001060000BC2100006418000078
:1018A0000C06000086424C414E4BD3FF88180000C6
:1018B00001060000B80A0000641800000C060000D1
:1018C000822BA1FFA4180000CD18000039683F1D2D
:1018D00038683F1D0A688018086004CD08CA984718
:1018E00081C0FFFFC0180000ED18000039683F1DDF
:1018F00008683F1F386004CD08CA98478243C0FF7C
:10190000E01800000919000039683F1D08783F1FE2
:10191000386004CD08CA984781A1FFFFFC18000079
:101920002519000038683F1D39683F1D016004CD4E
:1019300008CA98478243A1FF181900004119000006
:1019400038683F1D39683F1D017004CD08CA9847AB
:101950009F0D0A5265616420616E6420577269743C
:1019600065204D656D6F727920576974683A0D8AEC
:101970003419000081DDFFFF50190000010600004E
:1019800040090000C0000000680B00100C060000B9
:10199000C1DBFFFF741900000106000040090000D0
:1019A00000000000680B00100C060000C95B434FEC
:1019B0004D50494C45DDFFFF901900000106000025
:1019C000300300002C24000034060000933900008E
:1019D000580E000050170000500D0000540C00007D
:1019E0000C060000C8444C4954455241CCFFFFFF4F
:1019F000AC19000001060000280B0000E8180000E8
:101A0000440700001000000068170000241A0000BE
:101A1000241A00000C060000C74C4954455241CC22
:101A2000E419000001060000280B0000E81800007F
:101A300044070000100000004C03000034060000C2
:101A4000540C00000C0600008223BEFF181A000090
:101A50000106000050170000501700009801000018
:101A6000E8180000580B0000241700005C23000059
:101A70000C06000084484F4CC4FFFFFF481A0000CA
:101A80000106000034060000FFFFFFFF9801000080
:101A9000C818000098010000E81800003C19000078
:101AA0000C06000084534947CEFFFFFF741A000064
:101AB000010600004016000050240000440700000A
:101AC00010000000340600002D000000801A000005
:101AD0000C0600008223D3FFA41A000001060000B8
:101AE000081B0000241700002417000078250000C0
:101AF0002C24000044070000E8FFFFFF0C06000054
:101B000081A3FFFFD41A000001060000000B0000B3
:101B1000E81800006C0300004016000034060000C6
:101B20000900000024170000AC2300004407000057
:101B30001000000034060000070000003C230000F5
:101B400034060000300000003C230000801A000032
:101B50000C060000823CA3FF001B000001060000F1
:101B600040090000380A00109C0B00100C06000011
:101B700085444F4553BEFFFF541B00000106000083
:101B8000D01600001C0D0000B00D00008C170000E6
:101B9000500D0000340600006306000068170000C6
:101BA00020190000201900000C060000873C425557
:101BB000494C44D3701B000001060000F81D0000D2
:101BC0000C060000C52B4C4F4FD0FFFFAC1B000094
:101BD00001060000EC210000200200004C03000080
:101BE00078070000CC0400000C060000C44C4F4FE6
:101BF000D0FFFFFFC41B000001060000EC21000025
:101C0000200200004C03000058070000CC04000034
:101C10000C060000C244CFFFEC1B000001060000D0
:101C20004C030000840700007C0B0000EC21000046
:101C30000C060000C5454E4449C6FFFF141C0000B9
:101C400001060000E4010000DC2100002002000089
:101C50007C0B0000241700005C23000068170000C4
:101C6000201900000C060000C4544845CEFFFFFFB9
:101C7000341C000001060000401C00000C0600009F
:101C8000C4454C53C5FFFFFF681C0000010600005F
:101C9000DC210000200200004C030000340700009B
:101CA0007C0B0000BC210000540C000068170000F1
:101CB000DC210000401C0000DC2100000C060000BC
:101CC000C249C6FF801C0000010600004C03000052
:101CD000440700007C0B0000BC210000540C0000F5
:101CE000DC2100000C060000C5554E5449CCFFFF16
:101CF000C01C000001060000CC21000020020000F2
:101D00004C03000044070000CC0400000C06000057
:101D1000C541474149CEFFFFE81C00000106000015
:101D2000CC210000200200004C030000340700001A
:101D3000CC0400000C060000C65245504541D4FFBB
:101D4000101D000001060000041700000417000029
:101D50001C1D0000D0160000D0160000DC21000081
:101D60005C230000401C00000C060000C5574849D9
:101D70004CC5FFFF381D000001060000C81C000014
:101D8000682100000C060000C542454749CEFFFF10
:101D90006C1D000001060000E40100007C0B000047
:101DA000CC2100000C060000970D0A496E7369648F
:101DB0006520436F6C6F6E20574F5244533A0D8A23
:101DC000881D000089494D4D4544494154C5FFFFD8
:101DD000A81D0000010600001C0D000034060000D4
:101DE00040000000F00700000C060000864352454A
:101DF0004154C5FFC41D0000010600007806000024
:101E0000340600000F0000005C2300005024000096
:101E10004407000008000000A0010000300300009B
:101E20004407000024000000501700006C0D000063
:101E3000AC2900003406000057390000C812000029
:101E4000382A0000DC1300007C0B00008C17000017
:101E5000F4040000201900008C1700000419000091
:101E6000340600001F00000008250000B801000033
:101E70008C1700003406000080000000F00700000E
:101E80007C0B00003406000080000000F00700001A
:101E9000CC210000EC0A0000C81800001C0D000056
:101EA000540C0000140B0000201900004C0300002B
:101EB000290600007C0B000084210000540C000067
:101EC0000C06000088434F4E5354414ED4FFFFFF91
:101ED000EC1D000001060000E81E00000C060000DA
:101EE00083434FCEC41E000001060000F81D000011
:101EF00034060000FCFFFFFFEC0A0000C8180000D9
:101F0000540C0000E00400000C060000885641520A
:101F10004941424CC5FFFFFFE01E000001060000E2
:101F2000301F00000C060000835641D20C1F000039
:101F300001060000F81D000034060000F8FFFFFF56
:101F4000EC0A0000C81800004C0300001D06000049
:101F5000CC210000B80C0000540C0000E00400008C
:101F60000C060000C1BBFFFF281F00000106000097
:101F7000AC0300004C0300000C06000098190000A0
:101F8000E00400000C060000C1BAFFFF641F00005F
:101F9000010600000402000098030000F81D000084
:101FA0007C19000034060000F8FFFFFFEC0A000077
:101FB000C81800004C030000010600000C060000D9
:101FC000960D0A43524541544520574F52445320E1
:101FD000576974683A0D8AFF881F000084444142A3
:101FE000D3FFFFFFC01F0000010600008C17000098
:101FF000140500000C06000087444E45474154C5B7
:10200000DC1F00000920000038683F1D3A683F1DB2
:10201000C043D243521C3F1F3A603F1F386004CD7B
:1020200008CA9847834450CCF81F000029060000D6
:10203000980B001083442ED22420000001060000DB
:10204000041700006817000024170000E81F0000B4
:102050005C1B0000DC1A0000B01A0000501A0000DF
:10206000D0160000241700005C230000582900004F
:10207000382A00000C0600008244AEFF3420000025
:1020800001060000BC2100003C2000009429000053
:102090000C0600008244ABFF78200000A120000065
:1020A00038683F1D39683F1D3B683F1D3A683F1D3A
:1020B000521858413F1F3A603F1F386004CD08CA8C
:1020C0009847000084532D3EC4FFFFFF942000007A
:1020D000D52000003A683F1D4040124300D5401E05
:1020E0003F1F3A603F1F386004CD08CA9847000080
:1020F0008232AAFFC4200000FD20000038683F1D86
:1021000040003F1F386004CD08CA98478232AFFFB5
:10211000F02000001921000038683F1D40103F1FCB
:10212000386004CD08CA98478231ADFF0C21000009
:102130003521000038683F1D401E3F1F386004CD28
:1021400008CA98478231ABFF2821000051210000C6
:1021500038683F1D401C3F1F386004CD08CA9847AF
:102160008232ABFF442100006D21000038683F1D22
:10217000801C3F1F386004CD08CA98478234ABFFEB
:10218000602100008921000038683F1D001D3F1FAD
:10219000386004CD08CA98478234ADFF7C21000026
:1021A000A521000038683F1D001F3F1F386004CD87
:1021B00008CA984781B0FFFF982100002906000057
:1021C0000000000081B1FFFFB421000029060000DB
:1021D0000100000081B2FFFFC421000029060000B9
:1021E0000200000081B3FFFFD42100002906000097
:1021F0000300000081B4FFFFE42100002906000075
:1022000004000000824DAAFFF42100000106000036
:10221000FC150000B425000004170000F0240000A5
:1022200068170000F024000090080000D01600009D
:10223000140500000C060000824DAFFF04220000D0
:102240000106000024170000041700000417000016
:10225000E81F0000EC160000F0240000B4080000A5
:10226000D0160000EC160000B4250000FC040000AD
:1022700068170000D0160000FC040000681700007A
:102280000C06000081AAFFFF3822000001060000B2
:102290000C220000501700000C060000842F4D4F48
:1022A000C4FFFFFF842200000106000004170000A5
:1022B000D0200000D0160000402200000C060000D4
:1022C00081AFFFFF9C22000001060000A822000051
:1022D00068170000501700000C060000834D4FC423
:1022E000C022000001060000A822000050170000D4
:1022F0000C060000852A2F4D4FC4FFFFDC22000092
:1023000001060000041700000C220000D016000097
:10231000402200000C060000822AAFFFF4220000D9
:10232000010600000023000068170000501700009D
:102330000C06000081ABFFFF1823000041230000C2
:1023400038683F1D39683F1D40183F1F386004CD75
:1023500008CA984781ADFFFF3423000061230000C5
:1023600038683F1D39683F1D081A3F1F386004CD8B
:1023700008CA984781BDFFFF542300008123000055
:10238000404039683F1D3A683F1D891A04D03F1FFD
:10239000386004CD08CA984701383F1F386004CD23
:1023A00008CA984781BCFFFF74230000B1230000D6
:1023B0004040013839683F1D3A683F1D914200DCBA
:1023C00040403F1F386004CD08CA98478255BCFF83
:1023D000A423000001060000FC150000B425000045
:1023E00050240000440700001800000050170000AF
:1023F000502400002C240000340700000C000000D2
:102400005C230000502400000C06000081BEFFFF8A
:10241000CC2300000106000068170000AC23000078
:102420000C0600008230BDFF0C24000031240000A7
:10243000404039683F1D002900D1401E3F1F3860D1
:1024400004CD08CA984700008230BCFF2424000055
:102450005524000039683F1D40400138094300D42D
:1024600040403F1F386004CD08CA9847834249CE98
:10247000482400000106000040090000020000009E
:102480005C0B00100C060000834845D86C2400004B
:102490000106000040090000100000005C0B001065
:1024A0000C06000087444543494D41CC8824000078
:1024B00001060000400900000A0000005C0B00104B
:1024C0000C060000864E45474154C5FFA424000079
:1024D000D524000038683F1DC043401C3F1F3860B2
:1024E00004CD08CA98470000834142D3C4240000A9
:1024F000010600008C170000FC0400000C06000020
:10250000834D49CEE824000001060000FC150000C0
:1025100014240000440700000800000068170000B1
:10252000501700000C060000834D41D80025000024
:1025300001060000FC150000AC2300004407000069
:102540000800000068170000501700000C0600008B
:1025500083414EC4282500005D25000038683F1DDA
:1025600039683F1D08403F1F386004CD08CA9847AE
:10257000824FD2FF502500007D25000038683F1DA6
:1025800039683F1D08433F1F386004CD08CA98478B
:10259000834E4FD4702500009D25000038683F1DF4
:1025A000C0433F1F386004CD08CA984783584FD2B4
:1025B00090250000B925000038683F1D39683F1D8F
:1025C00048403F1F386004CD08CA98478453585488
:1025D000C8FFFFFFAC250000DD25000038683F1D67
:1025E00000B23F1F386004CD08CA9847845358543E
:1025F000C2FFFFFFCC250000FD25000038683F1D0D
:1026000040B23F1F386004CD08CA984784524556EF
:10261000D7FFFFFFEC2500001D26000038683F1D96
:1026200000BA3F1F386004CD08CA9847834153D28F
:102630000C260000392600003A683F1D38683F1D0F
:1026400010413F1F386004CD08CA9847834C53D2CD
:102650002C260000592600003A683F1D38683F1DAF
:10266000D0403F1F386004CD08CA9847834C53CCF4
:102670004C260000792600003A683F1D38683F1D4F
:1026800090403F1F386004CD08CA9847822ED2FF81
:102690006C2600000106000004170000D020000096
:1026A000D01600003C2000000C060000832E52D5FE
:1026B0008C2600000106000004170000BC21000069
:1026C0005C1B0000DC1A0000501A00008C17000090
:1026D000D0160000681700005C2300005829000095
:1026E000382A00000C0600008255AEFFAC26000020
:1026F00001060000BC210000802000000C06000044
:1027000081BFFFFFE826000001060000E818000076
:10271000202700000C06000081AEFFFF002700000C
:1027200001060000D0200000802000000C06000000
:10273000822EC2FF1827000001060000DC210000E5
:102740003C0100000C060000822EC8FF302700006C
:102750000106000034060000100000003C010000EB
:102760000C060000822EC4FF48270000010600006E
:10277000340600000A0000003C0100000C060000C6
:10278000910D0A4E554D4245522053747566663A76
:102790000D8AFFFF642700008A55415254305F497B
:1027A0004E49D4FF802700000106000034060000D7
:1027B000400D0010E81800002C2400004407000021
:1027C0001C00000034060000440D0010E818000052
:1027D0000417000034070000100000003406000059
:1027E000802500000417000034060000A4400440C7
:1027F0003406000039000000E41700003406000031
:10280000A8400440CC210000E4170000400900006B
:10281000010000009880044040090000830000008F
:102820000C80004028350000340600001000000035
:10283000C8220000D0160000C822000034060000A4
:1028400000010000A8220000F02800008421000000
:1028500020190000F02800002019000040090000A5
:10286000030000000C800040400900000000000050
:102870000880004040090000070000000880004078
:10288000C8280000501700000C060000864D594271
:102890004155C4FF982700000106000040090000D0
:1028A00000000000400D001034060000440D001030
:1028B000201900000C0600008955415254305F4C2D
:1028C00053D2FFFF8C280000CD2800000349087870
:1028D0003F1F386004CD08CA9847000014800040AC
:1028E0008855415254305F52D8FFFFFFB82800008E
:1028F00029060000008000408855415254305F5442
:10290000D8FFFFFFE02800002906000000800040FB
:1029100084584F46C6FFFFFFF82800002129000019
:10292000FEF7AEF8FEF7B4F804CD08CA98470000E9
:1029300083584FCE102900003D290000FEF7A0F873
:10294000FEF7AEF804CD08CA984700008653504100
:102950004345D3FF3029000001060000BC210000E0
:102960003025000020160000440700001800000079
:10297000BC210000840700009429000058070000D3
:10298000F8FFFFFF0C0600008553504143C5FFFFD1
:102990004C29000001060000B80A00008C2A000043
:1029A0000C060000834944AE88290000010600009F
:1029B000A4120000340600001F000000582500008B
:1029C000382A0000942900000C060000C22EA2FF45
:1029D000A4290000010600003406000022000000C7
:1029E000280B0000E8180000440700002C0000003D
:1029F0004C03000060020000480F00007C0B000048
:102A0000041900004C210000D00B0000B8010000A8
:102A10003407000014000000480F00007C0B000089
:102A2000A4120000382A00000C06000084545950FB
:102A3000C5FFFFFFCC2900000106000020160000A2
:102A400044070000340000001C2900002417000087
:102A50003C23000068170000840700006C1600008B
:102A6000A00700008C2A000058070000F0FFFFFFBD
:102A70003407000008000000501700000C0600009A
:102A800084454D49D4FFFFFF2C2A0000912A000005
:102A900038683F1DFDF7F4FF0449087004490868D1
:102AA000401C086004CD08CA984700000080004020
:102AB000640B0010834B45D9802A000001060000FA
:102AC00038290000CC2A00000C060000D12A0000A2
:102AD000054A064B19684908FCD310683F1F386047
:102AE00004CD08CA984700000080004014800040D0
:102AF000843F4B45D9FFFFFFB42A0000012B0000A3
:102B0000FDF7BEFFFDF7CCFF084B1968490806D357
:102B1000404001383F1F386004CD08CA9847404004
:102B20003F1F386004CD08CA984700001480004059
:102B3000834352D3F02A000001060000BC210000AC
:102B4000840700005C2B000058070000F8FFFFFF1F
:102B50000C0600008243D2FF302B0000010600006B
:102B60004009000000000000640B0010600200003B
:102B7000020D0AFF0C0600008D0D0A46495348203D
:102B8000494F3A0D8AFFFFFF542B00008B495251E9
:102B9000535F524553554DC5782B0000A12B0000C3
:102BA00062B6C04604CD08CA984700008C4952510D
:102BB000535F53555350454EC4FFFFFF8C2B00000D
:102BC000C52B000072B6C04604CD08CA9847000065
:102BD0008F5359535449434B5F4952515F4F46C637
:102BE000AC2B0000E92B000002490520086004CD51
:102BF00008CA984710E000E08E5359535449434B9C
:102C00005F4952515F4FCEFFD02B0000112C0000C6
:102C100002490720086004CD08CA984710E000E088
:102C20008F0D0A494E54455252555054533A0D8A0D
:102C3000F82B00008A464C4153485F534156C5FF6C
:102C4000202C0000010600001C0D00004C34000088
:102C5000AC23000044070000200000005C2B0000B3
:102C6000600200000F4E4F5448494E4720544F20F9
:102C7000534156450C060000502D0000E818000096
:102C800034060000008000007C23000044070000A0
:102C9000280000005C2B000060020000144C41532F
:102CA0005420464C415348205041474520555345F8
:102CB00044FFFFFF0C060000C80A0000E8180000EF
:102CC000602D0000201900001C0D0000682D000080
:102CD000582D0000201900001C0D00004C3400008D
:102CE0007C230000440700005800000098300000DA
:102CF0004C340000EC0A000020190000602D000098
:102D0000E8180000C80A000020190000582D000033
:102D1000E8180000140B0000201900003406000021
:102D200000100000502D0000C8180000D83000002E
:102D30005C2B0000743300004C3300000C060000D4
:102D40001C0D00008C2D0000340700008CFFFFFFDD
:102D500029060000040000102906000008000010E9
:102D6000290600000C0000106D2D000038683F1D82
:102D7000044A1040044A126880183F1F386004CD8E
:102D800008CA9847FF0F0000040000100106000069
:102D9000B00D00008C17000004170000500D00005B
:102DA0008C170000E81800003406000063060000DD
:102DB0007C2300004407000028000000842100005C
:102DC0008C1700008C170000E8180000682D000028
:102DD00068170000201900003407000000010000FF
:102DE0008C170000E81800003406000029060000D7
:102DF0007C23000024170000E818000034060000BF
:102E00001D0600007C230000782500004407000018
:102E1000100000005017000034070000C40000003C
:102E2000842100008C170000E81800003406000020
:102E3000340600007C23000044070000100000005E
:102E40008421000034070000D8FFFFFF8C1700002A
:102E5000E818000034060000600200007C23000037
:102E600044070000200000008C17000084210000AF
:102E7000041900003C230000D00B000034070000C0
:102E8000A0FFFFFF8C170000E818000034060000C8
:102E90000C0600007C2300002C24000044070000E6
:102EA0003C0000008C170000E81800004C340000C3
:102EB000142400004407000068FFFFFF8C17000087
:102EC0008C170000E8180000682D0000681700004B
:102ED000201900003407000048FFFFFF50170000D2
:102EE000D0160000340D00008C170000E818000018
:102EF0008C170000140B000020190000682D000042
:102F000068170000201900000C060000112F0000B7
:102F10000648074932220260064B1A68120B4260CB
:102F20008260054B984704CD08CA9847A00B001053
:102F3000F00B001004000010F11FFF1F412F0000D4
:102F40000748084934220260074B1A68120B426096
:102F50008260064AC260064B984704CD08CA98476B
:102F6000A00B0010F00B00100400001080BB00004C
:102F7000F11FFF1F792F0000084809493322026022
:102F8000084A12684260084A8260084AC260084AD9
:102F90000261084B984704CD08CA9847A00B00105F
:102FA000F00B0010040000100000001000100000E2
:102FB00080BB0000F11FFF1F8C464C4153485F4609
:102FC0004F524745D4FFFFFF342C0000010600009C
:102FD000400900000040000004000010502D0000D7
:102FE000E818000034060000008000007C23000088
:102FF0002C240000440700002C000000C02B00001F
:103000000C2F00003C2F00009C2B00003406000019
:1030100000100000502D0000C81800003407000008
:10302000BCFFFFFF603400001C0D000014240000F2
:103030004407000010000000C03700003407000003
:103040001C00000034060000743800004C340000FE
:10305000B00D0000340D00002019000040090000F0
:10306000004000000400001034060000111111118E
:103070008C170000582D000020190000602D000062
:1030800020190000D83000005C2B000074330000D1
:103090004C3300000C060000010600007C0B000011
:1030A00034060000370A00107C0B00005C2300008F
:1030B00034060000FF00000064180000C02B000070
:1030C0000C2F00003C2F00000C2F0000742F00007C
:1030D0009C2B00000C0600000106000034060000D6
:1030E000004000008C170000502D00002019000047
:1030F0008C17000004170000E818000028350000B5
:103100007C230000440700007C000000EC16000057
:1031100034060000080000003C2300008C1700006B
:10312000E8180000140B00002019000084210000A2
:10313000E8180000C80A0000201900005C2B0000FD
:103140006002000017414444454420574F52445305
:103150002046524F4D205041474520FFEC160000BD
:1031600050270000EC16000034060000001000009C
:103170003C230000502D00002019000034070000FF
:103180000C000000EC160000E0310000EC1600001E
:1031900034060000001000003C2300008C170000E3
:1031A00034060000008000005C230000440700009B
:1031B0002000000050170000D01600003406000068
:1031C000001000003C2300003407000024FFFFFF34
:1031D00050170000D0160000501700000C06000029
:1031E000010600008C1700003406000000100000EB
:1031F0003C230000041700008C170000E8180000B2
:103200004C2100004407000048000000C02B0000D3
:103210000C2F00003C2F00009C2B00005C2B0000BA
:10322000600200001745524153454420424144206A
:10323000464C41534820504147452020502700002C
:1032400050170000D0160000501700000C060000B8
:10325000842100008C1700008C170000EC16000081
:10326000681700005C230000440700000C00000009
:103270003407000088FFFFFF5C2B000060020000A5
:103280000E464C4153482050414745204F4B20FFAC
:103290005017000034060000001000005C230000FE
:1032A00050270000D0160000501700000C06000048
:1032B00084504F46C6FFFFFFB82F000001060000F4
:1032C00040090000000000008C0B00100C060000FC
:1032D00083504FCEB03200000106000040090000CC
:1032E0002F0A00008C0B00100C06000081D0FFFF9D
:1032F000D0320000290600008C0B00108545484F95
:1033000046C6FFFFEC32000001060000BC210000B1
:1033100034060000900B0010201900000C0600007D
:103320008445484FCEFFFFFFFC320000010600003D
:10333000CC21000034060000900B00102019000082
:103340000C060000832E44D3203300000106000049
:10335000780600006C27000034060000AC3800003E
:10336000C8120000382A00000C060000832E56D335
:10337000443300000106000098060000FC21000014
:10338000C82200006C27000034060000A1380000AD
:10339000C8120000382A00000C0600008444554D75
:1033A000D0FFFFFF6C33000001060000241700006F
:1033B000F80D00001809000090240000BC21000056
:1033C000840700005C2B00008C170000340600000E
:1033D0000A000000B4260000FC210000BC2100000F
:1033E000840700008C170000E81800003406000075
:1033F0000E000000B42600008421000058070000E1
:10340000E4FFFFFFFC2A0000440700000800000062
:10341000B816000058070000ACFFFFFF501700006F
:103420005C2B00002C0900000C0600008556424170
:1034300053C5FFFF9C33000029060000FC0A001062
:103440008544424153C5FFFF2C340000290600008B
:10345000100000108552424153C5FFFF4034000068
:10346000290600000000001083434CD354340000B0
:103470000106000060020000041B5B324AFFFFFFF0
:1034800060020000041B5B3B48FFFFFF5C2B000059
:103490000C060000C1A8FFFF683400000106000010
:1034A0003406000029000000B80700002C240000AA
:1034B00044070000280000005C2B00008802000088
:1034C00034060000990A00100419000044070000A7
:1034D0001000000034070000C8FFFFFF0C060000CA
:1034E00034060000BE380000C8120000382A000070
:1034F0000C060000C1DCFFFF943400000106000050
:10350000BC210000680B0000480B0000E818000018
:103510003C2300003C1900000C0600008653595360
:10352000434CCBFFF43400002D35000003490868FC
:103530003F1F386004CD08CA984700000000001003
:103540008553544354D2FFFF1C3500002906000068
:10355000F80A00108544454C41D9FFFF4035000072
:103560006535000039683F1D38683F1D0A4CC0436F
:10357000401C2060094A1160094A1160002806D0E9
:10358000084A10680721116021680029FCD11060E9
:1035900004CD08CA98470000F80A001014E000E0C3
:1035A00018E000E010E000E0824DD3FF5435000049
:1035B00001060000340600007FBB000060350000FB
:1035C0000C06000087574F52444341D4A8350000F1
:1035D000010600007C0B000004170000BC21000065
:1035E0007C0C0000340600000D0000007C0C000084
:1035F0007C0B0000340600000D000000480F0000A6
:103600008C17000004190000340600000A000000B6
:10361000401600003C1900008C1700004C210000EF
:10362000980B000034060000840000003C230000DA
:10363000EC1600003C190000340600000D000000EC
:103640007C0C0000340600008A0000007C0C0000A6
:10365000F80B00001C0D0000540C0000D0160000F8
:1036600034060000880B0010201900000C06000032
:1036700085574F5244D3FFFFC435000001060000B8
:10368000EC210000582900001C0D00001C2900003E
:10369000BC210000241700004C2100000419000088
:1036A000340600000D0000007C2300002C240000E4
:1036B000440700001C000000501700008C17000099
:1036C000B00D0000340D0000241700005C23000042
:1036D000380B0000E81800003C230000340600000E
:1036E0004A000000142400004407000010000000FD
:1036F0005C2B0000EC210000582900008C17000012
:10370000DC0A0000E8180000AC23000044070000B9
:103710000C000000340700005C0000008C17000063
:10372000AC290000DC210000582900008C170000A3
:103730004C21000004190000340600000D000000B8
:103740007C23000044070000100000004009000036
:1037500000000000640B0010B00D0000340D0000EC
:10376000E81800008C1700002C240000440700001B
:1037700020FFFFFF501700005C2B00000C0600002C
:10378000874D59574F5244D3703600000106000050
:103790004009000000400000840B00107C3600004F
:1037A0004009000000000000840B00100C0600001F
:1037B00089464953485F4F4E4CD9FFFF8037000080
:1037C000C53700000749084C2160084C21600849B2
:1037D000084C2160084C21600849094C216004CD47
:1037E00008CA984774380000880B001008000010C1
:1037F000FC0A0010780B00100C00001010000010E4
:103800007C0B001084464953C8FFFFFFB03700000F
:1038100001060000D83000002C050000DC13000079
:10382000990D0A46495348205265666572656E6374
:1038300065204D6F64656C3A0D8AFFFF0438000007
:10384000843E534CC1FFFFFF2038000001060000FA
:10385000F82000003C2300000C060000910D0A46F1
:10386000495348204932432050524F3A0D8AFFFFB6
:1038700040380000950D0A464953482050524F20C9
:10388000574F52445345543A0D8AFFFF5C380000AD
:103890000352554E2000203F2000203C43523E2042
:1038A000005641522043454C4C5320004449435458
:1038B000494F4E415259204259544553200020430C
:1038C0004F4D4D454E54204C494E452043414E4EA0
:1038D0004F5420424520454D505459201500204357
:1038E000414E5420464F52474554204649534820A4
:1038F000494E20464C41534820150020494E204651
:103900004C415348202D2053454520464C415348B7
:103910005F464F52474554201500204449435449BF
:103920004F4E4152592046554C4C202D2053454571
:10393000202E44532015002052414D205641522044
:1039400053504143452046554C4C202D205345456E
:10395000202E565320150020495320414C524541FA
:10396000445920444546494E4544201500203F20F7
:103970004E4F5420574F5244201500203F204E4FA9
:103980005420574F5244204F52204E554D424552DD
:1039900020150020434155534544204120535441B4
:1039A000434B204552524F5220150020535441435F
:1039B0004B204552524F52205748494C45204558BC
:1039C00045435554494E47204F5220434F4D50498F
:1039D0004C494E47201500204552524F52202D2071
:1039E0004E4F5420434F4D50494C494E47201500EF
:1039F000204552524F52202D20455845435554459D
:103A000044205748494C4520434F4D50494C494E5E
:103A100047201500010600004009000007000000D3
:103A200010E000E0400900005F18010080800440C1
:103A30004009000070ED0000388204404009000099
:103A40000000000040800440400900000000000029
:103A5000448004404009000001000000448004400C
:103A60004009000003000000088004403406000004
:103A70000C800440E8180000CC210000582500000C
:103A800044070000E8FFFFFF4009000003000000BA
:103A90007080044040090000000000007480044071
:103AA000400900000100000074800440400900004B
:103AB000006CDC02000000100C060000D0B5040011
:103AC00016001F00300039002200E31700F007F84D
:103AD000300039002200E31700F001F8D0BD30B407
:103AE000DC0F03D05B42524200D25B1E0D106C40D3
:103AF00013D0F446002502D349424042A94100F0C8
:103B00000DF8E40703D35B425242AB41244202D595
:103B100049424042A94130BC604730BC124224D0E7
:103B2000994228D970B500251B4202D00C00002113
:103B300009E00024012649186441944200D3A41AE4
:103B40007641F8D33100012601E0764109D2001810
:103B500064416D41A41A9D41F7D2A4185D41B61984
:103B6000F5D3300022002B0070BD1B42D8D108B520
:103B7000C046C04608BD01D19042D3D202000B001E
:103B8000002100207047000000B5BFF34F8F0348AD
:103B900003490860BFF34F8FFEE700000400FA05F9
:103BA0000CED00E000B5FEE780B5FFF7EDFF01BDCD
:103BB00000B5FEE700B5FEE700B5FEE700B5FEE79D
:103BC00000B5FEE700B5FEE780B5FCF7FDFE01BDE0
:023BD00070473C
:0400000500003BD1EB
:00000001FF
