:10000000C012001051090000A93B0000AD3B0000E8
:10001000B53B0000B93B0000BD3B00006EB9FEEFF0
:10002000000000000000000000000000C13B0000D4
:10003000C53B000000000000C93B0000CD3B0000B4
:10004000010600003406000007000000C82A000076
:100050000C06000029060000080000000106000050
:1000600054000000C82A0000D029000054000000FD
:10007000C82A000034060000FDFFFFFF740B0000DB
:10008000041900000C060000010600001809000019
:100090003C0B00005C190000A01500002C090000BA
:1000A0000C060000010600003C0B000024190000B3
:1000B000C817000018220000B82300004407000001
:1000C000180000003406000062000000C82A00008A
:1000D0008C1700000C060000340600000A00000027
:1000E000B82300004407000014000000340600009C
:1000F00064000000C82A00000C060000340600005E
:1001000068000000C82A00000C060000010600007C
:100110000C210000F821000078200000A40000005D
:100120000C06000001060000F8210000F821000084
:1001300078200000A40000000C060000010600006A
:1001400018090000C81700003C0B00005C190000F3
:10015000340600000A000000B82300004407000035
:10016000100000000C01000034070000080000002F
:1001700024010000D02900002C0900000C0600001A
:1001800029060000E410001029060000E810001005
:10019000290600000C11001029060000141100109F
:1001A00001060000340600000639000004130000B8
:1001B000742A00001814000001060000280B00003B
:1001C000041900000C06000001060000340C0000B9
:1001D000B80B00005C19000038220000B8010000D4
:1001E0000C06000001060000640B0000241900004A
:1001F0006824000034060000C3390000940E00009B
:100200000C06000001060000640B00002419000029
:1002100034060000DC390000940E00000C060000DB
:100220000106000098230000340600009739000002
:10023000940E00000C06000001060000C01600002D
:100240008001000024190000A41700001024000001
:10025000340600007F390000940E00000C060000F8
:10026000010600000C170000C8170000E012000093
:10027000742A0000E0120000782300000C0C00003B
:10028000401700000C06000001060000A40B00004F
:10029000340600005E000000A411000040090000C8
:1002A00001000000D81000100C060000010600003C
:1002B00088210000C8170000401700004019000006
:1002C0003C0B000024190000C40E0000440700008D
:1002D00058000000A41700003C0B00002419000087
:1002E000900800008C1700007C1600003C0B0000FA
:1002F0002419000090080000D820000068200000A9
:1003000024190000882100004407000010000000AC
:100310000822000068200000041900000C170000EB
:10032000340700008CFFFFFF0C1700000C060000D4
:1003300001060000F40A0000840F0000B80B000062
:10034000580D0000B80600000C0600000106000071
:100350000C170000C8170000C02100004017000063
:1003600024190000C80100000C060000010600006E
:1003700040170000F821000028170000B408000012
:100380000C170000A417000040170000B40800007C
:100390000C1700000C06000001060000C01600004B
:1003A000900100005C1900000C060000010600002E
:1003B000C0160000900100002419000098230000DE
:1003C000340600007F390000940E00000C06000087
:1003D0000106000030030000440700003C0000005C
:1003E000640B000024190000E8230000440700000B
:1003F000140000008C0D0000C8010000340700004C
:100400000C0000008C0D0000A80A0000380200005B
:1004100034070000C0FFFFFFB80B0000FC0F000016
:100420006820000024190000882100004407000013
:1004300010000000301A0000340700000C0000001B
:100440008C170000601A000038020000340700001A
:1004500084FFFFFF01060000D4190000F00800002F
:100460000409000088020000D0030000640B0000B3
:100470002419000068240000440700003800000030
:100480003406000004110010241900004407000085
:10049000240000003406000004110010241900009C
:1004A00004130000742A00003C0B00002419000013
:1004B000A82700003406000010000000C82A000031
:1004C000982B00003407000098FFFFFF0106000092
:1004D000B80B000098230000900C00000C060000F0
:1004E000010600004009000000000000F8100010A4
:1004F0000C06000029060000F8100010010600009C
:100500008C24000044070000080000000C250000B7
:100510000C060000010600008C24000044070000C7
:1005200008000000402000000C060000010600004A
:10053000982B000034060000040A00000413000099
:10054000742A0000340600005F0A00000413000053
:10055000742A0000982B00000C0600000106000021
:10056000DC050000143100000C060000010600004C
:10057000A417000060170000782300003406000074
:100580007F0000006017000040190000E823000011
:1005900044070000E0FFFFFFA41700008C170000D5
:1005A0000C0600000A00000001000000000000002E
:1005B00000000000F01F0010701F0010101000104D
:1005C0007410001010000010000000000000000077
:1005D0005C3800006C0A000000000000E10500002B
:1005E000054806490E2203680B6004300431013AC5
:1005F000F9D104CD08CA9847A4050000D410001012
:10060000361F3560154604CD08CA9847110600000C
:100610003568361D04CD08CA9847000001CA3F1F3F
:10062000386004CD08CA984701CA3F1F386004CD1E
:1006300008CA98473906000001CD3F1F386004CD35
:1006400008CA98474906000001CD3F1F386004CD15
:1006500008CA9847590600003D683F1D04CD08CAE6
:1006600098470000361F3560456808303F1F3860E6
:1006700004CD08CA984700007D06000004480549DB
:100680000968401A3F1F386004CD08CA9847000027
:10069000B00F0010F41000109D060000044805493A
:1006A0000968401A3F1F386004CD08CA9847000007
:1006B000D4100010F0100010BD0600003B683F1D74
:1006C0003A683F1D93465A46187884461178484048
:1006D0003F24204019D1521C5B1C187811788842A5
:1006E000F9D08024001B884210D15B1C1878FF28A9
:1006F000FBD008333F1F3B60012062463F1F3A603A
:100700003F1F386004CD08CA98475B1C18788024C6
:100710002042FAD01B1D064803401B68002B00D066
:10072000D1E700203F1F386004CD08CA9847000079
:10073000FCFFFFFF390700002B68ED1804CD08CA45
:10074000984700004907000038683F1D0028F3D093
:100750002D1D04CD08CA98475D0700000123746869
:100760003268944203D0D2183260A41AE4D1083619
:100770002D1D04CD08CA98477D0700003B683F1D2A
:10078000EDE700008907000038683F1D3A683F1D0B
:10079000361F3260361F306004CD08CA984700000B
:1007A000A507000038683F1D00787F2108403F1FE3
:1007B000386004CD08CA9847BD07000039683F1D5E
:1007C000094A9246094B1C68121910780132884276
:1007D00001D00028F9D15446121B1A703F1F38600F
:1007E00004CD08CA9847000010100010D81000105F
:1007F000F507000039683F1D3A683F1D10784840F2
:10080000107004CD08CA98470D0800000A218842DC
:1008100005D138683F1D0D203F1F386002E00D21D3
:10082000884203D100F04AF900F050F904CD08CA1B
:1008300098470000390800003868017801290FD076
:10084000022910D001440A78622A12D0252A10D039
:10085000642A10D0232A0ED0682A0ED0242A0CD065
:1008600004CD08CA984742782E2AEBD104CD08CA95
:100870009847022402E00A2400E0102400220A70B3
:10088000024A146004CD08CA98470000D410001032
:100890009508000038683F1D39683F1D4843C1175F
:1008A000024608463F1F3A603F1F386004CD08CA21
:1008B00098470000B908000038683F1D3B683F1D9D
:1008C0003A683F1D002808D003F0FAF83F1F3A604D
:1008D0003F1F386004CD08CA98474040401E02467A
:1008E0003F1F3A603F1F386004CD08CA9847000098
:1008F000F5080000024A176804CD08CA98470000AE
:10090000E410001009090000024A166804CD08CA64
:1009100098470000E81000101D090000024A116805
:100920008C4604CD08CA9847D41000103109000045
:10093000024A6146116004CD08CA9847D4100010DD
:100940004509000002CD04CD116004CD08CA9847C6
:100950000A490B480B4C0160001DA042FBD30A481A
:100960000A4C0160001DA042FBD3094F094E0AA5A5
:10097000361F356004CD08CA9847000011111111C7
:100980000000001000130010EC1E001000200010EA
:10099000F01F0010701F0010DC050000003A00007E
:1009A000E4270000982B000034060000FB00000044
:1009B000C82A000034060000F7000000C82A000022
:1009C0002015000008CA9F463FB55046594662466A
:1009D00007B4014A08CA9847F0090000E10900007D
:1009E0003568361D07BC82468B4694463FBD0000E5
:1009F00001060000082200008835000004190000EC
:100A0000DC090000464953482041524D2048692DD9
:100A10004C6576656C2049535220546573742121CE
:100A200021204C5043313131352036347838205232
:100A30004D2056312E3720284329323031342D3283
:100A400030313520412D5445414D20464F525448B8
:100A5000203A205365702020342032303135002078
:100A600061742031363A34373A303100206F6B2CC4
:100A700020676F206669736820696E204241534584
:100A800020000000844E4F4FD0FFFFFF0000000009
:100A9000950A000004CD08CA9847000087455845CC
:100AA000435554C5840A0000AD0A000000F006F862
:100AB00000F00CF804CF08CA984700007246024CB8
:100AC00021688909FCD3104714800040724602490E
:100AD00013240C7010470000008000407246024949
:100AE00011240C7010470000008000408242CCFFAF
:100AF0009C0A000029060000200000008255D0FF5B
:100B0000EC0A000029060000F01000108546454E52
:100B100043C5FFFFFC0A000029060000FC1000107E
:100B20008244D0FF0C0B000029060000F4100010D6
:100B300084424153C5FFFFFF200B0000290600003F
:100B4000D41000108743555252454ED4300B00004C
:100B500029060000001100108553544154C5FFFFC1
:100B6000440B000029060000E0100010834F55D40C
:100B7000580B000029060000DC1000108249CEFF4F
:100B80006C0B000029060000D8100010835041C4EF
:100B90007C0B000029060000B00F0010835449C2EE
:100BA0008C0B0000290600001010001084484552EC
:100BB000C5FFFFFF9C0B000001060000280B000092
:100BC000241900000C06000085414C4C4FD4FFFF57
:100BD000AC0B000001060000780600006017000062
:100BE000982300008C240000440700000800000047
:100BF000A0010000280B0000041900000C060000F2
:100C000087414C49474E45C4C80B0000110C0000F9
:100C100038683F1DC01C034908403F1F386004CDA1
:100C200008CA9847FCFFFFFF85414C4947CEFFFFAC
:100C3000000C000001060000B80B00002822000094
:100C400078230000C817000040170000B80B000010
:100C50008407000034060000FF000000A816000012
:100C60007819000058070000ECFFFFFF0C17000088
:100C700034060000FCFFFFFF94250000280B000055
:100C80005C1900000C06000081ACFFFF280C00007E
:100C900001060000780600008C24000044070000D4
:100CA00008000000A0010000C80100000C060000C0
:100CB0008243ACFF880C00000106000078060000AB
:100CC0008C2400004407000008000000A001000080
:100CD000B80B00007819000008220000B8010000DD
:100CE0000C06000088564152414C4C4FD4FFFFFF88
:100CF000B00C000001060000980600003822000039
:100D00000423000060170000982300008C240000DA
:100D100044070000180000003406000023390000DA
:100D200004130000742A000018140000040B0000D3
:100D300024190000A417000038220000C822000077
:100D4000040B0000041900000C060000864C4154FE
:100D50004553D4FFE40C000001060000500B0000D6
:100D6000241900000C060000834C46C14C0D000005
:100D7000750D000038683F1D08383F1F386004CDEE
:100D800008CA9847834346C1680D0000910D0000D2
:100D900038683F1D001F3F1F386004CD08CA9847C0
:100DA000834E46C1840D000001060000540000007F
:100DB000982300006C210000C817000040190000B3
:100DC00034060000FF0000009823000044070000E4
:100DD000E4FFFFFF34060000FFFFFFFF6C0500008B
:100DE0000C060000835046C1A00D00000106000063
:100DF000082200006C05000088210000C8170000D0
:100E00004019000034060000FF0000009823000095
:100E100044070000E4FFFFFF5400000078230000B7
:100E20000C060000883F414C49474E45C4FFFFFF78
:100E3000E40D00000106000034060000030000007D
:100E400094250000440700003C0000006002000000
:100E50002E56414C5545204D555354204245204572
:100E600056454E204E4F54204F444420414E44207E
:100E70004D554C5449504C45204F4620342120FFBD
:100E8000181400000C060000863F4552524FD2FF56
:100E9000240E000001060000A41700004407000013
:100EA00010000000FC1000003407000008000000E3
:100EB0008C1700000C0600008544494749D4FFFF09
:100EC000880E0000C90E00003A683F1D38683F1DBB
:100ED00030380FD4092802DDC01F0A280ADB9042EF
:100EE00008DA024601203F1F3A603F1F386004CDF8
:100EF00008CA984700203F1F386004CD08CA9847A9
:100F000087454E434C4F53C5B80E0000110F0000EB
:100F100038683F1D39680022521E491E491C521C68
:100F20000B789842FAD03F1F3A60002B08D1184640
:100F3000521C3F1F3A603F1F386004CD08CA9847D3
:100F4000491C521C0B78984201D0002BF8D1104656
:100F5000401C3F1F3A603F1F386004CD08CA9847C5
:100F6000C180FFFF000F00006D0F00003568361DC7
:100F700004CD08CA9847000084574F52C4FFFFFFB2
:100F8000600F000001060000A40B0000840B0000AD
:100F90002419000078230000A41700000C0F0000A3
:100FA000840B000004190000601700009823000063
:100FB0004017000028170000B80B00007819000047
:100FC00078230000B80B00008821000028170000DB
:100FD00068180000F8210000B80B0000882100000C
:100FE0000C17000078230000781900000C060000A0
:100FF000864E554D4245D2FF780F00000106000095
:101000001809000034080000F8210000F821000051
:101010007C160000C817000088210000401900005D
:10102000340600002D000000B82300000822000054
:1010300094250000C8170000401700007823000026
:1010400034060000FFFFFFFF682000005C1900006D
:10105000AC020000C817000040190000F821000091
:1010600098230000440700006C000000C81700002F
:1010700040190000340600002E00000098230000F4
:101080004407000044000000C81700004019000099
:10109000340600002C000000B823000044070000C4
:1010A0001400000034060000FFFFFFFF34070000BB
:1010B00098FFFFFF2C090000082200003406000002
:1010C00067390000940E0000F8210000340700008A
:1010D00078FFFFFF8C1700000C170000440700008A
:1010E00008000000402000002C0900000C06000051
:1010F000854552524FD2FFFFF00F0000010600005D
:10110000B80B0000E0120000742A00000413000075
:10111000742A000058290000640B00002419000004
:101120004407000040000000F404000024190000FF
:101130004407000030000000F404000024190000FF
:10114000EC0D0000700D000024190000500B000091
:101150005C190000F404000024190000280B0000B2
:101160005C190000E004000018140000C1A7FFFF94
:10117000F0100000010600003003000068240000A9
:101180003406000059390000940E00008C1700004E
:10119000601A00000C060000864558504543D4FFF5
:1011A0006C1100000106000088210000601700009B
:1011B00078230000601700008821000074290000D7
:1011C00084070000082B000008080000C817000072
:1011D0003406000009000000B823000044070000A6
:1011E0000C0000008C170000F40A0000C817000073
:1011F00054000000B823000060170000340600000F
:101200007F000000B8230000B42500004407000060
:10121000500000008C170000C8170000A81600003E
:101220006C210000B8230000C81700000C17000054
:1012300018220000982300007823000040170000C7
:1012400044070000100000004000000034070000C8
:10125000600000005C000000340700005400000043
:10126000C8170000340600000D000000B82300007D
:10127000440700001C000000F41600008C1700005A
:10128000F40A0000F8210000340700000800000004
:10129000C8170000A816000078190000F821000007
:1012A000A81600008821000078190000C82A000054
:1012B0005807000010FFFFFF582900008821000098
:1012C00004130000A41700006C210000781900002E
:1012D0000C06000085434F554ED4FFFF98110000C7
:1012E00001060000C817000088210000A4170000B4
:1012F000401900000C06000084244C45CEFFFFFF7F
:10130000D4120000091300003A684040115C094300
:1013100001D0401CFAE73F1F386004CD08CA984747
:1013200086464F524745D4FFF812000001060000E0
:1013300074110000C81700003406000000400000CF
:10134000E823000034060000CA380000940E0000B4
:10135000C81700003406000000000100E823000068
:1013600034060000E7380000940E0000C8170000A3
:10137000700D000040170000580D0000EC0D00003B
:10138000700D0000C817000024190000500B000069
:101390005C190000C8170000C021000024190000DB
:1013A000340600001D060000B823000044070000BA
:1013B0001400000034060000FCFFFFFF040B0000D7
:1013C0000419000028170000B8230000440700009B
:1013D000A8FFFFFF0C17000024190000500B0000AD
:1013E0005C190000A80D0000280B00005C1900002B
:1013F000B0330000883300000C060000834259C55A
:101400002013000009140000FFF7A2FA8541424FA3
:1014100052D4FFFFFC13000001060000F00800009A
:10142000040900004009000000000000DC1000106A
:10143000340600007C380000580D0000B80600009B
:1014400044070000100000008C1700008C0D000005
:10145000A80A00003406000008110010241900003A
:10146000440700006C00000034060000D4140000A3
:1014700004130000742A0000382B00004407000009
:10148000F8FFFFFF082B00003406000043000000B7
:10149000B823000044070000E0FFFFFF082B000016
:1014A000340600004F000000B8230000440700008D
:1014B000C8FFFFFF082B0000340600000D000000ED
:1014C000B823000044070000B0FFFFFF982B000086
:1014D00054040000204572726F722048616C7420C1
:1014E0002845484F4E2F45484F464629202D205429
:1014F0006F20434F6E74696E756520547970652056
:10150000434F207468656E20456E7465723A200002
:101510005404000084434F4CC4FFFFFF0C14000030
:10152000010600005C0500002C05000054040000CA
:10153000900D0A464953482053797374656D3A0DEE
:101540008AFFFFFF14150000832E53C830150000DA
:1015500001060000340600001000000088000000B2
:101560000C060000832E53C448150000010600003D
:10157000340600000A000000880000000C0600008D
:10158000832E53C2641500000106000018220000DB
:10159000880000000C060000822ED3FF801500009A
:1015A000010600008001000024190000C0160000A0
:1015B000C0210000B8230000682400004407000098
:1015C000680000006002000005544F533E20FFFFFA
:1015D0008001000024190000C0160000C021000096
:1015E00084070000A8160000241900003C0B00002E
:1015F00024190000340600000A000000B82300008F
:1016000044070000100000000C0100003407000037
:101610000800000024010000D0290000382200004A
:1016200078070000C0FFFFFF0C060000843244551D
:10163000D0FFFFFF981500003D16000038687A685B
:101640003F1F3A603F1F386004CD08CA984700002A
:10165000842D4455D0FFFFFF2C160000010600002A
:10166000C81700004407000008000000C817000069
:101670000C06000083524FD4501600008116000063
:101680003A683F1D39683F1D38683F1D3F1F39606C
:101690003F1F3A603F1F386004CD08CA98470000DA
:1016A00081C9FFFF74160000AD16000030683F1FAF
:1016B000386004CD08CA9847835350C0A016000074
:1016C000C516000038463F1F386004CD08CA984749
:1016D000835250C0B8160000DD16000030463F1F90
:1016E000386004CD08CA9847854C454156C5FFFF70
:1016F000D0160000F91600003268726004CD08CAE6
:10170000984700008252BEFFE81600001117000043
:101710003068361D3F1F386004CD08CA9847000066
:1017200081D2FFFF041700002D17000030683F1F13
:10173000386004CD08CA9847823ED2FF20170000C7
:101740004517000039683F1D361F316004CD08CAB7
:1017500098470000844F5645D2FFFFFF381700001E
:10176000651700003A683F1D38683F1D3F1F38600D
:101770003F1F3A603F1F386004CD08CA98470000F9
:101780008444524FD0FFFFFF541700009117000010
:101790003F1D04CD08CA984784535741D0FFFFFF2F
:1017A00080170000A91700003A683F1D38683F1DE8
:1017B0003F1F3A603F1F386004CD08CA98470000B9
:1017C000834455D098170000CD17000038683F1F9C
:1017D000386004CD08CA9847900D0A537461636B52
:1017E0002053747566663A0D8AFFFFFFC01700002C
:1017F00087414E44424954D3D817000001180000D5
:1018000004CF39683F1D08681040086004CD08CA3D
:101810009847000087534554424954D3F0170000BD
:101820002518000004CF39683F1D08681043086080
:1018300004CD08CA9847000087434C52424954D30C
:10184000141800004918000004CF39683F1D0868CB
:101850009043086004CD08CA9847000085434D4F67
:1018600056C5FFFF381800006D18000039683F1D8D
:101870003A683F1D3B683F1D002907D0187810705B
:10188000491E002902D0521C5B1CF7D104CD08CAA6
:10189000984700008446494CCCFFFFFF5C180000CD
:1018A000A518000038683F1D39683F1D3A683F1D84
:1018B000002904D08B181070521C9A42FBD104CD21
:1018C00008CA98478545524153C5FFFF9418000048
:1018D00001060000F8210000A01800000C0600001E
:1018E00086424C414E4BD3FFC41800000106000055
:1018F000F40A0000A01800000C060000822BA1FFD3
:10190000E01800000919000039683F1D38683F1DC4
:101910000A688018086004CD08CA984781C0FFFF94
:10192000FC1800002919000039683F1D08683F1F96
:10193000386004CD08CA98478243C0FF1C190000D4
:101940004519000039683F1D08783F1F386004CDF5
:1019500008CA984781A1FFFF3819000061190000EB
:1019600038683F1D39683F1D016004CD08CA98479B
:101970008243A1FF541900007D19000038683F1D03
:1019800039683F1D017004CD08CA98479F0D0A525F
:1019900065616420616E64205772697465204D65CD
:1019A0006D6F727920576974683A0D8A701900005A
:1019B00081DDFFFF8C1900000106000040090000D6
:1019C000C0000000E01000100C060000C1DBFFFFAB
:1019D000B0190000010600004009000000000000EE
:1019E000E01000100C060000C95B434F4D50494CFD
:1019F00045DDFFFFCC1900000106000030030000A8
:101A000068240000340600007F390000940E0000B6
:101A10008C1700008C0D0000900C00000C060000DC
:101A2000C8444C4954455241CCFFFFFFE81900001F
:101A300001060000640B00002419000044070000A8
:101A400010000000A4170000601A0000601A0000D7
:101A50000C060000C74C4954455241CC201A0000E6
:101A600001060000640B0000241900004407000078
:101A7000100000004C03000034060000900C000031
:101A80000C0600008223BEFF541A0000010600006D
:101A90008C1700008C17000098010000241900002A
:101AA000940B000060170000982300000C06000053
:101AB00084484F4CC4FFFFFF841A00000106000059
:101AC00034060000FFFFFFFF98010000041900002A
:101AD0009801000024190000781900000C0600008D
:101AE00084534947CEFFFFFFB01A000001060000F3
:101AF0007C1600008C240000440700001000000049
:101B0000340600002D000000BC1A00000C06000086
:101B10008223D3FFE01A000001060000441B0000EE
:101B20006017000060170000B42500006824000062
:101B300044070000E8FFFFFF0C06000081A3FFFF41
:101B4000101B0000010600003C0B000024190000DF
:101B50006C0300007C160000340600000900000041
:101B600060170000E8230000440700001000000098
:101B7000340600000700000078230000340600004F
:101B80003000000078230000BC1A00000C060000A2
:101B9000823CA3FF3C1B000001060000400900003E
:101BA000B00F0010141100100C06000085444F45C2
:101BB00053BEFFFF901B0000010600000C17000041
:101BC000580D0000EC0D0000C81700008C0D00003F
:101BD0003406000063060000A41700005C19000032
:101BE0005C1900000C060000873C4255494C44D368
:101BF000AC1B000001060000341E00000C060000B3
:101C0000C52B4C4F4FD0FFFFE81B00000106000022
:101C100028220000200200004C030000780700008A
:101C2000CC0400000C060000C44C4F4FD0FFFFFF57
:101C3000001C000001060000282200002002000015
:101C40004C03000058070000CC0400000C06000004
:101C5000C244CFFF281C0000010600004C03000016
:101C600084070000B80B0000282200000C060000CA
:101C7000C5454E4449C6FFFF501C00000106000048
:101C8000E40100001822000020020000B80B000050
:101C90006017000098230000A41700005C190000E2
:101CA0000C060000C4544845CEFFFFFF701C000026
:101CB000010600007C1C00000C060000C4454C53CB
:101CC000C5FFFFFFA41C0000010600001822000051
:101CD000200200004C03000034070000B80B000095
:101CE000F8210000900C0000A4170000182200004A
:101CF0007C1C0000182200000C060000C249C6FF30
:101D0000BC1C0000010600004C030000440700005A
:101D1000B80B0000F8210000900C00001822000011
:101D20000C060000C5554E5449CCFFFFFC1C0000BA
:101D30000106000008220000200200004C03000001
:101D400044070000CC0400000C060000C5414741D8
:101D500049CEFFFF241D00000106000008220000FC
:101D6000200200004C03000034070000CC040000F7
:101D70000C060000C65245504541D4FF4C1D0000E2
:101D8000010600004017000040170000581D000029
:101D90000C1700000C170000182200009823000008
:101DA0007C1C00000C060000C55748494CC5FFFFCD
:101DB000741D000001060000041D0000A4210000A5
:101DC0000C060000C542454749CEFFFFA81D000094
:101DD00001060000E4010000B80B0000082200002A
:101DE0000C060000970D0A496E7369646520436F05
:101DF0006C6F6E20574F5244533A0D8AC41D000039
:101E000089494D4D4544494154C5FFFFE41D00003B
:101E100001060000580D00003406000040000000DC
:101E2000F00700000C060000864352454154C5FFF0
:101E3000001E0000010600007806000034060000C5
:101E40000F000000982300008C24000044070000CD
:101E500008000000A001000030030000440700005B
:101E6000240000008C170000A80D0000E8290000E5
:101E7000340600004339000004130000742A0000F7
:101E800018140000B80B0000C8170000F40400008C
:101E90005C190000C817000040190000340600005B
:101EA0001F00000044250000B8010000C817000012
:101EB0003406000080000000F0070000B80B0000AE
:101EC0003406000080000000F00700000822000037
:101ED000280B000004190000580D0000900C0000B1
:101EE000500B00005C1900004C03000029060000A4
:101EF000B80B0000C0210000900C00000C06000090
:101F000088434F4E5354414ED4FFFFFF281E00001C
:101F100001060000241F00000C06000083434FCE82
:101F2000001F000001060000341E000034060000FF
:101F3000FCFFFFFF280B000004190000900C0000BC
:101F4000E00400000C060000885641524941424C12
:101F5000C5FFFFFF1C1F0000010600006C1F0000F2
:101F60000C060000835641D2481F00000106000005
:101F7000341E000034060000F8FFFFFF280B0000AD
:101F8000041900004C0300001D0600000822000098
:101F9000F40C0000900C0000E00400000C060000AF
:101FA000C1BBFFFF641F000001060000AC0300007E
:101FB0004C0300000C060000D4190000E0040000EF
:101FC0000C060000C1BAFFFFA01F000001060000C0
:101FD0000402000098030000341E0000B81900003D
:101FE00034060000F8FFFFFF280B00000419000072
:101FF0004C030000010600000C060000960D0A4389
:10200000524541544520574F5244532057697468F4
:102010003A0D8AFFC41F000084444142D3FFFFFFF2
:10202000FC1F000001060000C81700001405000096
:102030000C06000087444E45474154C51820000057
:102040004520000038683F1D3A683F1DC043D24319
:10205000521C3F1F3A603F1F386004CD08CA9847A2
:10206000834450CC342000002906000010110010D9
:1020700083442ED2602000000106000040170000BB
:10208000A41700006017000024200000981B000027
:10209000181B0000EC1A00008C1A00000C1700003E
:1020A000601700009823000094290000742A0000A3
:1020B0000C0600008244AEFF702000000106000004
:1020C000F821000078200000D02900000C06000054
:1020D0008244ABFFB4200000DD20000038683F1DC3
:1020E00039683F1D3B683F1D3A683F1D52185841F3
:1020F0003F1F3A603F1F386004CD08CA9847000070
:1021000084532D3EC4FFFFFFD020000011210000AA
:102110003A683F1D4040124300D5401E3F1F3A60C1
:102120003F1F386004CD08CA984700008232AAFFDA
:10213000002100003921000038683F1D40003F1F8A
:10214000386004CD08CA98478232AFFF2C210000C6
:102150005521000038683F1D40103F1F386004CDF6
:1021600008CA98478231ADFF482100007121000064
:1021700038683F1D401E3F1F386004CD08CA98478D
:102180008231ABFF642100008D21000038683F1DC3
:10219000401C3F1F386004CD08CA98478232ABFF0D
:1021A00080210000A921000038683F1D801C3F1FCE
:1021B000386004CD08CA98478234ABFF9C210000E8
:1021C000C521000038683F1D001D3F1F386004CD49
:1021D00008CA98478234ADFFB8210000E121000011
:1021E00038683F1D001F3F1F386004CD08CA98475C
:1021F00081B0FFFFD421000029060000000000008C
:1022000081B1FFFFF021000029060000010000005D
:1022100081B2FFFF0022000029060000020000003A
:1022200081B3FFFF10220000290600000300000018
:1022300081B4FFFF202200002906000004000000F6
:10224000824DAAFF3022000001060000381600006F
:10225000F0250000401700002C250000A417000006
:102260002C250000900800000C1700001405000049
:102270000C060000824DAFFF402200000106000066
:1022800060170000401700004017000024200000E5
:10229000281700002C250000B40800000C170000CF
:1022A00028170000F0250000FC040000A41700001F
:1022B0000C170000FC040000A41700000C0600002E
:1022C00081AAFFFF742200000106000048220000DE
:1022D0008C1700000C060000842F4D4FC4FFFFFF39
:1022E000C022000001060000401700000C21000081
:1022F0000C1700007C2200000C06000081AFFFFFDD
:10230000D822000001060000E4220000A41700000B
:102310008C1700000C060000834D4FC4FC22000007
:1023200001060000E42200008C1700000C060000EB
:10233000852A2F4D4FC4FFFF18230000010600001F
:1023400040170000482200000C1700007C2200000B
:102350000C060000822AAFFF3023000001060000B7
:102360003C230000A41700008C1700000C0600009E
:1023700081ABFFFF542300007D23000038683F1D20
:1023800039683F1D40183F1F386004CD08CA984780
:1023900081ADFFFF702300009D23000038683F1DC2
:1023A00039683F1D081A3F1F386004CD08CA984796
:1023B00081BDFFFF90230000BD230000404039682D
:1023C0003F1D3A683F1D891A04D03F1F386004CD75
:1023D00008CA984701383F1F386004CD08CA98479B
:1023E00081BCFFFFB0230000ED2300004040013816
:1023F00039683F1D3A683F1D914200DC40403F1F55
:10240000386004CD08CA98478255BCFFE02300001D
:102410000106000038160000F02500008C240000A2
:1024200044070000180000008C1700008C240000F6
:1024300068240000340700000C000000982300000E
:102440008C2400000C06000081BEFFFF0824000061
:1024500001060000A4170000E82300000C0600009D
:102460008230BDFF482400006D24000040403968E0
:102470003F1D002900D1401E3F1F386004CD08CA0F
:10248000984700008230BCFF6024000091240000C7
:1024900039683F1D40400138094300D440403F1F88
:1024A000386004CD08CA9847834249CE842400008E
:1024B000010600004009000002000000D4100010D6
:1024C0000C060000834845D8A8240000010600003F
:1024D0004009000010000000D41000100C0600009D
:1024E00087444543494D41CCC42400000106000007
:1024F000400900000A000000D41000100C06000083
:10250000864E45474154C5FFE024000011250000D8
:1025100038683F1DC043401C3F1F386004CD08CAC7
:1025200098470000834142D30025000001060000C7
:10253000C8170000FC0400000C060000834D49CEC3
:102540002425000001060000381600005024000079
:102550004407000008000000A41700008C170000CA
:102560000C060000834D41D83C2500000106000008
:1025700038160000E82300004407000008000000AF
:10258000A41700008C1700000C06000083414EC405
:10259000642500009925000038683F1D39683F1DFB
:1025A00008403F1F386004CD08CA9847824FD2FFC9
:1025B0008C250000B925000038683F1D39683F1D93
:1025C00008433F1F386004CD08CA9847834E4FD454
:1025D000AC250000D925000038683F1DC0433F1FCF
:1025E000386004CD08CA984783584FD2CC250000E4
:1025F000F525000038683F1D39683F1D48403F1FE2
:10260000386004CD08CA984784535854C8FFFFFF68
:10261000E82500001926000038683F1D00B23F1F62
:10262000386004CD08CA984784535854C2FFFFFF4E
:10263000082600003926000038683F1D40B23F1FC1
:10264000386004CD08CA984784524556D7FFFFFF2B
:10265000282600005926000038683F1D00BA3F1F99
:10266000386004CD08CA9847834153D248260000F9
:10267000752600003A683F1D38683F1D10413F1F16
:10268000386004CD08CA9847834C53D268260000AE
:10269000952600003A683F1D38683F1DD0403F1F17
:1026A000386004CD08CA9847834C53CC8826000074
:1026B000B52600003A683F1D38683F1D90403F1F17
:1026C000386004CD08CA9847822ED2FFA8260000A1
:1026D00001060000401700000C2100000C1700004C
:1026E000782000000C060000832E52D5C82600007A
:1026F0000106000040170000F8210000981B0000B0
:10270000181B00008C1A0000C81700000C170000EE
:10271000A41700009823000094290000742A0000E8
:102720000C0600008255AEFFE826000001060000FE
:10273000F8210000BC2000000C06000081BFFFFF54
:102740002427000001060000241900005C27000077
:102750000C06000081AEFFFF3C27000001060000D0
:102760000C210000BC2000000C060000822EC2FFDD
:102770005427000001060000182200003C01000060
:102780000C060000822EC8FF6C2700000106000026
:1027900034060000100000003C0100000C060000A0
:1027A000822EC4FF842700000106000034060000CA
:1027B0000A0000003C0100000C060000910D0A4ECA
:1027C000554D4245522053747566663A0D8AFFFF97
:1027D000A02700008A55415254305F494E49D4FF2A
:1027E000BC270000010600003406000000130010A2
:1027F0002419000068240000440700001C000000A9
:1028000034060000041300102419000040170000D3
:10281000340700001000000034060000802500008E
:102820004017000034060000A440044034060000B5
:10283000390000002018000034060000A8400440C1
:1028400008220000201800004009000001000000DC
:102850009880044040090000830000000C80004084
:10286000643500003406000010000000042300005E
:102870000C170000042300003406000000010000D3
:10288000E42200002C290000C02100005C19000097
:102890002C2900005C190000400900000300000022
:1028A0000C8000404009000000000000088000404B
:1028B00040090000070000000880004004290000D3
:1028C0008C1700000C060000864D59424155C4FF8C
:1028D000D4270000010600004009000000000000AD
:1028E0000013001034060000041300105C190000EF
:1028F0000C0600008955415254305F4C53D2FFFF03
:10290000C828000009290000034908783F1F3860E3
:1029100004CD08CA984700001480004088554152F1
:1029200054305F52D8FFFFFFF42800002906000052
:10293000008000408855415254305F54D8FFFFFF5B
:102940001C290000290600000080004084584F46E2
:10295000C6FFFFFF342900005D290000FEF7AEF836
:10296000FEF7B4F804CD08CA9847000083584FCE4C
:102970004C29000079290000FEF7A0F8FEF7AEF818
:1029800004CD08CA98470000865350414345D3FF01
:102990006C29000001060000F82100006C250000F1
:1029A0005C1600004407000018000000F821000039
:1029B00084070000D029000058070000F8FFFFFF3F
:1029C0000C0600008553504143C5FFFF88290000D5
:1029D00001060000F40A0000C82A00000C060000EE
:1029E000834944AEC429000001060000E012000043
:1029F000340600001F00000094250000742A000027
:102A0000D02900000C060000C22EA2FFE029000021
:102A1000010600003406000022000000640B0000E4
:102A200024190000440700002C0000004C030000A3
:102A300060020000840F0000B80B00004019000085
:102A4000882100000C0C0000B801000034070000D1
:102A500014000000840F0000B80B0000E01200001A
:102A6000742A00000C06000084545950C5FFFFFF73
:102A7000082A0000010600005C1600004407000060
:102A8000340000005829000060170000782300007F
:102A9000A417000084070000A8160000A00700008B
:102AA000C82A000058070000F0FFFFFF34070000AD
:102AB000080000008C1700000C06000084454D49FA
:102AC000D4FFFFFF682A0000CD2A000038683F1DB0
:102AD000FDF7F4FF0449087004490868401C0860C9
:102AE00004CD08CA9847000000800040DC100010A8
:102AF000834B45D9BC2A0000010600007429000060
:102B0000082B00000C0600000D2B0000054A064BA8
:102B100019684908FCD310683F1F386004CD08CA03
:102B2000984700000080004014800040843F4B45DF
:102B3000D9FFFFFFF02A00003D2B0000FDF7BEFF8C
:102B4000FDF7CCFF084B1968490806D3404001380F
:102B50003F1F386004CD08CA984740403F1F386087
:102B600004CD08CA9847000014800040834352D324
:102B70002C2B000001060000F82100008407000053
:102B8000982B000058070000F8FFFFFF0C0600001C
:102B90008243D2FF6C2B00000106000040090000B8
:102BA00000000000DC10001060020000020D0AFFAF
:102BB0000C0600008D0D0A4649534820494F3A0D36
:102BC0008AFFFFFF902B00008B495251535F524503
:102BD00053554DC5B42B0000DD2B000062B6C04636
:102BE00004CD08CA984700008C495251535F535591
:102BF0005350454EC4FFFFFFC82B0000012C0000BE
:102C000072B6C04604CD08CA984700008F53595386
:102C10005449434B5F4952515F4F46C6E82B000071
:102C2000252C000002490520086004CD08CA9847F9
:102C300010E000E08E5359535449434B5F495251C1
:102C40005F4FCEFF0C2C00004D2C000002490720E6
:102C5000086004CD08CA984710E000E08F0D0A49CB
:102C60004E54455252555054533A0D8A342C00005C
:102C70008A464C4153485F534156C5FF5C2C0000C7
:102C800001060000580D000088340000E823000011
:102C90004407000020000000982B000060020000A4
:102CA0000F4E4F5448494E4720544F2053415645EC
:102CB0000C0600008C2D00002419000034060000D2
:102CC00000000100B82300004407000028000000B5
:102CD000982B000060020000144C41535420464CD5
:102CE00041534820504147452055534544FFFFFF7D
:102CF0000C060000040B0000241900009C2D0000AD
:102D00005C190000580D0000A42D0000942D000057
:102D10005C190000580D000088340000B823000042
:102D20004407000058000000D43000008834000040
:102D3000280B00005C1900009C2D000024190000E5
:102D4000040B00005C190000942D00002419000001
:102D5000500B00005C190000340600000010000059
:102D60008C2D00000419000014310000982B000085
:102D7000B0330000883300000C060000580D00003E
:102D8000C82D0000340700008CFFFFFF290600005B
:102D900004000010290600000800001029060000A9
:102DA0000C000010A92D000038683F1D044A104097
:102DB000044A126880183F1F386004CD08CA98473B
:102DC000FF0F00000400001001060000EC0D0000E1
:102DD000C8170000401700008C0D0000C817000045
:102DE000241900003406000063060000B823000028
:102DF0004407000028000000C0210000C8170000A0
:102E0000C817000024190000A42D0000A41700001A
:102E10005C1900003407000000010000C817000022
:102E2000241900003406000029060000B823000021
:102E30006017000024190000340600001D06000081
:102E4000B8230000B4250000440700001000000073
:102E50008C17000034070000C4000000C0210000EF
:102E6000C8170000241900003406000034060000D2
:102E7000B82300004407000010000000C02100003B
:102E800034070000D8FFFFFFC81700002419000016
:102E90003406000060020000B82300004407000070
:102EA00020000000C8170000C021000040190000E9
:102EB000782300000C0C000034070000A0FFFFFF87
:102EC000C817000024190000340600000C0600009A
:102ED000B823000068240000440700003C00000004
:102EE000C817000024190000883400005024000096
:102EF0004407000068FFFFFFC8170000C817000064
:102F000024190000A42D0000A41700005C19000083
:102F10003407000048FFFFFF8C1700000C1700006B
:102F2000700D0000C817000024190000C817000029
:102F3000500B00005C190000A42D0000A417000035
:102F40005C1900000C0600004D2F000006480749E0
:102F500032220260064B1A68120B42608260054BF7
:102F6000984704CD08CA984718110010681100103E
:102F700004000010F11FFF1F7D2F000007480849C3
:102F800034220260074B1A68120B42608260064AC4
:102F9000C260064B984704CD08CA98471811001024
:102FA000681100100400001080BB0000F11FFF1F1B
:102FB000B52F00000848094933220260084A126808
:102FC0004260084A8260084AC260084A0261084BAF
:102FD000984704CD08CA98471811001068110010CE
:102FE00004000010000000100010000080BB000072
:102FF000F11FFF1F8C464C4153485F464F524745D7
:10300000D4FFFFFF702C0000010600004009000003
:1030100000400000040000108C2D00002419000066
:103020003406000000000100B823000068240000FE
:10303000440700002C000000FC2B0000482F00007B
:10304000782F0000D82B000034060000001000008C
:103050008C2D00000419000034070000BCFFFFFFA6
:103060009C340000580D000050240000440700006C
:1030700010000000FC370000340700001C000000B6
:10308000340600005C38000088340000EC0D0000BD
:10309000700D00005C1900004009000000400000B5
:1030A000040000103406000011111111C8170000AF
:1030B000942D00005C1900009C2D00005C1900009C
:1030C00014310000982B0000B0330000883300005A
:1030D0000C06000001060000B80B000034060000DA
:1030E000AF0F0010B80B000098230000340600005A
:1030F000FF000000A0180000FC2B0000482F00007B
:10310000782F0000482F0000B02F0000D82B0000BF
:103110000C0600000106000034060000004000001C
:10312000C81700008C2D00005C190000C8170000B3
:10313000401700002419000064350000B823000087
:10314000440700007C00000028170000340600003F
:103150000800000078230000C817000024190000B0
:10316000500B00005C190000C02100002419000071
:10317000040B00005C190000982B000060020000A6
:1031800017414444454420574F5244532046524F20
:103190004D205041474520FF281700008C27000094
:1031A00028170000340600000010000078230000FB
:1031B0008C2D00005C190000340700000C0000009A
:1031C000281700001C3200002817000034060000F9
:1031D0000010000078230000C8170000340600002B
:1031E00000000100982300004407000020000000B8
:1031F0008C1700000C1700003406000000100000BF
:10320000782300003407000024FFFFFF8C17000024
:103210000C1700008C1700000C06000001060000CF
:10322000C8170000340600000010000078230000DA
:1032300040170000C8170000241900008821000072
:103240004407000048000000FC2B0000482F00004D
:10325000782F0000D82B0000982B0000600200009F
:10326000174552415345442042414420464C415366
:1032700048205041474520208C2700008C17000033
:103280000C1700008C1700000C060000C021000085
:10329000C8170000C817000028170000A417000076
:1032A00098230000440700000C00000034070000D1
:1032B00088FFFFFF982B0000600200000E464C4183
:1032C00053482050414745204F4B20FF8C170000AA
:1032D0003406000000100000982300008C27000036
:1032E0000C1700008C1700000C06000084504F469D
:1032F000C6FFFFFFF42F0000010600004009000098
:1033000000000000041100100C06000083504FCE96
:10331000EC32000001060000400900006C0A0000C9
:10332000041100100C06000081D0FFFF0C330000D8
:1033300029060000041100108545484F46C6FFFFCE
:103340002833000001060000F821000034060000C8
:10335000081100105C1900000C0600008445484F5D
:10336000CEFFFFFF383300000106000008220000F6
:1033700034060000081100105C1900000C06000063
:10338000832E44D35C330000010600007806000061
:10339000A82700003406000098380000041300003D
:1033A000742A00000C060000832E56D380330000E0
:1033B00001060000980600003822000004230000E7
:1033C000A8270000340600008D3800000413000018
:1033D000742A00000C0600008444554DD0FFFFFF06
:1033E000A83300000106000060170000340E000042
:1033F00018090000CC240000F82100008407000018
:10340000982B0000C8170000340600000A000000D6
:10341000F026000038220000F82100008407000098
:10342000C817000024190000340600000E00000038
:10343000F0260000C021000058070000E4FFFFFF55
:10344000382B00004407000008000000F4160000BC
:1034500058070000ACFFFFFF8C170000982B0000FE
:103460002C0900000C0600008556424153C5FFFFA1
:10347000D833000029060000741000108544424132
:1034800053C5FFFF6834000029060000100000103B
:103490008552424153C5FFFF7C34000029060000DD
:1034A0000000001083434CD390340000010600005C
:1034B00060020000041B5B324AFFFFFF6002000055
:1034C000041B5B3B48FFFFFF982B00000C0600002D
:1034D000C1A8FFFFA434000001060000340600006C
:1034E00029000000B807000068240000440700001D
:1034F00028000000982B000088020000340600001D
:1035000011100010401900004407000010000000D6
:1035100034070000C8FFFFFF0C060000340600005F
:10352000AA38000004130000742A00000C060000F2
:10353000C1DCFFFFD034000001060000F8210000CC
:10354000A40B0000840B0000241900007823000065
:10355000781900000C06000086535953434CCBFFEA
:103560003035000069350000034908683F1F3860A6
:1035700004CD08CA9847000000000010855354434A
:1035800054D2FFFF583500002906000070100010CB
:103590008544454C41D9FFFF7C350000A135000032
:1035A00039683F1D38683F1D0A4CC043401C2060ED
:1035B000094A1160094A1160002806D0084A1068BB
:1035C0000721116021680029FCD1106004CD08CAD0
:1035D000984700007010001014E000E018E000E0D0
:1035E00010E000E0824DD3FF90350000010600009E
:1035F000340600007FBB00009C3500000C06000074
:1036000087574F52444341D4E4350000010600007F
:10361000B80B000040170000F8210000B80C0000B3
:10362000340600000D000000B80C0000B80B0000CC
:10363000340600000D000000840F0000C8170000D1
:1036400040190000340600000A0000007C1600004B
:1036500078190000C817000088210000D40B000072
:1036600034060000840000007823000028170000C2
:1036700078190000340600000D000000B80C0000AE
:10368000340600008A000000B80C0000340C000072
:10369000580D0000900C00000C17000034060000CC
:1036A000001100105C1900000C06000085574F52F5
:1036B00044D3FFFF0036000001060000282200006E
:1036C00094290000580D000058290000F82100003E
:1036D0006017000088210000401900003406000037
:1036E0000D000000B823000068240000440700001B
:1036F0001C0000008C170000C8170000EC0D000033
:10370000700D00006017000098230000740B00008B
:103710002419000078230000340600004A0000004D
:10372000502400004407000010000000982B000007
:103730002822000094290000C8170000180B000080
:1037400024190000E8230000440700000C000000DA
:10375000340700005C000000C8170000E8290000E2
:103760001822000094290000C817000088210000DA
:1037700040190000340600000D000000B8230000CE
:103780004407000010000000400900000000000095
:10379000DC100010EC0D0000700D0000241900007A
:1037A000C8170000682400004407000020FFFFFF46
:1037B0008C170000982B00000C060000874D59570D
:1037C0004F5244D3AC36000001060000400900000F
:1037D00000400000FC100010B83600004009000056
:1037E00000000000FC1000100C0600008946495340
:1037F000485F4F4E4CD9FFFFBC3700000138000036
:103800000749084C2160084C21600849084C216098
:10381000084C21600849094C216004CD08CA98472A
:103820005C38000000110010080000107410001037
:10383000F01000100C00001010000010F410001028
:1038400084464953C8FFFFFFEC3700000106000023
:10385000143100002C05000018140000990D0A46D0
:10386000495348205265666572656E6365204D6FE9
:1038700064656C3A0D8AFFFF403800000352554ED4
:103880002000203F2000203C43523E200056415261
:103890002043454C4C53200044494354494F4E412A
:1038A0005259204259544553200020434F4D4D4515
:1038B0004E54204C494E452043414E4E4F542042D9
:1038C0004520454D5054592015002043414E542069
:1038D000464F52474554204649534820494E2046BA
:1038E0004C41534820150020494E20464C41534836
:1038F000202D2053454520464C4153485F464F52AA
:103900004745542015002044494354494F4E4152E5
:10391000592046554C4C202D20534545202E4453CC
:103920002015002052414D20564152205350414312
:10393000452046554C4C202D20534545202E5653AE
:1039400020150020495320414C5245414459204400
:103950004546494E4544201500203F204E4F5420F7
:10396000574F5244201500203F204E4F5420574FB0
:103970005244204F52204E554D42455220150020B2
:10398000434155534544204120535441434B204526
:1039900052524F5220150020535441434B20455260
:1039A000524F52205748494C45204558454355549D
:1039B000494E47204F5220434F4D50494C494E47A6
:1039C000201500204552524F52202D204E4F54209A
:1039D000434F4D50494C494E472015002045525207
:1039E0004F52202D204558454355544544205748B3
:1039F000494C4520434F4D50494C494E47201500F6
:103A000001060000400900000000000014E000E092
:103A1000400900000000000018E000E0400900003C
:103A20000700000010E000E0400900005F180100FE
:103A3000808004404009000070ED0000388204409E
:103A400040090000000000004080044040090000E0
:103A50000000000044800440400900000100000014
:103A60004480044040090000030000000880044036
:103A7000340600000C8004402419000008220000D5
:103A80009425000044070000E8FFFFFF4009000004
:103A900003000000708004404009000000000000A6
:103AA000748004404009000001000000748004405C
:103AB00040090000006CDC02000000100C06000051
:103AC000F0B5040016001F00300039002200E31793
:103AD00000F008F81500300039002200E31700F06C
:103AE00001F8F0BD30B4DC0F03D05B42524200D28B
:103AF0005B1E0D106C4013D0F446002502D34942E2
:103B00004042A94100F00DF8E40703D35B42524262
:103B1000AB41244202D549424042A94130BC6047F2
:103B200030BC124224D0994228D970B500251B42DE
:103B300002D00C00002109E000240126491864414C
:103B4000944200D3A41A7641F8D33100012601E053
:103B5000764109D2001864416D41A41A9D41F7D203
:103B6000A4185D41B619F5D3300022002B0070BDBA
:103B70001B42D8D108B5C046C04608BD01D190420D
:103B8000D3D202000B0000210020704700B5BFF324
:103B90004F8F034803490860BFF34F8FFEE70000D3
:103BA0000400FA050CED00E000B5FEE780B5FFF774
:103BB000EDFF01BD00B5FEE700B5FEE700B5FEE78D
:103BC00000B5FEE700B5FEE700B5FEE780B5FCF7FF
:063BD000FBFE01BD704781
:0400000500003BD5E7
:00000001FF
