:10000000B01200102D090000093900000D39000060
:1000100015390000193900001D390000C2C6FEEF75
:100020000000000000000000000000002139000076
:100030002539000000000000293900002D3900009A
:10004000DD0500001006000007000000E8280000A1
:10005000E80500000506000008000000DD050000BE
:1000600054000000E8280000F027000054000000C1
:10007000E828000010060000FDFFFFFF080B00004D
:1000800088170000E8050000DD050000F408000006
:10009000D00A0000E0170000241400000809000046
:1000A000E8050000DD050000D00A0000A8170000E8
:1000B0004C160000B42500006C230000200700004F
:1000C000180000001006000062000000E828000090
:1000D00010160000E8050000100600000A000000ED
:1000E0006C23000020070000140000001006000030
:1000F00064000000E8280000E80500001006000089
:1001000068000000E8280000E8050000DD050000A8
:10011000FC1F000094250000F41E0000A400000055
:10012000E8050000DD05000094250000942500008E
:10013000F41E0000A4000000E8050000DD0500003A
:10014000F40800004C160000D00A0000E017000080
:10015000100600000A0000006C23000020070000C9
:10016000100000000C010000100700000800000053
:1001700024010000F027000008090000E805000045
:1001800005060000E410001005060000E81000104D
:1001900005060000081100100506000004110010FB
:1001A000050600000C110010DD050000100600001F
:1001B0008736000044120000942800005813000005
:1001C000DD050000BC0A000088170000E8050000FB
:1001D000DD050000C80B00004C0B0000E01700001C
:1001E000D4250000C0010000E8050000DD05000086
:1001F000F80A0000A81700001C24000010060000E8
:100200003D3700002C0E0000E8050000DD05000071
:10021000F80A0000A817000010060000553700007B
:100220002C0E0000E8050000DD0500004C23000056
:1002300010060000123700002C0E0000E805000038
:10024000DD0500004415000080010000A817000033
:1002500028160000C423000010060000FB36000032
:100260002C0E0000E8050000DD05000090150000E0
:100270004C160000201200009428000020120000FC
:100280002C230000A00B0000C4150000E8050000AE
:10029000DD050000380B0000100600005E000000C5
:1002A000001100001C09000000000000D810001020
:1002B000E8050000DD050000242500004C160000C4
:1002C000C4150000C4170000D00A0000A8170000E1
:1002D0005C0E0000200700005800000028160000F7
:1002E000D00A0000A81700006C08000010160000DB
:1002F00000150000D00A0000A81700006C080000DC
:100300006C24000090010000A817000024250000C4
:100310002007000010000000A4250000900100004C
:100320008817000090150000100700008CFFFFFFE9
:1003300090150000E8050000DD050000880A0000B7
:100340001C0F00004C0B0000EC0C00009406000099
:10035000E8050000DD050000901500004C160000C7
:100360005C250000C4150000A8170000D0010000A3
:10037000E8050000DD050000C4150000942500001C
:10038000AC15000090080000901500002816000031
:10039000C41500009008000090150000E80500005A
:1003A000DD0500004415000098010000E017000082
:1003B000E8050000DD05000044150000980100007C
:1003C000A81700004C23000010060000FB360000B8
:1003D0002C0E0000E8050000DD05000038030000D9
:1003E000200700003C000000F80A0000A8170000E9
:1003F0009C2300002007000014000000200D0000D6
:10040000D0010000100700000C000000200D0000CB
:100410003C0A00004002000010070000C0FFFFFF80
:100420004C0B00008C0F000090010000A81700008A
:10043000242500002007000010000000B418000070
:10044000100700000C00000010160000E418000067
:10045000400200001007000084FFFFFFDD050000E0
:1004600058180000CC080000E008000090020000CE
:10047000D8030000F80A0000A81700001C240000A0
:10048000200700002000000010060000020A000003
:100490004412000094280000D00A0000A8170000B1
:1004A000C01E0000B429000010070000BCFFFFFFC1
:1004B000DD0500004C0B00004C230000240C000064
:1004C000E8050000DD0500001C0900000000000038
:1004D000F8100010E805000005060000F8100010F4
:1004E000DD0500004824000020070000080000008F
:1004F000A0240000E8050000DD05000048240000FD
:100500002007000008000000C4240000E8050000E7
:10051000DD050000B429000010060000B409000049
:10052000441200009428000010060000F5090000A5
:100530004412000094280000B4290000E8050000DF
:10054000DD050000B8050000302F0000E8050000C0
:10055000DD05000028160000E41500002C23000033
:10056000100600007F000000E4150000C417000022
:100570009C23000020070000E0FFFFFF281600007A
:1005800010160000E80500000A000000000000004E
:100590000000000000000000F01F0010701F00109D
:1005A0001010001074100010100000100000000067
:1005B00000000000E0350000BD05000005480649C8
:1005C0000C2203680B6004300431013AF9D104CDE8
:1005D00008CA984788050000D4100010361F3560FF
:1005E000154604CD08CA9847ED0500003568361D4C
:1005F00004CD08CA9847000001CA3F1F386004CDE7
:1006000008CA984701CA3F1F386004CD08CA9847F6
:100610001506000001CD3F1F386004CD08CA984779
:100620002506000001CD3F1F386004CD08CA984759
:10063000350600003D683F1D04CD08CA98470000FC
:10064000361F3560456808303F1F386004CD08CA42
:100650009847000059060000044805490968401AF7
:100660003F1F386004CD08CA98470000B00F001043
:10067000F410001079060000044805490968401A82
:100680003F1F386004CD08CA98470000D4100010FE
:10069000F0100010990600003B683F1D3A683F1DAE
:1006A00093465A4618788446117848403F242040A3
:1006B00019D1521C5B1C187811788842F9D080241B
:1006C000001B884210D15B1C1878FF28FBD0083330
:1006D0003F1F3B60012062463F1F3A603F1F38606A
:1006E00004CD08CA98475B1C187880242042FAD0B1
:1006F0001B1D064803401B68002B00D0D1E70020DB
:100700003F1F386004CD08CA98470000FCFFFFFF78
:10071000150700002B68ED1804CD08CA98470000A3
:100720002507000038683F1D0028F3D02D1D04CD9B
:1007300008CA984739070000012374683268944258
:1007400003D0D2183260A41AE4D108362D1D04CD8E
:1007500008CA9847590700003B683F1DEDE70000B5
:100760006507000038683F1D3A683F1D361F32603C
:10077000361F306004CD08CA98470000810700008A
:1007800038683F1D00787F2108403F1F386004CD46
:1007900008CA98479907000039683F1D094A9246E0
:1007A000094B1C68121910780132884201D00028C8
:1007B000F9D15446121B1A703F1F386004CD08CA85
:1007C0009847000010100010D8100010D10700004A
:1007D00039683F1D3A683F1D10784840107004CDBD
:1007E00008CA9847E90700000A21884205D13868FD
:1007F0003F1D0D203F1F386002E00D21884203D1CC
:1008000000F026F900F02CF904CD08CA9847000042
:10081000150800003868017801290FD0022910D08E
:1008200001440A78622A12D0252A10D0642A10D0F6
:10083000232A0ED0682A0ED0242A0CD004CD08CA50
:10084000984742782E2AEBD104CD08CA9847022453
:1008500002E00A2400E0102420220A70024A1460F8
:1008600004CD08CA98470000D41000107108000099
:1008700038683F1D39683F1D4843C1170246084686
:100880003F1F3A603F1F386004CD08CA98470000F8
:100890009508000038683F1D3B683F1D3A683F1DC2
:1008A000002808D002F0BCFF3F1F3A603F1F3860AD
:1008B00004CD08CA98474040401E02463F1F3A6098
:1008C0003F1F386004CD08CA98470000D1080000D7
:1008D000024A176804CD08CA98470000E4100010C7
:1008E000E5080000024A166804CD08CA98470000CF
:1008F000E8100010F9080000024A11688C4604CD87
:1009000008CA9847D41000100D090000024A614639
:10091000116004CD08CA9847D410001021090000C6
:1009200002CD04CD116004CD08CA98470A490B488E
:100930000B4C0160001DA042FBD30A480A4C016029
:10094000001DA042FBD3094F094E0AA5361F356092
:1009500004CD08CA984700001111111100000010C1
:1009600000130010EC1E001000200010F01F0010FB
:10097000701F0010B8050000783700000426000042
:10098000B429000010060000FB000000E828000069
:1009900010060000F7000000E8280000A413000083
:1009A00008CA9F4603B5024908680130086003BDC4
:1009B00070100010464953482041524D204C50437E
:1009C00031313135203634783820524D2056312E91
:1009D00036202843293230313420412D5445414DB1
:1009E00020464F525448203A20446563202031204D
:1009F00032303134002061742031393A31343A32A6
:100A00003500206F6B2C20676F2066697368206942
:100A10006E20424153452000844E4F4FD0FFFFFFD0
:100A200000000000290A000004CD08CA9847000011
:100A300087455845435554C5180A0000410A00002F
:100A400000F006F800F00CF804CF08CA9847000040
:100A50007246024C21688909FCD31047148000407B
:100A60007246024913240C701047000000800040B9
:100A70007246024911240C701047000000800040AB
:100A80008242CCFF300A0000050600002000000072
:100A90008255D0FF800A000005060000F01000100B
:100AA0008546454E43C5FFFF900A0000050600003D
:100AB000FC1000108244D0FFA00A000005060000D0
:100AC000F410001084424153C5FFFFFFB40A000038
:100AD00005060000D41000108743555252454ED4ED
:100AE000C40A00000506000000110010855354419F
:100AF00054C5FFFFD80A000005060000E0100010F2
:100B0000834F55D4EC0A000005060000DC100010ED
:100B10008249CEFF000B000005060000D81000102F
:100B2000835041C4100B000005060000B00F0010F8
:100B3000835449C2200B000005060000101000106D
:100B400084484552C5FFFFFF300B0000DD05000063
:100B5000BC0A0000A8170000E805000085414C4CC5
:100B60004FD4FFFF400B0000DD05000054060000DD
:100B7000E41500004C23000048240000200700007A
:100B800008000000A8010000BC0A0000881700004F
:100B9000E805000087414C49474E45C45C0B000006
:100BA000A50B000038683F1DC01C034908403F1FCB
:100BB000386004CD08CA9847FCFFFFFF85414C49C7
:100BC00047CEFFFF940B0000DD0500004C0B00003A
:100BD000C42500002C2300004C160000C4150000A2
:100BE0004C0B00006007000010060000FF00000032
:100BF0002C150000FC17000034070000ECFFFFFF7D
:100C00009015000010060000FCFFFFFF30220000DE
:100C1000BC0A0000E0170000E805000081ACFFFFFF
:100C2000BC0B0000DD050000540600004824000055
:100C30002007000008000000A8010000D00100000B
:100C4000E80500008243ACFF1C0C0000DD0500003D
:100C5000540600004824000020070000080000009F
:100C6000A80100004C0B0000FC170000A4250000A8
:100C7000C0010000E805000088564152414C4C4F2D
:100C8000D4FFFFFF440C0000DD05000074060000E7
:100C9000D425000064210000E41500004C2300006E
:100CA0004824000020070000180000001006000083
:100CB000A3360000441200009428000058130000DE
:100CC000980A0000A817000028160000D42500008C
:100CD00028210000980A000088170000E80500009D
:100CE000864C41544553D4FF780C0000DD050000CC
:100CF000E40A0000A8170000E8050000834C46C184
:100D0000E00C0000090D000038683F1D08383F1F47
:100D1000386004CD08CA9847834346C1FC0C0000E4
:100D2000250D000038683F1D001F3F1F386004CDAF
:100D300008CA9847834E46C1180D0000DD05000023
:100D4000540000004C230000A42500004C230000A8
:100D50004C160000C417000010060000FF00000041
:100D60004C23000020070000E0FFFFFF10060000FA
:100D7000FFFFFFFF50050000E8050000835046C15B
:100D8000340D0000DD050000A42500005005000022
:100D9000242500004C160000C417000010060000B7
:100DA000FF0000004C23000020070000E4FFFFFFCD
:100DB000540000002C230000E8050000883F414C4F
:100DC00049474E45C4FFFFFF7C0D0000DD050000D4
:100DD0001006000003000000302200002007000081
:100DE0003C000000680200002E56414C5545204D45
:100DF000555354204245204556454E204E4F5420D1
:100E00004F444420414E44204D554C5449504C458C
:100E1000204F4620342120FF58130000E805000031
:100E2000863F4552524FD2FFBC0D0000DD05000049
:100E300028160000200700001000000058100000D5
:100E4000100700000800000010160000E805000070
:100E50008544494749D4FFFF200E0000610E000081
:100E60003A683F1D38683F1D30380FD4092802DD2D
:100E7000C01F0A280ADB904208DA024601203F1F01
:100E80003A603F1F386004CD08CA984700203F1FD2
:100E9000386004CD08CA984787454E434C4F53C528
:100EA000500E0000A90E000038683F1D396800226E
:100EB000521E491E491C521C0B789842FAD03F1F03
:100EC0003A60002B08D11846521C3F1F3A603F1F62
:100ED000386004CD08CA9847491C521C0B789842C8
:100EE00001D0002BF8D11046401C3F1F3A603F1F35
:100EF000386004CD08CA9847C180FFFF980E0000F3
:100F0000050F00003568361D04CD08CA984700005B
:100F100084574F52C4FFFFFFF80E0000DD050000AC
:100F20004C0B0000100600002100000070170000AC
:100F3000380B0000180B0000A81700002C2300003D
:100F400028160000A40E0000180B000088170000EF
:100F5000E41500004C230000C4150000AC1500008F
:100F60004C0B0000FC1700002C2300004C0B000071
:100F70002425000090150000EC160000E805000094
:100F8000864E554D4245D2FF100F0000DD05000092
:100F9000F4080000100800009425000094250000CB
:100FA000001500004C16000024250000C4170000A6
:100FB000100600002D0000006C2300004C160000FD
:100FC000C41500002C23000010060000FFFFFFFFE7
:100FD00090010000E0170000B40200004C16000071
:100FE000C4170000880A00004C23000020070000FE
:100FF000400000004C160000C4170000100600005E
:101000002E0000004C230000200700001800000004
:1010100008090000A425000010060000E4360000C6
:101020002C0E00009425000010070000A4FFFFFF15
:1010300010160000901500002007000008000000B6
:10104000C424000008090000E8050000854552524C
:101050004FD2FFFF800F0000DD0500004C0B0000A9
:101060002012000094280000441200009428000080
:1010700078270000F80A0000A817000020070000E9
:1010800040000000D8040000A8170000200700005E
:1010900030000000D8040000A8170000840D0000F4
:1010A000040D0000A8170000E40A0000E01700008B
:1010B000D8040000A8170000BC0A0000E0170000D8
:1010C000C40400005C040000C1A7FFFF4C10000036
:1010D000DD050000380300001C240000100600009D
:1010E000D73600002C0E000010160000E418000097
:1010F000E8050000864558504543D4FFC81000005D
:10110000DD050000E41500002C230000E4150000BC
:10111000942700006007000028290000E407000071
:101120004C16000010060000090000006C230000AF
:10113000200700000C00000010160000880A0000C4
:101140004C160000540000006C230000E415000061
:10115000100600007F0000006C23000050220000F9
:10116000200700004C000000101600004C16000084
:101170002C1500006C2300004C1600009015000098
:10118000B42500004C2300002C230000C4150000EF
:1011900020070000100000004000000010070000C1
:1011A000600000005C000000100700005400000018
:1011B0004C160000100600000D0000006C2300001B
:1011C000200700001C000000781500001016000029
:1011D000880A0000942500001007000008000000A5
:1011E0004C1600002C150000FC1700009425000090
:1011F0002C15000024250000FC170000E828000042
:101200003407000014FFFFFF7827000010160000CD
:10121000E805000085434F554ED4FFFFF410000051
:10122000DD0500004C1600002425000028160000F3
:10123000C4170000E805000084244C45CEFFFFFFE2
:1012400014120000491200003A684040115C094342
:1012500001D0401CFAE73F1F386004CD08CA984708
:1012600086464F524745D4FF38120000DD05000086
:10127000D01000004C1600001006000000400000D6
:101280009C23000010060000303600002C0E0000E9
:101290004C16000010060000000001009C23000016
:1012A000100600004C3600002C0E00004C1600000A
:1012B000040D0000C4150000EC0C0000840D0000BB
:1012C000040D00004C160000A8170000E40A0000FE
:1012D000E01700004C1600005C250000A817000075
:1012E00010060000F90500006C2300002007000034
:1012F0001400000010060000FCFFFFFF980A000029
:1013000088170000AC1500006C23000020070000C7
:10131000A8FFFFFF90150000A8170000E40A0000D6
:10132000E01700003C0D0000BC0A0000E0170000C0
:101330003831000010310000E8050000834259C533
:101340006012000049130000FFF7F0FA8541424F98
:1013500052D4FFFF3C130000DD050000CC08000064
:10136000E00800001C09000000000000DC10001074
:101370001006000000360000EC0C0000940600008F
:10138000200700001000000010160000200D0000D3
:101390003C0A00005C04000084434F4CC4FFFFFF84
:1013A0004C130000DD0500004005000010050000A2
:1013B00058130000900D0A4649534820537973741E
:1013C000656D3A0D8AFFFFFF98130000832E53C806
:1013D000B4130000DD05000010060000100000003E
:1013E00088000000E8050000832E53C4CC130000E1
:1013F000DD050000100600000A0000008800000063
:10140000E8050000832E53C2E8130000DD0500004C
:10141000B425000088000000E8050000822ED3FFFC
:1014200004140000DD05000080010000A817000082
:10143000441500005C2500006C2300001C24000003
:1014400020070000680000006802000005544F53A8
:101450003E20FFFF80010000A81700004415000097
:101460005C250000600700002C150000A817000094
:10147000D00A0000A8170000100600000A000000B3
:101480006C23000020070000100000000C01000089
:10149000100700000800000024010000F0270000F1
:1014A000D425000054070000C0FFFFFFE80500003E
:1014B00084324455D0FFFFFF1C140000C11400000B
:1014C00038687A683F1F3A603F1F386004CD08CA09
:1014D00098470000842D4455D0FFFFFFB014000052
:1014E000DD0500004C160000200700000800000089
:1014F0004C160000E805000083524FD4D4140000BD
:10150000051500003A683F1D39683F1D38683F1DCA
:101510003F1F39603F1F3A603F1F386004CD08CA43
:101520009847000081C9FFFFF81400003115000042
:1015300030683F1F386004CD08CA9847835350C0B5
:10154000241500004915000038463F1F386004CDBF
:1015500008CA9847835250C03C150000611500002E
:1015600030463F1F386004CD08CA9847854C454136
:1015700056C5FFFF541500007D15000032687260EB
:1015800004CD08CA984700008252BEFF6C150000C7
:10159000951500003068361D3F1F386004CD08CA1D
:1015A0009847000081D2FFFF88150000B1150000A8
:1015B00030683F1F386004CD08CA9847823ED2FF8A
:1015C000A4150000C915000039683F1D361F3160A1
:1015D00004CD08CA98470000844F5645D2FFFFFF4C
:1015E000BC150000E91500003A683F1D38683F1D32
:1015F0003F1F38603F1F3A603F1F386004CD08CA64
:10160000984700008444524FD0FFFFFFD8150000D8
:10161000151600003F1D04CD08CA98478453574152
:10162000D0FFFFFF041600002D1600003A683F1D92
:1016300038683F1D3F1F3A603F1F386004CD08CA1D
:1016400098470000834455D01C1600005116000036
:1016500038683F1F386004CD08CA9847900D0A5378
:101660007461636B2053747566663A0D8AFFFFFFE1
:101670004416000087414E44424954D35C16000092
:101680008516000004CF39683F1D086810400860C7
:1016900004CD08CA9847000087534554424954D3A3
:1016A00074160000A916000004CF39683F1D0868B1
:1016B0001043086004CD08CA9847000087434C5285
:1016C000424954D398160000CD16000004CF396863
:1016D0003F1D08689043086004CD08CA9847000081
:1016E00085434D4F56C5FFFFBC160000F1160000A4
:1016F00039683F1D3A683F1D3B683F1D002907D0F0
:1017000018781070491E002902D0521C5B1CF7D1BA
:1017100004CD08CA984700008446494CCCFFFFFF1F
:10172000E01600002917000038683F1D39683F1D8A
:101730003A683F1D002904D08B181070521C9A4241
:10174000FBD104CD08CA98478545524153C5FFFFD8
:1017500018170000DD050000942500002417000084
:10176000E805000086424C414E4BD3FF481700006D
:10177000DD050000880A000024170000E8050000CD
:10178000822BA1FF641700008D17000039683F1DF0
:1017900038683F1D0A688018086004CD08CA984759
:1017A00081C0FFFF80170000AD17000039683F1DA2
:1017B00008683F1F386004CD08CA98478243C0FFBD
:1017C000A0170000C917000039683F1D08783F1FA7
:1017D000386004CD08CA984781A1FFFFBC170000FC
:1017E000E517000038683F1D39683F1D016004CDD2
:1017F00008CA98478243A1FFD817000001180000CB
:1018000038683F1D39683F1D017004CD08CA9847EC
:101810009F0D0A5265616420616E6420577269747D
:1018200065204D656D6F727920576974683A0D8A2D
:10183000F417000081DDFFFF10180000DD05000037
:101840001C090000C0000000E0100010E8050000C6
:10185000C1DBFFFF34180000DD0500001C0900009B
:1018600000000000E0100010E8050000C95B434FD5
:101870004D50494C45DDFFFF50180000DD050000CC
:10188000380300001C24000010060000FB36000096
:101890002C0E000010160000200D0000240C00008B
:1018A000E8050000C8444C4954455241CCFFFFFFB5
:1018B0006C180000DD050000F80A0000A817000001
:1018C000200700001000000028160000E4180000A7
:1018D000E4180000E8050000C74C4954455241CCCB
:1018E000A4180000DD050000F80A0000A817000099
:1018F0002007000010000000540300001006000044
:10190000240C0000E80500008223BEFFD818000068
:10191000DD0500001016000010160000A0010000F8
:10192000A8170000280B0000E41500004C2300005D
:10193000E805000084484F4CC4FFFFFF0819000071
:10194000DD05000010060000FFFFFFFFA001000002
:1019500088170000A0010000A8170000FC17000075
:10196000E805000084534947CEFFFFFF341900000B
:10197000DD050000001500004824000020070000DD
:1019800010000000100600002D00000040190000AB
:10199000E80500008223D3FF64190000DD05000084
:1019A000C8190000E4150000E415000050220000F2
:1019B0001C24000020070000E8FFFFFFE8050000EE
:1019C00081A3FFFF94190000DD050000D00A00008C
:1019D000A8170000740300000015000010060000A6
:1019E00009000000E41500009C230000200700000F
:1019F0001000000010060000070000002C2300006B
:101A000010060000300000002C23000040190000E8
:101A1000E8050000823CA3FFC0190000DD050000BE
:101A20001C090000B00F00100C110010E8050000A8
:101A300085444F4553BEFFFF141A0000DD0500002A
:101A400090150000EC0C0000840D00004C16000006
:101A5000200D0000100600003F06000028160000C0
:101A6000E0170000E0170000E8050000873C425541
:101A7000494C44D3301A0000DD050000B81C0000BA
:101A8000E8050000C52B4C4F4FD0FFFF6C1A00003B
:101A9000DD050000C42500002802000054030000FA
:101AA00054070000B0040000E8050000C44C4F4F8C
:101AB000D0FFFFFF841A0000DD050000C4250000F0
:101AC000280200005403000034070000B0040000A6
:101AD000E8050000C244CFFFAC1A0000DD0500009D
:101AE00054030000600700004C0B0000C4250000F8
:101AF000E8050000C5454E4449C6FFFFD41A000062
:101B0000DD050000EC010000B42500002802000003
:101B10004C0B0000E41500004C23000028160000C8
:101B2000E0170000E8050000C4544845CEFFFFFF61
:101B3000F41A0000DD050000001B0000E8050000AD
:101B4000C4454C53C5FFFFFF281B0000DD05000006
:101B5000B425000028020000540300001007000014
:101B60004C0B000094250000240C000028160000F7
:101B7000B4250000001B0000B4250000E8050000AB
:101B8000C249C6FF401B0000DD05000054030000F1
:101B9000200700004C0B000094250000240C0000DE
:101BA000B4250000E8050000C5554E5449CCFFFFA0
:101BB000801B0000DD050000A425000028020000B5
:101BC0005403000020070000B0040000E8050000F6
:101BD000C541474149CEFFFFA81B0000DD050000BD
:101BE000A425000028020000540300001007000094
:101BF000B0040000E8050000C65245504541D4FF3E
:101C0000D01B0000DD050000C4150000C415000055
:101C1000DC1B00009015000090150000B4250000AA
:101C20004C230000001B0000E8050000C557484990
:101C30004CC5FFFFF81B0000DD050000881B0000FD
:101C400040250000E8050000C542454749CEFFFF9A
:101C50002C1C0000DD050000EC0100004C0B000016
:101C6000A4250000E8050000970D0A496E73696419
:101C70006520436F6C6F6E20574F5244533A0D8A64
:101C8000481C000089494D4D4544494154C5FFFF5A
:101C9000681C0000DD050000EC0C000010060000D0
:101CA00040000000CC070000E805000086435245D4
:101CB0004154C5FF841C0000DD05000054060000EF
:101CC000100600000F0000004C2300004824000014
:101CD0002007000008000000A801000038030000F1
:101CE0002007000024000000101600003C0D00003A
:101CF0000828000010060000C23600004412000050
:101D000094280000581300004C0B00004C160000F3
:101D1000D8040000E01700004C160000C4170000B3
:101D2000100600001F00000058200000C001000045
:101D30004C1600001006000080000000CC070000D8
:101D40004C0B00001006000080000000CC070000D3
:101D5000A4250000BC0A000088170000EC0C00005D
:101D6000240C0000E40A0000E01700005403000007
:101D7000050600004C0B00005C250000240C000050
:101D8000E805000088434F4E5354414ED4FFFFFFF7
:101D9000AC1C0000DD050000A81D0000E8050000E7
:101DA00083434FCE841D0000DD050000B81C0000F9
:101DB00010060000FCFFFFFFBC0A000088170000AF
:101DC000240C0000C4040000E805000088564152BD
:101DD0004941424CC5FFFFFFA01D0000DD0500008A
:101DE000F01D0000E8050000835641D2CC1D000024
:101DF000DD050000B81C000010060000F8FFFFFF22
:101E0000BC0A00008817000054030000F905000018
:101E1000A4250000880C0000240C0000C40400006D
:101E2000E8050000C1BBFFFFE81D0000DD05000064
:101E3000B403000054030000E80500005818000037
:101E4000C4040000E8050000C1BAFFFF241E000022
:101E5000DD0500000C020000A0030000B81C00001B
:101E60003C18000010060000F8FFFFFFBC0A00004D
:101E70008817000054030000DD050000E80500009D
:101E8000960D0A43524541544520574F5244532022
:101E9000576974683A0D8AFF481E0000822EC8FFF9
:101EA000801E0000DD05000010060000100000008C
:101EB0003C010000E8050000822EC4FF9C1E0000CB
:101EC000DD050000100600000A0000003C010000D3
:101ED000E8050000822EC2FFB81E0000DD050000EC
:101EE000B42500003C010000E805000083442ED228
:101EF000D41E0000DD050000C415000028160000F7
:101F0000E4150000402000001C1A00009C1900008D
:101F1000701900001019000090150000E415000071
:101F20004C230000B427000094280000E8050000BE
:101F3000822ED2FFEC1E0000DD050000C41500005B
:101F4000FC1F000090150000F41E0000E8050000D2
:101F5000832E52D5301F0000DD050000C41500009F
:101F6000942500001C1A00009C19000010190000A4
:101F70004C16000090150000281600004C230000AD
:101F8000B427000094280000E80500008244AEFF5A
:101F9000501F0000DD05000094250000F41E000025
:101FA000F0270000E80500008255AEFF8C1F0000FE
:101FB000DD05000094250000941F0000E8050000E6
:101FC00081AEFFFFA81F0000DD050000FC1F000020
:101FD000941F0000E805000081BFFFFFC01F000044
:101FE000DD050000A8170000C81F0000E80500007C
:101FF00084532D3EC4FFFFFFD81F000001200000C6
:102000003A683F1D4040124300D5401E3F1F3A60D2
:102010003F1F386004CD08CA98470000834142D36F
:10202000F01F0000DD0500004C160000E004000079
:10203000E805000084444142D3FFFFFF1C2000005C
:10204000DD0500004C160000F8040000E805000063
:10205000834D49CE34200000DD050000BC14000093
:1020600004240000200700000800000028160000DB
:1020700010160000E8050000834D41D850200000F4
:10208000DD050000BC1400009C23000020070000B8
:10209000080000002816000010160000E8050000E7
:1020A000824DAAFF78200000DD050000BC1400006E
:1020B0008C220000C4150000242000002816000017
:1020C000242000006C08000090150000F8040000B7
:1020D000E8050000824DAFFFA0200000DD050000F4
:1020E000E4150000C4150000C415000040200000E5
:1020F000AC1500002420000090080000901500009E
:10210000AC1500008C220000E0040000281600003E
:1021100090150000E004000028160000E80500000B
:1021200081AAFFFFD4200000DD050000A8200000E8
:1021300010160000E8050000842F4D4FC4FFFFFF7C
:1021400020210000DD050000C4150000FC1F000078
:1021500090150000DC200000E805000081AFFFFFC3
:1021600038210000DD050000442100002816000091
:1021700010160000E8050000834D4FC45C210000EC
:10218000DD0500004421000010160000E8050000F5
:10219000852A2F4D4FC4FFFF78210000DD05000088
:1021A000C4150000A820000090150000DC200000ED
:1021B000E8050000822AAFFF90210000DD05000045
:1021C0009C2100002816000010160000E805000001
:1021D000834249CEB4210000DD0500001C09000047
:1021E00002000000D4100010E8050000834845D824
:1021F000D0210000DD0500001C09000010000000D7
:10220000D4100010E805000087444543494D41CCF7
:10221000EC210000DD0500001C0900000A000000A0
:10222000D4100010E805000083414EC408220000CD
:102230003522000038683F1D39683F1D08403F1FA8
:10224000386004CD08CA9847824FD2FF2822000088
:102250005522000038683F1D39683F1D08433F1F65
:10226000386004CD08CA9847834E4FD448220000F6
:102270007522000038683F1DC0433F1F386004CD01
:1022800008CA984783584FD2682200009122000064
:1022900038683F1D39683F1D48403F1F386004CDF6
:1022A00008CA984784524556D7FFFFFF8422000092
:1022B000B522000038683F1D00BA3F1F386004CDCA
:1022C00008CA9847834153D2A4220000D1220000BB
:1022D0003A683F1D38683F1D10413F1F386004CDEC
:1022E00008CA9847834C53D2C4220000F122000050
:1022F0003A683F1D38683F1DD0403F1F386004CD0D
:1023000008CA9847834C53CCE422000011230000F4
:102310003A683F1D38683F1D90403F1F386004CD2C
:1023200008CA984781ABFFFF042300003123000057
:1023300038683F1D39683F1D40183F1F386004CD85
:1023400008CA984781ADFFFF2423000051230000F5
:1023500038683F1D39683F1D081A3F1F386004CD9B
:1023600008CA984781BDFFFF442300007123000085
:1023700038683F1D39683F1D401A05D040403F1F57
:10238000386004CD08CA984701203F1F386004CD4B
:1023900008CA984781BCFFFF64230000A123000006
:1023A000012039683F1D3A683F1D914200DC4040E2
:1023B0003F1F386004CD08CA984700008255BCFF13
:1023C00094230000DD050000BC1400008C220000F6
:1023D000482400002007000018000000101600002C
:1023E000482400001C240000100700000C0000001E
:1023F0004C23000048240000E805000081BEFFFFD8
:10240000BC230000DD050000281600009C2300000E
:10241000E80500008230BDFFFC23000021240000FD
:1024200038683F1D002805D1401C3F1F386004CD8F
:1024300008CA984740403F1F386004CD08CA9847F3
:102440008230BCFF142400004D24000039683F1D79
:102450000120094300D400203F1F386004CD08CA82
:10246000984700008244ABFF402400007124000024
:1024700038683F1D39683F1D3B683F1D3A683F1D66
:10248000521858413F1F3A603F1F386004CD08CAB8
:1024900098470000864E45474154C5FF642400001C
:1024A000A524000038683F1DC043401C3F1F386012
:1024B00004CD08CA9847000087444E45474154C59B
:1024C00094240000C924000038683F1D3A683F1D6D
:1024D000C043D243521C3F1F3A603F1F386004CDB7
:1024E00008CA98478232AAFFB8240000F1240000ED
:1024F00038683F1D40003F1F386004CD08CA984728
:102500008232AFFFE42400000D25000038683F1D33
:1025100040103F1F386004CD08CA98478231ABFF96
:10252000002500002925000038683F1D401C3F1F82
:10253000386004CD08CA98478232ABFF1C250000E2
:102540004525000038683F1D801C3F1F386004CDC2
:1025500008CA98478234ABFF382500006125000087
:1025600038683F1D001D3F1F386004CD08CA9847DA
:102570008234ADFF542500007D25000038683F1DE2
:10258000001F3F1F386004CD08CA984781B0FFFF85
:1025900070250000050600000000000081B1FFFF6B
:1025A0008C250000050600000100000081B2FFFF3D
:1025B0009C250000050600000200000081B3FFFF1B
:1025C000AC250000050600000300000081B4FFFFF9
:1025D000BC2500000506000004000000910D0A4E15
:1025E000554D4245522053747566663A0D8AFFFF79
:1025F000CC2500008A55415254305F494E49D4FFE2
:10260000DC250000DD0500001006000000130010AE
:10261000A81700001C240000200700001C00000078
:102620001006000004130010A8170000C4150000D5
:1026300010070000100000001006000080250000B8
:10264000C415000010060000A4400440100600005D
:1026500039000000A416000010060000A840044045
:10266000A4250000A41600001C09000001000000C1
:10267000988004401C090000830000000C8000408A
:10268000E832000010060000100000006421000085
:1026900090150000642100001006000000010000F9
:1026A000442100004C2700005C250000E0170000DA
:1026B0004C270000E01700001C0900000300000088
:1026C0000C8000401C090000000000000880004051
:1026D0001C090000070000000880004024270000BB
:1026E00010160000E8050000864D59424155C4FF10
:1026F000F4250000DD0500001C09000000000000BA
:10270000001300101006000004130010E017000072
:10271000E80500008955415254305F4C53D2FFFF09
:10272000E826000029270000034908783F1F386089
:1027300004CD08CA984700001480004088554152D3
:1027400054305F52D8FFFFFF142700000506000039
:10275000008000408855415254305F54D8FFFFFF3D
:102760003C270000050600000080004084584F46CA
:10277000C6FFFFFF542700007D270000FEF768F921
:10278000FEF76EF904CD08CA9847000083584FCE73
:102790006C27000099270000FEF75AF9FEF768F948
:1027A00004CD08CA98470000865350414345D3FFE3
:1027B0008C270000DD05000094250000802000002B
:1027C000E01400002007000018000000942500001D
:1027D00060070000F027000034070000F8FFFFFF4B
:1027E000E80500008553504143C5FFFFA8270000BE
:1027F000DD050000880A0000E8280000E805000068
:10280000834944AEE4270000DD05000020120000EB
:10281000100600001F000000302200009428000075
:10282000F0270000E8050000C22EA2FF00280000EB
:10283000DD0500001006000022000000F80A00007C
:10284000A8170000200700002C000000540300001F
:10285000680200001C0F00004C0B0000C4170000B1
:1028600024250000A00B0000C0010000100700009C
:10287000140000001C0F00004C0B00002012000090
:1028800094280000E805000084545950C5FFFFFF5C
:1028900028280000DD050000E014000020070000EB
:1028A0003400000078270000E41500002C2300000D
:1028B00028160000600700002C1500007C070000AF
:1028C000E828000034070000F0FFFFFF10070000B9
:1028D0000800000010160000E805000084454D497E
:1028E000D4FFFFFF88280000ED28000038683F1D56
:1028F000FEF7AEF80449087004490868401C0860F7
:1029000004CD08CA9847000000800040DC10001089
:10291000834B45D9DC280000DD050000942700002A
:1029200028290000E80500002D290000054A064B73
:1029300019684908FCD310683F1F386004CD08CAE5
:10294000984700000080004014800040843F4B45C1
:10295000D9FFFFFF102900005D290000FEF778F87D
:10296000FEF786F8074B1968490805D301203F1F79
:10297000386004CD08CA984740403F1F386004CDF6
:1029800008CA984714800040834352D34C29000062
:10299000DD0500009425000060070000B429000058
:1029A00034070000F8FFFFFFE80500008243D2FF74
:1029B00088290000DD0500001C090000000000005F
:1029C000DC10001068020000020D0AFFE80500009C
:1029D0008D0D0A554152544F20494F3A0D8AFFFF41
:1029E000AC2900008B495251535F524553554DC598
:1029F000D0290000F929000062B6C04604CD08CAFB
:102A0000984700008C495251535F53555350454EDF
:102A1000C4FFFFFFE42900001D2A000072B6C04673
:102A200004CD08CA984700008F5359535449434B6B
:102A30005F4952515F4F46C6042A0000412A0000F8
:102A400002490520086004CD08CA984710E000E05C
:102A50008E5359535449434B5F4952515F4FCEFFF8
:102A6000282A0000692A000002490720086004CDD6
:102A700008CA984710E000E08F0D0A494E544552AD
:102A800052555054533A0D8A502A00008A464C4100
:102A900053485F534156C5FF782A0000DD0500000A
:102AA000EC0C0000103200009C2300002007000006
:102AB00020000000B4290000680200000F4E4F54AF
:102AC00048494E4720544F2053415645E8050000E1
:102AD000A82B0000A817000010060000000001004D
:102AE0006C2300002007000028000000B42900002B
:102AF00068020000144C41535420464C4153482076
:102B0000504147452055534544FFFFFFE80500006D
:102B1000980A0000A8170000B82B0000E01700007A
:102B2000EC0C0000C02B0000B02B0000E0170000F0
:102B3000EC0C0000103200006C23000020070000A5
:102B400058000000F02E000010320000BC0A000007
:102B5000E0170000B82B0000A8170000980A00003A
:102B6000E0170000B02B0000A8170000E40A0000E6
:102B7000E01700001006000000100000A82B000065
:102B800088170000302F0000B42900003831000001
:102B900010310000E8050000EC0C0000E42B000000
:102BA000100700008CFFFFFF050600000400001066
:102BB0000506000008000010050600000C000010CB
:102BC000C52B000038683F1D044A1040044A1268B3
:102BD00080183F1F386004CD08CA9847FF0F0000D7
:102BE00004000010DD050000840D00004C160000FC
:102BF000C4150000200D00004C160000A8170000AE
:102C0000100600003F0600006C23000020070000B3
:102C1000280000005C2500004C1600004C16000047
:102C2000A8170000C02B000028160000E0170000C5
:102C300010070000000100004C160000A81700005B
:102C400010060000050600006C230000E4150000DB
:102C5000A817000010060000F90500006C23000012
:102C60005022000020070000100000001016000095
:102C700010070000C40000005C2500004C16000096
:102C8000A817000010060000100600006C230000CA
:102C900020070000100000005C2500001007000065
:102CA000D8FFFFFF4C160000A81700001006000018
:102CB000680200006C2300002007000020000000D4
:102CC0004C1600005C250000C41700002C230000F7
:102CD000A00B000010070000A0FFFFFF4C16000033
:102CE000A817000010060000E80500006C23000093
:102CF0001C240000200700003C0000004C160000CF
:102D0000A817000010320000042400002007000073
:102D100068FFFFFF4C1600004C160000A8170000CB
:102D2000C02B000028160000E0170000100700006C
:102D300048FFFFFF1016000090150000040D000072
:102D40004C160000A81700004C160000E40A000012
:102D5000E0170000C02B000028160000E01700005C
:102D6000E8050000692D000006480749322202608C
:102D7000064B1A68120B42608260054B984704CDDF
:102D800008CA9847101100106011001004000010CC
:102D9000F11FFF1F992D00000748084934220260E7
:102DA000074B1A68120B42608260064AC260064BEB
:102DB000984704CD08CA9847101100106011001000
:102DC0000400001080BB0000F11FFF1FD12D000088
:102DD0000848094933220260084A12684260084ADA
:102DE0008260084AC260084A0261084B984704CDD5
:102DF00008CA98471011001060110010040000105C
:102E0000000000100010000080BB0000F11FFF1F39
:102E10008C464C4153485F464F524745D4FFFFFF15
:102E20008C2A0000DD0500001C09000000400000A5
:102E300004000010A82B0000A817000010060000D6
:102E4000000001006C2300001C240000200700008B
:102E50002C000000182A0000642D0000942D0000B2
:102E6000F42900001006000000100000A82B00004C
:102E70008817000010070000BCFFFFFF243200008D
:102E8000EC0C0000042400002007000010000000EB
:102E900080350000100700001C0000001006000034
:102EA000E035000010320000840D0000040D000029
:102EB000E01700001C0900000040000004000010A2
:102EC00010060000111111114C160000B02B00006B
:102ED000E0170000B82B0000E0170000302F0000C2
:102EE000B42900003831000010310000E80500006E
:102EF000DD0500004C0B000010060000AF0F0010B5
:102F00004C0B00004C23000010060000FF000000E6
:102F100024170000182A0000642D0000942D0000E2
:102F2000642D0000CC2D0000F4290000E80500000D
:102F3000DD05000010060000004000004C160000F7
:102F4000A82B0000E01700004C160000C41500007C
:102F5000A8170000E83200006C23000020070000E2
:102F60007C000000AC150000100600000800000006
:102F70002C2300004C160000A8170000E40A0000F3
:102F8000E01700005C250000A8170000980A000068
:102F9000E0170000B4290000680200001741444413
:102FA000454420574F5244532046524F4D205041E4
:102FB000474520FFAC150000A41E0000AC15000022
:102FC00010060000001000002C230000A82B0000B9
:102FD000E0170000100700000C000000AC15000016
:102FE00038300000AC150000100600000010000092
:102FF0002C2300004C160000100600000000010009
:103000004C230000200700002000000010160000E4
:103010009015000010060000001000002C23000096
:103020001007000024FFFFFF10160000901500009D
:1030300010160000E8050000DD0500004C16000039
:1030400010060000001000002C230000C415000032
:103050004C160000A81700002425000020070000DF
:1030600048000000182A0000642D0000942D000084
:10307000F4290000B42900006802000017455241FD
:103080005345442042414420464C4153482050413E
:1030900047452020A41E00001016000090150000D7
:1030A00010160000E80500005C2500004C1600002A
:1030B0004C160000AC150000281600004C23000040
:1030C000200700000C0000001007000088FFFFFF31
:1030D000B4290000680200000E464C4153482050BD
:1030E000414745204F4B20FF1016000010060000FE
:1030F000001000004C230000A41E000090150000EA
:1031000010160000E8050000832E44D3102E0000A6
:10311000DD05000054060000C01E0000100600007F
:10312000753600004412000094280000E8050000F5
:10313000832E56D308310000DD0500007406000020
:10314000D425000064210000C01E0000100600000D
:103150006A3600004412000094280000E8050000D0
:103160008444554DD0FFFFFF30310000DD050000E5
:10317000E4150000CC0D0000F4080000F42100006C
:103180009425000060070000B42900004C160000E0
:10319000100600000A000000581F0000D42500009F
:1031A00094250000600700004C160000A8170000DE
:1031B000100600000E000000581F00005C250000F3
:1031C00034070000E4FFFFFF58290000200700003B
:1031D000080000007815000034070000ACFFFFFF76
:1031E00010160000B429000008090000E8050000DE
:1031F0008556424153C5FFFF6031000005060000BF
:10320000741000108544424153C5FFFFF0310000A7
:1032100005060000100000108552424153C5FFFF13
:1032200004320000050600000000001083434CD368
:1032300018320000DD05000068020000041B5B324C
:103240004AFFFFFF68020000041B5B3B48FFFFFFD3
:10325000B4290000E8050000C1A8FFFF2C320000DF
:10326000DD050000100600002900000094070000A2
:103270001C2400002007000024000000B4290000E6
:1032800090020000380B0000C41700002007000067
:103290001000000010070000CCFFFFFFE805000051
:1032A00010060000113600004412000094280000AF
:1032B000E8050000C1DCFFFF58320000DD0500001A
:1032C00094250000380B0000180B0000A817000020
:1032D0002C230000FC170000E8050000865359531A
:1032E000434CCBFFB4320000ED32000003490868C4
:1032F0003F1F386004CD08CA984700000000001046
:103300008553544354D2FFFFDC3200000506000011
:10331000701000108544454C41D9FFFF0033000078
:103320002533000039683F1D38683F1D0A4CC043F3
:10333000401C2060094A1160094A1160002806D02B
:10334000084A10680721116021680029FCD110602B
:1033500004CD08CA984700007010001014E000E087
:1033600018E000E010E000E0824DD3FF14330000CD
:10337000DD050000100600007FBB000020330000C8
:10338000E805000087574F52444341D4683300009A
:10339000DD0500004C0B0000C41500009425000062
:1033A0004C0C0000100600000D0000004C0C00004A
:1033B0004C0B0000100600000D0000001C0F000068
:1033C0004C160000C4170000100600000A000000A0
:1033D00000150000FC1700004C160000242500001A
:1033E000680B000010060000840000002C23000081
:1033F000AC150000FC170000100600000D000000D6
:103400004C0C0000100600008A0000004C0C00006C
:10341000C80B0000EC0C0000240C0000901500000C
:103420001006000000110010E0170000E805000081
:1034300085574F5244D3FFFF84330000DD05000061
:10344000C4250000B4270000EC0C00007827000021
:1034500094250000E415000024250000C417000096
:10346000100600000D0000006C2300001C2400006A
:10347000200700001C000000101600004C16000081
:10348000840D0000040D0000E41500004C23000032
:10349000080B0000A81700002C23000010060000F5
:1034A0004A00000004240000200700001000000073
:1034B000B4290000C4250000B42700004C16000009
:1034C000AC0A0000A81700009C23000020070000A1
:1034D0000C000000100700005C0000004C1600000B
:1034E00008280000B4250000B42700004C16000096
:1034F00024250000C4170000100600000D00000085
:103500006C23000020070000100000001C090000D0
:1035100000000000DC100010840D0000040D00000D
:10352000A81700004C1600001C2400002007000013
:1035300020FFFFFF10160000B4290000E80500007E
:10354000874D59574F5244D330340000DD050000F9
:103550001C09000000400000FC1000103C3400007A
:103560001C09000000000000FC100010E80500002D
:1035700089464953485F4F4E4CD9FFFF4035000004
:10358000853500000749084C2160084C2160084936
:10359000084C2160084C21600849094C216004CD89
:1035A00008CA9847E035000000110010080000101C
:1035B00074100010F01000100C000010100000102B
:1035C000F410001084464953C8FFFFFF7035000017
:1035D000DD050000302F000010050000581300002A
:1035E000990D0A46495348205265666572656E63B7
:1035F00065204D6F64656C3A0D8AFFFFC43500008D
:103600000352554E2000203F2000203C43523E20D4
:103610000020434F4D4D454E54204C494E452043CC
:10362000414E4E4F5420424520454D5054592000A4
:103630002043414E5420464F52474554204649535B
:103640004820494E20464C415348200020494E20F6
:10365000464C415348202D2053454520464C41536C
:10366000485F464F5247455420005641522043453B
:103670004C4C53200044494354494F4E4152592029
:10368000425954455320002044494354494F4E4128
:1036900052592046554C4C202D20534545202E4450
:1036A0005320002052414D20564152205350414357
:1036B000452046554C4C202D20534545202E565331
:1036C000200020495320414C524541445920444553
:1036D00046494E45442000203F204E4F5420574F2E
:1036E00052442000203F204E4F5420574F52442038
:1036F0004F52204E554D42455220002043415553D4
:103700004544204120535441434B204552524F528F
:10371000200020535441434B204552524F522057D2
:1037200048494C4520455845435554494E47204F3C
:103730005220434F4D50494C494E4720002045529E
:10374000524F52202D204E4F5420434F4D50494C44
:10375000494E472000204552524F52202D204558B7
:10376000454355544544205748494C4520434F4D07
:1037700050494C494E472000DD0500001C0900005F
:103780000700000010E000E01C0900005F180100C5
:10379000808004401C09000070ED00003882044065
:1037A0001C09000000000000408004401C090000CB
:1037B00000000000448004401C09000001000000DB
:1037C000448004401C0900000300000008800440FD
:1037D000100600000C800440A8170000A42500007B
:1037E0003022000020070000E8FFFFFF1C09000056
:1037F00003000000708004401C090000000000006D
:10380000748004401C090000010000007480044022
:103810001C090000006CDC0200000010E80500003C
:10382000F0B5040016001F00300039002200E31735
:1038300000F008F81500300039002200E31700F00E
:1038400001F8F0BD30B4DC0F03D05B42524200D22D
:103850005B1E0D106C4013D0F446002502D3494284
:103860004042A94100F00DF8E40703D35B42524205
:10387000AB41244202D549424042A94130BC604795
:1038800030BC124224D0994228D970B500251B4281
:1038900002D00C00002109E00024012649186441EF
:1038A000944200D3A41A7641F8D33100012601E0F6
:1038B000764109D2001864416D41A41A9D41F7D2A6
:1038C000A4185D41B619F5D3300022002B0070BD5D
:1038D0001B42D8D108B5C046C04608BD01D19042B0
:1038E000D3D202000B0000210020704700B5BFF3C7
:1038F0004F8F034803490860BFF34F8FFEE7000076
:103900000400FA050CED00E000B5FEE780B5FFF716
:10391000EDFF01BD00B5FEE700B5FEE700B5FEE72F
:1039200000B5FEE700B5FEE700B5FEE780B5FDF7A0
:0639300039F801BD7047EB
:020000041000EA
:1000000000000000000000000000000000000000F0
:1000100000000000000000000000000000000000E0
:1000200000000000000000000000000000000000D0
:1000300000000000000000000000000000000000C0
:10107000010000000000000000000000000000006F
:101080000000000000000000000000000000000060
:101090000000000000000000000000000000000050
:1010A0000000000000000000000000000000000040
:1010B0000000000000000000000000000000000030
:1010C0000000000000000000000000000000000020
:1010D0000000000000000000000000000000000010
:1010E0000000000000000000000000000000000000
:1010F00000000000000000000100000000000000EF
:1011000000000000000000000000000000000000DF
:1011100000000000000000000000000000000000CF
:1011200000000000000000000000000000000000BF
:1011300000000000000000000000000000000000AF
:10114000000000000000000000000000000000009F
:10115000000000000000000000000000000000008F
:10116000000000000000000000000000000000007F
:10117000000000000000000000000000000000006F
:10118000000000000000000000000000000000005F
:10119000000000000000000000000000000000004F
:1011A0000100000001000000010000000C00000030
:1011B000000000000000000000000000000000002F
:1011C000000000000000000000000000000000001F
:1011D000000000000000000000000000000000000F
:1011E00000000000000000000000000000000000FF
:1011F00000000000000000000000000000000000EF
:1012000000000000000000000000000000000000DE
:1012100000000000000000000000000000000000CE
:1012200000000000000000000000000000000000BE
:1012300000000000000000000000000000000000AE
:10124000000000000000000000000000000000009E
:10125000000000000000000000000000000000008E
:10126000000000000000000000000000000000007E
:10127000000000000000000000000000000000006E
:10128000000000000000000000000000000000005E
:10129000000000000000000000000000000000004E
:1012A000000000000000000000000000000000003E
:040000050000393589
:00000001FF
