:10000000C012001051090000513B0000553B000098
:100010005D3B0000613B0000653B000026BBFEEF3E
:10002000000000000000000000000000693B00002C
:100030006D3B000000000000713B0000753B0000BC
:10004000010600003406000007000000882A0000B6
:100050000C06000029060000080000000106000050
:1000600054000000882A000090290000540000007D
:10007000882A000034060000FDFFFFFF340B00005B
:10008000C41800000C06000001060000180900005A
:10009000FC0A00001C190000601500002C0900007B
:1000A0000C06000001060000FC0A0000E418000035
:1000B00088170000D82100007823000044070000C2
:1000C000180000003406000062000000882A0000CA
:1000D0004C1700000C060000340600000A00000067
:1000E00078230000440700001400000034060000DC
:1000F00064000000882A00000C060000340600009E
:1001000068000000882A00000C06000001060000BC
:10011000CC200000B821000038200000A40000001E
:100120000C06000001060000B8210000B821000004
:1001300038200000A40000000C06000001060000AA
:100140001809000088170000FC0A00001C190000B4
:10015000340600000A000000782300004407000075
:10016000100000000C01000034070000080000002F
:1001700024010000902900002C0900000C0600005A
:1001800029060000E410001029060000E810001005
:10019000290600000C11001029060000141100109F
:1001A0000106000034060000C6380000C41200003A
:1001B000342A0000D813000001060000E80A0000FD
:1001C000C41800000C06000001060000F40B00003B
:1001D000780B00001C190000F8210000B801000095
:1001E0000C06000001060000240B0000E4180000CB
:1001F000282400003406000083390000540E00005B
:100200000C06000001060000240B0000E4180000AA
:10021000340600009C390000540E00000C0600005B
:100220000106000058230000340600005739000082
:10023000540E00000C0600000106000080160000AD
:1002400080010000E418000064170000D0230000C3
:10025000340600003F390000540E00000C06000078
:1002600001060000CC16000088170000A012000054
:10027000342A0000A012000038230000CC0B00003C
:10028000001700000C06000001060000640B0000CF
:10029000340600005E000000641100004009000008
:1002A00001000000D81000100C060000010600003C
:1002B0004821000088170000001700000019000006
:1002C000FC0A0000E4180000840E0000440700004F
:1002D0005800000064170000FC0A0000E418000049
:1002E000900800004C1700003C160000FC0A0000BB
:1002F000E41800009008000098200000282000006A
:10030000E41800004821000044070000100000002D
:10031000C821000028200000C4180000CC160000EE
:10032000340700008CFFFFFFCC1600000C06000015
:1003300001060000B40A0000440F0000780B000022
:10034000180D0000B80600000C06000001060000B1
:10035000CC16000088170000802100000017000064
:10036000E4180000C80100000C06000001060000AF
:1003700000170000B8210000E8160000B4080000D3
:10038000CC1600006417000000170000B40800003D
:10039000CC1600000C0600000106000080160000CC
:1003A000900100001C1900000C060000010600006E
:1003B0008016000090010000E4180000582300009F
:1003C000340600003F390000540E00000C06000007
:1003D0000106000030030000440700003C0000005C
:1003E000240B0000E4180000A823000044070000CC
:1003F000140000004C0D0000C8010000340700008C
:100400000C0000004C0D0000680A000038020000DB
:1004100034070000C0FFFFFF780B0000BC0F000096
:1004200028200000E41800004821000044070000D4
:1004300010000000F0190000340700000C0000005C
:100440004C170000201A000038020000340700009A
:1004500084FFFFFF0106000094190000F00800006F
:100460000409000088020000D0030000240B0000F3
:10047000E4180000282400004407000038000000B1
:100480003406000004110010E418000044070000C6
:10049000240000003406000004110010E4180000DD
:1004A000C4120000342A0000FC0A0000E418000016
:1004B000682700003406000010000000882A0000B1
:1004C000582B00003407000098FFFFFF01060000D2
:1004D000780B000058230000500C00000C060000B0
:1004E000010600004009000000000000F8100010A4
:1004F0000C06000029060000F8100010010600009C
:100500004C2400004407000008000000CC24000038
:100510000C060000010600004C2400004407000007
:1005200008000000002000000C060000010600008A
:10053000582B000034060000D8090000C412000047
:10054000342A0000340600001E0A0000C412000015
:10055000342A0000582B00000C06000001060000A1
:10056000DC050000D43000000C060000010600008D
:100570006417000020170000382300003406000034
:100580007F0000002017000000190000A8230000D1
:1005900044070000E0FFFFFF641700004C17000055
:1005A0000C0600000A00000001000000000000002E
:1005B00000000000F01F0010701F0010101000104D
:1005C0007410001010000010000000000000000077
:1005D0001C3800002B0A000000000000E1050000AC
:1005E000054806490E2203680B6004300431013AC5
:1005F000F9D104CD08CA9847A4050000D410001012
:10060000361F3560154604CD08CA9847110600000C
:100610003568361D04CD08CA9847000001CA3F1F3F
:10062000386004CD08CA984701CA3F1F386004CD1E
:1006300008CA98473906000001CD3F1F386004CD35
:1006400008CA98474906000001CD3F1F386004CD15
:1006500008CA9847590600003D683F1D04CD08CAE6
:1006600098470000361F3560456808303F1F3860E6
:1006700004CD08CA984700007D06000004480549DB
:100680000968401A3F1F386004CD08CA9847000027
:10069000B00F0010F41000109D060000044805493A
:1006A0000968401A3F1F386004CD08CA9847000007
:1006B000D4100010F0100010BD0600003B683F1D74
:1006C0003A683F1D93465A46187884461178484048
:1006D0003F24204019D1521C5B1C187811788842A5
:1006E000F9D08024001B884210D15B1C1878FF28A9
:1006F000FBD008333F1F3B60012062463F1F3A603A
:100700003F1F386004CD08CA98475B1C18788024C6
:100710002042FAD01B1D064803401B68002B00D066
:10072000D1E700203F1F386004CD08CA9847000079
:10073000FCFFFFFF390700002B68ED1804CD08CA45
:10074000984700004907000038683F1D0028F3D093
:100750002D1D04CD08CA98475D0700000123746869
:100760003268944203D0D2183260A41AE4D1083619
:100770002D1D04CD08CA98477D0700003B683F1D2A
:10078000EDE700008907000038683F1D3A683F1D0B
:10079000361F3260361F306004CD08CA984700000B
:1007A000A507000038683F1D00787F2108403F1FE3
:1007B000386004CD08CA9847BD07000039683F1D5E
:1007C000094A9246094B1C68121910780132884276
:1007D00001D00028F9D15446121B1A703F1F38600F
:1007E00004CD08CA9847000010100010D81000105F
:1007F000F507000039683F1D3A683F1D10784840F2
:10080000107004CD08CA98470D0800000A218842DC
:1008100005D138683F1D0D203F1F386002E00D21D3
:10082000884203D100F02AF900F030F904CD08CA5B
:1008300098470000390800003868017801290FD076
:10084000022910D001440A78622A12D0252A10D039
:10085000642A10D0232A0ED0682A0ED0242A0CD065
:1008600004CD08CA984742782E2AEBD104CD08CA95
:100870009847022402E00A2400E0102400220A70B3
:10088000024A146004CD08CA98470000D410001032
:100890009508000038683F1D39683F1D4843C1175F
:1008A000024608463F1F3A603F1F386004CD08CA21
:1008B00098470000B908000038683F1D3B683F1D9D
:1008C0003A683F1D002808D003F0CEF83F1F3A6079
:1008D0003F1F386004CD08CA98474040401E02467A
:1008E0003F1F3A603F1F386004CD08CA9847000098
:1008F000F5080000024A176804CD08CA98470000AE
:10090000E410001009090000024A166804CD08CA64
:1009100098470000E81000101D090000024A116805
:100920008C4604CD08CA9847D41000103109000045
:10093000024A6146116004CD08CA9847D4100010DD
:100940004509000002CD04CD116004CD08CA9847C6
:100950000A490B480B4C0160001DA042FBD30A481A
:100960000A4C0160001DA042FBD3094F094E0AA5A5
:10097000361F356004CD08CA9847000011111111C7
:100980000000001000130010EC1E001000200010EA
:10099000F01F0010701F0010DC050000C0390000BF
:1009A000A4270000582B000034060000FB000000C4
:1009B000882A000034060000F7000000882A0000A2
:1009C000E014000008CA9F4603B5024908680130D8
:1009D000086003BD70100010464953482041524D35
:1009E000204C504331313135203634783820524D47
:1009F0002056312E3720284329323031342D3230E1
:100A0000313520412D5445414D20464F5254482008
:100A10003A2041756720323820323031350020616C
:100A2000742031313A30313A343000206F6B2C2051
:100A3000676F206669736820696E204241534520C4
:100A400000000000844E4F4FD0FFFFFF0000000069
:100A5000550A000004CD08CA98470000874558454C
:100A6000435554C5440A00006D0A000000F006F822
:100A700000F00CF804CF08CA984700007246024CF8
:100A800021688909FCD3104714800040724602494E
:100A900013240C7010470000008000407246024989
:100AA00011240C7010470000008000408242CCFFEF
:100AB0005C0A000029060000200000008255D0FFDB
:100AC000AC0A000029060000F01000108546454ED3
:100AD00043C5FFFFBC0A000029060000FC100010FF
:100AE0008244D0FFCC0A000029060000F410001058
:100AF00084424153C5FFFFFFE00A000029060000C1
:100B0000D41000108743555252454ED4F00A0000CD
:100B100029060000001100108553544154C5FFFF01
:100B2000040B000029060000E0100010834F55D48C
:100B3000180B000029060000DC1000108249CEFFCF
:100B40002C0B000029060000D8100010835041C46F
:100B50003C0B000029060000B00F0010835449C26E
:100B60004C0B00002906000010100010844845526C
:100B7000C5FFFFFF5C0B000001060000E80A000053
:100B8000E41800000C06000085414C4C4FD4FFFFD8
:100B90006C0B000001060000780600002017000022
:100BA000582300004C240000440700000800000007
:100BB000A0010000E80A0000C41800000C060000B4
:100BC00087414C49474E45C4880B0000D10B0000BB
:100BD00038683F1DC01C034908403F1F386004CDE2
:100BE00008CA9847FCFFFFFF85414C4947CEFFFFED
:100BF000C00B000001060000780B0000E821000097
:100C0000382300008817000000170000780B000050
:100C10008407000034060000FF0000006816000092
:100C20003819000058070000ECFFFFFFCC16000049
:100C300034060000FCFFFFFF54250000E80A000016
:100C40001C1900000C06000081ACFFFFE80B00003F
:100C500001060000780600004C2400004407000054
:100C600008000000A0010000C80100000C06000000
:100C70008243ACFF480C000001060000780600002B
:100C80004C2400004407000008000000A001000000
:100C9000780B000038190000C8210000B8010000DE
:100CA0000C06000088564152414C4C4FD4FFFFFFC8
:100CB000700C00000106000098060000F8210000FA
:100CC000C422000020170000582300004C2400001C
:100CD000440700001800000034060000E33800005C
:100CE000C4120000342A0000D8130000C40A000017
:100CF000E418000064170000F821000088220000BA
:100D0000C40A0000C41800000C060000864C4154C0
:100D10004553D4FFA40C000001060000100B000096
:100D2000E41800000C060000834C46C10C0D0000C6
:100D3000350D000038683F1D08383F1F386004CD6E
:100D400008CA9847834346C1280D0000510D000092
:100D500038683F1D001F3F1F386004CD08CA984700
:100D6000834E46C1440D00000106000054000000FF
:100D7000582300002C2100008817000000190000F3
:100D800034060000FF000000582300004407000064
:100D9000E4FFFFFF34060000FFFFFFFF6C050000CB
:100DA0000C060000835046C1600D000001060000E3
:100DB000C82100006C0500004821000088170000D1
:100DC0000019000034060000FF0000005823000056
:100DD00044070000E4FFFFFF540000003823000038
:100DE0000C060000883F414C49474E45C4FFFFFFB9
:100DF000A40D0000010600003406000003000000FE
:100E000054250000440700003C0000006002000080
:100E10002E56414C5545204D5553542042452045B2
:100E200056454E204E4F54204F444420414E4420BE
:100E30004D554C5449504C45204F4620342120FFFD
:100E4000D81300000C060000863F4552524FD2FFD7
:100E5000E40D0000010600006417000044070000D4
:100E600010000000BC100000340700000800000063
:100E70004C1700000C0600008544494749D4FFFF89
:100E8000480E0000890E00003A683F1D38683F1D7B
:100E900030380FD4092802DDC01F0A280ADB90422F
:100EA00008DA024601203F1F3A603F1F386004CD38
:100EB00008CA984700203F1F386004CD08CA9847E9
:100EC00087454E434C4F53C5780E0000D10E0000AD
:100ED00038683F1D39680022521E491E491C521CA9
:100EE0000B789842FAD03F1F3A60002B08D1184681
:100EF000521C3F1F3A603F1F386004CD08CA984714
:100F0000491C521C0B78984201D0002BF8D1104696
:100F1000401C3F1F3A603F1F386004CD08CA984705
:100F2000C180FFFFC00E00002D0F00003568361D88
:100F300004CD08CA9847000084574F52C4FFFFFFF2
:100F4000200F000001060000640B0000440B0000AD
:100F5000E41800003823000064170000CC0E0000E5
:100F6000440B0000C41800002017000058230000A4
:100F700000170000E8160000780B00003819000088
:100F800038230000780B000048210000E81600001C
:100F900028180000B8210000780B0000482100004C
:100FA000CC16000038230000381900000C060000A1
:100FB000864E554D4245D2FF380F00000106000015
:100FC0001809000034080000B8210000B821000012
:100FD0003C1600008817000048210000001900009E
:100FE000340600002D00000078230000C821000016
:100FF0005425000088170000001700003823000067
:1010000034060000FFFFFFFF282000001C1900002D
:10101000AC0200008817000000190000B821000091
:1010200058230000440700006C00000088170000EF
:1010300000190000340600002E00000058230000B4
:101040004407000044000000881700000019000059
:10105000340600002C000000782300004407000044
:101060001400000034060000FFFFFFFF34070000FB
:1010700098FFFFFF2C090000C82100003406000083
:1010800027390000540E0000B8210000340700008A
:1010900078FFFFFF4C170000CC160000440700004B
:1010A00008000000002000002C0900000C060000D1
:1010B000854552524FD2FFFFB00F000001060000DD
:1010C000780B0000A0120000342A0000C4120000B7
:1010D000342A000018290000240B0000E418000046
:1010E0004407000040000000F4040000E418000081
:1010F0004407000030000000F4040000E418000081
:10110000AC0D0000300D0000E4180000100B0000D2
:101110001C190000F4040000E4180000E80A0000B4
:101120001C190000E0040000D8130000C1A7FFFF55
:10113000B010000001060000300300002824000069
:101140003406000019390000540E00004C1700004E
:10115000201A00000C060000864558504543D4FF75
:101160002C1100000106000048210000201700009B
:101170003823000020170000482100003429000017
:1011800084070000C82A0000080800008817000033
:101190003406000009000000782300004407000026
:1011A0000C0000004C170000B40A00008817000073
:1011B00054000000782300002017000034060000CF
:1011C0007F00000078230000742500004407000021
:1011D000500000004C17000088170000681600003F
:1011E0002C2100007823000088170000CC16000096
:1011F000D821000058230000382300000017000009
:101200004407000010000000400000003407000008
:10121000600000005C000000340700005400000083
:1012200088170000340600000D000000782300003D
:10123000440700001C000000B41600004C1700001A
:10124000B40A0000B82100003407000008000000C4
:10125000881700006816000038190000B821000047
:10126000681600004821000038190000882A000094
:101270005807000010FFFFFF182900004821000058
:10128000C4120000641700002C210000381900006F
:101290000C06000085434F554ED4FFFF5811000047
:1012A00001060000881700004821000064170000B4
:1012B000001900000C06000084244C45CEFFFFFFFF
:1012C00094120000C91200003A684040115C0943C2
:1012D00001D0401CFAE73F1F386004CD08CA984788
:1012E00086464F524745D4FFB81200000106000061
:1012F0003411000088170000340600000040000090
:10130000A8230000340600008A380000540E0000B4
:10131000881700003406000000000100A823000028
:1013200034060000A7380000540E000088170000A3
:10133000300D000000170000180D0000AC0D00007B
:10134000300D000088170000E4180000100B0000AA
:101350001C1900008817000080210000E41800001C
:10136000340600001D06000078230000440700003A
:101370001400000034060000FCFFFFFFC40A000058
:10138000C4180000E816000078230000440700009D
:10139000A8FFFFFFCC160000E4180000100B0000AF
:1013A0001C190000680D0000E80A00001C1900006C
:1013B00070330000483300000C060000834259C51A
:1013C000E0120000C9130000FFF7C2FA8541424F46
:1013D00052D4FFFFBC13000001060000F00800001B
:1013E000040900004009000000000000DC100010AB
:1013F000340600003C380000180D0000B80600005C
:1014000044070000100000004C1700004C0D0000C5
:10141000680A00003406000008110010E4180000FB
:10142000440700006C000000340600009414000023
:10143000C4120000342A0000F82A0000440700000B
:10144000F8FFFFFFC82A0000340600004300000038
:101450007823000044070000E0FFFFFFC82A0000D7
:10146000340600004F00000078230000440700000D
:10147000C8FFFFFFC82A0000340600000D0000006E
:101480007823000044070000B0FFFFFF582B000046
:1014900054040000204572726F722048616C742001
:1014A0002845484F4E2F45484F464629202D205469
:1014B0006F20434F6E74696E756520547970652096
:1014C000434F207468656E20456E7465723A200043
:1014D0005404000084434F4CC4FFFFFFCC130000B2
:1014E000010600005C0500002C050000540400000B
:1014F000900D0A464953482053797374656D3A0D2F
:101500008AFFFFFFD4140000832E53C8F01400009C
:1015100001060000340600001000000088000000F2
:101520000C060000832E53C40815000001060000BD
:10153000340600000A000000880000000C060000CD
:10154000832E53C22415000001060000D82100009C
:10155000880000000C060000822ED3FF401500001A
:101560000106000080010000E41800008016000061
:101570008021000078230000282400004407000098
:10158000680000006002000005544F533E20FFFF3A
:1015900080010000E4180000801600008021000097
:1015A0008407000068160000E4180000FC0A000030
:1015B000E4180000340600000A0000007823000050
:1015C00044070000100000000C0100003407000078
:1015D000080000002401000090290000F82100000C
:1015E00078070000C0FFFFFF0C060000843244555E
:1015F000D0FFFFFF58150000FD15000038687A681D
:101600003F1F3A603F1F386004CD08CA984700006A
:10161000842D4455D0FFFFFFEC15000001060000AB
:101620008817000044070000080000008817000029
:101630000C06000083524FD4101600004116000023
:101640003A683F1D39683F1D38683F1D3F1F3960AC
:101650003F1F3A603F1F386004CD08CA984700001A
:1016600081C9FFFF341600006D16000030683F1F6F
:10167000386004CD08CA9847835350C060160000F4
:101680008516000038463F1F386004CD08CA9847C9
:10169000835250C0781600009D16000030463F1F50
:1016A000386004CD08CA9847854C454156C5FFFFB0
:1016B00090160000B91600003268726004CD08CAA6
:1016C000984700008252BEFFA8160000D116000005
:1016D0003068361D3F1F386004CD08CA98470000A7
:1016E00081D2FFFFC4160000ED16000030683F1FD6
:1016F000386004CD08CA9847823ED2FFE016000049
:101700000517000039683F1D361F316004CD08CA37
:1017100098470000844F5645D2FFFFFFF81600009F
:10172000251700003A683F1D38683F1D3F1F38608D
:101730003F1F3A603F1F386004CD08CA9847000039
:101740008444524FD0FFFFFF1417000051170000D0
:101750003F1D04CD08CA984784535741D0FFFFFF6F
:1017600040170000691700003A683F1D38683F1DA8
:101770003F1F3A603F1F386004CD08CA98470000F9
:10178000834455D0581700008D17000038683F1F5C
:10179000386004CD08CA9847900D0A537461636B92
:1017A0002053747566663A0D8AFFFFFF80170000AC
:1017B00087414E44424954D398170000C117000096
:1017C00004CF39683F1D08681040086004CD08CA7E
:1017D0009847000087534554424954D3B01700003E
:1017E000E517000004CF39683F1D08681043086002
:1017F00004CD08CA9847000087434C52424954D34D
:10180000D41700000918000004CF39683F1D08688C
:101810009043086004CD08CA9847000085434D4FA7
:1018200056C5FFFFF81700002D18000039683F1D4E
:101830003A683F1D3B683F1D002907D0187810709B
:10184000491E002902D0521C5B1CF7D104CD08CAE6
:10185000984700008446494CCCFFFFFF1C1800004D
:101860006518000038683F1D39683F1D3A683F1D04
:10187000002904D08B181070521C9A42FBD104CD61
:1018800008CA98478545524153C5FFFF54180000C8
:1018900001060000B8210000601800000C060000DE
:1018A00086424C414E4BD3FF8418000001060000D5
:1018B000B40A0000601800000C060000822BA1FF93
:1018C000A0180000C918000039683F1D38683F1D86
:1018D0000A688018086004CD08CA984781C0FFFFD5
:1018E000BC180000E918000039683F1D08683F1F58
:1018F000386004CD08CA98478243C0FFDC18000056
:101900000519000039683F1D08783F1F386004CD75
:1019100008CA984781A1FFFFF818000021190000AC
:1019200038683F1D39683F1D016004CD08CA9847DB
:101930008243A1FF141900003D19000038683F1DC3
:1019400039683F1D017004CD08CA98479F0D0A529F
:1019500065616420616E64205772697465204D650D
:101960006D6F727920576974683A0D8A30190000DA
:1019700081DDFFFF4C190000010600004009000056
:10198000C0000000E01000100C060000C1DBFFFFEB
:10199000701900000106000040090000000000006E
:1019A000E01000100C060000C95B434F4D50494C3D
:1019B00045DDFFFF8C190000010600003003000028
:1019C00028240000340600003F390000540E0000B7
:1019D0004C1700004C0D0000500C00000C060000DD
:1019E000C8444C4954455241CCFFFFFFA8190000A0
:1019F00001060000240B0000E4180000440700006A
:101A00001000000064170000201A0000201A0000D7
:101A10000C060000C74C4954455241CCE019000067
:101A200001060000240B0000E41800004407000039
:101A3000100000004C03000034060000500C0000B1
:101A40000C0600008223BEFF141A000001060000ED
:101A50004C1700004C17000098010000E41800002B
:101A6000540B000020170000582300000C06000053
:101A700084484F4CC4FFFFFF441A000001060000D9
:101A800034060000FFFFFFFF98010000C4180000AB
:101A900098010000E4180000381900000C0600004E
:101AA00084534947CEFFFFFF701A00000106000073
:101AB0003C1600004C240000440700001000000009
:101AC000340600002D0000007C1A00000C06000007
:101AD0008223D3FFA01A000001060000041B0000AF
:101AE00020170000201700007425000028240000A3
:101AF00044070000E8FFFFFF0C06000081A3FFFF82
:101B0000D01A000001060000FC0A0000E4180000E2
:101B10006C0300003C1600003406000009000000C1
:101B200020170000A8230000440700001000000058
:101B300034060000070000003823000034060000CF
:101B400030000000382300007C1A00000C06000062
:101B5000823CA3FFFC1A00000106000040090000BF
:101B6000B00F0010141100100C06000085444F4502
:101B700053BEFFFF501B000001060000CC16000002
:101B8000180D0000AC0D0000881700004C0D00007F
:101B90003406000063060000641700001C190000F2
:101BA0001C1900000C060000873C4255494C44D3E8
:101BB0006C1B000001060000F41D00000C06000074
:101BC000C52B4C4F4FD0FFFFA81B000001060000A3
:101BD000E8210000200200004C030000780700000C
:101BE000CC0400000C060000C44C4F4FD0FFFFFF98
:101BF000C01B000001060000E821000020020000D8
:101C00004C03000058070000CC0400000C06000044
:101C1000C244CFFFE81B0000010600004C03000097
:101C200084070000780B0000E82100000C0600008B
:101C3000C5454E4449C6FFFF101C000001060000C8
:101C4000E4010000D821000020020000780B000011
:101C50002017000058230000641700001C19000022
:101C60000C060000C4544845CEFFFFFF301C0000A6
:101C7000010600003C1C00000C060000C4454C534B
:101C8000C5FFFFFF641C000001060000D821000012
:101C9000200200004C03000034070000780B000015
:101CA000B8210000500C000064170000D82100008B
:101CB0003C1C0000D82100000C060000C249C6FFF1
:101CC0007C1C0000010600004C03000044070000DB
:101CD000780B0000B8210000500C0000D821000053
:101CE0000C060000C5554E5449CCFFFFBC1C00003B
:101CF00001060000C8210000200200004C03000083
:101D000044070000CC0400000C060000C541474118
:101D100049CEFFFFE41C000001060000C8210000BE
:101D2000200200004C03000034070000CC04000037
:101D30000C060000C65245504541D4FF0C1D000062
:101D4000010600000017000000170000181D000029
:101D5000CC160000CC160000D8210000582300004B
:101D60003C1C00000C060000C55748494CC5FFFF4D
:101D7000341D000001060000C41C000064210000A6
:101D80000C060000C542454749CEFFFF681D000014
:101D900001060000E4010000780B0000C8210000EB
:101DA0000C060000970D0A496E7369646520436F45
:101DB0006C6F6E20574F5244533A0D8A841D0000B9
:101DC00089494D4D4544494154C5FFFFA41D0000BC
:101DD00001060000180D000034060000400000005D
:101DE000F00700000C060000864352454154C5FF31
:101DF000C01D000001060000780600003406000047
:101E00000F000000582300004C240000440700008D
:101E100008000000A001000030030000440700009B
:101E2000240000004C170000680D0000A8290000E5
:101E30003406000003390000C4120000342A0000F8
:101E4000D8130000780B000088170000F40400008D
:101E50001C1900008817000000190000340600005B
:101E60001F00000004250000B801000088170000D2
:101E70003406000080000000F0070000780B00002E
:101E80003406000080000000F0070000C8210000B8
:101E9000E80A0000C4180000180D0000500C0000F3
:101EA000100B00001C1900004C0300002906000064
:101EB000780B000080210000500C00000C06000090
:101EC00088434F4E5354414ED4FFFFFFE81D00009E
:101ED00001060000E41E00000C06000083434FCE04
:101EE000C01E000001060000F41D000034060000C2
:101EF000FCFFFFFFE80A0000C4180000500C0000BF
:101F0000E00400000C060000885641524941424C52
:101F1000C5FFFFFFDC1E0000010600002C1F0000B3
:101F20000C060000835641D2081F00000106000085
:101F3000F41D000034060000F8FFFFFFE80A00006F
:101F4000C41800004C0300001D060000C82100005A
:101F5000B40C0000500C0000E00400000C0600006F
:101F6000C1BBFFFF241F000001060000AC030000FE
:101F70004C0300000C06000094190000E00400006F
:101F80000C060000C1BAFFFF601F00000106000040
:101F90000402000098030000F41D000078190000FE
:101FA00034060000F8FFFFFFE80A0000C418000034
:101FB0004C030000010600000C060000960D0A43C9
:101FC000524541544520574F524453205769746835
:101FD0003A0D8AFF841F000084444142D3FFFFFF73
:101FE000BC1F000001060000881700001405000057
:101FF0000C06000087444E45474154C5D81F0000D9
:102000000520000038683F1D3A683F1DC043D24399
:10201000521C3F1F3A603F1F386004CD08CA9847E2
:10202000834450CCF41F000029060000101100105A
:1020300083442ED22020000001060000001700007B
:102040006417000020170000E41F0000581B000068
:10205000D81A0000AC1A00004C1A0000CC16000080
:10206000201700005823000054290000342A0000E3
:102070000C0600008244AEFF302000000106000084
:10208000B821000038200000902900000C06000054
:102090008244ABFF742000009D20000038683F1D83
:1020A00039683F1D3B683F1D3A683F1D5218584133
:1020B0003F1F3A603F1F386004CD08CA98470000B0
:1020C00084532D3EC4FFFFFF90200000D12000006C
:1020D0003A683F1D4040124300D5401E3F1F3A6002
:1020E0003F1F386004CD08CA984700008232AAFF1B
:1020F000C0200000F920000038683F1D40003F1F4D
:10210000386004CD08CA98478232AFFFEC20000047
:102110001521000038683F1D40103F1F386004CD76
:1021200008CA98478231ADFF082100003121000024
:1021300038683F1D401E3F1F386004CD08CA9847CD
:102140008231ABFF242100004D21000038683F1D83
:10215000401C3F1F386004CD08CA98478232ABFF4D
:10216000402100006921000038683F1D801C3F1F8E
:10217000386004CD08CA98478234ABFF5C21000068
:102180008521000038683F1D001D3F1F386004CDC9
:1021900008CA98478234ADFF78210000A1210000D1
:1021A00038683F1D001F3F1F386004CD08CA98479C
:1021B00081B0FFFF9421000029060000000000000C
:1021C00081B1FFFFB02100002906000001000000DE
:1021D00081B2FFFFC02100002906000002000000BC
:1021E00081B3FFFFD021000029060000030000009A
:1021F00081B4FFFFE0210000290600000400000078
:10220000824DAAFFF021000001060000F815000031
:10221000B025000000170000EC2400006417000047
:10222000EC24000090080000CC160000140500000B
:102230000C060000824DAFFF0022000001060000E6
:10224000201700000017000000170000E41F000026
:10225000E8160000EC240000B4080000CC160000D2
:10226000E8160000B0250000FC0400006417000020
:10227000CC160000FC040000641700000C060000EF
:1022800081AAFFFF3422000001060000082200009E
:102290004C1700000C060000842F4D4FC4FFFFFFB9
:1022A000802200000106000000170000CC20000082
:1022B000CC1600003C2200000C06000081AFFFFF9E
:1022C0009822000001060000A4220000641700000C
:1022D0004C1700000C060000834D4FC4BC220000C8
:1022E00001060000A42200004C1700000C060000AC
:1022F000852A2F4D4FC4FFFFD822000001060000A1
:102300000017000008220000CC1600003C2200004C
:102310000C060000822AAFFFF02200000106000038
:10232000FC220000641700004C1700000C0600009F
:1023300081ABFFFF142300003D23000038683F1DE0
:1023400039683F1D40183F1F386004CD08CA9847C0
:1023500081ADFFFF302300005D23000038683F1D82
:1023600039683F1D081A3F1F386004CD08CA9847D6
:1023700081BDFFFF502300007D23000040403968ED
:102380003F1D3A683F1D891A04D03F1F386004CDB5
:1023900008CA984701383F1F386004CD08CA9847DB
:1023A00081BCFFFF70230000AD23000040400138D6
:1023B00039683F1D3A683F1D914200DC40403F1F95
:1023C000386004CD08CA98478255BCFFA02300009E
:1023D00001060000F8150000B02500004C240000A4
:1023E00044070000180000004C1700004C240000B7
:1023F00028240000340700000C00000058230000CF
:102400004C2400000C06000081BEFFFFC823000022
:102410000106000064170000A82300000C0600005D
:102420008230BDFF082400002D24000040403968A0
:102430003F1D002900D1401E3F1F386004CD08CA4F
:10244000984700008230BCFF202400005124000087
:1024500039683F1D40400138094300D440403F1FC8
:10246000386004CD08CA9847834249CE442400000E
:10247000010600004009000002000000D410001016
:102480000C060000834845D86824000001060000BF
:102490004009000010000000D41000100C060000DD
:1024A00087444543494D41CC842400000106000087
:1024B000400900000A000000D41000100C060000C3
:1024C000864E45474154C5FFA0240000D12400009A
:1024D00038683F1DC043401C3F1F386004CD08CA08
:1024E00098470000834142D3C02400000106000049
:1024F00088170000FC0400000C060000834D49CE44
:10250000E424000001060000F8150000102400007B
:102510004407000008000000641700004C1700008A
:102520000C060000834D41D8FC2400000106000089
:10253000F8150000A8230000440700000800000070
:10254000641700004C1700000C06000083414EC4C5
:10255000242500005925000038683F1D39683F1DBB
:1025600008403F1F386004CD08CA9847824FD2FF09
:102570004C2500007925000038683F1D39683F1D53
:1025800008433F1F386004CD08CA9847834E4FD494
:102590006C2500009925000038683F1DC0433F1F8F
:1025A000386004CD08CA984783584FD28C25000064
:1025B000B525000038683F1D39683F1D48403F1F62
:1025C000386004CD08CA984784535854C8FFFFFFA9
:1025D000A8250000D925000038683F1D00B23F1F24
:1025E000386004CD08CA984784535854C2FFFFFF8F
:1025F000C8250000F925000038683F1D40B23F1F84
:10260000386004CD08CA984784524556D7FFFFFF6B
:10261000E82500001926000038683F1D00BA3F1F5A
:10262000386004CD08CA9847834153D20826000079
:10263000352600003A683F1D38683F1D10413F1F96
:10264000386004CD08CA9847834C53D2282600002E
:10265000552600003A683F1D38683F1DD0403F1F97
:10266000386004CD08CA9847834C53CC48260000F4
:10267000752600003A683F1D38683F1D90403F1F97
:10268000386004CD08CA9847822ED2FF6826000021
:102690000106000000170000CC200000CC1600004E
:1026A000382000000C060000832E52D5882600003A
:1026B0000106000000170000B8210000581B0000B0
:1026C000D81A00004C1A000088170000CC16000031
:1026D000641700005823000054290000342A000029
:1026E0000C0600008255AEFFA8260000010600007F
:1026F000B82100007C2000000C06000081BFFFFF15
:10270000E426000001060000E41800001C27000079
:102710000C06000081AEFFFFFC2600000106000051
:10272000CC2000007C2000000C060000822EC2FF9E
:102730001427000001060000D82100003C01000021
:102740000C060000822EC8FF2C27000001060000A6
:1027500034060000100000003C0100000C060000E0
:10276000822EC4FF4427000001060000340600004A
:102770000A0000003C0100000C060000910D0A4E0A
:10278000554D4245522053747566663A0D8AFFFFD7
:10279000602700008A55415254305F494E49D4FFAA
:1027A0007C27000001060000340600000013001022
:1027B000E418000028240000440700001C0000006A
:1027C0003406000004130010E41800000017000095
:1027D00034070000100000003406000080250000CF
:1027E0000017000034060000A44004403406000036
:1027F00039000000E017000034060000A840044043
:10280000C8210000E017000040090000010000009E
:102810009880044040090000830000000C800040C4
:10282000243500003406000010000000C42200001F
:10283000CC160000C4220000340600000001000095
:10284000A4220000EC280000802100001C190000D8
:10285000EC2800001C1900004009000003000000E3
:102860000C8000404009000000000000088000408B
:10287000400900000700000008800040C428000054
:102880004C1700000C060000864D59424155C4FF0C
:10289000942700000106000040090000000000002D
:1028A0000013001034060000041300101C1900006F
:1028B0000C0600008955415254305F4C53D2FFFF43
:1028C00088280000C9280000034908783F1F3860A5
:1028D00004CD08CA98470000148000408855415232
:1028E00054305F52D8FFFFFFB428000029060000D3
:1028F000008000408855415254305F54D8FFFFFF9C
:10290000DC280000290600000080004084584F4663
:10291000C6FFFFFFF42800001D290000FEF7AEF8F7
:10292000FEF7B4F804CD08CA9847000083584FCE8C
:102930000C29000039290000FEF7A0F8FEF7AEF8D8
:1029400004CD08CA98470000865350414345D3FF41
:102950002C29000001060000B82100002C250000F1
:102960001C1600004407000018000000B8210000F9
:10297000840700009029000058070000F8FFFFFFBF
:102980000C0600008553504143C5FFFF4829000055
:1029900001060000B40A0000882A00000C060000AE
:1029A000834944AE8429000001060000A012000003
:1029B000340600001F00000054250000342A0000E7
:1029C000902900000C060000C22EA2FFA0290000E2
:1029D000010600003406000022000000240B000065
:1029E000E4180000440700002C0000004C03000025
:1029F00060020000440F0000780B00000019000086
:102A000048210000CC0B0000B80100003407000092
:102A100014000000440F0000780B0000A01200001A
:102A2000342A00000C06000084545950C5FFFFFFF3
:102A3000C8290000010600001C1600004407000021
:102A4000340000001829000020170000382300007F
:102A5000641700008407000068160000A00700004B
:102A6000882A000058070000F0FFFFFF340700002D
:102A7000080000004C1700000C06000084454D497A
:102A8000D4FFFFFF282A00008D2A000038683F1D70
:102A9000FDF7F4FF0449087004490868401C086009
:102AA00004CD08CA9847000000800040DC100010E8
:102AB000834B45D97C2A0000010600003429000020
:102AC000C82A00000C060000CD2A0000054A064B6B
:102AD00019684908FCD310683F1F386004CD08CA44
:102AE000984700000080004014800040843F4B4520
:102AF000D9FFFFFFB02A0000FD2A0000FDF7BEFF4E
:102B0000FDF7CCFF084B1968490806D3404001384F
:102B10003F1F386004CD08CA984740403F1F3860C7
:102B200004CD08CA9847000014800040834352D364
:102B3000EC2A000001060000B82100008407000014
:102B4000582B000058070000F8FFFFFF0C0600009C
:102B50008243D2FF2C2B0000010600004009000038
:102B600000000000DC10001060020000020D0AFFEF
:102B70000C0600008D0D0A4649534820494F3A0D76
:102B80008AFFFFFF502B00008B495251535F524583
:102B900053554DC5742B00009D2B000062B6C046F6
:102BA00004CD08CA984700008C495251535F5355D1
:102BB0005350454EC4FFFFFF882B0000C12B00007F
:102BC00072B6C04604CD08CA984700008F535953C7
:102BD0005449434B5F4952515F4F46C6A82B0000F2
:102BE000E52B000002490520086004CD08CA98477B
:102BF00010E000E08E5359535449434B5F49525102
:102C00005F4FCEFFCC2B00000D2C000002490720A7
:102C1000086004CD08CA984710E000E08F0D0A490B
:102C20004E54455252555054533A0D8AF42B0000DD
:102C30008A464C4153485F534156C5FF1C2C000047
:102C400001060000180D000048340000A823000011
:102C50004407000020000000582B00006002000024
:102C60000F4E4F5448494E4720544F20534156452C
:102C70000C0600004C2D0000E41800003406000093
:102C80000000010078230000440700002800000035
:102C9000582B000060020000144C41535420464C55
:102CA00041534820504147452055534544FFFFFFBD
:102CB0000C060000C40A0000E41800005C2D0000AF
:102CC0001C190000180D0000642D0000542D000098
:102CD0001C190000180D0000483400007823000083
:102CE0004407000058000000943000004834000001
:102CF000E80A00001C1900005C2D0000E418000028
:102D0000C40A00001C190000542D0000E418000043
:102D1000100B00001C190000340600000010000019
:102D20004C2D0000C4180000D4300000582B0000C7
:102D300070330000483300000C060000180D00003E
:102D4000882D0000340700008CFFFFFF29060000DB
:102D500004000010290600000800001029060000E9
:102D60000C000010692D000038683F1D044A104017
:102D7000044A126880183F1F386004CD08CA98477B
:102D8000FF0F00000400001001060000AC0D000061
:102D900088170000001700004C0D00008817000085
:102DA000E4180000340600006306000078230000E9
:102DB0004407000028000000802100008817000060
:102DC00088170000E4180000642D0000641700005C
:102DD0001C190000340700000001000088170000E3
:102DE000E4180000340600002906000078230000E3
:102DF00020170000E4180000340600001D06000043
:102E00007823000074250000440700001000000033
:102E10004C17000034070000C400000080210000AF
:102E200088170000E4180000340600003406000093
:102E300078230000440700001000000080210000FB
:102E400034070000D8FFFFFF88170000E4180000D7
:102E500034060000600200007823000044070000F0
:102E600020000000881700008021000000190000E9
:102E700038230000CC0B000034070000A0FFFFFF48
:102E800088170000E4180000340600000C0600005B
:102E90007823000028240000440700003C000000C4
:102EA00088170000E41800004834000010240000D7
:102EB0004407000068FFFFFF881700008817000024
:102EC000E4180000642D0000641700001C190000C5
:102ED0003407000048FFFFFF4C170000CC1600002D
:102EE000300D000088170000E4180000881700006B
:102EF000100B00001C190000642D00006417000076
:102F00001C1900000C0600000D2F000006480749A0
:102F100032220260064B1A68120B42608260054B37
:102F2000984704CD08CA984718110010681100107E
:102F300004000010F11FFF1F3D2F00000748084943
:102F400034220260074B1A68120B42608260064A04
:102F5000C260064B984704CD08CA98471811001064
:102F6000681100100400001080BB0000F11FFF1F5B
:102F7000752F00000848094933220260084A126888
:102F80004260084A8260084AC260084A0261084BEF
:102F9000984704CD08CA984718110010681100100E
:102FA00004000010000000100010000080BB0000B2
:102FB000F11FFF1F8C464C4153485F464F52474517
:102FC000D4FFFFFF302C0000010600004009000084
:102FD00000400000040000104C2D0000E418000028
:102FE00034060000000001007823000028240000BF
:102FF000440700002C000000BC2B0000082F00003C
:10300000382F0000982B000034060000001000004C
:103010004C2D0000C418000034070000BCFFFFFF67
:103020005C340000180D000010240000440700006C
:1030300010000000BC370000340700001C00000036
:10304000340600001C38000048340000AC0D0000BD
:10305000300D00001C190000400900000040000075
:10306000040000103406000011111111881700002F
:10307000542D00001C1900005C2D00001C190000DC
:10308000D4300000582B000070330000483300009B
:103090000C06000001060000780B0000340600005A
:1030A000AF0F0010780B000058230000340600001A
:1030B000FF00000060180000BC2B0000082F00007B
:1030C000382F0000082F0000702F0000982B000000
:1030D0000C0600000106000034060000004000005D
:1030E000881700004C2D00001C19000088170000F4
:1030F00000170000E41800002435000078230000C9
:10310000440700007C000000E816000034060000C0
:10311000080000003823000088170000E4180000B1
:10312000100B00001C19000080210000E4180000B2
:10313000C40A00001C190000582B000060020000A7
:1031400017414444454420574F5244532046524F60
:103150004D205041474520FFE81600004C27000055
:10316000E8160000340600000010000038230000BC
:103170004C2D00001C190000340700000C0000005A
:10318000E8160000DC310000E816000034060000FC
:1031900000100000382300008817000034060000EB
:1031A0000000010058230000440700002000000038
:1031B0004C170000CC160000340600000010000080
:1031C000382300003407000024FFFFFF4C170000E5
:1031D000CC1600004C1700000C0600000106000091
:1031E000881700003406000000100000382300009B
:1031F0000017000088170000E418000048210000B4
:103200004407000048000000BC2B0000082F00000D
:10321000382F0000982B0000582B0000600200009F
:10322000174552415345442042414420464C4153A6
:1032300048205041474520204C2700004C170000F3
:10324000CC1600004C1700000C0600008021000086
:103250008817000088170000E816000064170000B7
:1032600058230000440700000C0000003407000051
:1032700088FFFFFF582B0000600200000E464C4103
:1032800053482050414745204F4B20FF4C1700002A
:103290003406000000100000582300004C270000F6
:1032A000CC1600004C1700000C06000084504F465E
:1032B000C6FFFFFFB42F0000010600004009000018
:1032C00000000000041100100C06000083504FCED7
:1032D000AC32000001060000400900002B0A00008B
:1032E000041100100C06000081D0FFFFCC3200005A
:1032F00029060000041100108545484F46C6FFFF0F
:10330000E832000001060000B82100003406000089
:10331000081100101C1900000C0600008445484FDD
:10332000CEFFFFFFF832000001060000C8210000B8
:1033300034060000081100101C1900000C060000E3
:10334000832E44D31C3300000106000078060000E1
:10335000682700003406000058380000C41200003E
:10336000342A00000C060000832E56D340330000A0
:103370000106000098060000F8210000C4220000A9
:1033800068270000340600004D380000C412000019
:10339000342A00000C0600008444554DD0FFFFFF86
:1033A000683300000106000020170000F40D000043
:1033B000180900008C240000B821000084070000D8
:1033C000582B000088170000340600000A00000097
:1033D000B0260000F8210000B8210000840700009A
:1033E00088170000E4180000340600000E000000FA
:1033F000B02600008021000058070000E4FFFFFF16
:10340000F82A00004407000008000000B41600007D
:1034100058070000ACFFFFFF4C170000582B0000BE
:103420002C0900000C0600008556424153C5FFFFE1
:1034300098330000290600007410001085444241B2
:1034400053C5FFFF283400002906000010000010BB
:103450008552424153C5FFFF3C340000290600005D
:103460000000001083434CD35034000001060000DC
:1034700060020000041B5B324AFFFFFF6002000095
:10348000041B5B3B48FFFFFF582B00000C060000AD
:10349000C1A8FFFF643400000106000034060000EC
:1034A00029000000B807000028240000440700009D
:1034B00028000000582B000088020000340600009D
:1034C0001110001000190000440700001000000057
:1034D00034070000C8FFFFFF0C06000034060000A0
:1034E0006A380000C4120000342A00000C060000F4
:1034F000C1DCFFFF9034000001060000B82100008D
:10350000640B0000440B0000E418000038230000A6
:10351000381900000C06000086535953434CCBFF6A
:10352000F034000029350000034908683F1F386067
:1035300004CD08CA9847000000000010855354438A
:1035400054D2FFFF1835000029060000701000104B
:103550008544454C41D9FFFF3C35000061350000F2
:1035600039683F1D38683F1D0A4CC043401C20602D
:10357000094A1160094A1160002806D0084A1068FB
:103580000721116021680029FCD1106004CD08CA10
:10359000984700007010001014E000E018E000E010
:1035A00010E000E0824DD3FF50350000010600001E
:1035B000340600007FBB00005C3500000C060000F4
:1035C00087574F52444341D4A43500000106000000
:1035D000780B000000170000B8210000780C0000F4
:1035E000340600000D000000780C0000780B00008D
:1035F000340600000D000000440F00008817000092
:1036000000190000340600000A0000003C1600000B
:10361000381900008817000048210000940B0000B2
:10362000340600008400000038230000E816000083
:1036300038190000340600000D000000780C00006E
:10364000340600008A000000780C0000F40B000033
:10365000180D0000500C0000CC16000034060000CD
:10366000001100101C1900000C06000085574F5275
:1036700044D3FFFFC035000001060000E821000030
:1036800054290000180D000018290000B82100007E
:103690002017000048210000001900003406000037
:1036A0000D000000782300002824000044070000DB
:1036B0001C0000004C17000088170000AC0D000033
:1036C000300D00002017000058230000340B0000CC
:1036D000E418000038230000340600004A0000000F
:1036E000102400004407000010000000582B0000C8
:1036F000E82100005429000088170000D80A0000C3
:10370000E4180000A8230000440700000C0000009B
:10371000340700005C00000088170000A8290000A2
:10372000D82100005429000088170000482100001B
:1037300000190000340600000D000000782300008E
:1037400044070000100000004009000000000000D5
:10375000DC100010AC0D0000300D0000E41800007B
:1037600088170000282400004407000020FFFFFF06
:103770004C170000582B00000C060000874D5957CD
:103780004F5244D36C36000001060000400900008F
:1037900000400000FC1000107836000040090000D6
:1037A00000000000FC1000100C0600008946495380
:1037B000485F4F4E4CD9FFFF7C370000C1370000F7
:1037C0000749084C2160084C21600849084C2160D9
:1037D000084C21600849094C216004CD08CA98476B
:1037E0001C380000001100100800001074100010B8
:1037F000F01000100C00001010000010F410001069
:1038000084464953C8FFFFFFAC37000001060000A3
:10381000D43000002C050000D8130000990D0A4692
:10382000495348205265666572656E6365204D6F29
:1038300064656C3A0D8AFFFF003800000352554E54
:103840002000203F2000203C43523E2000564152A1
:103850002043454C4C53200044494354494F4E416A
:103860005259204259544553200020434F4D4D4555
:103870004E54204C494E452043414E4E4F54204219
:103880004520454D5054592015002043414E5420A9
:10389000464F52474554204649534820494E2046FA
:1038A0004C41534820150020494E20464C41534876
:1038B000202D2053454520464C4153485F464F52EA
:1038C0004745542015002044494354494F4E415226
:1038D000592046554C4C202D20534545202E44530D
:1038E0002015002052414D20564152205350414353
:1038F000452046554C4C202D20534545202E5653EF
:1039000020150020495320414C5245414459204440
:103910004546494E4544201500203F204E4F542037
:10392000574F5244201500203F204E4F5420574FF0
:103930005244204F52204E554D42455220150020F2
:10394000434155534544204120535441434B204566
:1039500052524F5220150020535441434B204552A0
:10396000524F52205748494C4520455845435554DD
:10397000494E47204F5220434F4D50494C494E47E6
:10398000201500204552524F52202D204E4F5420DA
:10399000434F4D50494C494E472015002045525247
:1039A0004F52202D204558454355544544205748F3
:1039B000494C4520434F4D50494C494E4720150036
:1039C00001060000400900000700000010E000E0D0
:1039D000400900005F180100808004404009000099
:1039E00070ED000038820440400900000000000033
:1039F0004080044040090000000000004480044072
:103A0000400900000100000044800440400900001B
:103A10000300000008800440340600000C800440CD
:103A2000E4180000C82100005425000044070000ED
:103A3000E8FFFFFF40090000030000007080044021
:103A400040090000000000007480044040090000AC
:103A5000010000007480044040090000006CDC029A
:103A6000000000100C060000F0B5040016001F0056
:103A7000300039002200E31700F008F8150030008C
:103A800039002200E31700F001F8F0BD30B4DC0F7C
:103A900003D05B42524200D25B1E0D106C4013D02B
:103AA000F446002502D349424042A94100F00DF8F6
:103AB000E40703D35B425242AB41244202D5494260
:103AC0004042A94130BC604730BC124224D09942E8
:103AD00028D970B500251B4202D00C00002109E056
:103AE0000024012649186441944200D3A41A764167
:103AF000F8D33100012601E0764109D20018644173
:103B00006D41A41A9D41F7D2A4185D41B619F5D3B1
:103B1000300022002B0070BD1B42D8D108B5C04632
:103B2000C04608BD01D19042D3D202000B00002153
:103B30000020704700B5BFF34F8F0348034908606A
:103B4000BFF34F8FFEE700000400FA050CED00E024
:103B500000B5FEE780B5FFF7EDFF01BD00B5FEE75C
:103B600000B5FEE700B5FEE700B5FEE700B5FEE7ED
:0E3B700000B5FEE780B5FCF727FF01BD7047EA
:0400000500003B7D3F
:00000001FF
