:10000000780C00102F3C0000AB3B0000AB3B000025
:10001000AB3B0000AB3B0000AB3B0000028DFEEFB2
:10002000000000000000000000000000AB3B0000EA
:10003000AB3B000000000000AB3B0000AB3B00000E
:1000400081008100810081008100810081008100A8
:100050008100810081008100810081008100810098
:100060008100810081008100810081008100DD002C
:0800700000018100D400000032
:1003000046495348202D204155544F464F524745AA
:10031000542046495845442C203F53455249414CAE
:1003200020494E505554204857204641494C3F3AA9
:100330002030313A3030616D2031336F63743230A8
:10034000313300206F6B2C20676F20666973682142
:1003500000000000203F2000203C43523E200020AF
:1003600043414E5420464F52474554204649534836
:100370002053595354454D20574F52445320002089
:1003800043414E5420464F5247455420574F524404
:100390005320534156454420494E20464C41534832
:1003A000202D2053454520464C4153485F464F522F
:1003B000474554200020574F5244204E4F54204967
:1003C0004D504C454D454E54454420594554200010
:1003D000204E6F7420737570706F7274656420693D
:1003E0006E2042494E4152593A200020444543492B
:1003F0004D414C2033324249542043454C4C53200C
:10040000617661696C61626C6520696E2052414D54
:10041000205641522053706163652E2000204445D0
:1004200043494D414C20427974657320617661697E
:100430006C61626C6520696E2064696374696F6EBB
:100440006172792E20002044696374696F6E617255
:10045000792046756C6C2E20557365202E445320F0
:10046000002052414D2056415220535041434520D7
:1004700046756C6C2E20555345202E565320002077
:1004800065786973747320696E2064696374696F39
:100490006E61727920616C72656164792E20002032
:1004A0003F206E6F7420666F756E6420616E6420ED
:1004B0006E6F742061206E756D62657220696E20AA
:1004C0004E554D4245523A20002063617573656474
:1004D000206120737461636B206572726F72206992
:1004E0006E2051535441434B3A2000207374616392
:1004F0006B206572726F72207768696C6520636F1C
:100500006D70696C696E672C206D69736D617463C1
:1005100068656420636F6E646974696F6E616C20D6
:10052000696E2051504149523A2000206572726F25
:100530007220747279696E6720746F20636F6D70BA
:10054000696C65207768656E206E6F7420636F6DCF
:1005500070696C696E6720696E2051434F4D503A47
:100560002000206572726F7220747279696E672044
:10057000746F2065786563757465207768656E2093
:100580006E6F7420636F6D70696C696E6720696E41
:100590002051535441434B3A200000000B490C4872
:1005A0000C4C0160001DA042FBD30B480B4C0160BA
:1005B000001DA042FBD381B070460090084F094E49
:1005C0000AA5361F356004CD074B9847111111114C
:1005D00000000010800C0010DC0E00100010001055
:1005E000E00F0010600F0010350600003C370000DF
:1005F0003835000010130000A0340000A41A0000D9
:10060000142C0000C4340000201D00001C37000022
:10061000AC380000FB000000240E0000AC380000E5
:10062000F7000000240E0000740E0000D418000033
:100630002437000008CA1847844E4F4FD0FFFFFFF1
:10064000000000004906000004CD014B984700005F
:100650003506000084455845C3FFFFFF38060000FB
:100660006506000004CF014B9847000035060000E6
:100670008A464C4153485F534156C5FF540600001B
:100680009D240000200F0000C01C00005407000043
:10069000001D0000CC1100005C0700004C070000AA
:1006A000001D0000CC1100005C0B0000F8290000C8
:1006B000D4380000080000007C2E0000CC1100009F
:1006C0005C0B0000E0290000D43800006800000046
:1006D000280A00005C0B0000440F0000001D000011
:1006E00054070000C01C0000200F0000001D000087
:1006F0004C070000C01C00006C0F0000001D000033
:1007000044070000C01C0000AC380000007000006E
:10071000E02900007C2A0000D4380000140000000A
:10072000AC3800000010000044070000741C0000FA
:100730007C2E0000CC11000084070000C0380000AF
:100740007CFFFFFFF523000004000010F5230000EC
:1007500008000010F52300000C00001061070000E5
:1007600038683F1D044A1040044A126810433F1F76
:10077000386004CD024B9847FF0F000004000010C2
:10078000350600009D240000EC1A0000E032000055
:100790006C120000EC1A0000141A00000412000091
:1007A000EC1A0000C01C0000AC380000F52300006B
:1007B000E0290000D438000010000000A41A000056
:1007C000C0380000C4000000A42B0000EC1A000098
:1007D000C01C0000AC380000AC380000E02900006C
:1007E000D438000010000000A42B0000C038000026
:1007F000D8FFFFFFEC1A0000C01C0000AC3800005E
:10080000202F0000E0290000D43800002000000064
:10081000EC1A0000A42B0000E01C00009829000046
:1008200030100000C0380000A0FFFFFFEC1A0000ED
:10083000C01C0000AC3800007C2E0000E029000045
:100840007C2A0000D43800003C000000EC1A0000B4
:10085000C01C00005C0B0000642A0000D4380000BB
:1008600068FFFFFFEC1A0000EC1A0000C01C00003B
:100870005C070000C41A0000001D0000C038000022
:1008800048FFFFFFA41A0000341A0000E411000022
:10089000EC1A0000C01C0000EC1A00006C0F0000F5
:1008A000001D00005C070000C41A0000001D0000CD
:1008B0007C2E0000B9080000064807493222026079
:1008C000064B1A68120B42608260054B984704CDB4
:1008D000044B9847A00B0010F00B00100400001010
:1008E000F11FFF1F35060000ED080000074808490A
:1008F00034220260074B1A68120B42608260064A7B
:10090000C260064B984704CD054B9847A00B0010DA
:10091000F00B00100400001050C30000F11FFF1F77
:100920003506000029090000084809493322026001
:10093000084A12684260084A8260084AC260084A4F
:100940000261084B984704CD074B9847A00B001055
:10095000F00B001004000010000000100010000058
:1009600050C30000F11FFF1F350600008C464C41AC
:1009700053485F464F524745D4FFFFFF70060000C3
:100980009D240000AC380000007000004407000007
:10099000001D0000B4080000E8080000AC380000AA
:1009A0000060000044070000001D0000B4080000C3
:1009B000E8080000AC3800000050000044070000C8
:1009C000001D0000B4080000E8080000AC3800007A
:1009D0000040000044070000001D0000B4080000B3
:1009E000E80800005C0B0000E01C0000AC380000D0
:1009F000800000000C290000D43800002400000012
:100A0000AC380000103700005C0B00006C120000D6
:100A1000E4110000001D0000C038000008000000C4
:100A2000A43300007C2E00009D240000D40F0000A1
:100A3000AC3800009B0A0010D40F0000BC29000055
:100A4000AC380000FF000000081C0000B4080000E3
:100A5000E8080000B4080000240900007C2E000013
:100A600083434CD36C0900009D240000202F00001C
:100A7000041B5B324A00FFFF202F0000041B5B3B7E
:100A80004800FFFF740E00007C2E00008444554D8A
:100A9000D0FFFFFF600A00009D240000740E0000DC
:100AA000580F0000C01C0000042C0000E0290000CA
:100AB000D438000018000000AC380000D00300005B
:100AC000F8150000781500007C2E0000EC1A0000DC
:100AD000FC2C0000741A0000A02C0000E42B000085
:100AE0001C390000740E0000EC1A0000AC38000045
:100AF0000A000000F0270000242C0000E42B000076
:100B00001C390000EC1A0000C01C0000AC380000CA
:100B10000E000000F0270000A42B0000EC380000BD
:100B2000E4FFFFFF242C000010390000B8FFFFFF96
:100B3000A41A0000740E00007C2E0000855642416D
:100B400053C5FFFF8C0A0000F52300009C0A00102B
:100B50008544424153C5FFFF3C0B0000F5230000D4
:100B6000100000108552424153C5FFFF500B00009A
:100B7000F52300000000001086535953434CCBFF6F
:100B8000640B0000890B0000034908683F1F3860B0
:100B900004CD024B9847000000000010350600000D
:100BA0009D240000580F0000C01C0000141A000013
:100BB000EC1A0000580F0000001D0000AC380000C7
:100BC0000A000000E0290000D438000010000000F6
:100BD00048280000C0380000080000007828000005
:100BE000341A0000580F0000001D00007C2E000089
:100BF000822EC4FF780B00009D240000AC3800005A
:100C00000A000000A00B00007C2E0000822EC2FF14
:100C1000F00B00009D240000042C0000A00B00003D
:100C20007C2E0000822EC8FF0C0C00009D240000CA
:100C3000AC38000010000000A00B00007C2E00006B
:100C4000822ED3FF240C00009D240000A80E00007B
:100C5000C01C00007C190000A42B0000E02900004B
:100C60007C2A0000D438000058000000A80E0000C4
:100C7000C01C00007C190000A42B00001C390000DF
:100C800060190000C01C0000580F0000C01C0000CC
:100C9000AC3800000A000000E0290000D438000051
:100CA0001000000048280000C038000008000000C4
:100CB00078280000242C000010390000C4FFFFFF3A
:100CC0007C2E00009D240000580F0000C01C000076
:100CD000141A0000580F0000001D0000480C00000E
:100CE000341A0000580F0000001D00007C2E000088
:100CF000832E53C2400C00009D240000042C0000F1
:100D0000C40C00007C2E0000832E53C4F00C0000A5
:100D10009D240000AC3800000A000000C40C000054
:100D20007C2E0000832E53C8080D00009D24000077
:100D3000AC38000010000000C40C00007C2E000045
:100D4000450D0000044805490968401A3F1F3860F6
:100D500004CD034B98470000380A00107C0B0010AC
:100D600035060000832E44D3240D00009D2400008E
:100D7000400D0000580F0000C01C0000141A0000B5
:100D80006C27000048280000341A0000580F0000AB
:100D9000001D0000AC3800001D040000F815000024
:100DA000781500007C2E0000AD0D000004480549B8
:100DB0000968401A3F1F386004CD034B9847000074
:100DC000FC0A0010740B001035060000832E56D369
:100DD000640D00009D240000A80D0000580F0000C5
:100DE000C01C0000141A0000242C00008026000003
:100DF0006C27000048280000341A0000580F00003B
:100E0000001D0000AC380000EB030000F8150000E6
:100E1000781500007C2E000084454D49D4FFFFFF6B
:100E2000CC0D00009D2400004C340000F42B000089
:100E3000900F0000741C00007C2E0000834B45D9ED
:100E4000180E00009D240000F8340000A0340000BB
:100E5000F42B00000C290000D4380000F0FFFFFF45
:100E6000C4340000E01C00007C2E00008243D2FF4E
:100E70003C0E00009D240000E42B0000900F0000B9
:100E8000001D0000202F0000020D0AFF7C2E000034
:100E90008242CCFF6C0E0000F52300002000000011
:100EA0008253B0FF900E0000F5230000600B00108D
:100EB0008252B0FFA00E0000F5230000640B00106A
:100EC0008557494454C8FFFFB00E0000F5230000C9
:100ED0009C0B0010875741524E494EC7C00E000070
:100EE000F5230000300C0010834450CCD40E0000D9
:100EF000F5230000940B0010834353D0E80E00004C
:100F0000F5230000880B001083484CC4F80E000045
:100F1000F5230000980B00108255D0FF080F000049
:100F2000F5230000740B00108546454E43C5FFFFB6
:100F3000180F0000F5230000780B00108244D0FF4A
:100F4000280F0000F52300007C0B00108442415361
:100F5000C5FFFFFF3C0F0000F5230000900B0010C1
:100F60008743555252454ED44C0F0000F5230000E4
:100F7000800B00108553544154C5FFFF600F0000E3
:100F8000F5230000840B0010834F55D4740F00002C
:100F9000F5230000700B00108249CEFF880F00007F
:100FA000F52300006C0B0010835041C4980F000023
:100FB000F5230000380A0010835449C2A80F00002E
:100FC000F5230000FC0A001084484552C5FFFFFFCE
:100FD000B80F00009D240000440F0000C01C00005A
:100FE0007C2E000085414C4C4FD4FFFFC80F000001
:100FF0009D240000400D0000B02A0000D4380000FD
:1010000018000000AC38000046040000F81500008D
:101010007815000090180000440F0000741C0000B8
:101020007C2E000087414C49474E45C4E40F000028
:101030003510000038683F1DC01C034908403F1FA1
:10104000386004CD014B9847FCFFFFFF35060000D8
:1010500085414C4947CEFFFF241000009D2400002D
:10106000D40F0000142C000098290000EC1A000096
:10107000141A0000D40F00001C390000AC38000026
:10108000FF00000060190000201D0000EC38000087
:10109000ECFFFFFF341A0000AC380000FCFFFFFF3C
:1010A0000C290000440F0000001D00007C2E0000F1
:1010B00081ACFFFF501000009D240000400D000097
:1010C000B02A0000D438000018000000AC3800003E
:1010D00046040000F8150000781500009018000084
:1010E0005C100000D40F0000001D0000242C000044
:1010F000F00F00007C2E00008243ACFFB010000017
:101100009D240000400D0000B02A0000D4380000EB
:1011100018000000AC38000046040000F81500007C
:101120007815000090180000D40F0000201D00006A
:10113000F42B0000F00F00007C2E00008856415276
:10114000414C4C4FD4FFFFFFF81000009D240000DD
:10115000A80D0000242C000080260000741A000056
:10116000BC290000B02A0000D4380000180000009C
:10117000AC38000061040000F8150000781500008C
:1011800090180000200F0000C01C0000C41A0000CE
:10119000242C000044260000200F0000741C0000D6
:1011A0007C2E00008553504143C5FFFF3C110000D9
:1011B0009D240000980E0000240E00007C2E0000EC
:1011C000864C41544553D4FFA41100009D240000D7
:1011D0006C0F0000C01C00007C2E0000834C46C138
:1011E000C0110000E911000038683F1D08383F1F9A
:1011F000386004CD004B984735060000834346C154
:10120000DC1100000912000038683F1D001F3F1F5D
:10121000386004CD004B984735060000834E46C128
:10122000FC1100009D240000BC390000BC29000016
:10123000F42B0000BC290000EC1A0000E01C0000A8
:10124000AC380000FF000000BC290000D4380000CA
:10125000E0FFFFFFAC380000FFFFFFFF3C2E000067
:101260007C2E0000835046C11C1200009D2400000B
:10127000F42B00003C2E0000642B0000EC1A000050
:10128000E01C0000AC380000FF000000BC2900009A
:10129000D4380000E4FFFFFFBC39000098290000AB
:1012A0007C2E0000C1A7FFFF641200009D240000F7
:1012B0001C3200007C2A0000AC3800009F040000B3
:1012C0005C2D0000A41A0000641E00007C2E0000AB
:1012D000864D59424155C4FFA41200009D240000D0
:1012E000E42B0000AC380000800C0010001D000052
:1012F000AC380000840C0010001D00007C2E0000A3
:101300008A55415254305F494E49D4FFD0120000F3
:101310009D240000AC380000800C0010C01C0000B0
:101320007C2A0000D43800001C000000AC3800000B
:10133000840C0010C01C0000141A0000C03800000B
:1013400010000000AC38000080250000141A0000D6
:10135000AC380000A4400440AC380000F8FFFFFFA8
:101360004C1B0000AC380000A4400440F42B0000EB
:10137000741B0000AC380000A8400440AC380000EA
:10138000F8FFFFFF4C1B0000AC380000A8400440F1
:10139000F42B0000741B0000AC3800005F18010043
:1013A000AC38000080800440001D0000F42B0000D9
:1013B000AC38000098800440001D0000AC380000EC
:1013C00083000000AC3800000C800040001D0000CD
:1013D000840B0000AC3800001000000080260000E4
:1013E000341A000080260000AC3800000001000024
:1013F00060260000C4340000A42B0000001D000083
:10140000C4340000001D0000142C0000AC380000A3
:101410000C800040001D0000E42B0000AC380000F0
:1014200008800040001D0000AC38000007000000EC
:10143000AC38000008800040001D0000A03400000F
:10144000A41A00007C2E0000864558504543D4FF66
:10145000001300009D240000741A00009829000069
:10146000741A0000F83400001C390000A034000099
:10147000F42B00000C290000D4380000F0FFFFFF1F
:10148000C4340000E01C0000482F0000EC1A0000EB
:10149000AC38000009000000E0290000D43800004A
:1014A0000C000000A41A0000980E0000EC1A0000C6
:1014B000BC390000E0290000D43800004C000000D6
:1014C000A41A0000EC1A000060190000E0290000D6
:1014D000EC1A0000341A0000042C0000BC290000A3
:1014E00098290000141A0000D438000010000000F1
:1014F000A8390000C038000060000000C4390000B6
:10150000C038000054000000EC1A0000AC380000A5
:101510000D000000E0290000D43800001C0000008D
:10152000F8190000A41A0000980E0000E42B000037
:10153000C038000008000000EC1A0000601900002C
:10154000201D0000E42B000060190000642B000047
:10155000201D0000240E0000EC38000010FFFFFFEB
:10156000D8340000A41A00007C2E00008454595086
:10157000C5FFFFFF481400009D2400001019000063
:10158000D43800003C000000741A000098290000C4
:10159000C41A00001C39000060190000E01C0000A3
:1015A000AC3800007F0000000C290000240E000071
:1015B000EC380000E4FFFFFFC03800000800000026
:1015C000A41A00007C2E000085434F554ED4FFFF27
:1015D0006C1500009D240000EC1A0000642B000034
:1015E000C41A0000E01C00007C2E000084244C453E
:1015F000CEFFFFFFC8150000FD1500003A6840400F
:10160000115C094301D0401CFAE73F1F386004CD4C
:10161000004B984735060000865350414345D3FFA1
:10162000EC1500009D240000E42B00009C25000028
:1016300010190000D438000018000000E42B00004E
:101640001C390000B0110000EC380000F8FFFFFF6B
:101650007C2E0000C22EA2FF181600009D24000060
:10166000AC38000022000000800F0000C01C000009
:10167000D43800002C000000001E0000202F0000C5
:1016800078300000D40F0000E01C0000642B000044
:1016900030100000F00F0000C038000014000000FF
:1016A00078300000D40F0000D41500007815000039
:1016B0007C2E000086464F524745D4FF541600004A
:1016C0009D240000AC120000EC1A0000AC380000B1
:1016D00000400000F8290000AC3800005F03000063
:1016E0005C2D0000EC1A0000AC3800000080000007
:1016F000F8290000AC3800007F0300005C2D0000DA
:10170000EC1A0000E4110000C01C00006C0F000087
:10171000001D000024120000440F0000001D000006
:10172000D40F0000482800007C2E000085574F523F
:1017300044D3FFFFB41600009D240000142C0000C9
:1017400024160000CC110000E42B0000741A0000E5
:10175000642B0000E01C0000AC3800000D0000000D
:10176000E02900007C2A0000D43800001C000000A2
:10177000A41A0000EC1A00006C120000E411000032
:10178000741A0000BC290000900F0000C01C00006B
:1017900098290000A0390000642A0000D438000015
:1017A00010000000740E0000142C0000241600002D
:1017B000EC1A0000340F0000C01C0000F8290000E3
:1017C000D43800000C000000C038000064000000A5
:1017D000EC1A0000E0320000042C00002416000087
:1017E000EC1A0000642B0000E01C0000AC38000084
:1017F0000D000000E0290000D438000010000000B7
:10180000E42B0000900F0000001D00006C1200008F
:10181000E4110000C01C0000EC1A00007C2A00004B
:10182000E42B000030290000D43800001CFFFFFF2B
:10183000A41A0000740E00007C2E0000874D59573A
:101840004F5244D32C1700009D240000AC380000F8
:1018500000400000340F0000001D00003817000099
:10186000E42B0000340F0000001D00007C2E00005F
:10187000834259C53C1800009D2400002437000015
:10188000901800008541424F52D4FFFF70180000AD
:101890009D240000B4190000D41900006439000030
:1018A000E42B0000900F0000001D0000042E00003B
:1018B0004827000004340000D419000064390000F7
:1018C000B41900000434000084434F4CC4FFFFFFF0
:1018D000841800009D2400003C370000740E0000B6
:1018E00088390000740E000090180000900D0A4620
:1018F0004953482053595354454D3A0D8AFFFFFF31
:10190000C8180000842D4455D0FFFFFFEC180000DC
:101910009D240000EC1A0000D438000008000000EC
:10192000EC1A00007C2E000083524FD404190000F2
:10193000351900003A683F1D39683F1D38683F1D62
:101940003F1F39603F1F3A603F1F386004CD014B95
:10195000984700003506000081C9FFFF28190000E4
:101960006519000030683F1F386004CD004B984770
:1019700035060000835350C058190000811900003B
:1019800038463F1F386004CD004B984735060000AD
:10199000835250C0741900009D19000030463F1F4B
:1019A000386004CD004B984735060000835350A1A2
:1019B00090190000B9190000024A176804CD024BC3
:1019C00098470000600B001035060000835250A1BC
:1019D000AC190000D9190000024A166804CD024B68
:1019E00098470000640B001035060000854C454107
:1019F00056C5FFFFCC190000FD1900003268726067
:101A000004CD014B9847000035060000823ED2FF0E
:101A1000EC190000191A000039683F1D361F3160AB
:101A200004CD014B98470000350600008252BEFFEE
:101A30000C1A0000391A00003068361D3F1F38604C
:101A400004CD014B984700003506000081D2FFFF0E
:101A50002C1A0000591A000030683F1F386004CD6E
:101A6000004B984735060000844F5645D2FFFFFFD4
:101A70004C1A0000791A00003A683F1D38683F1D73
:101A80003F1F38603F1F3A603F1F386004CD014B55
:101A900098470000350600008444524FD0FFFFFFF6
:101AA000681A0000A91A000038683F1D04CD014BD8
:101AB000984700003506000084535741D0FFFFFFD0
:101AC000981A0000C91A00003A683F1D38683F1D87
:101AD0003F1F3A603F1F386004CD014B984700001C
:101AE00035060000834455D0B81A0000F11A0000F2
:101AF00038683F1F386004CD004B9847350600001A
:101B000084324455D0FFFFFFE41A0000111B00008F
:101B100038687A683F1F3A603F1F386004CD014B38
:101B20009847000035060000900D0A535441434B7E
:101B30002053545546463A0D8AFFFFFF001B000014
:101B400087414E44424954D3281B0000511B0000DA
:101B500004CF39683F1D08681040086004CD014B70
:101B6000984700003506000087534554424954D336
:101B7000401B0000791B000004CF39683F1D086836
:101B80001043086004CD014B984700003506000063
:101B900087434C52424954D3681B0000A11B0000EC
:101BA00004CF39683F1D086804465B405B1E504007
:101BB0002040086004CD014B984700003506000026
:101BC00085434D4F56C5FFFF901B0000D11B000001
:101BD00039683F1D3A683F1D3B683F1D002907D00B
:101BE00018781070491E002902D0521C5B1CF7D1D6
:101BF00004CD014B98470000350600008446494C4F
:101C0000CCFFFFFFC01B00000D1C000038683F1D0B
:101C100039683F1D3A683F1D002905D08B185B1CB1
:101C20001070521C9A42FBD104CD014B9847000022
:101C3000350600008545524153C5FFFFFC1B0000DF
:101C40009D240000E42B0000081C00007C2E0000F6
:101C500086424C414E4BD3FF341C00009D240000B3
:101C6000980E0000081C00007C2E0000822BA1FFB3
:101C7000501C0000791C000039683F1D38683F1D6A
:101C80000A688018086004CD004B984735060000AC
:101C900086544F47474C45C56C1C0000A11C0000F2
:101CA00039683F1D3A683F1D10784840107004CDD8
:101CB000004B98473506000081C0FFFF901C0000D4
:101CC000C51C000039683F1D08683F1F386004CDFF
:101CD000004B9847350600008243C0FFB81C000047
:101CE000E51C000039683F1D08783F1F386004CDAF
:101CF000004B98473506000081A1FFFFD81C00006B
:101D0000051D000038683F1D39683F1D016004CD86
:101D1000004B9847350600008243A1FFF81C0000E5
:101D2000251D000038683F1D39683F1D017004CD36
:101D3000004B9847350600009F0D0A52454144204C
:101D4000414E44205752495445204D454D4F52591C
:101D500020574954483A0D8A181D000086534D55A6
:101D6000444745C5381D00009D240000CC110000EB
:101D7000AC380000200000009C1C00007C2E0000FD
:101D800081DDFFFF5C1D00009D240000AC380000D9
:101D9000C0000000800F0000001D00007C2E00002D
:101DA000C1DBFFFF801D00009D240000E42B00002C
:101DB000800F0000001D00007C2E0000C95B434F17
:101DC0004D50494C45DDFFFFA01D00009D24000043
:101DD0001C3200007C2A0000AC380000C90400005E
:101DE0005C2D0000A41A000004120000B8100000CE
:101DF0007C2E000087434F4D50494CC5BC1D000050
:101E00009D2400008C2D0000341A0000EC1A000004
:101E1000A42B0000141A0000C01C0000B810000021
:101E20007C2E0000C8444C4954455241CCFFFFFF72
:101E3000F41D00009D240000800F0000C01C000065
:101E4000D438000010000000C41A0000641E000016
:101E5000641E00007C2E0000C74C4954455241CC02
:101E6000241E00009D240000800F0000C01C000004
:101E7000D438000010000000001E0000AC38000044
:101E8000B81000007C2E00008223BEFF581E000008
:101E90009D240000A41A0000A41A0000100F0000E6
:101EA000C01C0000B00F0000741A0000BC29000024
:101EB0007C2E000084484F4CC4FFFFFF881E0000AA
:101EC0009D240000AC380000FFFFFFFF100F000052
:101ED000741C0000100F0000C01C0000201D00003A
:101EE0007C2E000084534947CEFFFFFFB41E000044
:101EF0009D24000030190000B02A0000D4380000F2
:101F000010000000AC3800002D000000C01E0000D2
:101F10007C2E00008223D3FFE41E00009D240000DD
:101F2000481F0000741A0000741A000030290000D5
:101F30007C2A0000D4380000E8FFFFFF7C2E000060
:101F400081A3FFFF141F00009D240000580F000014
:101F5000C01C0000F826000030190000AC3800005A
:101F600009000000741A0000F8290000D4380000AD
:101F700010000000AC3800000700000098290000A5
:101F8000AC3800003000000098290000C01E00009E
:101F90007C2E0000823CA3FF401F00009D24000017
:101FA000B00F0000100F0000001D00007C2E00008C
:101FB00085444F4553BEFFFF941F00009D24000041
:101FC000341A0000CC1100006C120000242C000018
:101FD00098290000001D00007C2E0000873C42551F
:101FE000494C44D3B01F00009D240000B0220000E3
:101FF000AC380000F8FFFFFF440F0000741C000025
:10200000AC3800009D240000B8100000AC3800007F
:102010003C390000B8100000E42B0000B8100000AC
:10202000AC3800003C390000B8100000D40F0000AC
:10203000AC3800001000000098290000B810000023
:10204000AC380000C41A0000B8100000AC38000022
:1020500050390000B8100000AC3800007C2E0000A1
:10206000B81000007C2E0000C52B4C4F4FD0FFFF56
:10207000DC1F00009D240000142C0000E02D000057
:10208000001E000010390000803400007C2E00008B
:10209000C44C4F4FD0FFFFFF682000009D2400007C
:1020A000142C0000E02D0000001E0000EC380000A1
:1020B000803400007C2E0000C244CFFF902000003E
:1020C0009D240000001E00001C390000D40F0000F9
:1020D000142C00007C2E0000C5454E4449C6FFFF6D
:1020E000B82000009D2400008C2D0000042C00006E
:1020F000E02D0000D40F0000741A0000BC2900007D
:10210000C41A0000001D00007C2E0000C454484585
:10211000CEFFFFFFD82000009D240000E420000037
:102120007C2E0000C4454C53C5FFFFFF0C2100006E
:102130009D240000042C0000E02D0000001E000083
:10214000C0380000D40F0000E42B0000B8100000DD
:10215000C41A0000042C0000E4200000042C00003D
:102160007C2E0000C249C6FF242100009D240000EF
:10217000001E0000D4380000D40F0000E42B000043
:10218000B8100000042C00007C2E0000C5554E54F1
:1021900049CCFFFF642100009D240000F42B0000C7
:1021A000E02D0000001E0000D43800008034000044
:1021B0007C2E0000C3454EC48C2100009D240000ED
:1021C000982100007C2E0000C541474149CEFFFF09
:1021D000B42100009D240000F42B0000E02D00003D
:1021E000001E0000C0380000803400007C2E00007B
:1021F000C65245504541D4FFC82100009D2400002F
:10220000141A0000141A0000D4210000341A00002F
:10221000341A0000042C0000BC290000E420000057
:102220007C2E0000C55748494CC5FFFFF021000037
:102230009D2400006C210000842B00007C2E0000F7
:10224000C542454749CEFFFF242200009D240000DF
:102250008C2D0000D40F0000F42B00007C2E000019
:10226000970D0A494E5349444520434F4C4F4E2049
:10227000574F5244533A0D8A4022000089494D4D30
:102280004544494154C5FFFF602200009D240000E1
:10229000CC110000AC380000400000009C1C000085
:1022A0007C2E0000864352454154C5FF7C2200002D
:1022B0009D240000400D0000B02A0000D43800002A
:1022C00018000000AC38000046040000F8150000BB
:1022D0007815000090180000D40F0000AC38000002
:1022E0008C0B0010001D00001C320000D4380000D0
:1022F00024000000A41A000024120000E0320000B4
:10230000AC3800007F040000F815000078150000CC
:1023100090180000D40F0000EC1A0000E01C000030
:10232000CC0E0000C01C000074250000642B0000CF
:10233000F00F0000EC1A0000AC380000A000000014
:102340009C1C0000D40F0000F42B0000BC290000EE
:10235000AC380000800000009C1C0000CC11000084
:10236000B81000006C0F0000001D0000AC38000029
:10237000F5230000B8100000D40F0000A42B0000CB
:10238000B8100000681D0000E42B0000AC3800000D
:102390008C0B0010001D00007C2E000083434FCEEC
:1023A000A42200009D240000400D0000B02A00007F
:1023B000D438000018000000AC38000046040000CB
:1023C000F81500007815000090180000B0220000F9
:1023D000AC380000F8FFFFFF440F0000741C000041
:1023E000AC380000F5230000B8100000B810000061
:1023F0007C2E000001CA3F1F386004CD004B984777
:1024000035060000835641D29C2300009D24000025
:10241000B0220000AC380000F8FFFFFF440F0000BE
:10242000741C0000AC380000F5230000B810000058
:10243000F42B00004C110000B81000007C2E0000AE
:10244000C1BBFFFF042400009D240000702C00008D
:10245000001E00007C2E0000A81D00007C2E000045
:10246000C1BAFFFF402400009D240000B82D0000E9
:10247000502C0000B0220000881D0000AC38000085
:10248000F8FFFFFF440F0000741C0000AC38000090
:102490009D240000B81000007C2E0000361F35601F
:1024A000154604CD004B984735060000960D0A43AB
:1024B000524541544520574F5244532057495448A0
:1024C0003A0D8AFF6024000084532D3EC4FFFFFFB5
:1024D000AC240000D92400003A683F1D404012435C
:1024E00000D5401E3F1F3A603F1F386004CD014BAE
:1024F0009847000035060000822BADFFC82400007D
:102500009D240000B02A0000D4380000080000001C
:10251000102B00007C2E000083442B80F824000048
:102520009D240000B02A0000D438000008000000FC
:10253000382B00007C2E0000834142D31825000078
:102540009D240000EC1A0000002500007C2E0000F5
:1025500084444142D3FFFFFF382500009D24000042
:10256000EC1A0000202500007C2E0000834D49CE8F
:10257000502500009D2400000C1B0000642A000070
:10258000D438000008000000C41A0000A41A00009B
:102590007C2E0000834D41D86C2500009D24000056
:1025A0000C1B0000F8290000D438000008000000CF
:1025B000C41A0000A41A00007C2E0000824DAAFF5D
:1025C000942500009D2400000C1B000074290000CD
:1025D000141A000040250000C41A00004025000025
:1025E00090280000341A0000202500007C2E0000F6
:1025F000824DAFFFBC2500009D240000741A00002E
:10260000141A0000141A00005C250000541A00007F
:1026100040250000C0280000341A0000541A0000B1
:102620007429000000250000C41A0000341A0000BC
:1026300000250000C41A00007C2E000081AAFFFFC4
:10264000F02500009D240000C4250000A41A00000D
:102650007C2E0000842F4D4FC4FFFFFF3C2600005E
:102660009D240000141A0000D4240000341A000035
:10267000F82500007C2E000081AFFFFF54260000EB
:102680009D24000060260000C41A0000A41A000067
:102690007C2E0000834D4FC4782600009D2400004E
:1026A00060260000A41A00007C2E0000852A2F4D11
:1026B0004FC4FFFF942600009D240000141A000060
:1026C000C4250000341A0000F82500007C2E00000C
:1026D000822AAFFFAC2600009D240000B82600002F
:1026E000C41A0000A41A00007C2E0000854D2F4D56
:1026F0004FC4FFFFD02600009D240000141A0000E4
:10270000E42B0000541A0000C0280000341A000016
:10271000C41A0000141A0000C0280000341A000077
:102720007C2E0000834249CEEC2600009D24000050
:10273000042C0000580F0000001D00007C2E00003B
:10274000834845D8242700009D240000AC380000B1
:1027500010000000580F0000001D00007C2E00003B
:1027600087444543494D41CC402700009D2400004B
:10277000AC3800000A000000580F0000001D0000E7
:102780007C2E000083442ED2602700009D24000090
:10279000141A0000C41A0000741A00005C2500001E
:1027A0009C1F00001C1F0000F01E0000901E000077
:1027B000341A0000741A0000BC290000241600001E
:1027C000781500007C2E0000822ED2FF84270000A6
:1027D0009D240000141A0000D4240000341A0000C4
:1027E0008C2700007C2E0000832E52D5C8270000C5
:1027F0009D240000141A0000E42B00009C1F000020
:102800001C1F0000901E0000EC1A0000341A00008B
:10281000C41A0000BC29000024160000781500002E
:102820007C2E00008244AEFFE82700009D240000BB
:10283000E42B00008C270000B01100007C2E00006B
:1028400081AEFFFF242800009D240000D424000056
:102850002C2800007C2E000081BFFFFF40280000D4
:102860009D240000C01C0000482800007C2E0000B1
:102870008255AEFF582800009D240000E42B000084
:102880002C2800007C2E00008255AAFF7028000032
:102890009528000038683F1D39683F1D01F0ACF8ED
:1028A000024608463F1F3A603F1F386004CD014B87
:1028B00098470000350600008255AFFF88280000C9
:1028C000C528000038683F1D3B683F1D3A683F1D22
:1028D00000280BD001F07EF83F1F3A603F1F3860A0
:1028E00004CD014B98470000350600004040401ED3
:1028F00002463F1F3A603F1F386004CD004B9847A7
:102900003506000083414EC4B8280000112900009C
:1029100038683F1D39683F1D08403F1F386004CDAF
:10292000004B984735060000824FD2FF0429000073
:102930003529000038683F1D39683F1D08433F1F97
:10294000386004CD004B984735060000834E4FD4C5
:10295000282900005929000038683F1DC0433F1F47
:10296000386004CD004B98473506000083584FD29D
:102970004C2900007929000038683F1D39683F1D47
:1029800048403F1F386004CD004B98473506000093
:1029900081ABFFFF6C2900009D29000038683F1DB6
:1029A00039683F1D40183F1F386004CD004B9847E1
:1029B0003506000081ADFFFF90290000C12900000D
:1029C00038683F1D39683F1D081A3F1F386004CD25
:1029D000004B98473506000081BDFFFFB429000079
:1029E0009D240000BC2900007C2A00007C2E0000F1
:1029F00081BCFFFFD8290000FD29000001203968B3
:102A00003F1D3A683F1D914200DC40403F1F386047
:102A100004CD014B98470000350600008255BCFFED
:102A2000F02900009D2400000C1B00007429000008
:102A3000B02A0000D438000018000000A41A0000DA
:102A4000B02A00007C2A0000C03800000C00000002
:102A5000BC290000B02A00007C2E000081BEFFFFD0
:102A60001C2A00009D240000C41A0000F829000060
:102A70007C2E00008230BDFF5C2A0000812A00000D
:102A800038683F1D002807D1401C3F1F386004CD27
:102A9000004B98473506000040403F1F386004CD8A
:102AA000004B9847350600008230BCFF742A0000B6
:102AB000B52A000039683F1D0120094300D40020D9
:102AC0003F1F386004CD014B9847000035060000D9
:102AD0008244ABFFA82A0000DD2A000038683F1DB1
:102AE00039683F1D3B683F1D3A683F1D52185841E9
:102AF0003F1F3A603F1F386004CD014B98470000EC
:102B000035060000864E45474154C5FFD02A0000D7
:102B1000152B000038683F1DC043401C3F1F386024
:102B200004CD014B984700003506000087444E4510
:102B3000474154C5042B00003D2B000038683F1D61
:102B40003A683F1DC043D243521C3F1F3A603F1FAB
:102B5000386004CD004B9847350600008231ABFF4A
:102B60002C2B0000692B000038683F1D401C3F1FC4
:102B7000386004CD004B9847350600008232ABFF29
:102B80005C2B0000892B000038683F1D801C3F1F14
:102B9000386004CD004B9847350600008234ABFF07
:102BA0007C2B0000A92B000038683F1D001D3F1F33
:102BB000386004CD004B9847350600008234ADFFE5
:102BC0009C2B0000C92B000038683F1D001F3F1FD1
:102BD000386004CD004B98473506000081B0FFFFF8
:102BE000BC2B0000F52300000000000081B1FFFFB6
:102BF000DC2B0000F52300000100000081B2FFFF84
:102C0000EC2B0000F52300000200000081B3FFFF61
:102C1000FC2B0000F52300000300000081B4FFFF3F
:102C20000C2C0000F523000004000000910D0A4E5A
:102C3000554D4245522053545546463A0D8AFFFFA2
:102C40001C2C000084214353D0FFFFFF2C2C0000DC
:102C50009D2400007C190000000F0000001D0000F2
:102C60007C2E0000843F4353D0FFFFFF442C000024
:102C70009D2400007C190000000F0000C01C000013
:102C8000BC290000AC380000C90400005C2D000025
:102C90007C2E0000853F414444D2FFFF642C00009D
:102CA0009D240000AC380000030000000C29000047
:102CB000D438000038000000202F00002B4144448D
:102CC000524553534553204D5553542042452045BA
:102CD00056454E2033322D42495420574F524420FE
:102CE000414C49474E454421901800007C2E00007D
:102CF000853F455645CEFFFF942C00009D240000E3
:102D0000AC380000030000000C290000D43800009B
:102D10003C000000202F00002F4E554D4245522010
:102D20004D555354204245204556454E204E4F5454
:102D3000204F444420414E44204D554C5449504C62
:102D400045204F4620342120901800007C2E0000A2
:102D5000863F4552524FD2FFF02C00009D240000C8
:102D6000C41A0000D43800001000000044320000F3
:102D7000C038000008000000A41A00007C2E0000EB
:102D8000853F434F4DD0FFFF502D00009D24000094
:102D9000800F0000C01C00007C2A0000AC3800003E
:102DA0002B0500005C2D00007C2E0000853F45585F
:102DB00045C3FFFF802D00009D240000800F000010
:102DC000C01C0000AC380000620500005C2D000053
:102DD0007C2E0000863F50414952D3FFAC2D0000AD
:102DE0009D240000BC290000AC380000EB0400006A
:102DF0005C2D00007C2E0000863F53544143CBFFE6
:102E0000D42D00009D2400007C190000A80E0000B5
:102E1000C01C0000C41A0000242A0000AC380000C6
:102E2000C90400005C2D00007C2E00008854524133
:102E300056455253C5FFFFFFF82D00009D240000AA
:102E4000C41A0000741A000098290000AC38000071
:102E50007F000000741A0000E01C0000F829000048
:102E6000D4380000E0FFFFFFC41A0000A41A0000DD
:102E70007C2E0000823BD3FF2C2E0000812E000010
:102E80003568361D04CD014B98470000350600001B
:102E9000C53B434F44C5FFFF742E00009D24000036
:102EA000A41A0000AC380000B5030000F8150000BB
:102EB0007815000090180000892D545241494C4962
:102EC0004EC7FFFF902E00009D240000EC1A00006A
:102ED000E42B00001C390000741A0000741A000072
:102EE00098290000F42B0000BC290000E01C000021
:102EF000980E0000BC290000D4380000100000002B
:102F0000F8190000C03800000C000000F42B00008D
:102F1000BC290000EC380000C0FFFFFF7C2E000041
:102F20009D240000341A0000EC1A0000D4150000A3
:102F300078150000D415000098290000301000001A
:102F4000141A00007C2E00004D2F00000D21884235
:102F500002D1132402490C7004CD024B98470000A3
:102F600000800040350600008544494749D4FFFFF2
:102F7000B82E0000792F00003A683F1D38683F1DC9
:102F8000303811D4092802DDC01F0A280CDB90421A
:102F90000ADA024601203F1F3A603F1F386004CD25
:102FA000004B98473506000000203F1F386004CDD5
:102FB000004B98473506000087454E434C4F53C59C
:102FC000682F0000C92F000038683F1D39680022B3
:102FD000521E491E491C521C0B789842FAD03F1FC2
:102FE0003A60002B0AD11846521C3F1F3A603F1F1F
:102FF000386004CD004B984735060000491C521C30
:103000000B78984201D0002BF8D11046401C3F1F8E
:103010003A603F1F386004CD004B984735060000EA
:103020008551554552D9FFFFB82F00009D2400005F
:10303000C00F0000AC3800005E0000005414000017
:10304000E42B0000A00F0000001D00007C2E0000FB
:10305000C180FFFF203000005D3000003568361D64
:1030600004CD014B984700003506000084574F52AD
:10307000C4FFFFFF503000009D240000D40F00006B
:10308000AC380000220000005C1C0000C00F0000F3
:10309000A00F0000C01C000098290000C41A000006
:1030A000C42F0000A00F0000741C0000741A000060
:1030B000BC290000141A0000541A0000D40F0000AC
:1030C000201D000098290000D40F0000642B000090
:1030D000341A0000CC1B00007C2E00009D24000050
:1030E000642B0000EC1A0000141A0000E01C000021
:1030F000580F0000C01C0000742F0000D4380000DE
:1031000058000000C41A0000580F0000C01C000046
:1031100090280000A41A000030190000580F000089
:10312000C01C000090280000D82A0000F00E00000B
:10313000C01C0000642B0000D43800001000000008
:10314000F42B0000F00E0000741C0000341A000084
:10315000C03800008CFFFFFF341A00007C2E0000F6
:10316000864E554D4245D2FF6C3000009D24000034
:10317000E42B0000E42B000030190000EC1A0000E2
:10318000642B0000E01C0000AC3800002D000000A3
:10319000E0290000EC1A0000141A00009829000031
:1031A000AC380000FFFFFFFFF00E0000001D000024
:1031B000DC300000EC1A0000E01C0000980E00005B
:1031C000BC290000D438000030000000EC1A0000D8
:1031D000E01C0000AC3800002E000000BC290000FC
:1031E000AC3800009F0400005C2D0000E42B0000C0
:1031F000C0380000B4FFFFFFA41A0000341A00001A
:10320000D438000008000000382B00007C2E00009D
:10321000852D46494EC4FFFF603100009D2400000B
:10322000980E000078300000D40F0000CC11000090
:10323000243800007C2E0000854552524FD2FFFFFB
:10324000103200009D240000E00E0000C01C0000B1
:10325000B02A0000D4380000080000003037000019
:10326000D40F0000D415000078150000F8150000F8
:1032700078150000142C0000C4340000201D00004C
:10328000AC3800008C0B0010C01C0000D4380000CB
:1032900040000000AC3800008C0B0010C01C000087
:1032A000440F0000001D0000E42B0000AC380000BB
:1032B0008C0B0010001D0000D40F00006C120000E9
:1032C000E4110000C01C00006C0F0000001D000095
:1032D000B419000004340000834944AE38320000C1
:1032E0009D240000D4150000AC3800001F00000031
:1032F0000C29000078150000B01100007C2E0000A1
:1033000089494E544552505245D4FFFFD8320000EF
:103310009D2400001C320000D43800003C00000056
:10332000800F0000C01C0000F8290000D438000005
:103330001400000004120000B8100000C0380000A3
:103340000C0000000412000060060000042E0000C3
:10335000C038000038000000D40F00006C310000BD
:10336000F00E0000C01C0000642B0000D4380000E8
:1033700010000000341E0000C03800000C000000E7
:10338000A41A0000641E0000042E0000C0380000D3
:1033900084FFFFFF89464953485F4F4E4CD9FFFFDA
:1033A00000330000A93300000549064801600649C2
:1033B0000648016006490748016004CD064B98475E
:1033C00010370000800B00109C0A0010740B0010D6
:1033D000100000107C0B001035060000C1A8FFFF94
:1033E000943300009D240000AC3800002900000048
:1033F000783000007C2E000084515549D4FFFFFF37
:10340000DC3300009D240000A81D0000D41900003A
:103410002C30000010330000800F0000C01C0000A2
:103420007C2A0000D438000018000000AC380000EE
:1034300043030000F815000078150000643900000F
:10344000740E0000C0380000C4FFFFFF9D24000080
:10345000A0340000AC380000200000000C2900005F
:10346000D4380000ECFFFFFFC4340000201D000032
:103470007C2E000084424143CBFFFFFFF833000065
:103480009D240000D40F0000BC290000B8100000EB
:103490007C2E000084554C53D2FFFFFF7434000093
:1034A000A5340000034908783F1F386004CD024B63
:1034B000984700001480004035060000835549CF2E
:1034C00094340000F52300000080004084584F46EB
:1034D000C6FFFFFFBC340000DD34000013200249AA
:1034E000087004CD014B984700800040350600006D
:1034F00083584FCECC340000FD3400001120024927
:10350000087004CD014B984700800040350600004C
:10351000844D4252CBFFFFFFF03400002135000004
:1035200004CD014B984700003506000087536F43D8
:10353000696E69F4103500009D240000AC3800006D
:1035400070ED0000AC38000038820440001D00001F
:10355000AC3800005F180100AC38000080800440E7
:10356000001D0000F42B0000AC38000010400440A7
:10357000001D0000AC38000004000000AC38000062
:10358000E8800440001D0000142C0000AC3800004E
:10359000E0800440001D0000E42B0000AC38000077
:1035A000E4800440001D0000F42B0000AC38000053
:1035B000E4800440001D0000E42B0000AC38000053
:1035C00040800440001D0000E42B0000AC380000E7
:1035D00044800440001D0000F42B0000AC380000C3
:1035E00044800440001D0000AC38000003000000CF
:1035F000AC38000008800440001D0000AC3800001A
:10360000006CDC02AC38000000000010001D00005F
:10361000AC3800000C800440C01C0000F42B0000FB
:103620000C290000D4380000E8FFFFFFAC38000090
:1036300003000000AC38000070800440001D000052
:10364000AC38000000000000AC380000748004407A
:10365000001D0000AC38000001000000AC38000084
:1036600074800440001D0000AC3800000100000020
:10367000AC38000098800440001D0000E42B0000DE
:10368000EC1A0000AC38000014E000E0001D00005F
:10369000AC38000018E000E0001D0000AC3800006D
:1036A000FFFF0000AC38000014E000E0001D000047
:1036B000F42B0000AC38000010E000E0001D00001A
:1036C000AC38000004000000E42B00001C390000AE
:1036D000AC38000010E000E0C01C0000AC38000076
:1036E000000001000C290000D4380000E4FFFFFFB7
:1036F000EC380000DCFFFFFF7C2E00008E0D0A4638
:10370000495348204D4953433A0D8AFF2C35000058
:1037100084544153CBFFFFFFFC3600009D24000082
:103720007C2E000029370000009801B08746000079
:103730009D240000901800007C2E000041370000FE
:1037400010211F48016049401E4801601E48016069
:103750001E4801601E4801601E4801601E4801604D
:103760000A211E4801601E491E4801601E491F486B
:1037700001601F491F4801601F492048016020491E
:10378000204801602049214804460160204908681A
:10379000013008D11F4B19600FE01F4A1F4B114425
:1037A00099420AD0F3E70B460831086820600431DB
:1037B0000868124A10601946EFE704CD184B984785
:1037C000900B00106C0B0010700B00108C0B001095
:1037D000300C0010840B0010780B00109C0B0010B4
:1037E000FC0A0010680B0010E00F0010600B0010C6
:1037F000600F0010640B00109C0A0010740B001086
:10380000100000107C0B001010370000800B00101F
:1038100000400000040000100010000000800000C4
:1038200035060000293800003B683F1D3A683F1DFF
:1038300093465A4618788446117848403F242040E1
:103840001CD1521C5B1C187811788842F9D0802456
:10385000001B884213D15B1C1878FF28FBD008336B
:103860003F1F3B60012062463F1F3A603F1F3860A8
:1038700004CD014B98470000350600005B1C18780A
:1038800080242042FAD05B1C1878FF28FBD06440CB
:10389000A41E23401B68002B00D0CAE700203F1F56
:1038A000386004CD004B984735060000B138000061
:1038B00001CD3F1F386004CD004B9847350600000E
:1038C000C53800002B68ED1804CD014B9847000067
:1038D00035060000D938000038683F1D0028F1D0B7
:1038E0002D1D04CD004B984735060000F13800002F
:1038F000012370683268904203D0D2183260801A77
:10390000E0D108362D1D04CD004B98473506000048
:10391000153900003B683F1DEBE70000213900002E
:1039200038683F1D3A683F1D361F3260361F3060D1
:1039300004CD014B984700003506000041390000D6
:1039400001CD3F1F386004CD004B9847350600007D
:10395000553900003D683F1D04CD014B98470000DC
:10396000350600009D240000C00F0000AC380000A8
:1039700060000000401C0000E42B0000A00F0000CD
:10398000001D00007C2E00009D240000AC380000CB
:1039900000030000F8150000781500007C2E0000E0
:1039A000F52300004A0000009D240000AC38000010
:1039B00007000000240E00007C2E0000F52300000C
:1039C000080000009D240000BC390000240E000007
:1039D0007C2E0000F0B5060014001D002000290018
:1039E0003200F31700F01AF8170020002900320007
:1039F000F31700F013F8F0BD02000B00100058435D
:103A0000C117704780B5FCF7C9FD03480068401C2A
:103A100001490860F7E70000340C001030B4DC0FF7
:103A200003D05B42524200D25B1E0D106C4013D09B
:103A3000F446002502D349424042A94100F00DF866
:103A4000E40703D35B425242AB41244202D54942D0
:103A50004042A94130BC604730BC124224D0994258
:103A600028D970B500251B4202D00C00002109E0C6
:103A70000024012649186441944200D3A41A7641D7
:103A8000F8D33100012601E0764109D200186441E3
:103A90006D41A41A9D41F7D2A4185D41B619F5D322
:103AA000300022002B0070BD1B42D8D108B500F0B9
:103AB00009F808BD01D19042D3D202000B000021C9
:103AC000002070477047816807E00268116851184C
:103AD0005368CB18C36008320260C2689142F4D0C8
:103AE0004A1C826008787047F0B587B00100083141
:103AF000029101684908C900029A511803910025F2
:103B00000495059501684908C900441808344068BF
:103B10006946C307DB0F4B704008C00020180190B6
:103B2000002735E002A8FFF7CEFF46B20AE0029870
:103B3000016840180490029949684018059002985D
:103B400008300290049805998842F0D0411C0491F5
:103B5000694600780870BD4210D10198844201D1B5
:103B600000F01EF8256868464078002801D04846D5
:103B70002D1860682F180834BD42EED068460078D2
:103B800028706D1C002E08D5761CE4D1BD42C9D129
:103B900001988442C6D107B0F0BD761ED2D5F5E7B4
:103BA00080B5012000F002F801BDFEE701491820B0
:103BB000ABBEFBE72600020010B507497944183177
:103BC000064C7C44163404E0081D0A6889188847AE
:103BD0000100A142F8D110BD080000002000000043
:103BE00009FFFFFF020000000200000054C4FFFFB5
:103BF0003600000000000010380C000000F00BF848
:103C0000002801D0FFF7D8FF0020C046C046FFF7CC
:103C1000F9FE00F002F80120704780B500F002F8CC
:103C200001BD000007463846FFF7C0FFFBE7C0466E
:0C3C3000C046C046C046FFF7E1FF0000A0
:0400000500003C2F8C
:00000001FF
