:10000000480D001051090000353B0000393B00004D
:10001000413B0000453B0000493B00002AC1FEEF88
:100020000000000000000000000000004D3B000048
:10003000513B000000000000553B0000593B000010
:10004000010600003406000007000000442A0000FA
:100050000C06000029060000080000000106000050
:1000600054000000442A00004C2900005400000005
:10007000442A000034060000FDFFFFFF300B0000A3
:10008000C01800000C06000001060000180900005E
:10009000F80A0000181900005C1500002C09000087
:1000A0000C06000001060000F80A0000E01800003D
:1000B00084170000D42100007423000044070000CE
:1000C000180000003406000062000000442A00000E
:1000D000481700000C060000340600000A0000006B
:1000E00074230000440700001400000034060000E0
:1000F00064000000442A00000C06000034060000E2
:1001000068000000442A00000C0600000106000000
:10011000C8200000B421000034200000A40000002A
:100120000C06000001060000B4210000B42100000C
:1001300034200000A40000000C06000001060000AE
:100140001809000084170000F80A000018190000C0
:10015000340600000A000000742300004407000079
:10016000100000000C01000034070000080000002F
:10017000240100004C2900002C0900000C0600009E
:10018000290600006C0B001029060000700B0010FF
:1001900029060000940B0010290600009C0B00109B
:1001A00001060000340600007A380000C01200008A
:1001B000F0290000D413000001060000E40A00004A
:1001C000C01800000C06000001060000F00B000043
:1001D000740B000018190000F4210000B8010000A1
:1001E0000C06000001060000200B0000E0180000D3
:1001F000242400003406000037390000500E0000AF
:100200000C06000001060000200B0000E0180000B2
:100210003406000050390000500E00000C060000AB
:100220000106000054230000340600000B390000D2
:10023000500E00000C060000010600007C160000B5
:1002400080010000E018000060170000CC230000CF
:1002500034060000F3380000500E00000C060000C9
:1002600001060000C8160000841700009C12000060
:10027000F02900009C12000034230000C80B00008D
:10028000FC1600000C06000001060000600B0000D8
:10029000340600005E00000060110000400900000C
:1002A00001000000600B00100C06000001060000B9
:1002B0004421000084170000FC160000FC18000018
:1002C000F80A0000E0180000800E0000440700005B
:1002D0005800000060170000F80A0000E018000055
:1002E000900800004817000038160000F80A0000C7
:1002F000E018000090080000942000002420000076
:10030000E018000044210000440700001000000035
:10031000C421000024200000C0180000C8160000FE
:10032000340700008CFFFFFFC81600000C06000019
:1003300001060000B00A0000400F0000740B00002E
:10034000140D0000B80600000C06000001060000B5
:10035000C8160000841700007C210000FC16000075
:10036000E0180000C80100000C06000001060000B3
:10037000FC160000B4210000E4160000B4080000E0
:10038000C816000060170000FC160000B40800004A
:10039000C81600000C060000010600007C160000D4
:1003A00090010000181900000C0600000106000072
:1003B0007C16000090010000E018000054230000AB
:1003C00034060000F3380000500E00000C06000058
:1003D0000106000030030000440700003C0000005C
:1003E000200B0000E0180000A423000044070000D8
:1003F00014000000480D0000C80100003407000090
:100400000C000000480D0000640A000038020000E3
:1004100034070000C0FFFFFF740B0000B80F00009E
:1004200024200000E01800004421000044070000E0
:1004300010000000EC190000340700000C00000060
:10044000481700001C1A00003802000034070000A2
:1004500084FFFFFF0106000090190000F008000073
:100460000409000088020000D0030000200B0000F7
:10047000E0180000242400004407000038000000B9
:10048000340600008C0B0010E01800004407000048
:1004900024000000340600008C0B0010E01800005F
:1004A000C0120000F0290000F80A0000E018000067
:1004B000642700003406000010000000442A0000F9
:1004C000142B00003407000098FFFFFF0106000016
:1004D000740B0000542300004C0C00000C060000BC
:1004E000010600004009000000000000800B001021
:1004F0000C06000029060000800B00100106000019
:10050000482400004407000008000000C824000040
:100510000C0600000106000048240000440700000B
:1005200008000000FC1F00000C060000010600008F
:10053000142B000034060000D8090000C01200008F
:10054000F0290000340600001C0A0000C012000060
:10055000F0290000142B00000C060000010600002A
:10056000DC050000903000000C06000001060000D1
:10057000601700001C170000342300003406000040
:100580007F0000001C170000FC180000A4230000DE
:1005900044070000E0FFFFFF60170000481700005D
:1005A0000C0600000A00000001000000000000002E
:1005B00000000000F00F0010700F0010980A0010EB
:1005C000FC0A0010100000100000000000000000F5
:1005D000D0370000290A000000000000E1050000FB
:1005E000054806490E2203680B6004300431013AC5
:1005F000F9D104CD08CA9847A40500005C0B00108F
:10060000361F3560154604CD08CA9847110600000C
:100610003568361D04CD08CA9847000001CA3F1F3F
:10062000386004CD08CA984701CA3F1F386004CD1E
:1006300008CA98473906000001CD3F1F386004CD35
:1006400008CA98474906000001CD3F1F386004CD15
:1006500008CA9847590600003D683F1D04CD08CAE6
:1006600098470000361F3560456808303F1F3860E6
:1006700004CD08CA984700007D06000004480549DB
:100680000968401A3F1F386004CD08CA9847000027
:10069000380A00107C0B00109D0600000448054934
:1006A0000968401A3F1F386004CD08CA9847000007
:1006B0005C0B0010780B0010BD0600003B683F1D6E
:1006C0003A683F1D93465A46187884461178484048
:1006D0003F24204019D1521C5B1C187811788842A5
:1006E000F9D08024001B884210D15B1C1878FF28A9
:1006F000FBD008333F1F3B60012062463F1F3A603A
:100700003F1F386004CD08CA98475B1C18788024C6
:100710002042FAD01B1D064803401B68002B00D066
:10072000D1E700203F1F386004CD08CA9847000079
:10073000FCFFFFFF390700002B68ED1804CD08CA45
:10074000984700004907000038683F1D0028F3D093
:100750002D1D04CD08CA98475D0700000123746869
:100760003268944203D0D2183260A41AE4D1083619
:100770002D1D04CD08CA98477D0700003B683F1D2A
:10078000EDE700008907000038683F1D3A683F1D0B
:10079000361F3260361F306004CD08CA984700000B
:1007A000A507000038683F1D00787F2108403F1FE3
:1007B000386004CD08CA9847BD07000039683F1D5E
:1007C000094A9246094B1C68121910780132884276
:1007D00001D00028F9D15446121B1A703F1F38600F
:1007E00004CD08CA98470000980A0010600B00105A
:1007F000F507000039683F1D3A683F1D10784840F2
:10080000107004CD08CA98470D0800000A218842DC
:1008100005D138683F1D0D203F1F386002E00D21D3
:10082000884203D100F028F900F02EF904CD08CA5F
:1008300098470000390800003868017801290FD076
:10084000022910D001440A78622A12D0252A10D039
:10085000642A10D0232A0ED0682A0ED0242A0CD065
:1008600004CD08CA984742782E2AEBD104CD08CA95
:100870009847022402E00A2400E0102400220A70B3
:10088000024A146004CD08CA984700005C0B0010AF
:100890009508000038683F1D39683F1D4843C1175F
:1008A000024608463F1F3A603F1F386004CD08CA21
:1008B00098470000B908000038683F1D3B683F1D9D
:1008C0003A683F1D002808D003F0C0F83F1F3A6087
:1008D0003F1F386004CD08CA98474040401E02467A
:1008E0003F1F3A603F1F386004CD08CA9847000098
:1008F000F5080000024A176804CD08CA98470000AE
:100900006C0B001009090000024A166804CD08CAE1
:1009100098470000700B00101D090000024A116882
:100920008C4604CD08CA98475C0B001031090000C2
:10093000024A6146116004CD08CA98475C0B00105A
:100940004509000002CD04CD116004CD08CA9847C6
:100950000A490B480B4C0160001DA042FBD30A481A
:100960000A4C0160001DA042FBD3094F094E0AA5A5
:10097000361F356004CD08CA9847000011111111C7
:1009800000000010400D0010EC0E001000100010D0
:10099000F00F0010700F0010DC050000743900002B
:1009A000A0270000142B000034060000FB0000000C
:1009B000442A000034060000F7000000442A00002A
:1009C000DC14000008CA9F4603B5024908680130DC
:1009D000086003BDF80A0010464953482041524DB3
:1009E000204C50433831322031367834524D205625
:1009F000312E3720284329323031342D32303135F1
:100A000020412D5445414D20464F525448203A2014
:100A10004175672032382032303135002061742032
:100A200031313A30343A343300206F6B2C20676F09
:100A3000206669736820696E20424153452000009A
:100A4000844E4F4FD0FFFFFF00000000510A00000E
:100A500004CD08CA9847000087455845435554C5FA
:100A6000400A0000690A000000F006F800F00CF8E7
:100A700004CF08CA984700007246024C2168C90892
:100A8000FCD31047084006407246024913240C70FC
:100A9000104700001C4006407246024911240C70A9
:100AA000104700001C4006408242CCFF580A00005C
:100AB00029060000200000008255D0FFA80A00008F
:100AC00029060000780B00108546454E43C5FFFF00
:100AD000B80A000029060000840B00108244D0FFF1
:100AE000C80A0000290600007C0B00108442415314
:100AF000C5FFFFFFDC0A0000290600005C0B0010A8
:100B00008743555252454ED4EC0A00002906000096
:100B1000880B00108553544154C5FFFF000B0000A3
:100B200029060000680B0010834F55D4140B0000F9
:100B300029060000640B00108249CEFF280B00003C
:100B400029060000600B0010835041C4380B0000E0
:100B500029060000380A0010835449C2480B0000DF
:100B600029060000980A001084484552C5FFFFFF7F
:100B7000580B000001060000E40A0000E018000025
:100B80000C06000085414C4C4FD4FFFF680B000061
:100B900001060000780600001C1700005423000026
:100BA000482400004407000008000000A0010000E5
:100BB000E40A0000C01800000C06000087414C4900
:100BC000474E45C4840B0000CD0B000038683F1D24
:100BD000C01C034908403F1F386004CD08CA98472D
:100BE000FCFFFFFF85414C4947CEFFFFBC0B0000D7
:100BF00001060000740B0000E42100003423000013
:100C000084170000FC160000740B0000840700002D
:100C100034060000FF0000006416000034190000D4
:100C200058070000ECFFFFFFC81600003406000064
:100C3000FCFFFFFF50250000E40A00001819000027
:100C40000C06000081ACFFFFE40B00000106000071
:100C50007806000048240000440700000800000057
:100C6000A0010000C80100000C0600008243ACFF98
:100C7000440C000001060000780600004824000033
:100C80004407000008000000A0010000740B0000F1
:100C900034190000C4210000B80100000C06000057
:100CA00088564152414C4C4FD4FFFFFF6C0C000062
:100CB0000106000098060000F4210000C022000098
:100CC0001C170000542300004824000044070000C3
:100CD000180000003406000097380000C012000021
:100CE000F0290000D4130000C00A0000E018000042
:100CF00060170000F421000084220000C00A0000F8
:100D0000C01800000C060000864C41544553D4FF27
:100D1000A00C0000010600000C0B0000E018000011
:100D20000C060000834C46C1080D0000310D000088
:100D300038683F1D08383F1F386004CD08CA9847FF
:100D4000834346C1240D00004D0D000038683F1D4F
:100D5000001F3F1F386004CD08CA9847834E46C124
:100D6000400D000001060000540000005423000064
:100D70002821000084170000FC1800003406000041
:100D8000FF0000005423000044070000E4FFFFFFC1
:100D900034060000FFFFFFFF6C0500000C0600009A
:100DA000835046C15C0D000001060000C421000014
:100DB0006C0500004421000084170000FC180000AE
:100DC00034060000FF000000542300004407000028
:100DD000E4FFFFFF54000000342300000C06000075
:100DE000883F414C49474E45C4FFFFFFA00D00001E
:100DF000010600003406000003000000502500003A
:100E0000440700003C000000600200002E56414CE8
:100E10005545204D555354204245204556454E20BA
:100E20004E4F54204F444420414E44204D554C5485
:100E300049504C45204F4620342120FFD413000058
:100E40000C060000863F4552524FD2FFE00D0000D5
:100E500001060000601700004407000010000000B9
:100E6000B810000034070000080000004817000018
:100E70000C0600008544494749D4FFFF440E00009A
:100E8000850E00003A683F1D38683F1D30380FD48A
:100E9000092802DDC01F0A280ADB904208DA024650
:100EA00001203F1F3A603F1F386004CD08CA9847B1
:100EB00000203F1F386004CD08CA984787454E433D
:100EC0004C4F53C5740E0000CD0E000038683F1D16
:100ED00039680022521E491E491C521C0B78984248
:100EE000FAD03F1F3A60002B08D11846521C3F1F12
:100EF0003A603F1F386004CD08CA9847491C521C0D
:100F00000B78984201D0002BF8D11046401C3F1FAF
:100F10003A603F1F386004CD08CA9847C180FFFF80
:100F2000BC0E0000290F00003568361D04CD08CA2C
:100F30009847000084574F52C4FFFFFF1C0F00006A
:100F400001060000600B0000400B0000E0180000EC
:100F50003423000060170000C80E0000400B0000A2
:100F6000C01800001C17000054230000FC160000ED
:100F7000E4160000740B0000341900003423000054
:100F8000740B000044210000E41600002418000047
:100F9000B4210000740B000044210000C8160000BA
:100FA00034230000341900000C060000864E554D15
:100FB0004245D2FF340F000001060000180900006E
:100FC00034080000B4210000B421000038160000ED
:100FD0008417000044210000FC18000034060000C3
:100FE0002D00000074230000C421000050250000E3
:100FF00084170000FC1600003423000034060000B3
:10100000FFFFFFFF2420000018190000AC020000C1
:1010100084170000FC180000B421000054230000D5
:10102000440700006C00000084170000FC1800005A
:10103000340600002E000000542300004407000086
:101040004400000084170000FC1800003406000073
:101050002C0000007423000044070000140000006E
:1010600034060000FFFFFFFF3407000098FFFFFF7A
:101070002C090000C421000034060000DB38000009
:10108000500E0000B42100003407000078FFFFFF7D
:1010900048170000C81600004407000008000000C0
:1010A000FC1F00002C0900000C0600008545525270
:1010B0004FD2FFFFAC0F000001060000740B0000D0
:1010C0009C120000F0290000C0120000F02900006E
:1010D000D4280000200B0000E018000044070000A6
:1010E00040000000F4040000E01800004407000085
:1010F00030000000F4040000E0180000A80D00001B
:101100002C0D0000E01800000C0B00001819000066
:10111000F4040000E0180000E40A000018190000C0
:10112000E0040000D4130000C1A7FFFFAC100000D2
:1011300001060000300300002424000034060000F3
:10114000CD380000500E0000481700001C1A0000A7
:101150000C060000864558504543D4FF2811000076
:1011600001060000442100001C1700003423000089
:101170001C17000044210000F02800008407000034
:10118000842A0000080800008417000034060000CC
:101190000900000074230000440700000C00000058
:1011A00048170000B00A0000841700005400000037
:1011B000742300001C170000340600007F000000AC
:1011C0007423000070250000440700005000000058
:1011D0004817000084170000641600002821000052
:1011E0007423000084170000C8160000D4210000FA
:1011F0005423000034230000FC16000044070000C4
:1012000010000000400000003407000060000000F3
:101210005C00000034070000540000008417000048
:10122000340600000D000000742300004407000095
:101230001C000000B016000048170000B00A0000B3
:10124000B4210000340700000800000084170000EB
:101250006416000034190000B42100006416000078
:101260004421000034190000442A000058070000FF
:1012700010FFFFFFD428000044210000C01200002E
:101280006017000028210000341900000C0600003F
:1012900085434F554ED4FFFF541100000106000056
:1012A000841700004421000060170000FC180000B3
:1012B0000C06000084244C45CEFFFFFF9012000076
:1012C000C51200003A684040115C094301D0401C3F
:1012D000FAE73F1F386004CD08CA984786464F5248
:1012E0004745D4FFB4120000010600003011000091
:1012F0008417000034060000003C0000A423000016
:10130000340600003E380000500E00008417000034
:101310003406000000400000A42300003406000052
:101320005B380000500E0000841700002C0D0000F8
:10133000FC160000140D0000A80D00002C0D00008C
:1013400084170000E01800000C0B000018190000C2
:10135000841700007C210000E01800003406000023
:101360001D06000074230000440700001400000064
:1013700034060000FCFFFFFFC00A0000C018000098
:10138000E41600007423000044070000A8FFFFFFDC
:10139000C8160000E01800000C0B0000181900002F
:1013A000640D0000E40A0000181900002C3300004E
:1013B000043300000C060000834259C5DC12000013
:1013C000C5130000FFF7C4FA8541424F52D4FFFF16
:1013D000B813000001060000F00800000409000036
:1013E0004009000000000000640B001034060000FB
:1013F000F0370000140D0000B8060000440700009C
:101400001000000048170000480D0000640A0000AA
:1014100034060000900B0010E018000044070000A4
:101420006C0000003406000090140000C0120000A0
:10143000F0290000B42A000044070000F8FFFFFF75
:10144000842A0000340600004300000074230000DA
:1014500044070000E0FFFFFF842A0000340600007C
:101460004F0000007423000044070000C8FFFFFF86
:10147000842A0000340600000D00000074230000E0
:1014800044070000B0FFFFFF142B000054040000CD
:10149000204572726F722048616C74202845484F55
:1014A0004E2F45484F464629202D20546F20434F4C
:1014B0006E74696E7565205479706520434F207491
:1014C00068656E20456E7465723A20005404000011
:1014D00084434F4CC4FFFFFFC81300000106000007
:1014E0005C0500002C05000054040000900D0A4625
:1014F0004953482053797374656D3A0D8AFFFFFF95
:10150000D0140000832E53C8EC1400000106000024
:101510003406000010000000880000000C060000E7
:10152000832E53C404150000010600003406000099
:101530000A000000880000000C060000832E53C241
:101540002015000001060000D421000088000000E2
:101550000C060000822ED3FF3C150000010600009F
:1015600080010000E01800007C1600007C210000D3
:1015700074230000242400004407000068000000D9
:101580006002000005544F533E20FFFF8001000021
:10159000E01800007C1600007C2100008407000099
:1015A00064160000E0180000F80A0000E0180000CF
:1015B000340600000A000000742300004407000005
:1015C000100000000C0100003407000008000000BB
:1015D000240100004C290000F421000078070000DD
:1015E000C0FFFFFF0C06000084324455D0FFFFFF10
:1015F00054150000F915000038687A683F1F3A60FA
:101600003F1F386004CD08CA98470000842D445518
:10161000D0FFFFFFE815000001060000841700005E
:101620004407000008000000841700000C060000BA
:1016300083524FD40C1600003D1600003A683F1D3F
:1016400039683F1D38683F1D3F1F39603F1F3A60B2
:101650003F1F386004CD08CA9847000081C9FFFFCA
:10166000301600006916000030683F1F386004CD56
:1016700008CA9847835350C05C16000081160000CA
:1016800038463F1F386004CD08CA9847835250C07F
:10169000741600009916000030463F1F386004CDD4
:1016A00008CA9847854C454156C5FFFF8C16000077
:1016B000B51600003268726004CD08CA9847000071
:1016C0008252BEFFA4160000CD1600003068361D01
:1016D0003F1F386004CD08CA9847000081D2FFFF41
:1016E000C0160000E916000030683F1F386004CDC6
:1016F00008CA9847823ED2FFDC160000011700009E
:1017000039683F1D361F316004CD08CA9847000074
:10171000844F5645D2FFFFFFF4160000211700004A
:101720003A683F1D38683F1D3F1F38603F1F3A60D1
:101730003F1F386004CD08CA984700008444524FC8
:10174000D0FFFFFF101700004D1700003F1D04CD14
:1017500008CA984784535741D0FFFFFF3C17000049
:10176000651700003A683F1D38683F1D3F1F3A600B
:101770003F1F386004CD08CA98470000834455D005
:10178000541700008917000038683F1F386004CDE7
:1017900008CA9847900D0A537461636B205374759F
:1017A00066663A0D8AFFFFFF7C17000087414E44B2
:1017B000424954D394170000BD17000004CF396884
:1017C0003F1D08681040086004CD08CA9847000013
:1017D00087534554424954D3AC170000E117000029
:1017E00004CF39683F1D08681043086004CD08CA5B
:1017F0009847000087434C52424954D3D017000009
:101800000518000004CF39683F1D08689043086040
:1018100004CD08CA9847000085434D4F56C5FFFFC9
:10182000F41700002918000039683F1D3A683F1D71
:101830003B683F1D002907D018781070491E002909
:1018400002D0521C5B1CF7D104CD08CA9847000097
:101850008446494CCCFFFFFF1818000061180000B7
:1018600038683F1D39683F1D3A683F1D002904D084
:101870008B181070521C9A42FBD104CD08CA9847AD
:101880008545524153C5FFFF501800000106000076
:10189000B42100005C1800000C06000086424C4198
:1018A0004E4BD3FF8018000001060000B00A000074
:1018B0005C1800000C060000822BA1FF9C180000A1
:1018C000C518000039683F1D38683F1D0A68801838
:1018D000086004CD08CA984781C0FFFFB81800000F
:1018E000E518000039683F1D08683F1F386004CDC7
:1018F00008CA98478243C0FFD818000001190000A9
:1019000039683F1D08783F1F386004CD08CA9847E2
:1019100081A1FFFFF41800001D19000038683F1D69
:1019200039683F1D016004CD08CA98478243A1FF72
:10193000101900003919000038683F1D39683F1D33
:10194000017004CD08CA98479F0D0A526561642052
:10195000616E64205772697465204D656D6F727990
:1019600020576974683A0D8A2C19000081DDFFFF49
:10197000481900000106000040090000C0000000F6
:10198000680B00100C060000C1DBFFFF6C190000A3
:10199000010600004009000000000000680B001074
:1019A0000C060000C95B434F4D50494C45DDFFFF1D
:1019B0008819000001060000300300002424000004
:1019C00034060000F3380000500E000048170000F5
:1019D000480D00004C0C00000C060000C8444C49A7
:1019E00054455241CCFFFFFFA4190000010600003E
:1019F000200B0000E0180000440700001000000069
:101A0000601700001C1A00001C1A00000C060000E1
:101A1000C74C4954455241CCDC1900000106000076
:101A2000200B0000E0180000440700001000000038
:101A30004C030000340600004C0C00000C060000B3
:101A40008223BEFF101A00000106000048170000A4
:101A50004817000098010000E0180000500B00003B
:101A60001C170000542300000C06000084484F4C53
:101A7000C4FFFFFF401A000001060000340600000A
:101A8000FFFFFFFF98010000C01800009801000050
:101A9000E0180000341900000C0600008453494788
:101AA000CEFFFFFF6C1A0000010600003816000090
:101AB0004824000044070000100000003406000025
:101AC0002D000000781A00000C0600008223D3FFCE
:101AD0009C1A000001060000001B00001C170000FB
:101AE0001C1700007025000024240000440700009B
:101AF000E8FFFFFF0C06000081A3FFFFCC1A0000E7
:101B000001060000F80A0000E01800006C03000065
:101B10003816000034060000090000001C17000001
:101B2000A423000044070000100000003406000059
:101B300007000000342300003406000030000000DD
:101B400034230000781A00000C060000823CA3FF3A
:101B5000F81A00000106000040090000380A0010D1
:101B60009C0B00100C06000085444F4553BEFFFF40
:101B70004C1B000001060000C8160000140D0000F8
:101B8000A80D000084170000480D00003406000076
:101B90006306000060170000181900001819000003
:101BA0000C060000873C4255494C44D3681B00009A
:101BB00001060000F01D00000C060000C52B4C4F74
:101BC0004FD0FFFFA41B000001060000E42100002D
:101BD000200200004C03000078070000CC04000045
:101BE0000C060000C44C4F4FD0FFFFFFBC1B000091
:101BF00001060000E4210000200200004C03000068
:101C000058070000CC0400000C060000C244CFFFBF
:101C1000E41B0000010600004C03000084070000E4
:101C2000740B0000E42100000C060000C5454E4482
:101C300049C6FFFF0C1C000001060000E401000083
:101C4000D421000020020000740B00001C170000CB
:101C50005423000060170000181900000C06000053
:101C6000C4544845CEFFFFFF2C1C000001060000B5
:101C7000381C00000C060000C4454C53C5FFFFFF94
:101C8000601C000001060000D421000020020000BA
:101C90004C03000034070000740B0000B421000066
:101CA0004C0C000060170000D4210000381C00001C
:101CB000D42100000C060000C249C6FF781C0000B9
:101CC000010600004C03000044070000740B0000F4
:101CD000B42100004C0C0000D42100000C060000D0
:101CE000C5554E5449CCFFFFB81C0000010600004A
:101CF000C4210000200200004C0300004407000043
:101D0000CC0400000C060000C541474149CEFFFF4E
:101D1000E01C000001060000C421000020020000B9
:101D20004C03000034070000CC0400000C06000047
:101D3000C65245504541D4FF081D00000106000071
:101D4000FC160000FC160000141D0000C816000060
:101D5000C8160000D421000054230000381C0000E5
:101D60000C060000C55748494CC5FFFF301D000058
:101D700001060000C01C0000602100000C060000ED
:101D8000C542454749CEFFFF641D00000106000023
:101D9000E4010000740B0000C42100000C060000E8
:101DA000970D0A496E7369646520436F6C6F6E20EE
:101DB000574F5244533A0D8A801D000089494D4DBA
:101DC0004544494154C5FFFFA01D00000106000025
:101DD000140D00003406000040000000F007000071
:101DE0000C060000864352454154C5FFBC1D00004F
:101DF0000106000078060000340600000F00000015
:101E0000542300004824000044070000080000009C
:101E1000A00100003003000044070000240000007F
:101E200048170000640D000064290000340600001B
:101E3000B7380000C0120000F0290000D4130000E1
:101E4000740B000084170000F4040000181900004F
:101E500084170000FC180000340600001F0000007A
:101E600000250000B80100008417000034060000BF
:101E700080000000F0070000740B00003406000032
:101E800080000000F0070000C4210000E40A000008
:101E9000C0180000140D00004C0C00000C0B0000DA
:101EA000181900004C03000029060000740B000004
:101EB0007C2100004C0C00000C06000088434F4EB3
:101EC0005354414ED4FFFFFFE41D00000106000003
:101ED000E01E00000C06000083434FCEBC1E000035
:101EE00001060000F01D000034060000FCFFFFFFAB
:101EF000E40A0000C01800004C0C0000E0040000E0
:101F00000C060000885641524941424CC5FFFFFF74
:101F1000D81E000001060000281F00000C0600006B
:101F2000835641D2041F000001060000F01D00008E
:101F300034060000F8FFFFFFE40A0000C0180000AC
:101F40004C0300001D060000C4210000B00C00007E
:101F50004C0C0000E00400000C060000C1BBFFFFB9
:101F6000201F000001060000AC0300004C0300002D
:101F70000C06000090190000E00400000C060000B0
:101F8000C1BAFFFF5C1F0000010600000402000050
:101F900098030000F01D00007419000034060000D2
:101FA000F8FFFFFFE40A0000C01800004C03000027
:101FB000010600000C060000960D0A4352454154EC
:101FC0004520574F52445320576974683A0D8AFF91
:101FD000801F000084444142D3FFFFFFB81F000070
:101FE0000106000084170000140500000C06000024
:101FF00087444E45474154C5D41F000001200000CE
:1020000038683F1D3A683F1DC043D243521C3F1FF2
:102010003A603F1F386004CD08CA9847834450CCCB
:10202000F01F000029060000980B001083442ED2F8
:102030001C20000001060000FC16000060170000D4
:102040001C170000E01F0000541B0000D41A000001
:10205000A81A0000481A0000C81600001C1700004B
:102060005423000010290000F02900000C06000095
:102070008244AEFF2C20000001060000B4210000C5
:10208000342000004C2900000C0600008244ABFF05
:10209000702000009920000038683F1D39683F1DFE
:1020A0003B683F1D3A683F1D521858413F1F3A6038
:1020B0003F1F386004CD08CA9847000084532D3E66
:1020C000C4FFFFFF8C200000CD2000003A683F1DB8
:1020D0004040124300D5401E3F1F3A603F1F38600A
:1020E00004CD08CA984700008232AAFFBC20000035
:1020F000F520000038683F1D40003F1F386004CDC8
:1021000008CA98478232AFFFE82000001121000082
:1021100038683F1D40103F1F386004CD08CA9847FB
:102120008231ADFF042100002D21000038683F1DE1
:10213000401E3F1F386004CD08CA98478231ABFF6C
:10214000202100004921000038683F1D401C3F1F2E
:10215000386004CD08CA98478232ABFF3C210000AA
:102160006521000038683F1D801C3F1F386004CD8A
:1021700008CA98478234ABFF582100008121000033
:1021800038683F1D001D3F1F386004CD08CA9847BE
:102190008234ADFF742100009D21000038683F1D8E
:1021A000001F3F1F386004CD08CA984781B0FFFF69
:1021B00090210000290600000000000081B1FFFF0F
:1021C000AC210000290600000100000081B2FFFFE1
:1021D000BC210000290600000200000081B3FFFFBF
:1021E000CC210000290600000300000081B4FFFF9D
:1021F000DC2100002906000004000000824DAAFF37
:10220000EC21000001060000F4150000AC250000E0
:10221000FC160000E824000060170000E82400001D
:1022200090080000C8160000140500000C0600000D
:10223000824DAFFFFC210000010600001C170000CA
:10224000FC160000FC160000E01F0000E416000071
:10225000E8240000B4080000C8160000E4160000DE
:10226000AC250000FC04000060170000C816000048
:10227000FC040000601700000C06000081AAFFFFAC
:102280003022000001060000042200004817000070
:102290000C060000842F4D4FC4FFFFFF7C2200007E
:1022A00001060000FC160000C8200000C81600004F
:1022B000382200000C06000081AFFFFF94220000CE
:1022C00001060000A022000060170000481700006F
:1022D0000C060000834D4FC4B82200000106000028
:1022E000A0220000481700000C060000852A2F4D90
:1022F0004FC4FFFFD422000001060000FC160000BE
:1023000004220000C8160000382200000C0600005D
:10231000822AAFFFEC22000001060000F822000034
:1023200060170000481700000C06000081ABFFFF9B
:10233000102300003923000038683F1D39683F1D15
:1023400040183F1F386004CD08CA984781ADFFFF91
:102350002C2300005923000038683F1D39683F1DB9
:10236000081A3F1F386004CD08CA984781BDFFFF97
:102370004C23000079230000404039683F1D3A6833
:102380003F1D891A04D03F1F386004CD08CA984702
:1023900001383F1F386004CD08CA984781BCFFFF51
:1023A0006C230000A92300004040013839683F1D1C
:1023B0003A683F1D914200DC40403F1F386004CD29
:1023C00008CA98478255BCFF9C2300000106000004
:1023D000F4150000AC25000048240000440700006C
:1023E00018000000481700004824000024240000C2
:1023F000340700000C0000005423000048240000B3
:102400000C06000081BEFFFFC4230000010600008F
:1024100060170000A42300000C0600008230BDFFFE
:102420000424000029240000404039683F1D002991
:1024300000D1401E3F1F386004CD08CA98470000F5
:102440008230BCFF1C2400004D24000039683F1D71
:1024500040400138094300D440403F1F386004CD5C
:1024600008CA9847834249CE402400000106000074
:1024700040090000020000005C0B00100C06000088
:10248000834845D86424000001060000400900008C
:10249000100000005C0B00100C0600008744454350
:1024A000494D41CC80240000010600004009000095
:1024B0000A0000005C0B00100C060000864E454729
:1024C0004154C5FF9C240000CD24000038683F1D06
:1024D000C043401C3F1F386004CD08CA9847000025
:1024E000834142D3BC240000010600008417000091
:1024F000FC0400000C060000834D49CEE0240000DF
:1025000001060000F41500000C2400004407000040
:102510000800000060170000481700000C060000CB
:10252000834D41D8F824000001060000F415000096
:10253000A42300004407000008000000601700000A
:10254000481700000C06000083414EC420250000FF
:102550005525000038683F1D39683F1D08403F1F62
:10256000386004CD08CA9847824FD2FF4825000042
:102570007525000038683F1D39683F1D08433F1F1F
:10258000386004CD08CA9847834E4FD468250000B0
:102590009525000038683F1DC0433F1F386004CDBB
:1025A00008CA984783584FD288250000B1250000FB
:1025B00038683F1D39683F1D48403F1F386004CDD3
:1025C00008CA984784535854C8FFFFFFA425000049
:1025D000D525000038683F1D00B23F1F386004CD8C
:1025E00008CA984784535854C2FFFFFFC42500000F
:1025F000F525000038683F1D40B23F1F386004CD0C
:1026000008CA984784524556D7FFFFFFE4250000CB
:102610001526000038683F1D00BA3F1F386004CD02
:1026200008CA9847834153D204260000312600008F
:102630003A683F1D38683F1D10413F1F386004CD88
:1026400008CA9847834C53D2242600005126000024
:102650003A683F1D38683F1DD0403F1F386004CDA9
:1026600008CA9847834C53CC4426000071260000CA
:102670003A683F1D38683F1D90403F1F386004CDC9
:1026800008CA9847822ED2FF642600000106000087
:10269000FC160000C8200000C8160000342000000E
:1026A0000C060000832E52D584260000010600008F
:1026B000FC160000B4210000541B0000D41A0000D6
:1026C000481A000084170000C816000060170000B8
:1026D0005423000010290000F02900000C0600001F
:1026E0008255AEFFA426000001060000B4210000C0
:1026F000782000000C06000081BFFFFFE0260000EC
:1027000001060000E0180000182700000C06000079
:1027100081AEFFFFF826000001060000C82000007F
:10272000782000000C060000822EC2FF1027000057
:1027300001060000D42100003C0100000C0600004E
:10274000822EC8FF28270000010600003406000082
:10275000100000003C0100000C060000822EC4FFA7
:102760004027000001060000340600000A000000B7
:102770003C0100000C060000910D0A4E554D4245EB
:10278000522053747566663A0D8AFFFF5C2700007D
:102790008A55415254305F494E49D4FF7827000092
:1027A0000106000034060000400D0010E018000093
:1027B00024240000440700001C0000003406000030
:1027C000440D0010E0180000FC1600003407000063
:1027D000100000003406000080250000FC160000F8
:1027E00040090000010000009480044040090000FE
:1027F000FF000000F0800440C8160000340600000E
:102800001000000084220000E03400006017000087
:10281000C0220000C4210000542300004009000031
:102820000000000020400640340600002040064022
:102830001819000040090000050000000040064093
:102840000C060000864D59424155C4FF90270000F8
:10285000010600004009000000000000400D0010CB
:1028600034060000440D0010181900000C0600008A
:102870008955415254305F4C53D2FFFF4428000029
:1028800085280000034908783F1F386004CD08CA36
:1028900098470000084006408855415254305F5226
:1028A000D8FFFFFF702800002906000014400640F2
:1028B0008855415254305F54D8FFFFFF98280000DC
:1028C000290600001C40064084584F46C6FFFFFF03
:1028D000B0280000D9280000FEF7CEF8FEF7D4F8A3
:1028E00004CD08CA9847000083584FCEC82800007E
:1028F000F5280000FEF7C0F8FEF7CEF804CD08CAB0
:1029000098470000865350414345D3FFE828000014
:1029100001060000B4210000282500001816000060
:102920004407000018000000B421000084070000E4
:102930004C29000058070000F8FFFFFF0C060000BC
:102940008553504143C5FFFF0429000001060000E4
:10295000B00A0000442A00000C060000834944AE7F
:1029600040290000010600009C120000340600000F
:102970001F00000050250000F02900004C29000035
:102980000C060000C22EA2FF5C2900000106000018
:102990003406000022000000200B0000E0180000B8
:1029A000440700002C0000004C03000060020000FF
:1029B000400F0000740B0000FC18000044210000D0
:1029C000C80B0000B801000034070000140000002C
:1029D000400F0000740B00009C120000F029000062
:1029E0000C06000084545950C5FFFFFF84290000E5
:1029F0000106000018160000440700003400000023
:102A0000D42800001C1700003423000060170000C9
:102A10008407000064160000A0070000442A00009C
:102A200058070000F0FFFFFF340700000800000017
:102A3000481700000C06000084454D49D4FFFFFFF5
:102A4000E4290000492A000038683F1DFEF714F809
:102A50000449087004490868401C086004CD08CA8D
:102A6000984700001C400640640B0010834B45D97A
:102A7000382A000001060000F0280000842A000027
:102A80000C060000892A0000054A064B196849080F
:102A9000FCD310683F1F386004CD08CA9847000077
:102AA0001440064008400640843F4B45D9FFFFFFD5
:102AB0006C2A0000B92A0000FDF7DEFFFDF7ECFFED
:102AC000084B1968490806D3404001383F1F386059
:102AD00004CD08CA984740403F1F386004CD08CA5B
:102AE0009847000008400640834352D3A82A0000BC
:102AF00001060000B421000084070000142B000030
:102B000058070000F8FFFFFF0C0600008243D2FFC9
:102B1000E82A000001060000400900000000000053
:102B2000640B001060020000020D0AFF0C0600009A
:102B30008D0D0A4649534820494F3A0D8AFFFFFF41
:102B40000C2B00008B495251535F524553554DC5D4
:102B5000302B0000592B000062B6C04604CD08CAD5
:102B6000984700008C495251535F53555350454E7E
:102B7000C4FFFFFF442B00007D2B000072B6C0464F
:102B800004CD08CA984700008F5359535449434B0A
:102B90005F4952515F4F46C6642B0000A12B0000D5
:102BA00002490520086004CD08CA984710E000E0FB
:102BB0008E5359535449434B5F4952515F4FCEFF97
:102BC000882B0000C92B000002490720086004CDB3
:102BD00008CA984710E000E08F0D0A494E5445524C
:102BE00052555054533A0D8AB02B00008A464C413E
:102BF00053485F534156C5FFD82B00000106000023
:102C0000140D000004340000A42300004407000059
:102C100020000000142B0000600200000F4E4F54F3
:102C200048494E4720544F20534156450C0600005A
:102C3000082D0000E01800003406000000400000ED
:102C4000742300004407000028000000142B00003B
:102C500060020000144C41535420464C415348201C
:102C6000504147452055534544FFFFFF0C060000E7
:102C7000C00A0000E0180000182D0000181900001C
:102C8000140D0000202D0000102D00001819000068
:102C9000140D0000043400007423000044070000F9
:102CA000580000005030000004340000E40A000026
:102CB00018190000182D0000E0180000C00A0000DC
:102CC00018190000102D0000E01800000C0B000087
:102CD000181900003406000000040000082D000050
:102CE000C018000090300000142B00002C330000AE
:102CF000043300000C060000140D0000442D0000F9
:102D0000340700008CFFFFFF2906000004000010BC
:102D10002906000008000010290600000C00001021
:102D2000252D000038683F1D044A1040044A1268EF
:102D300080183F1F386004CD08CA9847FF0F000075
:102D40000400001001060000A80D00008417000018
:102D5000FC160000480D000084170000E018000079
:102D600034060000630600007423000044070000DE
:102D7000280000007C210000841700008417000058
:102D8000E0180000202D0000601700001819000056
:102D9000340700000001000084170000E018000064
:102DA0003406000029060000742300001C170000F0
:102DB000E0180000340600001D0600007423000027
:102DC00070250000440700001000000048170000B4
:102DD00034070000C40000007C21000084170000BC
:102DE000E0180000340600003406000074230000E0
:102DF00044070000100000007C21000034070000A0
:102E0000D8FFFFFF84170000E01800003406000020
:102E1000600200007423000044070000200000004E
:102E2000841700007C210000FC18000034230000FF
:102E3000C80B000034070000A0FFFFFF841700004C
:102E4000E0180000340600000C06000074230000A7
:102E500024240000440700003C0000008417000008
:102E6000E0180000043400000C24000044070000B7
:102E700068FFFFFF8417000084170000E0180000BF
:102E8000202D000060170000181900003407000012
:102E900048FFFFFF48170000C81600002C0D000077
:102EA00084170000E0180000841700000C0B0000DD
:102EB00018190000202D00006017000018190000EC
:102EC0000C060000C92E00000648074932220260A5
:102ED000064B1A68920A42608260054B984704CDFF
:102EE00008CA9847A00B0010F00B00100400001057
:102EF000F11FFF1FF92E0000074808493422026025
:102F0000074B1A68920A42608260064AC260064B0A
:102F1000984704CD08CA9847A00B0010F00B00108A
:102F200004000010C05D0000F11FFF1F312F0000E2
:102F30000848094933220260084A12684260084A78
:102F40008260084AC260084A0261084B984704CD73
:102F500008CA9847A00B0010F00B001004000010E6
:102F60000000001000040000C05D0000F11FFF1F02
:102F70008C464C4153485F464F524745D4FFFFFFB4
:102F8000EC2B00000106000040090000003C00009E
:102F900004000010082D0000E018000034060000B6
:102FA00000400000742300002424000044070000B7
:102FB0002C000000782B0000C42E0000F42E00002E
:102FC000542B00003406000000040000082D00000F
:102FD000C018000034070000BCFFFFFF18340000D9
:102FE000140D00000C240000440700001000000035
:102FF00070370000340700001C0000003406000099
:10300000D037000004340000A80D00002C0D000093
:103010001819000040090000003C000004000010E6
:10302000340600001111111184170000102D00004A
:1030300018190000182D0000181900009030000029
:10304000142B00002C330000043300000C06000099
:1030500001060000740B000034060000370A00105F
:10306000740B00005423000034060000FF00000031
:103070005C180000782B0000C42E0000F42E000025
:10308000C42E00002C2F0000542B00000C06000062
:103090000106000034060000003C00008417000018
:1030A000082D00001819000084170000FC1600000D
:1030B000E0180000E0340000742300004407000022
:1030C0007C000000E4160000340600000800000048
:1030D0003423000084170000E01800000C0B0000EF
:1030E000181900007C210000E0180000C00A000050
:1030F00018190000142B000060020000174144441E
:10310000454420574F5244532046524F4D20504182
:10311000474520FFE416000048270000E4160000A1
:10312000340600000004000034230000082D0000D5
:1031300018190000340700000C000000E41600001D
:1031400098310000E416000034060000000400007E
:103150003423000084170000340600000040000003
:10316000542300004407000020000000481700001E
:10317000C8160000340600000004000034230000DC
:103180003407000024FFFFFF48170000C8160000A6
:10319000481700000C06000001060000841700001C
:1031A000340600000004000034230000FC16000078
:1031B00084170000E01800004421000044070000CC
:1031C00048000000782B0000C42E0000F42E000000
:1031D000542B0000142B00006002000017455241E0
:1031E0005345442042414420464C415348205041DD
:1031F000474520204827000048170000C816000057
:10320000481700000C0600007C2100008417000015
:1032100084170000E416000060170000542300002B
:10322000440700000C0000003407000088FFFFFF87
:10323000142B0000600200000E464C415348205001
:10324000414745204F4B20FF48170000340600003F
:10325000000400005423000048270000C8160000A6
:10326000481700000C06000084504F46C6FFFFFFC1
:10327000702F00000106000040090000000000005F
:103280008C0B00100C06000083504FCE68320000FB
:103290000106000040090000290A00008C0B001004
:1032A0000C06000081D0FFFF8832000029060000D4
:1032B0008C0B00108545484F46C6FFFFA432000026
:1032C00001060000B421000034060000900B00103D
:1032D000181900000C0600008445484FCEFFFFFF80
:1032E000B432000001060000C421000034060000D2
:1032F000900B0010181900000C060000832E44D318
:10330000D8320000010600007806000064270000A3
:10331000340600000C380000C0120000F029000044
:103320000C060000832E56D3FC320000010600007C
:1033300098060000F4210000C0220000642700006D
:103340003406000001380000C0120000F02900001F
:103350000C0600008444554DD0FFFFFF24330000CD
:10336000010600001C170000F00D00001809000005
:1033700088240000B421000084070000142B000002
:1033800084170000340600000A000000AC2600008C
:10339000F4210000B421000084070000841700001D
:1033A000E0180000340600000E000000AC2600000B
:1033B0007C21000058070000E4FFFFFFB42A000052
:1033C0004407000008000000B01600005807000085
:1033D000ACFFFFFF48170000142B00002C09000071
:1033E0000C0600008556424153C5FFFF54330000D0
:1033F00029060000FC0A00108544424153C5FFFF26
:10340000E4330000290600001000001085524241FC
:1034100053C5FFFFF833000029060000000000102C
:1034200083434CD30C34000001060000600200000E
:10343000041B5B324AFFFFFF60020000041B5B3B82
:1034400048FFFFFF142B00000C060000C1A8FFFF7F
:1034500020340000010600003406000029000000AE
:10346000B8070000242400004407000028000000E2
:10347000142B00008802000034060000990A001096
:10348000FC18000044070000100000003407000092
:10349000C8FFFFFF0C060000340600001E380000C5
:1034A000C0120000F02900000C060000C1DCFFFF84
:1034B0004C34000001060000B4210000600B000045
:1034C000400B0000E0180000342300003419000015
:1034D0000C06000086535953434CCBFFAC3400001C
:1034E000E5340000034908683F1F386004CD08CA6E
:1034F00098470000000000108553544354D2FFFF4A
:10350000D434000029060000F80A00108544454C18
:1035100041D9FFFFF83400001D35000039683F1D18
:1035200038683F1D0A4CC043401C2060094A1160A6
:10353000094A1160002806D0084A10680721116066
:1035400021680029FCD1106004CD08CA984700000A
:10355000F80A001014E000E018E000E010E000E0DD
:10356000824DD3FF0C350000010600001835000025
:103570000C06000087574F52444341D46035000089
:1035800001060000740B0000FC160000B4210000CE
:10359000740C0000340600000D000000740C0000E4
:1035A000740B0000340600000D000000400F000006
:1035B00084170000FC180000340600000A00000018
:1035C0003816000034190000841700004421000060
:1035D000900B00003406000084000000342300003B
:1035E000E416000034190000340600000D0000004D
:1035F000740C0000340600008A000000740C000007
:10360000F00B0000140D00004C0C0000C816000068
:1036100034060000880B0010181900000C0600008A
:1036200085574F5244D3FFFF743500000106000058
:10363000E421000010290000140D0000D42800002F
:10364000B42100001C17000044210000FC180000F9
:10365000340600000D000000742300002424000044
:10366000440700001C0000004817000084170000F9
:10367000A80D00002C0D00001C17000054230000B2
:10368000300B0000E0180000342300003406000076
:103690004A0000000C240000440700001000000055
:1036A000142B0000E4210000102900008417000002
:1036B000D40A0000E0180000A42300004407000022
:1036C0000C000000340700005C00000084170000BC
:1036D00064290000D4210000102900008417000094
:1036E00044210000FC180000340600000D0000001A
:1036F000742300004407000010000000400900008F
:1037000000000000640B0010A80D00002C0D00004C
:10371000E018000084170000242400004407000083
:1037200020FFFFFF48170000142B00000C060000CC
:10373000874D59574F5244D32036000001060000F0
:1037400040090000003C0000840B00102C360000F3
:103750004009000000000000840B00100C0600006F
:1037600089464953485F4F4E4CD9FFFF3037000020
:10377000753700000749084C2160084C2160084952
:10378000084C2160084C21600849094C216004CD97
:1037900008CA9847D0370000880B001008000010B6
:1037A000FC0A0010780B00100C0000101000001034
:1037B0007C0B001084464953C8FFFFFF60370000B0
:1037C00001060000903000002C050000D41300001A
:1037D000990D0A46495348205265666572656E63C5
:1037E00065204D6F64656C3A0D8AFFFFB4370000A9
:1037F0000352554E2000203F2000203C43523E20E3
:10380000005641522043454C4C53200044494354F8
:10381000494F4E41525920425954455320002043AC
:103820004F4D4D454E54204C494E452043414E4E40
:103830004F5420424520454D5054592015002043F7
:10384000414E5420464F5247455420464953482044
:10385000494E20464C41534820150020494E2046F1
:103860004C415348202D2053454520464C41534858
:103870005F464F5247455420150020444943544960
:103880004F4E4152592046554C4C202D2053454512
:10389000202E44532015002052414D2056415220E5
:1038A00053504143452046554C4C202D205345450F
:1038B000202E565320150020495320414C5245419B
:1038C000445920444546494E4544201500203F2098
:1038D0004E4F5420574F5244201500203F204E4F4A
:1038E0005420574F5244204F52204E554D4245527E
:1038F0002015002043415553454420412053544155
:10390000434B204552524F522015002053544143FF
:103910004B204552524F52205748494C452045585C
:1039200045435554494E47204F5220434F4D50492F
:103930004C494E47201500204552524F52202D2011
:103940004E4F5420434F4D50494C494E472015008F
:10395000204552524F52202D20455845435554453D
:1039600044205748494C4520434F4D50494C494EFF
:103970004720150001060000400900000700000074
:1039800010E000E040090000FFC00100808004401A
:1039900040090000040009FF00C000404009000089
:1039A00000200000002000A04009000000000000EE
:1039B000002100A04009000070ED000038820440A2
:1039C0004009000000000000408004404009000061
:1039D0000000000044800440400900000100000095
:1039E00044800440400900000100000008800440B9
:1039F0004009000000366E0100000010340600008F
:103A00000C800440E0180000C42100005025000094
:103A100044070000E8FFFFFF40090000030000002A
:103A200070800440400900000000000074800440E1
:103A300040090000010000007480044040090000BB
:103A400000366E01000000100C060000D0B5040026
:103A500016001F00300039002200E31700F007F8BD
:103A6000300039002200E31700F001F8D0BD30B477
:103A7000DC0F03D05B42524200D25B1E0D106C4043
:103A800013D0F446002502D349424042A94100F038
:103A90000DF8E40703D35B425242AB41244202D506
:103AA00049424042A94130BC604730BC124224D058
:103AB000994228D970B500251B4202D00C00002184
:103AC00009E00024012649186441944200D3A41A55
:103AD0007641F8D33100012601E0764109D2001881
:103AE00064416D41A41A9D41F7D2A4185D41B619F5
:103AF000F5D3300022002B0070BD1B42D8D108B591
:103B0000C046C04608BD01D19042D3D202000B008E
:103B1000002100207047000000B5BFF34F8F03481D
:103B200003490860BFF34F8FFEE700000400FA0569
:103B30000CED00E000B5FEE780B5FFF7EDFF01BD3D
:103B400000B5FEE700B5FEE700B5FEE700B5FEE70D
:103B500000B5FEE700B5FEE780B5FCF735FF01BD17
:023B60007047AC
:0400000500003B615B
:00000001FF
