:10000000C012001071090000F53B0000F93B000030
:10001000013C0000053C0000093C0000D2B7FEEFA7
:100020000000000000000000000000000D3C000087
:10003000113C000000000000153C0000193C0000CD
:10004000110600004406000007000000082B000015
:100050001C06000039060000080000001106000020
:1000600054000000082B0000102A0000540000007B
:10007000082B000044060000FDFFFFFFA00B00005E
:10008000441900001C060000110600003809000099
:10009000680B00009C190000E01500004C090000EE
:1000A0001C06000011060000680B00006419000027
:1000B0000818000058220000F82300005407000030
:1000C000180000004406000062000000082B000039
:1000D000CC1700001C060000440600000A000000C7
:1000E000F82300005407000014000000440600003C
:1000F00064000000082B00001C06000044060000FD
:1001000068000000082B00001C060000110600001B
:100110004C21000038220000B8200000A40000009C
:100120001C060000110600003822000038220000E2
:10013000B8200000A40000001C060000110600000A
:100140003809000008180000680B00009C19000026
:10015000440600000A000000F823000054070000D5
:10016000100000000C01000044070000080000001F
:1001700024010000102A00004C0900001C060000A9
:1001800039060000E410001039060000E8100010E5
:10019000390600000C11001039060000141100107F
:1001A000110600004406000052390000441300000C
:1001B000B42A00005814000011060000540B00007F
:1001C000441900001C06000011060000600C00002D
:1001D000E40B00009C19000078220000B801000028
:1001E0001C06000011060000900B000064190000BE
:1001F000A8240000440600000F3A0000C00E0000D2
:100200001C06000011060000900B0000641900009D
:1002100044060000283A0000C00E00001C06000042
:1002200011060000D823000044060000E339000056
:10023000C00E00001C0600001106000000170000A0
:100240008001000064190000E41700005024000041
:1002500044060000CB390000C00E00001C06000060
:10026000110600004C1700000818000020130000C1
:10027000B42A000020130000B8230000380C00004E
:10028000801700001C06000011060000D00B0000C3
:10029000440600005E000000D0110000600900006C
:1002A00001000000D81000101C060000110600001C
:1002B000C821000008180000801700008019000005
:1002C000680B000064190000F00E000054070000E5
:1002D00058000000E4170000680B000064190000DB
:1002E000A0080000CC170000BC160000680B00003E
:1002F00064190000A008000018210000A8200000D8
:1003000064190000C821000054070000100000001C
:1003100048220000A8200000441900004C170000EB
:10032000440700008CFFFFFF4C1700001C06000074
:1003300011060000140B0000B00F0000E40B0000D9
:10034000840D0000C80600001C0600001106000015
:100350004C17000008180000002200008017000061
:1003600064190000C80100001C060000110600000E
:10037000801700003822000068170000CC08000039
:100380004C170000E417000080170000CC080000A4
:100390004C1700001C0600001106000000170000AA
:1003A000900100009C1900001C06000011060000CE
:1003B000001700009001000064190000D82300001D
:1003C00044060000CB390000C00E00001C060000EF
:1003D0001106000030030000540700003C0000003C
:1003E000900B00006419000028240000540700004E
:1003F00014000000B80D0000C80100004407000010
:100400000C000000B80D0000C80A0000380200000F
:1004100044070000C0FFFFFFE40B000028100000AD
:10042000A820000064190000C82100005407000043
:1004300010000000701A0000440700000C000000CB
:10044000CC170000A01A000038020000440700008A
:1004500084FFFFFF11060000141A000010090000BD
:100460002409000088020000D0030000900B000067
:1004700064190000A82400005407000038000000A0
:100480004406000004110010641900005407000025
:10049000240000004406000004110010641900004C
:1004A00044130000B42A0000680B00006419000027
:1004B000E82700004406000010000000082B0000A0
:1004C000D82B00004407000098FFFFFF1106000032
:1004D000E40B0000D8230000BC0C00001C06000048
:1004E000110600006009000000000000F810001074
:1004F0001C06000039060000F8100010110600006C
:10050000CC24000054070000080000004C25000027
:100510001C06000011060000CC2400005407000057
:1005200008000000802000001C06000011060000EA
:10053000D82B000044060000240A000044130000E9
:10054000B42A0000440600007F0A000044130000A3
:10055000B42A0000440600008C0A00004413000086
:10056000B42A0000D82B00001C0600001106000071
:10057000EC050000543100001C06000011060000CC
:10058000E4170000A0170000B82300004406000094
:100590007F000000A0170000801900002824000040
:1005A00054070000E0FFFFFFE4170000CC17000035
:1005B0001C0600000A00000001000000000000000E
:1005C00000000000F01F0010701F0010101000103D
:1005D0007410001010000010000000000000000067
:1005E000A83800008E0A000000000000F10500009D
:1005F000054806490E2203680B6004300431013AB5
:10060000F9D104CD08CA9847B4050000D4100010F1
:10061000361F3560154604CD08CA984721060000EC
:100620003568361D04CD08CA9847000001CA3F1F2F
:10063000386004CD08CA984701CA3F1F386004CD0E
:1006400008CA98474906000001CD3F1F386004CD15
:1006500008CA98475906000001CD3F1F386004CDF5
:1006600008CA9847690600003D683F1D04CD08CAC6
:1006700098470000361F3560456808303F1F3860D6
:1006800004CD08CA984700008D06000004480549BB
:100690000968401A3F1F386004CD08CA9847000017
:1006A000B00F0010F4100010AD060000044805491A
:1006B0000968401A3F1F386004CD08CA98470000F7
:1006C000D4100010F0100010CD0600003B683F1D54
:1006D0003A683F1D93465A46187884461178484038
:1006E0003F24204019D1521C5B1C18781178884295
:1006F000F9D08024001B884210D15B1C1878FF2899
:10070000FBD008333F1F3B60012062463F1F3A6029
:100710003F1F386004CD08CA98475B1C18788024B6
:100720002042FAD01B1D064803401B68002B00D056
:10073000D1E700203F1F386004CD08CA9847000069
:10074000FCFFFFFF490700002B68ED1804CD08CA25
:10075000984700005907000038683F1D0028F3D073
:100760002D1D04CD08CA98476D0700000123746849
:100770003268944203D0D2183260A41AE4D1083609
:100780002D1D04CD08CA98478D0700003B683F1D0A
:10079000EDE700009907000038683F1D3A683F1DEB
:1007A000361F3260361F306004CD08CA98470000FB
:1007B000B507000038683F1D00787F2108403F1FC3
:1007C000386004CD08CA9847CD07000039683F1D3E
:1007D000094A9246094B1C68121910780132884266
:1007E00001D00028F9D15446121B1A703F1F3860FF
:1007F00004CD08CA9847000010100010D81000104F
:100800000508000039683F1D3A683F1D10784840D0
:10081000107004CD08CA98471D0800000A218842BC
:1008200005D138683F1D0D203F1F386002E00D21C3
:10083000884203D100F052F900F058F904CD08CAFB
:1008400098470000490800003868017801290FD056
:10085000022910D001440A78622A12D0252A10D029
:10086000642A10D0232A0ED0682A0ED0242A0CD055
:1008700004CD08CA984742782E2AEBD104CD08CA85
:100880009847022402E00A2400E0102400220A70A3
:10089000024A146004CD08CA98470000D410001022
:1008A000A508000038683F1D39683F1D72B6C04674
:1008B0004843C11762B6C046024608463F1F3A6029
:1008C0003F1F386004CD08CA98470000D1080000D7
:1008D00038683F1D3B683F1D3A683F1D00280CD01B
:1008E00072B6C04603F012F962B6C0463F1F3A60C6
:1008F0003F1F386004CD08CA98474040401E02465A
:100900003F1F3A603F1F386004CD08CA9847000077
:1009100015090000024A176804CD08CA984700006C
:10092000E410001029090000024A166804CD08CA24
:1009300098470000E81000103D090000024A1168C5
:100940008C4604CD08CA9847D41000105109000005
:10095000024A6146116004CD08CA9847D4100010BD
:100960006509000002CD04CD116004CD08CA984786
:100970000A490B480B4C0160001DA042FBD30A48FA
:100980000A4C0160001DA042FBD3094F094E0AA585
:10099000361F356004CD08CA9847000011111111A7
:1009A0000000001000130010EC1E001000200010CA
:1009B000F01F0010701F0010EC0500004C3A000002
:1009C00024280000D82B000044060000FB00000093
:1009D000082B000044060000F7000000082B000070
:1009E0006015000008CA9F463FB55046594662460A
:1009F00007B4014A08CA9847100A0000010A00001B
:100A00003568361D07BC82468B4694463FBD0000C4
:100A10001106000048220000D435000044190000EF
:100A2000FC090000464953482041524D2048692D99
:100A30004C6576656C2049535220546573742121AE
:100A400021204C50433131317820333278382052D4
:100A50004D2056312E3720284329323031342D3263
:100A600030313520412D5445414D20464F52544898
:100A7000203A204D61792032332032303136002047
:100A800061742031373A35353A3132001000206F29
:100A90006B2C20676F206669736820696E20424165
:100AA00053452000844E4F4FD0FFFFFF0000000051
:100AB000B50A000000BF04CD08CA984787455845CD
:100AC000435554C5A40A0000CD0A000000F006F802
:100AD00000F00CF804CF08CA984700007246024C98
:100AE00021688909FCD310471480004072460249EE
:100AF00013240C7010470000008000407246024929
:100B000011240C7010470000008000408242CCFF8E
:100B1000BC0A00003906000020000000210B000084
:100B200000BF08CA984700008255D0FF0C0B000098
:100B300039060000F01000108546454E43C5FFFF02
:100B4000280B000039060000FC1000108244D0FF82
:100B5000380B000039060000F410001084424153A5
:100B6000C5FFFFFF4C0B000039060000D410001039
:100B70008743555252454ED45C0B000039060000A5
:100B8000001100108553544154C5FFFF700B000045
:100B900039060000E0100010834F55D4840B00008C
:100BA00039060000DC1000108249CEFF980B0000CF
:100BB00039060000D8100010835041C4A80B000073
:100BC00039060000B00F0010835449C2B80B000072
:100BD000390600001010001084484552C5FFFFFF81
:100BE000C80B000011060000540B0000641900003F
:100BF0001C06000085414C4C4FD4FFFFD80B000071
:100C00001106000088060000A0170000D82300008D
:100C1000CC2400005407000008000000A0010000E0
:100C2000540B0000441900001C06000087414C4989
:100C3000474E45C4F40B00003D0C000038683F1DD2
:100C4000C01C034908403F1F386004CD08CA9847BC
:100C5000FCFFFFFF85414C4947CEFFFF2C0C0000F5
:100C600011060000E40B000068220000B823000019
:100C70000818000080170000E40B00009407000033
:100C800044060000FF000000E8160000B81900004C
:100C900068070000ECFFFFFF4C170000440600004F
:100CA000FCFFFFFFD4250000540B00009C1900003E
:100CB0001C06000081ACFFFF540C00001106000070
:100CC00088060000CC240000540700000800000043
:100CD000A0010000C80100001C0600008243ACFF18
:100CE000B40C00001106000088060000CC240000AF
:100CF0005407000008000000A0010000E40B000001
:100D0000B819000048220000B80100001C060000CD
:100D100088564152414C4C4FD4FFFFFFDC0C000081
:100D200011060000A80600007822000044230000FD
:100D3000A0170000D8230000CC24000054070000B6
:100D400018000000440600006F3900004413000042
:100D5000B42A000058140000300B00006419000091
:100D6000E41700007822000008230000300B000088
:100D7000441900001C060000864C41544553D4FF22
:100D8000100D0000110600007C0B0000641900002B
:100D90001C060000834C46C1780D0000A10D000028
:100DA00038683F1D08383F1F386004CD08CA98478F
:100DB000834346C1940D0000BD0D000038683F1DFF
:100DC000001F3F1F386004CD08CA9847834E46C1B4
:100DD000B00D00001106000054000000D8230000F0
:100DE000AC21000008180000801900004406000033
:100DF000FF000000D823000054070000E4FFFFFFBD
:100E000044060000FFFFFFFF7C0500001C060000F9
:100E1000835046C1CC0D000011060000482200009E
:100E20007C050000C821000008180000801900009F
:100E300044060000FF000000D82300005407000013
:100E4000E4FFFFFF54000000B82300001C06000070
:100E5000883F414C49474E45C4FFFFFF100E00003C
:100E6000110600004406000003000000D425000025
:100E7000540700003C000000600200002E56414C68
:100E80005545204D555354204245204556454E204A
:100E90004E4F54204F444420414E44204D554C5415
:100EA00049504C45204F4620342120FF5814000063
:100EB0001C060000863F4552524FD2FF500E0000E4
:100EC00011060000E41700005407000010000000A5
:100ED000281100004407000008000000CC170000A3
:100EE0001C0600008544494749D4FFFFB40E0000AA
:100EF000F50E00003A683F1D38683F1D30380FD4AA
:100F0000092802DDC01F0A280ADB904208DA0246DF
:100F100001203F1F3A603F1F386004CD08CA984740
:100F200000203F1F386004CD08CA984787454E43CC
:100F30004C4F53C5E40E00003D0F000038683F1DC4
:100F400039680022521E491E491C521C0B789842D7
:100F5000FAD03F1F3A60002B08D11846521C3F1FA1
:100F60003A603F1F386004CD08CA9847491C521C9C
:100F70000B78984201D0002BF8D11046401C3F1F3F
:100F80003A603F1F386004CD08CA9847C180FFFF10
:100F90002C0F0000990F00003568361D04CD08CADB
:100FA0009847000084574F52C4FFFFFF8C0F00008A
:100FB00011060000D00B0000B00B00006419000007
:100FC000B8230000E4170000380F0000B00B000049
:100FD00044190000A0170000D8230000801700006B
:100FE00068170000E40B0000B8190000B8230000E7
:100FF000E40B0000C821000068170000A8180000DA
:1010000038220000E40B0000C82100004C1700004B
:10101000B8230000B81900001C060000864E554D8C
:101020004245D2FFA40F000011060000380900005D
:10103000440800003822000038220000BC160000DE
:1010400008180000C82100008019000044060000B4
:101050002D000000F823000048220000D4250000E5
:101060000818000080170000B823000044060000A4
:10107000FFFFFFFFA82000009C190000AC02000049
:10108000081800008019000038220000D823000052
:10109000540700006C0000000818000080190000D0
:1010A000440600002E000000D82300005407000072
:1010B00044000000081800008019000044060000E9
:1010C0002C000000F823000054070000140000006A
:1010D00044060000FFFFFFFF4407000098FFFFFFEA
:1010E0004C0900004822000044060000B33900000B
:1010F000C00E0000382200004407000078FFFFFF08
:10110000CC1700004C170000540700000800000036
:10111000802000004C0900001C060000854552524A
:101120004FD2FFFF1C10000011060000E40B00006E
:1011300020130000B42A000044130000B42A000069
:1011400098290000900B000064190000540700006B
:1011500040000000F404000064190000540700007F
:1011600030000000F404000064190000180E0000B4
:101170009C0D0000641900007C0B00009C1900000D
:10118000F404000064190000540B00009C190000D6
:10119000E004000058140000C1A7FFFF1C1100006C
:1011A0001106000030030000A824000044060000DF
:1011B000A5390000C00E0000CC170000A01A0000E6
:1011C0001C060000864558504543D4FF9811000086
:1011D00011060000C8210000A0170000B82300007D
:1011E000A0170000C8210000B429000094070000E7
:1011F000482B0000180800000818000044060000F2
:1012000009000000F8230000540700000C00000053
:10121000CC170000140B0000081800005400000058
:10122000F8230000A0170000440600007F00000023
:10123000F8230000F42500005407000060000000BF
:10124000CC17000008180000E8160000AC210000D0
:10125000F8230000081800004C1700005822000076
:10126000D8230000B82300008017000054070000B6
:101270001000000040000000440700007000000063
:101280005C00000038220000E8160000C8210000C1
:10129000B8190000440700005400000008180000BE
:1012A000440600000D000000F82300005407000071
:1012B0001C00000034170000CC170000140B0000C5
:1012C0003822000044070000080000000818000051
:1012D000E8160000B819000038220000E8160000E7
:1012E000C8210000B8190000082B000068070000A2
:1012F00000FFFFFF98290000B00A0000C82100008D
:1013000044130000E4170000AC210000B8190000ED
:101310001C06000085434F554ED4FFFFC41100004A
:101320001106000008180000C8210000E4170000A2
:10133000801900001C06000084244C45CEFFFFFFEE
:1013400014130000491300003A684040115C09433F
:1013500001D0401CFAE73F1F386004CD08CA984707
:1013600086464F524745D4FF38130000110600004F
:10137000A011000008180000440600000040000012
:10138000282400004406000016390000C00E0000AA
:101390000818000044060000008000002824000017
:1013A0004406000033390000C00E00000818000099
:1013B0009C0D000080170000840D0000180E000036
:1013C0009C0D000008180000641900007C0B000050
:1013D0009C19000008180000002200006419000099
:1013E000440600002D060000F8230000540700000A
:1013F0001400000044060000FCFFFFFF300B00005B
:101400004419000068170000F8230000540700008A
:10141000A8FFFFFF4C170000641900007C0B0000C0
:101420009C190000D40D0000540B00009C19000012
:10143000F0330000C83300001C060000834259C589
:101440006013000049140000FFF792FA8541424FF3
:1014500052D4FFFF3C1400001106000010090000E8
:10146000240900006009000000000000DC100010EA
:1014700044060000C8380000840D0000C8060000C3
:101480005407000010000000CC170000B80D000049
:10149000C80A00004406000008110010641900008A
:1014A000540700006C000000440600001415000002
:1014B00044130000B42A0000782B000054070000F9
:1014C000F8FFFFFF482B0000440600004300000027
:1014D000F823000054070000E0FFFFFF482B000046
:1014E000440600004F000000F823000054070000ED
:1014F000C8FFFFFF482B0000440600000D0000005D
:10150000F823000054070000B0FFFFFFD82B0000B5
:1015100054040000204572726F722048616C742080
:101520002845484F4E2F45484F464629202D2054E8
:101530006F20434F6E74696E756520547970652015
:10154000434F207468656E20456E7465723A2000C2
:101550005404000084434F4CC4FFFFFF4C140000B0
:10156000110600006C0500002C050000540400006A
:10157000900D0A464953482053797374656D3A0DAE
:101580008AFFFFFF54150000832E53C8701500001A
:101590001106000044060000100000008800000052
:1015A0001C060000832E53C488150000110600009D
:1015B000440600000A000000880000001C0600002D
:1015C000832E53C2A415000011060000582200000B
:1015D000880000001C060000822ED3FFC01500000A
:1015E00011060000800100006419000000170000CF
:1015F00000220000F8230000A82400005407000087
:10160000680000006002000005544F533E20FFFFB9
:101610008001000064190000001700000022000093
:1016200094070000E816000064190000680B000031
:1016300064190000440600000A000000F8230000BE
:1016400054070000100000000C01000044070000D7
:101650000800000024010000102A00007822000089
:1016600088070000C0FFFFFF1C06000084324455BD
:10167000D0FFFFFFD81500007D16000038687A689B
:101680003F1F3A603F1F386004CD08CA98470000EA
:10169000842D4455D0FFFFFF6C160000110600009A
:1016A0000818000054070000080000000818000097
:1016B0001C06000083524FD490160000C116000093
:1016C0003A683F1D39683F1D38683F1D3F1F39602C
:1016D0003F1F3A603F1F386004CD08CA984700009A
:1016E00081C9FFFFB4160000ED16000030683F1FEF
:1016F000386004CD08CA9847835350C0E0160000F4
:101700000517000038463F1F386004CD08CA9847C7
:10171000835250C0F81600001D17000030463F1FCE
:10172000386004CD08CA9847854C454156C5FFFF2F
:1017300010170000391700003268726004CD08CA23
:10174000984700008252BEFF281700005117000082
:101750003068361D3F1F386004CD08CA9847000026
:1017600081D2FFFF441700006D17000030683F1F53
:10177000386004CD08CA9847823ED2FF6017000047
:101780008517000039683F1D361F316004CD08CA37
:1017900098470000844F5645D2FFFFFF781700009E
:1017A000A51700003A683F1D38683F1D3F1F38608D
:1017B0003F1F3A603F1F386004CD08CA98470000B9
:1017C0008444524FD0FFFFFF94170000D117000050
:1017D0003F1D04CD08CA984784535741D0FFFFFFEF
:1017E000C0170000E91700003A683F1D38683F1D28
:1017F0003F1F3A603F1F386004CD08CA9847000079
:10180000834455D0D81700000D18000038683F1FDA
:10181000386004CD08CA9847900D0A537461636B11
:101820002053747566663A0D8AFFFFFF00180000AA
:1018300087414E44424954D3181800004118000013
:1018400004CF39683F1D08681040086004CD08CAFD
:101850009847000087534554424954D3301800003C
:101860006518000004CF39683F1D08681043086000
:1018700004CD08CA9847000087434C52424954D3CC
:10188000541800008918000004CF39683F1D08680B
:101890009043086004CD08CA9847000085434D4F27
:1018A00056C5FFFF78180000AD18000039683F1DCD
:1018B0003A683F1D3B683F1D002907D0187810701B
:1018C000491E002902D0521C5B1CF7D104CD08CA66
:1018D000984700008446494CCCFFFFFF9C1800004D
:1018E000E518000038683F1D39683F1D3A683F1D04
:1018F000002904D08B181070521C9A42FBD104CDE1
:1019000008CA98478545524153C5FFFFD4180000C7
:101910001106000038220000E01800001C0600003C
:1019200086424C414E4BD3FF0419000011060000C3
:10193000140B0000E01800001C060000822BA1FF21
:10194000201900004919000039683F1D38683F1D03
:101950000A688018086004CD08CA984781C0FFFF54
:101960003C1900006919000039683F1D08683F1FD5
:10197000386004CD08CA98478243C0FF5C19000054
:101980008519000039683F1D08783F1F386004CD75
:1019900008CA984781A1FFFF78190000A11900002B
:1019A00038683F1D39683F1D016004CD08CA98475B
:1019B0008243A1FF94190000BD19000038683F1D43
:1019C00039683F1D017004CD08CA98479F0D0A521F
:1019D00065616420616E64205772697465204D658D
:1019E0006D6F727920576974683A0D8AB0190000DA
:1019F00081DDFFFFCC190000110600006009000026
:101A0000C0000000E01000101C060000C1DBFFFF5A
:101A1000F01900001106000060090000000000003D
:101A2000E01000101C060000C95B434F4D50494CAC
:101A300045DDFFFF0C1A0000110600003003000016
:101A4000A824000044060000CB390000C00E0000AE
:101A5000CC170000B80D0000BC0C00001C060000F4
:101A6000C8444C4954455241CCFFFFFF281A00009E
:101A700011060000900B00006419000054070000DC
:101A800010000000E4170000A01A0000A01A0000D7
:101A90001C060000C74C4954455241CC601A000056
:101AA00011060000900B00006419000054070000AC
:101AB000100000004C03000044060000BC0C0000B5
:101AC0001C0600008223BEFF941A000011060000CD
:101AD000CC170000CC17000098010000641900002A
:101AE000C00B0000A0170000D82300001C06000057
:101AF00084484F4CC4FFFFFFC41A000011060000C9
:101B000044060000FFFFFFFF980100004419000099
:101B10009801000064190000B81900001C060000BC
:101B200084534947CEFFFFFFF01A00001106000062
:101B3000BC160000CC240000540700001000000078
:101B4000440600002D000000FC1A00001C060000E6
:101B50008223D3FF201B000011060000841B00001D
:101B6000A0170000A0170000F4250000A824000022
:101B700054070000E8FFFFFF1C06000081A3FFFFE1
:101B8000501B000011060000680B000064190000E3
:101B90006C030000BC1600004406000009000000B1
:101BA000A0170000282400005407000010000000C7
:101BB0004406000007000000B823000044060000AF
:101BC00030000000B8230000FC1A00001C060000D2
:101BD000823CA3FF7C1B000011060000600900008E
:101BE000B00F0010141100101C06000085444F4572
:101BF00053BEFFFFD01B0000110600004C17000071
:101C0000840D0000180E000008180000B80D000038
:101C10004406000073060000E41700009C19000051
:101C20009C1900001C060000873C4255494C44D3D7
:101C3000EC1B000011060000741E00001C060000D2
:101C4000C52B4C4F4FD0FFFF281C00001106000091
:101C500068220000200200004C03000088070000FA
:101C6000CC0400001C060000C44C4F4FD0FFFFFF07
:101C7000401C000011060000682200002002000045
:101C80004C03000068070000CC0400001C060000A4
:101C9000C244CFFF681C0000110600004C03000086
:101CA00094070000E40B0000682200001C060000FE
:101CB000C5454E4449C6FFFF901C000011060000B8
:101CC000E40100005822000020020000E40B0000A4
:101CD000A0170000D8230000E41700009C190000A2
:101CE0001C060000C4544845CEFFFFFFB01C000096
:101CF00011060000BC1C00001C060000C4454C532B
:101D0000C5FFFFFFE41C0000110600005822000080
:101D1000200200004C03000044070000E40B000018
:101D200038220000BC0C0000E4170000582200001C
:101D3000BC1C0000582200001C060000C249C6FF5F
:101D4000FC1C0000110600004C03000054070000BA
:101D5000E40B000038220000BC0C000058220000F8
:101D60001C060000C5554E5449CCFFFF3C1D000029
:101D70001106000048220000200200004C03000071
:101D800054070000CC0400001C060000C541474178
:101D900049CEFFFF641D000011060000482200002C
:101DA000200200004C03000044070000CC040000A7
:101DB0001C060000C65245504541D4FF8C1D000052
:101DC000110600008017000080170000981D000019
:101DD0004C1700004C17000058220000D8230000C8
:101DE000BC1C00001C060000C55748494CC5FFFF3D
:101DF000B41D000011060000441D0000E421000095
:101E00001C060000C542454749CEFFFFE81D000003
:101E100011060000E4010000E40B0000482200006D
:101E20001C060000970D0A496E7369646520436FB4
:101E30006C6F6E20574F5244533A0D8A041E0000B7
:101E400089494D4D4544494154C5FFFF241E0000BA
:101E500011060000840D0000440600004000000050
:101E6000000800001C060000864352454154C5FF8F
:101E7000401E000011060000880600004406000015
:101E80000F000000D8230000CC24000054070000FD
:101E900008000000A001000030030000540700000B
:101EA00024000000CC170000D40D0000282A0000F8
:101EB000440600008F39000044130000B42A0000DB
:101EC00058140000E40B000008180000F40400009F
:101ED0009C1900000818000080190000440600004A
:101EE0001F00000084250000B80100000818000051
:101EF000440600008000000000080000E40B000021
:101F00004406000080000000000800004822000095
:101F1000540B000044190000840D0000BC0C0000AC
:101F20007C0B00009C1900004C03000039060000E7
:101F3000E40B000000220000BC0C00001C060000A6
:101F400088434F4E5354414ED4FFFFFF681E00009C
:101F500011060000641F00001C06000083434FCEE2
:101F6000401F000011060000741E0000440600001F
:101F7000FCFFFFFF540B000044190000BC0C0000E4
:101F8000E00400001C060000885641524941424CC2
:101F9000C5FFFFFF5C1F000011060000AC1F000022
:101FA0001C060000835641D2881F00001106000065
:101FB000741E000044060000F8FFFFFF540B0000F1
:101FC000441900004C0300002D06000048220000C8
:101FD000200D0000BC0C0000E00400001C06000006
:101FE000C1BBFFFFA41F000011060000AC030000EE
:101FF0004C0300001C060000141A0000E00400005E
:102000001C060000C1BAFFFFE01F0000110600001F
:102010000402000098030000741E0000F81900007C
:1020200044060000F8FFFFFF540B000044190000B5
:102030004C030000110600001C060000960D0A4328
:10204000524541544520574F5244532057697468B4
:102050003A0D8AFF0420000084444142D3FFFFFF71
:102060003C200000110600000818000014050000C4
:102070001C06000087444E45474154C558200000C7
:102080008520000038683F1D3A683F1DC043D24399
:10209000521C3F1F3A603F1F386004CD08CA984762
:1020A000834450CC74200000390600001011001049
:1020B00083442ED2A02000001106000080170000EB
:1020C000E4170000A017000064200000D81B0000E7
:1020D000581B00002C1B0000CC1A00004C170000FD
:1020E000A0170000D8230000D4290000B42A000063
:1020F0001C0600008244AEFFB02000001106000064
:1021000038220000B8200000102A00001C06000041
:102110008244ABFFF42000001D21000038683F1D01
:1021200039683F1D3B683F1D3A683F1D52185841B2
:102130003F1F3A603F1F386004CD08CA984700002F
:1021400084532D3EC4FFFFFF1021000051210000E9
:102150003A683F1D4040124300D5401E3F1F3A6081
:102160003F1F386004CD08CA984700008232AAFF9A
:10217000402100007921000038683F1D40003F1FCA
:10218000386004CD08CA98478232AFFF6C21000046
:102190009521000038683F1D40103F1F386004CD76
:1021A00008CA98478231ADFF88210000B1210000A4
:1021B00038683F1D401E3F1F386004CD08CA98474D
:1021C0008231ABFFA4210000CD21000038683F1D03
:1021D000401C3F1F386004CD08CA98478232ABFFCD
:1021E000C0210000E921000038683F1D801C3F1F0E
:1021F000386004CD08CA98478234ABFFDC21000068
:102200000522000038683F1D001D3F1F386004CDC7
:1022100008CA98478234ADFFF8210000212200004F
:1022200038683F1D001F3F1F386004CD08CA98471B
:1022300081B0FFFF142200003906000000000000FA
:1022400081B1FFFF302200003906000001000000CC
:1022500081B2FFFF402200003906000002000000AA
:1022600081B3FFFF50220000390600000300000088
:1022700081B4FFFF60220000390600000400000066
:10228000824DAAFF7022000011060000781600009F
:1022900030260000801700006C250000E4170000C5
:1022A0006C250000A00800004C1700001405000079
:1022B0001C060000824DAFFF8022000011060000C6
:1022C000A0170000801700008017000064200000A5
:1022D000681700006C250000CC0800004C170000B7
:1022E0006817000030260000FC040000E41700001E
:1022F0004C170000FC040000E41700001C0600005E
:1023000081AAFFFFB422000011060000882200000D
:10231000CC1700001C060000842F4D4FC4FFFFFFA8
:102320000023000011060000801700004C2100006F
:102330004C170000BC2200001C06000081AFFFFF0C
:10234000182300001106000024230000E4170000F9
:10235000CC1700001C060000834D4FC43C23000036
:102360001106000024230000CC1700001C0600000A
:10237000852A2F4D4FC4FFFF58230000110600008F
:1023800080170000882200004C170000BC220000CB
:102390001C060000822AAFFF702300001106000017
:1023A0007C230000E4170000CC1700001C0600008E
:1023B00081ABFFFF94230000BD23000038683F1D60
:1023C00039683F1D40183F1F386004CD08CA984740
:1023D00081ADFFFFB0230000DD23000038683F1D02
:1023E00039683F1D081A3F1F386004CD08CA984756
:1023F00081BDFFFFD0230000FD230000404039686D
:102400003F1D3A683F1D891A04D03F1F386004CD34
:1024100008CA984701383F1F386004CD08CA98475A
:1024200081BCFFFFF02300002D2400004040013854
:1024300039683F1D3A683F1D914200DC40403F1F14
:10244000386004CD08CA98478255BCFF202400009C
:10245000110600007816000030260000CC24000091
:102460005407000018000000CC170000CC24000026
:10247000A8240000440700000C000000D82300003E
:10248000CC2400001C06000081BEFFFF4824000091
:1024900011060000E4170000282400001C060000BC
:1024A0008230BDFF88240000AD2400004040396820
:1024B0003F1D002900D1401E3F1F386004CD08CACF
:1024C000984700008230BCFFA0240000D124000007
:1024D00039683F1D40400138094300D440403F1F48
:1024E000386004CD08CA9847834249CEC42400000E
:1024F000110600006009000002000000D410001066
:102500001C060000834845D8E8240000110600009E
:102510006009000010000000D41000101C0600002C
:1025200087444543494D41CC042500001106000075
:10253000600900000A000000D41000101C06000012
:10254000864E45474154C5FF202500005125000017
:1025500038683F1DC043401C3F1F386004CD08CA87
:1025600098470000834142D3402500001106000037
:1025700008180000FC0400001C060000834D49CE32
:102580006425000011060000781600009024000069
:102590005407000008000000E4170000CC170000FA
:1025A0001C060000834D41D87C2500001106000068
:1025B00078160000282400005407000008000000DE
:1025C000E4170000CC1700001C06000083414EC435
:1025D000A4250000D925000038683F1D39683F1D3B
:1025E00008403F1F386004CD08CA9847824FD2FF89
:1025F000CC250000F925000038683F1D39683F1DD3
:1026000008433F1F386004CD08CA9847834E4FD413
:10261000EC2500001926000038683F1DC0433F1F0D
:10262000386004CD08CA984783584FD20C26000062
:102630003526000038683F1D39683F1D48403F1F60
:10264000386004CD08CA984784535854C8FFFFFF28
:10265000282600005926000038683F1D00B23F1FA1
:10266000386004CD08CA984784535854C2FFFFFF0E
:10267000482600007926000038683F1D40B23F1F01
:10268000386004CD08CA984784524556D7FFFFFFEB
:10269000682600009926000038683F1D00BA3F1FD9
:1026A000386004CD08CA9847834153D28826000079
:1026B000B52600003A683F1D38683F1D10413F1F96
:1026C000386004CD08CA9847834C53D2A82600002E
:1026D000D52600003A683F1D38683F1DD0403F1F97
:1026E000386004CD08CA9847834C53CCC8260000F4
:1026F000F52600003A683F1D38683F1D90403F1F97
:10270000386004CD08CA9847822ED2FFE826000020
:1027100011060000801700004C2100004C1700003B
:10272000B82000001C060000832E52D508270000A8
:10273000110600008017000038220000D81B00009E
:10274000581B0000CC1A0000081800004C170000AD
:10275000E4170000D8230000D4290000B42A0000A8
:102760001C0600008255AEFF28270000110600005D
:1027700038220000FC2000001C06000081BFFFFF83
:102780006427000011060000641900009C27000067
:102790001C06000081AEFFFF7C2700001106000030
:1027A0004C210000FC2000001C060000822EC2FF0D
:1027B0009427000011060000582200003C01000090
:1027C0001C060000822EC8FFAC2700001106000086
:1027D00044060000100000003C0100001C06000040
:1027E000822EC4FFC427000011060000440600002A
:1027F0000A0000003C0100001C060000910D0A4E7A
:10280000554D4245522053747566663A0D8AFFFF56
:10281000E02700008A55415254305F494E49D4FFA9
:10282000FC27000011060000440600000013001001
:1028300064190000A8240000540700001C000000D8
:102840004406000004130010641900008017000003
:10285000440700001000000044060000802500002E
:102860008017000044060000A44004404406000015
:10287000390000006018000044060000A840044031
:1028800048220000601800006009000001000000FC
:102890009880044060090000830000000C80004024
:1028A000B035000044060000100000004423000082
:1028B0004C17000044230000440600000001000003
:1028C000242300006C290000002200009C19000055
:1028D0006C2900009C190000600900000300000042
:1028E0000C800040600900000000000008800040EB
:1028F0006009000007000000088000404429000033
:10290000CC1700001C060000864D59424155C4FFFB
:1029100014280000110600006009000000000000FB
:102920000013001044060000041300109C1900005E
:102930001C0600008955415254305F4C53D2FFFFB2
:102940000829000049290000034908783F1F386022
:1029500004CD08CA984700001480004088554152B1
:1029600054305F52D8FFFFFF3429000039060000C1
:10297000008000408855415254305F54D8FFFFFF1B
:102980005C290000390600000080004084584F4652
:10299000C6FFFFFF742900009D290000FEF79EF886
:1029A000FEF7A4F804CD08CA9847000083584FCE1C
:1029B0008C290000B9290000FEF790F8FEF79EF878
:1029C00004CD08CA98470000865350414345D3FFC1
:1029D000AC2900001106000038220000AC250000E0
:1029E0009C16000054070000180000003822000068
:1029F00094070000102A000068070000F8FFFFFF9E
:102A00001C0600008553504143C5FFFFC829000044
:102A100011060000140B0000082B00001C0600002B
:102A2000834944AE042A0000110600002013000070
:102A3000440600001F000000D4250000B42A000056
:102A4000102A00001C060000C22EA2FF202A00004F
:102A5000110600004406000022000000900B000058
:102A600064190000540700002C0000004C03000013
:102A700060020000B00F0000E40B000080190000AD
:102A8000C8210000380C0000B80100004407000015
:102A900014000000B00F0000E40B00002013000041
:102AA000B42A00001C06000084545950C5FFFFFFE3
:102AB000482A0000110600009C1600005407000080
:102AC0003400000098290000A0170000B82300007F
:102AD000E417000094070000E8160000B0070000AB
:102AE000082B000068070000F0FFFFFF440700000C
:102AF00008000000CC1700001C06000084454D496A
:102B0000D4FFFFFFA82A00000D2B000038683F1DEE
:102B1000FDF7E4FF0449087004490868401C086098
:102B200004CD08CA9847000000800040DC10001067
:102B3000834B45D9FC2A000011060000B42900008F
:102B4000482B00001C0600004D2B0000054A064BD8
:102B500019684908FCD310683F1F386004CD08CAC3
:102B6000984700000080004014800040843F4B459F
:102B7000D9FFFFFF302B00007D2B0000FDF7AEFFDB
:102B8000FDF7BCFF084B1968490806D340400138DF
:102B90003F1F386004CD08CA984740403F1F386047
:102BA00004CD08CA9847000014800040834352D3E4
:102BB0006C2B000011060000382200009407000072
:102BC000D82B000068070000F8FFFFFF1C0600007C
:102BD0008243D2FFAC2B0000110600006009000008
:102BE00000000000DC10001060020000020D0AFF6F
:102BF0001C0600008D0D0A4649534820494F3A0DE6
:102C00008AFFFFFFD02B00008B495251535F524582
:102C100053554DC5F42B00001D2C000062B6C04674
:102C200004CD08CA984700008C495251535F535550
:102C30005350454EC4FFFFFF082C0000412C0000FC
:102C400072B6C04604CD08CA984700008F53595346
:102C50005449434B5F4952515F4F46C6282C0000F0
:102C6000652C000002490520086004CD08CA984779
:102C700010E000E08E5359535449434B5F49525181
:102C80005F4FCEFF4C2C00008D2C00000249072026
:102C9000086004CD08CA984710E000E08F0D0A498B
:102CA0004E54455252555054533A0D8A742C0000DC
:102CB0008A464C4153485F534156C5FF9C2C000047
:102CC00011060000840D0000C83400002824000014
:102CD0005407000020000000D82B00006002000014
:102CE0000F4E4F5448494E4720544F2053415645AC
:102CF0001C060000CC2D00006419000044060000F2
:102D000000800000F82300005407000028000000A5
:102D1000D82B000060020000144C41535420464C54
:102D200041534820504147452055534544FFFFFF3C
:102D30001C060000300B000064190000DC2D0000B0
:102D40009C190000840D0000E42D0000D42D00002B
:102D50009C190000840D0000C8340000F823000016
:102D6000540700005800000014310000C83400006F
:102D7000540B00009C190000DC2D000064190000B9
:102D8000300B00009C190000D42D000064190000D5
:102D90007C0B00009C19000044060000001000009D
:102DA000CC2D00004419000054310000D82B000045
:102DB000F0330000C83300001C060000840D000042
:102DC000082E0000440700008CFFFFFF39060000BA
:102DD0000400001039060000080000103906000049
:102DE0000C000010E92D000038683F1D044A104017
:102DF000044A126880183F1F386004CD08CA9847FB
:102E0000FF0F00000400001011060000180E000063
:102E10000818000080170000B80D00000818000016
:102E2000641900004406000073060000F823000047
:102E300054070000280000000022000008180000CD
:102E40000818000064190000E42D0000E4170000D9
:102E50009C19000044070000000100000818000051
:102E6000641900004406000039060000F823000041
:102E7000A017000064190000440600002D060000A1
:102E8000F8230000F42500005407000010000000A3
:102E9000CC17000044070000C4000000002200001E
:102EA00008180000641900004406000044060000F1
:102EB000F82300005407000010000000002200006A
:102EC00044070000D8FFFFFF081800006419000045
:102ED0004406000060020000F823000054070000D0
:102EE00020000000081800000022000080190000E7
:102EF000B8230000380C000044070000A0FFFFFFCB
:102F00000818000064190000440600001C060000B8
:102F1000F8230000A8240000540700003C00000033
:102F20000818000064190000C83400009024000054
:102F30005407000068FFFFFF081800000818000091
:102F400064190000E42D0000E41700009C19000043
:102F50004407000048FFFFFFCC1700004C1700009B
:102F60009C0D0000081800006419000008180000FB
:102F70007C0B00009C190000E42D0000E417000009
:102F80009C1900001C0600008D2F00000648074910
:102F900032220260064B1A68120B42608260054BB7
:102FA000984704CD08CA98471811001068110010FE
:102FB00004000010F11FFF1FBD2F00000748084943
:102FC00034220260074B1A68120B42608260064A84
:102FD000C260064B984704CD08CA984718110010E4
:102FE000681100100400001080BB0000F11FFF1FDB
:102FF000F52F00000848094933220260084A126888
:103000004260084A8260084AC260084A0261084B6E
:10301000984704CD08CA984718110010681100108D
:1030200004000010000000100010000080BB000031
:10303000F11FFF1F8C464C4153485F464F52474596
:10304000D4FFFFFFB02C0000110600006009000053
:103050000040000004000010CC2D000064190000A6
:103060004406000000800000F8230000A8240000AF
:10307000540700002C0000003C2C0000882F0000AA
:10308000B82F0000182C00004406000000100000BB
:10309000CC2D00004419000044070000BCFFFFFFD6
:1030A000DC340000840D0000902400005407000070
:1030B0001000000048380000440700001C00000019
:1030C00044060000A8380000C8340000180E0000B4
:1030D0009C0D00009C1900006009000000400000E9
:1030E000040000104406000011111111081800001E
:1030F000D42D00009C190000DC2D00009C1900005C
:1031000054310000D82B0000F0330000C833000019
:103110001C06000011060000E40B0000440600003D
:10312000AF0F0010E40B0000D8230000440600009D
:10313000FF000000E01800003C2C0000882F000079
:10314000B82F0000882F0000F02F0000182C00007E
:103150001C060000110600004406000000400000AC
:1031600008180000CC2D00009C1900000818000071
:103170008017000064190000B0350000F82300003B
:10318000540700007C00000068170000440600009F
:1031900008000000B82300000818000064190000AF
:1031A0007C0B00009C190000002200006419000044
:1031B000300B00009C190000D82B000060020000BA
:1031C00017414444454420574F5244532046524FE0
:1031D0004D205041474520FF68170000CC270000D4
:1031E000681700004406000000100000B82300002B
:1031F000CC2D00009C190000440700000C000000CA
:10320000681700005C3200006817000044060000E8
:1032100000100000B8230000081800004406000059
:1032200000800000D82300005407000020000000A8
:10323000CC1700004C1700004406000000100000EE
:10324000B82300004407000024FFFFFFCC17000054
:103250004C170000CC1700001C06000011060000EF
:10326000081800004406000000100000B823000009
:10327000801700000818000064190000C821000031
:1032800054070000480000003C2C0000882F00007C
:10329000B82F0000182C0000D82B0000600200009E
:1032A000174552415345442042414420464C415326
:1032B0004820504147452020CC270000CC17000073
:1032C0004C170000CC1700001C0600000022000074
:1032D000081800000818000068170000E417000034
:1032E000D8230000540700000C0000004407000031
:1032F00088FFFFFFD82B0000600200000E464C4103
:1033000053482050414745204F4B20FFCC17000029
:103310004406000000100000D8230000CC27000065
:103320004C170000CC1700001C06000084504F46CC
:10333000C6FFFFFF343000001106000060090000E6
:1033400000000000041100101C06000083504FCE46
:103350002C33000011060000600900008E0A0000F6
:10336000041100101C06000081D0FFFF4C33000048
:1033700039060000041100108545484F46C6FFFF7E
:1033800068330000110600003822000044060000E7
:10339000081100109C1900001C0600008445484FCD
:1033A000CEFFFFFF78330000110600004822000026
:1033B00044060000081100109C1900001C060000C3
:1033C000832E44D39C3300001106000088060000C1
:1033D000E827000044060000E43800004413000021
:1033E000B42A00001C060000832E56D3C033000010
:1033F00011060000A8060000782200004423000007
:10340000E827000044060000D938000044130000FB
:10341000B42A00001C0600008444554DD0FFFFFF75
:10342000E833000011060000A0170000600E000045
:10343000380900000C250000382200009407000025
:10344000D82B000008180000440600000A00000005
:103450003027000078220000382200009407000086
:103460000818000064190000440600000E00000067
:10347000302700000022000068070000E4FFFFFF83
:10348000782B0000540700000800000034170000EB
:1034900068070000ACFFFFFFCC170000D82B00002E
:1034A0004C0900001C0600008556424153C5FFFF31
:1034B00018340000390600007410001085444241A1
:1034C00053C5FFFFA83400003906000010000010AB
:1034D0008552424153C5FFFFBC340000390600004D
:1034E0000000001083434CD3D034000011060000CC
:1034F00060020000041B5B324AFFFFFF6002000015
:10350000041B5B3B48FFFFFFD82B00001C0600009C
:10351000C1A8FFFFE43400001106000044060000CB
:1035200029000000C8070000A8240000540700007C
:1035300034000000D82B00004406000010000000FA
:10354000082B000088020000440600001110001043
:10355000801900005407000010000000440700001C
:10356000BCFFFFFF1C06000044060000F638000008
:1035700044130000B42A00001C060000C1DCFFFF59
:10358000103500001106000038220000D00B0000AA
:10359000B00B000064190000B8230000B819000047
:1035A0001C06000086535953434CCBFF7C3500006A
:1035B000B5350000034908683F1F386004CD08CACC
:1035C00098470000000000108553544354D2FFFF79
:1035D000A435000039060000701000108544454CE9
:1035E00041D9FFFFC8350000ED35000039683F1DA7
:1035F00038683F1D0A4CC043401C2060094A1160D6
:10360000094A1160002806D0084A10680721116095
:1036100021680029FCD1106004CD08CA9847000039
:103620007010001014E000E018E000E010E000E08E
:10363000824DD3FFDC350000110600004406000077
:103640007FBB0000E83500001C06000087574F5282
:10365000444341D43036000011060000E40B000062
:103660008017000038220000E40C0000440600002F
:103670000D000000E40C0000E40B00004406000014
:103680000D000000B00F00000818000080190000B5
:10369000440600000A000000BC160000B819000033
:1036A00008180000C8210000000C000044060000BB
:1036B00084000000B823000068170000B81900005B
:1036C000440600000D000000E40C00004406000069
:1036D0008A000000E40C0000600C0000840D000073
:1036E000BC0C00004C170000440600000011001044
:1036F0009C1900001C06000085574F5244D3FFFF61
:103700004C3600001106000068220000D429000099
:10371000840D00009829000038220000A017000046
:10372000C821000080190000440600000D000000C0
:10373000F8230000A8240000540700001C0000002B
:10374000CC17000008180000180E00009C0D0000A7
:10375000A0170000D8230000A00B0000641900008F
:10376000B8230000440600004A0000009024000036
:103770005407000010000000D82B00006822000051
:10378000D429000008180000440B00006419000050
:1037900028240000540700000C000000440700002B
:1037A0005C00000008180000282A000058220000D1
:1037B000D429000008180000C8210000801900006A
:1037C000440600000D000000F8230000540700002C
:1037D000100000006009000000000000DC10001074
:1037E000180E00009C0D000064190000081800006D
:1037F000A82400005407000020FFFFFFCC170000A2
:10380000D82B00001C060000874D59574F5244D357
:10381000F8360000110600006009000000400000BA
:10382000FC100010043700006009000000000000D8
:10383000FC1000101C06000089464953485F4F4E9B
:103840004CD9FFFF083800004D3800000749084CEC
:103850002160084C21600849084C2160084C216017
:103860000849094C216004CD08CA9847A8380000CF
:10387000001100100800001074100010F01000106B
:103880000C00001010000010F41000108446495382
:10389000C8FFFFFF38380000110600005431000057
:1038A0002C05000058140000990D0A464953482081
:1038B0005265666572656E6365204D6F64656C3A2E
:1038C0000D8AFFFF8C3800000352554E2000203F28
:1038D0002000203C43523E20005641522043454C9C
:1038E0004C53200044494354494F4E4152592042C1
:1038F00059544553200020434F4D4D454E54204CC4
:10390000494E452043414E4E4F5420424520454D9F
:103910005054592015002043414E5420464F5247E1
:103920004554204649534820494E20464C4153486F
:1039300020150020494E20464C415348202D20534D
:10394000454520464C4153485F464F524745542019
:1039500015002044494354494F4E41525920465581
:103960004C4C202D20534545202E4453201500203B
:1039700052414D2056415220535041434520465517
:103980004C4C202D20534545202E56532015002009
:10399000495320414C524541445920444546494EE3
:1039A0004544201500203F204E4F5420574F52448D
:1039B000201500203F204E4F5420574F5244204F97
:1039C00052204E554D42455220150020434155533B
:1039D0004544204120535441434B204552524F52BD
:1039E00020150020535441434B204552524F522042
:1039F0005748494C4520455845435554494E472062
:103A00004F5220434F4D50494C494E4720150020FE
:103A10004552524F52202D204E4F5420434F4D506F
:103A2000494C494E47201500204552524F52202DF7
:103A3000204558454355544544205748494C452056
:103A4000434F4D50494C494E472015001106000088
:103A5000600900000000000014E000E060090000C0
:103A60000000000018E000E060090000070000000E
:103A700010E000E0600900005F1801008080044051
:103A80006009000070ED0000388204406009000009
:103A900000000000408004406009000000000000B9
:103AA000448004406009000001000000448004409C
:103AB0006009000003000000088004404406000084
:103AC0000C8004406419000048220000D425000046
:103AD00054070000E8FFFFFF60090000030000003A
:103AE0007080044060090000000000007480044001
:103AF00060090000010000007480044060090000BB
:103B0000006CDC02000000101C060000D0B50400B0
:103B100016001F00300039002200E31700F007F8FC
:103B2000300039002200E31700F001F8D0BD30B4B6
:103B3000DC0F03D05B42524200D25B1E0D106C4082
:103B400013D0F446002502D349424042A94100F077
:103B50000DF8E40703D35B425242AB41244202D545
:103B600049424042A94130BC604730BC124224D097
:103B7000994228D970B500251B4202D00C000021C3
:103B800009E00024012649186441944200D3A41A94
:103B90007641F8D33100012601E0764109D20018C0
:103BA00064416D41A41A9D41F7D2A4185D41B61934
:103BB000F5D3300022002B0070BD1B42D8D108B5D0
:103BC000C046C04608BD01D19042D3D202000B00CE
:103BD000002100207047000000B5BFF34F8F03485D
:103BE00003490860BFF34F8FFEE700000400FA05A9
:103BF0000CED00E000B5FEE780B5FFF7EDFF01BD7D
:103C000000B5FEE700B5FEE700B5FEE700B5FEE74C
:103C100000B5FEE700B5FEE780B5FCF7E5FE01BDA7
:023C20007047EB
:0400000500003C219A
:00000001FF
