:10000000C012001051090000253B0000293B0000F0
:10001000313B0000353B0000393B000002BCFEEFE5
:100020000000000000000000000000003D3B000058
:10003000413B000000000000453B0000493B000040
:100040000106000034060000070000005C2A0000E2
:100050000C06000029060000080000000106000050
:10006000540000005C2A00006429000054000000D5
:100070005C2A000034060000FDFFFFFF340B000087
:10008000981800000C060000010600001809000086
:10009000FC0A0000F0180000341500002C090000D4
:1000A0000C06000001060000FC0A0000B818000061
:1000B0005C170000AC2100004C2300004407000046
:1000C0001800000034060000620000005C2A0000F6
:1000D000201700000C060000340600000A00000093
:1000E0004C23000044070000140000003406000008
:1000F000640000005C2A00000C06000034060000CA
:10010000680000005C2A00000C06000001060000E8
:10011000A02000008C2100000C200000A4000000A2
:100120000C060000010600008C2100008C2100005C
:100130000C200000A40000000C06000001060000D6
:10014000180900005C170000FC0A0000F01800000D
:10015000340600000A0000004C23000044070000A1
:10016000100000000C01000034070000080000002F
:1001700024010000642900002C0900000C06000086
:1001800029060000E410001029060000E810001005
:10019000290600000C11001029060000141100109F
:1001A00001060000340600009A3800009812000092
:1001B000082A0000AC13000001060000E80A000055
:1001C000981800000C06000001060000F40B000067
:1001D000780B0000F0180000CC210000B8010000EE
:1001E0000C06000001060000240B0000B8180000F7
:1001F000FC2300003406000057390000540E0000B4
:100200000C06000001060000240B0000B8180000D6
:100210003406000070390000540E00000C06000087
:10022000010600002C230000340600002B390000DA
:10023000540E00000C0600000106000054160000D9
:1002400080010000B818000038170000A423000047
:100250003406000013390000540E00000C060000A4
:1002600001060000A01600005C17000074120000D8
:10027000082A0000741200000C230000CC0B0000C0
:10028000D41600000C06000001060000640B0000FC
:10029000340600005E000000381100004009000034
:1002A00001000000D81000100C060000010600003C
:1002B0001C2100005C170000D4160000D4180000B8
:1002C000FC0A0000B8180000840E0000440700007B
:1002D0005800000038170000FC0A0000B8180000A1
:1002E000900800002017000010160000FC0A000013
:1002F000B8180000900800006C200000FC1F0000EF
:10030000B81800001C210000440700001000000085
:100310009C210000FC1F000098180000A01600009F
:10032000340700008CFFFFFFA01600000C06000041
:1003300001060000B40A0000440F0000780B000022
:10034000180D0000B80600000C06000001060000B1
:10035000A01600005C17000054210000D416000015
:10036000B8180000C80100000C06000001060000DB
:10037000D41600008C210000BC160000B408000058
:10038000A016000038170000D4160000B4080000C2
:10039000A01600000C060000010600005416000024
:1003A00090010000F01800000C060000010600009B
:1003B0005416000090010000B81800002C23000023
:1003C0003406000013390000540E00000C06000033
:1003D0000106000030030000440700003C0000005C
:1003E000240B0000B81800007C2300004407000024
:1003F000140000004C0D0000C8010000340700008C
:100400000C0000004C0D0000680A000038020000DB
:1004100034070000C0FFFFFF780B0000BC0F000096
:10042000FC1F0000B81800001C2100004407000059
:1004300010000000C4190000340700000C00000088
:1004400020170000F41900003802000034070000F3
:1004500084FFFFFF0106000068190000F00800009B
:100460000409000088020000D0030000240B0000F3
:10047000B8180000FC23000044070000380000000A
:100480003406000004110010B818000044070000F2
:10049000240000003406000004110010B818000009
:1004A00098120000082A0000FC0A0000B81800009A
:1004B0003C27000034060000100000005C2A000009
:1004C0002C2B00003407000098FFFFFF01060000FE
:1004D000780B00002C230000500C00000C060000DC
:1004E000010600004009000000000000F8100010A4
:1004F0000C06000029060000F8100010010600009C
:10050000202400004407000008000000A024000090
:100510000C06000001060000202400004407000033
:1005200008000000D41F00000C06000001060000B7
:100530002C2B000034060000D8090000981200009F
:10054000082A0000340600001E0A0000981200006D
:10055000082A00002C2B00000C06000001060000F9
:10056000DC050000A83000000C06000001060000B9
:1005700038170000F41600000C23000034060000B9
:100580007F000000F4160000D41800007C23000057
:1005900044070000E0FFFFFF3817000020170000AD
:1005A0000C0600000A00000001000000000000002E
:1005B00000000000F01F0010701F0010101000104D
:1005C0007410001010000010000000000000000077
:1005D000F03700002B0A000000000000E1050000D9
:1005E000054806490E2203680B6004300431013AC5
:1005F000F9D104CD08CA9847A4050000D410001012
:10060000361F3560154604CD08CA9847110600000C
:100610003568361D04CD08CA9847000001CA3F1F3F
:10062000386004CD08CA984701CA3F1F386004CD1E
:1006300008CA98473906000001CD3F1F386004CD35
:1006400008CA98474906000001CD3F1F386004CD15
:1006500008CA9847590600003D683F1D04CD08CAE6
:1006600098470000361F3560456808303F1F3860E6
:1006700004CD08CA984700007D06000004480549DB
:100680000968401A3F1F386004CD08CA9847000027
:10069000B00F0010F41000109D060000044805493A
:1006A0000968401A3F1F386004CD08CA9847000007
:1006B000D4100010F0100010BD0600003B683F1D74
:1006C0003A683F1D93465A46187884461178484048
:1006D0003F24204019D1521C5B1C187811788842A5
:1006E000F9D08024001B884210D15B1C1878FF28A9
:1006F000FBD008333F1F3B60012062463F1F3A603A
:100700003F1F386004CD08CA98475B1C18788024C6
:100710002042FAD01B1D064803401B68002B00D066
:10072000D1E700203F1F386004CD08CA9847000079
:10073000FCFFFFFF390700002B68ED1804CD08CA45
:10074000984700004907000038683F1D0028F3D093
:100750002D1D04CD08CA98475D0700000123746869
:100760003268944203D0D2183260A41AE4D1083619
:100770002D1D04CD08CA98477D0700003B683F1D2A
:10078000EDE700008907000038683F1D3A683F1D0B
:10079000361F3260361F306004CD08CA984700000B
:1007A000A507000038683F1D00787F2108403F1FE3
:1007B000386004CD08CA9847BD07000039683F1D5E
:1007C000094A9246094B1C68121910780132884276
:1007D00001D00028F9D15446121B1A703F1F38600F
:1007E00004CD08CA9847000010100010D81000105F
:1007F000F507000039683F1D3A683F1D10784840F2
:10080000107004CD08CA98470D0800000A218842DC
:1008100005D138683F1D0D203F1F386002E00D21D3
:10082000884203D100F02AF900F030F904CD08CA5B
:1008300098470000390800003868017801290FD076
:10084000022910D001440A78622A12D0252A10D039
:10085000642A10D0232A0ED0682A0ED0242A0CD065
:1008600004CD08CA984742782E2AEBD104CD08CA95
:100870009847022402E00A2400E0102400220A70B3
:10088000024A146004CD08CA98470000D410001032
:100890009508000038683F1D39683F1D4843C1175F
:1008A000024608463F1F3A603F1F386004CD08CA21
:1008B00098470000B908000038683F1D3B683F1D9D
:1008C0003A683F1D002808D003F0B8F83F1F3A608F
:1008D0003F1F386004CD08CA98474040401E02467A
:1008E0003F1F3A603F1F386004CD08CA9847000098
:1008F000F5080000024A176804CD08CA98470000AE
:10090000E410001009090000024A166804CD08CA64
:1009100098470000E81000101D090000024A116805
:100920008C4604CD08CA9847D41000103109000045
:10093000024A6146116004CD08CA9847D4100010DD
:100940004509000002CD04CD116004CD08CA9847C6
:100950000A490B480B4C0160001DA042FBD30A481A
:100960000A4C0160001DA042FBD3094F094E0AA5A5
:10097000361F356004CD08CA9847000011111111C7
:100980000000001000130010EC1E001000200010EA
:10099000F01F0010701F0010DC05000094390000EB
:1009A000782700002C2B000034060000FB0000001C
:1009B0005C2A000034060000F70000005C2A0000FA
:1009C000B414000008CA9F4603B502490868013004
:1009D000086003BD70100010464953482041524D35
:1009E000204C504331313178203332783820524D09
:1009F0002056312E3720284329323031342D3230E1
:100A0000313520412D5445414D20464F5254482008
:100A10003A204A756E20313920323031350020615C
:100A2000742031393A34373A333800206F6B2C2038
:100A3000676F206669736820696E204241534520C4
:100A400000000000844E4F4FD0FFFFFF0000000069
:100A5000550A000004CD08CA98470000874558454C
:100A6000435554C5440A00006D0A000000F006F822
:100A700000F00CF804CF08CA984700007246024CF8
:100A800021688909FCD3104714800040724602494E
:100A900013240C7010470000008000407246024989
:100AA00011240C7010470000008000408242CCFFEF
:100AB0005C0A000029060000200000008255D0FFDB
:100AC000AC0A000029060000F01000108546454ED3
:100AD00043C5FFFFBC0A000029060000FC100010FF
:100AE0008244D0FFCC0A000029060000F410001058
:100AF00084424153C5FFFFFFE00A000029060000C1
:100B0000D41000108743555252454ED4F00A0000CD
:100B100029060000001100108553544154C5FFFF01
:100B2000040B000029060000E0100010834F55D48C
:100B3000180B000029060000DC1000108249CEFFCF
:100B40002C0B000029060000D8100010835041C46F
:100B50003C0B000029060000B00F0010835449C26E
:100B60004C0B00002906000010100010844845526C
:100B7000C5FFFFFF5C0B000001060000E80A000053
:100B8000B81800000C06000085414C4C4FD4FFFF04
:100B90006C0B00000106000078060000F41600004F
:100BA0002C2300002024000044070000080000005F
:100BB000A0010000E80A0000981800000C060000E0
:100BC00087414C49474E45C4880B0000D10B0000BB
:100BD00038683F1DC01C034908403F1F386004CDE2
:100BE00008CA9847FCFFFFFF85414C4947CEFFFFED
:100BF000C00B000001060000780B0000BC210000C3
:100C00000C2300005C170000D4160000780B0000D5
:100C10008407000034060000FF0000003C160000BE
:100C20000C19000058070000ECFFFFFFA0160000A1
:100C300034060000FCFFFFFF28250000E80A000042
:100C4000F01800000C06000081ACFFFFE80B00006C
:100C50000106000078060000202400004407000080
:100C600008000000A0010000C80100000C06000000
:100C70008243ACFF480C000001060000780600002B
:100C8000202400004407000008000000A00100002C
:100C9000780B00000C1900009C210000B801000036
:100CA0000C06000088564152414C4C4FD4FFFFFFC8
:100CB000700C00000106000098060000CC21000026
:100CC00098220000F41600002C23000020240000CD
:100CD000440700001800000034060000B738000088
:100CE00098120000082A0000AC130000C40A00009B
:100CF000B818000038170000CC2100005C2200006A
:100D0000C40A0000981800000C060000864C4154EC
:100D10004553D4FFA40C000001060000100B000096
:100D2000B81800000C060000834C46C10C0D0000F2
:100D3000350D000038683F1D08383F1F386004CD6E
:100D400008CA9847834346C1280D0000510D000092
:100D500038683F1D001F3F1F386004CD08CA984700
:100D6000834E46C1440D00000106000054000000FF
:100D70002C230000002100005C170000D4180000A4
:100D800034060000FF0000002C2300004407000090
:100D9000E4FFFFFF34060000FFFFFFFF6C050000CB
:100DA0000C060000835046C1600D000001060000E3
:100DB0009C2100006C0500001C2100005C17000055
:100DC000D418000034060000FF0000002C230000AF
:100DD00044070000E4FFFFFF540000000C23000064
:100DE0000C060000883F414C49474E45C4FFFFFFB9
:100DF000A40D0000010600003406000003000000FE
:100E000028250000440700003C00000060020000AC
:100E10002E56414C5545204D5553542042452045B2
:100E200056454E204E4F54204F444420414E4420BE
:100E30004D554C5449504C45204F4620342120FFFD
:100E4000AC1300000C060000863F4552524FD2FF03
:100E5000E40D000001060000381700004407000000
:100E6000100000009010000034070000080000008F
:100E7000201700000C0600008544494749D4FFFFB5
:100E8000480E0000890E00003A683F1D38683F1D7B
:100E900030380FD4092802DDC01F0A280ADB90422F
:100EA00008DA024601203F1F3A603F1F386004CD38
:100EB00008CA984700203F1F386004CD08CA9847E9
:100EC00087454E434C4F53C5780E0000D10E0000AD
:100ED00038683F1D39680022521E491E491C521CA9
:100EE0000B789842FAD03F1F3A60002B08D1184681
:100EF000521C3F1F3A603F1F386004CD08CA984714
:100F0000491C521C0B78984201D0002BF8D1104696
:100F1000401C3F1F3A603F1F386004CD08CA984705
:100F2000C180FFFFC00E00002D0F00003568361D88
:100F300004CD08CA9847000084574F52C4FFFFFFF2
:100F4000200F000001060000640B0000440B0000AD
:100F5000B81800000C23000038170000CC0E000069
:100F6000440B000098180000F41600002C23000029
:100F7000D4160000BC160000780B00000C1900000D
:100F80000C230000780B00001C210000BC160000A0
:100F9000FC1700008C210000780B00001C210000D1
:100FA000A01600000C2300000C1900000C06000025
:100FB000864E554D4245D2FF380F00000106000015
:100FC00018090000340800008C2100008C2100006A
:100FD000101600005C1700001C210000D41800004F
:100FE000340600002D0000004C2300009C2100006E
:100FF000282500005C170000D41600000C23000018
:1010000034060000FFFFFFFFFC1F0000F018000087
:10101000AC0200005C170000D41800008C21000016
:101020002C23000044070000400000005C17000073
:10103000D4180000340600002E0000002C2300000D
:1010400044070000180000002C0900009C2100004B
:1010500034060000FB380000540E00008C21000014
:1010600034070000A4FFFFFF20170000A0160000B7
:101070004407000008000000D41F00002C090000F5
:101080000C060000854552524FD2FFFFB00F000002
:1010900001060000780B000074120000082A00000E
:1010A00098120000082A0000EC280000240B000021
:1010B000B81800004407000040000000F4040000DD
:1010C000B81800004407000030000000F4040000DD
:1010D000B8180000AC0D0000300D0000B81800007A
:1010E000100B0000F0180000F4040000B818000015
:1010F000E80A0000F0180000E0040000AC13000053
:10110000C1A7FFFF841000000106000030030000AB
:10111000FC23000034060000ED380000540E0000EF
:1011200020170000F41900000C06000086455850F6
:101130004543D4FF00110000010600001C210000FF
:10114000F41600000C230000F41600001C2100001F
:1011500008290000840700009C2A000008080000FD
:101160005C17000034060000090000004C2300005A
:10117000440700000C00000020170000B40A000023
:101180005C170000540000004C230000F41600001F
:10119000340600007F0000004C23000048250000BA
:1011A0004407000050000000201700005C170000FA
:1011B0003C160000002100004C2300005C170000DA
:1011C000A0160000AC2100002C2300000C2300001E
:1011D000D41600004407000010000000400000008A
:1011E00034070000600000005C00000034070000CD
:1011F000540000005C170000340600000D000000E1
:101200004C230000440700001C000000881600006A
:1012100020170000B40A00008C21000034070000F1
:10122000080000005C1700003C1600000C190000CC
:101230008C2100003C1600001C2100000C1900004D
:101240005C2A00005807000010FFFFFFEC28000098
:101250001C21000098120000381700000021000037
:101260000C1900000C06000085434F554ED4FFFFBB
:101270002C110000010600005C1700001C2100007A
:1012800038170000D41800000C06000084244C45D8
:10129000CEFFFFFF681200009D1200003A68404038
:1012A000115C094301D0401CFAE73F1F386004CDB0
:1012B00008CA984786464F524745D4FF8C12000013
:1012C00001060000081100005C1700003406000051
:1012D000004000007C230000340600005E3800005F
:1012E000540E00005C17000034060000008000006F
:1012F0007C230000340600007B380000540E000000
:101300005C170000300D0000D4160000180D00001E
:10131000AC0D0000300D00005C170000B818000094
:10132000100B0000F01800005C17000054210000B2
:10133000B8180000340600001D0600004C23000011
:10134000440700001400000034060000FCFFFFFF0B
:10135000C40A000098180000BC1600004C230000CE
:1013600044070000A8FFFFFFA0160000B818000007
:10137000100B0000F0180000680D0000E80A0000E3
:10138000F0180000443300001C3300000C0600007D
:10139000834259C5B41200009D130000FFF7D8FA2C
:1013A0008541424F52D4FFFF901300000106000018
:1013B000F0080000040900004009000000000000DF
:1013C000DC1000103406000010380000180D00007A
:1013D000B8060000440700001000000020170000BD
:1013E0004C0D0000680A00003406000008110010CF
:1013F000B8180000440700006C000000340600002C
:101400006814000098120000082A0000CC2A00008E
:1014100044070000F8FFFFFF9C2A0000340600008C
:10142000430000004C23000044070000E0FFFFFFE2
:101430009C2A0000340600004F0000004C230000EE
:1014400044070000C8FFFFFF9C2A0000340600008C
:101450000D0000004C23000044070000B0FFFFFF18
:101460002C2B000054040000204572726F7220483B
:10147000616C74202845484F4E2F45484F464629F9
:10148000202D20546F20434F6E74696E7565205473
:1014900079706520434F207468656E20456E7465D1
:1014A000723A20005404000084434F4CC4FFFFFFF5
:1014B000A0130000010600005C0500002C050000E0
:1014C00054040000900D0A46495348205379737420
:1014D000656D3A0D8AFFFFFFA8140000832E53C8E4
:1014E000C4140000010600003406000010000000D3
:1014F000880000000C060000832E53C4DC1400009A
:1015000001060000340600000A0000008800000008
:101510000C060000832E53C2F814000001060000E0
:10152000AC210000880000000C060000822ED3FFD2
:10153000141500000106000080010000B81800002A
:1015400054160000542100004C230000FC2300002E
:1015500044070000680000006002000005544F537B
:101560003E20FFFF80010000B81800005416000064
:1015700054210000840700003C160000B818000049
:10158000FC0A0000B8180000340600000A00000041
:101590004C23000044070000100000000C01000074
:1015A0003407000008000000240100006429000046
:1015B000CC21000078070000C0FFFFFF0C060000F0
:1015C00084324455D0FFFFFF2C150000D1150000D8
:1015D00038687A683F1F3A603F1F386004CD08CAF8
:1015E00098470000842D4455D0FFFFFFC015000030
:1015F000010600005C17000044070000080000001E
:101600005C1700000C06000083524FD4E415000064
:10161000151600003A683F1D39683F1D38683F1DA8
:101620003F1F39603F1F3A603F1F386004CD08CA32
:101630009847000081C9FFFF08160000411600000E
:1016400030683F1F386004CD08CA9847835350C0A4
:10165000341600005916000038463F1F386004CD8C
:1016600008CA9847835250C04C16000071160000FB
:1016700030463F1F386004CD08CA9847854C454125
:1016800056C5FFFF641600008D16000032687260B8
:1016900004CD08CA984700008252BEFF7C160000A5
:1016A000A51600003068361D3F1F386004CD08CAFB
:1016B0009847000081D2FFFF98160000C116000075
:1016C00030683F1F386004CD08CA9847823ED2FF79
:1016D000B4160000D916000039683F1D361F31606E
:1016E00004CD08CA98470000844F5645D2FFFFFF3B
:1016F000CC160000F91600003A683F1D38683F1DFF
:101700003F1F38603F1F3A603F1F386004CD08CA52
:10171000984700008444524FD0FFFFFFE8160000B6
:10172000251700003F1D04CD08CA98478453574130
:10173000D0FFFFFF141700003D1700003A683F1D5F
:1017400038683F1D3F1F3A603F1F386004CD08CA0C
:1017500098470000834455D02C1700006117000003
:1017600038683F1F386004CD08CA9847900D0A5367
:101770007461636B2053747566663A0D8AFFFFFFD0
:101780005417000087414E44424954D36C1700005F
:101790009517000004CF39683F1D086810400860A5
:1017A00004CD08CA9847000087534554424954D392
:1017B00084170000B917000004CF39683F1D08687E
:1017C0001043086004CD08CA9847000087434C5274
:1017D000424954D3A8170000DD17000004CF396830
:1017E0003F1D08689043086004CD08CA9847000070
:1017F00085434D4F56C5FFFFCC1700000118000070
:1018000039683F1D3A683F1D3B683F1D002907D0DE
:1018100018781070491E002902D0521C5B1CF7D1A9
:1018200004CD08CA984700008446494CCCFFFFFF0E
:10183000F01700003918000038683F1D39683F1D57
:101840003A683F1D002904D08B181070521C9A4230
:10185000FBD104CD08CA98478545524153C5FFFFC7
:1018600028180000010600008C2100003418000038
:101870000C06000086424C414E4BD3FF5818000026
:1018800001060000B40A0000341800000C06000035
:10189000822BA1FF741800009D18000039683F1DBD
:1018A00038683F1D0A688018086004CD08CA984748
:1018B00081C0FFFF90180000BD18000039683F1D6F
:1018C00008683F1F386004CD08CA98478243C0FFAC
:1018D000B0180000D918000039683F1D08783F1F74
:1018E000386004CD08CA984781A1FFFFCC180000DA
:1018F000F518000038683F1D39683F1D016004CDB0
:1019000008CA98478243A1FFE81800001119000097
:1019100038683F1D39683F1D017004CD08CA9847DB
:101920009F0D0A5265616420616E6420577269746C
:1019300065204D656D6F727920576974683A0D8A1C
:101940000419000081DDFFFF2019000001060000DE
:1019500040090000C0000000E01000100C0600006C
:10196000C1DBFFFF44190000010600004009000030
:1019700000000000E01000100C060000C95B434F9F
:101980004D50494C45DDFFFF601900000106000085
:1019900030030000FC23000034060000133900006F
:1019A000540E0000201700004C0D0000500C0000E9
:1019B0000C060000C8444C4954455241CCFFFFFF7F
:1019C0007C19000001060000240B0000B81800007C
:1019D000440700001000000038170000F419000050
:1019E000F41900000C060000C74C4954455241CC84
:1019F000B419000001060000240B0000B818000014
:101A000044070000100000004C03000034060000F2
:101A1000500C00000C0600008223BEFFE8190000F5
:101A200001060000201700002017000098010000A8
:101A3000B8180000540B0000F41600002C2300001E
:101A40000C06000084484F4CC4FFFFFF181A00002A
:101A50000106000034060000FFFFFFFF98010000B0
:101A60009818000098010000B81800000C19000038
:101A70000C06000084534947CEFFFFFF441A0000C4
:101A8000010600001016000020240000440700009A
:101A900010000000340600002D000000501A000065
:101AA0000C0600008223D3FF741A00000106000018
:101AB000D81A0000F4160000F416000048250000B3
:101AC000FC23000044070000E8FFFFFF0C060000B5
:101AD00081A3FFFFA41A000001060000FC0A000019
:101AE000B81800006C030000101600003406000057
:101AF00009000000F41600007C23000044070000E9
:101B00001000000034060000070000000C23000055
:101B100034060000300000000C230000501A0000C2
:101B20000C060000823CA3FFD01A00000106000052
:101B300040090000B00F0010141100100C06000046
:101B400085444F4553BEFFFF241B000001060000E3
:101B5000A0160000180D0000AC0D00005C1700007E
:101B60004C0D00003406000063060000381700002A
:101B7000F0180000F01800000C060000873C4255E9
:101B8000494C44D3401B000001060000C81D000062
:101B90000C060000C52B4C4F4FD0FFFF7C1B0000F4
:101BA00001060000BC210000200200004C030000E0
:101BB00078070000CC0400000C060000C44C4F4F16
:101BC000D0FFFFFF941B000001060000BC210000B5
:101BD000200200004C03000058070000CC04000065
:101BE0000C060000C244CFFFBC1B00000106000031
:101BF0004C03000084070000780B0000BC210000AB
:101C00000C060000C5454E4449C6FFFFE41B00001A
:101C100001060000E4010000AC21000020020000E9
:101C2000780B0000F41600002C2300003817000089
:101C3000F01800000C060000C4544845CEFFFFFF1A
:101C4000041C000001060000101C00000C0600002F
:101C5000C4454C53C5FFFFFF381C000001060000BF
:101C6000AC210000200200004C03000034070000FB
:101C7000780B00008C210000500C00003817000089
:101C8000AC210000101C0000AC2100000C0600007C
:101C9000C249C6FF501C0000010600004C030000B2
:101CA00044070000780B00008C210000500C00005D
:101CB000AC2100000C060000C5554E5449CCFFFF76
:101CC000901C0000010600009C2100002002000082
:101CD0004C03000044070000CC0400000C06000088
:101CE000C541474149CEFFFFB81C00000106000076
:101CF0009C210000200200004C030000340700007B
:101D0000CC0400000C060000C65245504541D4FFEB
:101D1000E01C000001060000D4160000D4160000EC
:101D2000EC1C0000A0160000A0160000AC21000072
:101D30002C230000101C00000C060000C557484969
:101D40004CC5FFFF081D000001060000981C0000A4
:101D5000382100000C060000C542454749CEFFFF70
:101D60003C1D000001060000E4010000780B0000AB
:101D70009C2100000C060000970D0A496E736964EF
:101D80006520436F6C6F6E20574F5244533A0D8A53
:101D9000581D000089494D4D4544494154C5FFFF38
:101DA000781D000001060000180D00003406000038
:101DB00040000000F00700000C060000864352457A
:101DC0004154C5FF941D0000010600007806000084
:101DD000340600000F0000002C2300002024000027
:101DE0004407000008000000A001000030030000CC
:101DF000440700002400000020170000680D0000C8
:101E00007C29000034060000D7380000981200003A
:101E1000082A0000AC130000780B00005C170000DB
:101E2000F4040000F01800005C170000D418000053
:101E3000340600001F000000D8240000B801000094
:101E40005C1700003406000080000000F00700006E
:101E5000780B00003406000080000000F00700004E
:101E60009C210000E80A000098180000180D0000EE
:101E7000500C0000100B0000F01800004C03000094
:101E800029060000780B000054210000500C0000CF
:101E90000C06000088434F4E5354414ED4FFFFFFC1
:101EA000BC1D000001060000B81E00000C0600006A
:101EB00083434FCE941E000001060000C81D0000A1
:101EC00034060000FCFFFFFFE80A0000981800003D
:101ED000500C0000E00400000C060000885641523F
:101EE0004941424CC5FFFFFFB01E00000106000043
:101EF000001F00000C060000835641D2DC1E0000CB
:101F000001060000C81D000034060000F8FFFFFFB6
:101F1000E80A0000981800004C0300001D060000AD
:101F20009C210000B40C0000500C0000E0040000F4
:101F30000C060000C1BBFFFFF81E000001060000F8
:101F4000AC0300004C0300000C0600006819000000
:101F5000E00400000C060000C1BAFFFF341F0000BF
:101F6000010600000402000098030000C81D0000E4
:101F70004C19000034060000F8FFFFFFE80A0000DB
:101F8000981800004C030000010600000C06000039
:101F9000960D0A43524541544520574F5244532011
:101FA000576974683A0D8AFF581F00008444414203
:101FB000D3FFFFFF901F0000010600005C17000028
:101FC000140500000C06000087444E45474154C5E7
:101FD000AC1F0000D91F000038683F1D3A683F1D44
:101FE000C043D243521C3F1F3A603F1F386004CDAC
:101FF00008CA9847834450CCC81F00002906000037
:102000001011001083442ED2F41F000001060000BE
:10201000D416000038170000F4160000B81F0000A6
:102020002C1B0000AC1A0000801A0000201A0000CF
:10203000A0160000F41600002C2300002829000040
:10204000082A00000C0600008244AEFF04200000B5
:10205000010600008C2100000C2000006429000013
:102060000C0600008244ABFF4820000071200000F5
:1020700038683F1D39683F1D3B683F1D3A683F1D6A
:10208000521858413F1F3A603F1F386004CD08CABC
:102090009847000084532D3EC4FFFFFF64200000DA
:1020A000A52000003A683F1D4040124300D5401E65
:1020B0003F1F3A603F1F386004CD08CA98470000B0
:1020C0008232AAFF94200000CD20000038683F1D16
:1020D00040003F1F386004CD08CA98478232AFFFE6
:1020E000C0200000E920000038683F1D40103F1F5D
:1020F000386004CD08CA98478231ADFFDC2000006B
:102100000521000038683F1D401E3F1F386004CD88
:1021100008CA98478231ABFFF82000002121000057
:1021200038683F1D401C3F1F386004CD08CA9847DF
:102130008232ABFF142100003D21000038683F1DB2
:10214000801C3F1F386004CD08CA98478234ABFF1B
:10215000302100005921000038683F1D001D3F1F3D
:10216000386004CD08CA98478234ADFF4C21000086
:102170007521000038683F1D001F3F1F386004CDE7
:1021800008CA984781B0FFFF6821000029060000B7
:102190000000000081B1FFFF84210000290600003B
:1021A0000100000081B2FFFF942100002906000019
:1021B0000200000081B3FFFFA421000029060000F7
:1021C0000300000081B4FFFFB421000029060000D5
:1021D00004000000824DAAFFC42100000106000097
:1021E000CC15000084250000D4160000C024000097
:1021F00038170000C024000090080000A01600005E
:10220000140500000C060000824DAFFFD421000031
:1022100001060000F4160000D4160000D4160000D9
:10222000B81F0000BC160000C0240000B408000065
:10223000A0160000BC16000084250000FC0400006D
:1022400038170000A0160000FC040000381700003A
:102250000C06000081AAFFFF082200000106000012
:10226000DC210000201700000C060000842F4D4FD9
:10227000C4FFFFFF5422000001060000D416000036
:10228000A0200000A0160000102200000C06000094
:1022900081AFFFFF6C2200000106000078220000E1
:1022A00038170000201700000C060000834D4FC4B3
:1022B0009022000001060000782200002017000094
:1022C0000C060000852A2F4D4FC4FFFFAC220000F2
:1022D00001060000D4160000DC210000A01600005A
:1022E000102200000C060000822AAFFFC42200006A
:1022F00001060000D022000038170000201700005F
:102300000C06000081ABFFFFE82200001123000053
:1023100038683F1D39683F1D40183F1F386004CDA5
:1023200008CA984781ADFFFF042300003123000055
:1023300038683F1D39683F1D081A3F1F386004CDBB
:1023400008CA984781BDFFFF2423000051230000E5
:10235000404039683F1D3A683F1D891A04D03F1F2D
:10236000386004CD08CA984701383F1F386004CD53
:1023700008CA984781BCFFFF442300008123000066
:102380004040013839683F1D3A683F1D914200DCEA
:1023900040403F1F386004CD08CA98478255BCFFB3
:1023A0007423000001060000CC1500008425000005
:1023B000202400004407000018000000201700003F
:1023C00020240000FC230000340700000C00000063
:1023D0002C230000202400000C06000081BEFFFF1B
:1023E0009C23000001060000381700007C23000039
:1023F0000C0600008230BDFFDC2300000124000039
:10240000404039683F1D002900D1401E3F1F386001
:1024100004CD08CA984700008230BCFFF4230000B6
:102420002524000039683F1D40400138094300D48D
:1024300040403F1F386004CD08CA9847834249CEC8
:1024400018240000010600004009000002000000FE
:10245000D41000100C060000834845D83C2400002E
:10246000010600004009000010000000D410001018
:102470000C06000087444543494D41CC58240000D8
:1024800001060000400900000A000000D4100010FE
:102490000C060000864E45474154C5FF74240000D9
:1024A000A524000038683F1DC043401C3F1F386012
:1024B00004CD08CA98470000834142D39424000009
:1024C000010600005C170000FC0400000C06000080
:1024D000834D49CEB824000001060000CC15000051
:1024E000E423000044070000080000003817000043
:1024F000201700000C060000834D41D8D0240000B6
:1025000001060000CC1500007C23000044070000F9
:102510000800000038170000201700000C0600001B
:1025200083414EC4F82400002D25000038683F1D6B
:1025300039683F1D08403F1F386004CD08CA9847DE
:10254000824FD2FF202500004D25000038683F1D36
:1025500039683F1D08433F1F386004CD08CA9847BB
:10256000834E4FD4402500006D25000038683F1D84
:10257000C0433F1F386004CD08CA984783584FD2E4
:10258000602500008925000038683F1D39683F1D1F
:1025900048403F1F386004CD08CA984784535854B8
:1025A000C8FFFFFF7C250000AD25000038683F1DF7
:1025B00000B23F1F386004CD08CA9847845358546E
:1025C000C2FFFFFF9C250000CD25000038683F1D9D
:1025D00040B23F1F386004CD08CA98478452455620
:1025E000D7FFFFFFBC250000ED25000038683F1D28
:1025F00000BA3F1F386004CD08CA9847834153D2C0
:10260000DC250000092600003A683F1D38683F1DA0
:1026100010413F1F386004CD08CA9847834C53D2FD
:10262000FC250000292600003A683F1D38683F1D40
:10263000D0403F1F386004CD08CA9847834C53CC24
:102640001C260000492600003A683F1D38683F1DDF
:1026500090403F1F386004CD08CA9847822ED2FFB1
:102660003C26000001060000D4160000A020000057
:10267000A01600000C2000000C060000832E52D58E
:102680005C26000001060000D41600008C2100002A
:102690002C1B0000AC1A0000201A00005C17000080
:1026A000A0160000381700002C2300002829000085
:1026B000082A00000C0600008255AEFF7C260000B0
:1026C000010600008C210000502000000C060000D4
:1026D00081BFFFFFB826000001060000B818000007
:1026E000F02600000C06000081AEFFFFD02600009F
:1026F00001060000A0200000502000000C06000091
:10270000822EC2FFE826000001060000AC21000076
:102710003C0100000C060000822EC8FF00270000CC
:102720000106000034060000100000003C0100001B
:102730000C060000822EC4FF1827000001060000CE
:10274000340600000A0000003C0100000C060000F6
:10275000910D0A4E554D4245522053747566663AA6
:102760000D8AFFFF342700008A55415254305F49DB
:102770004E49D4FF50270000010600003406000037
:1027800000130010B8180000FC23000044070000EC
:102790001C0000003406000004130010B8180000EC
:1027A000D4160000340700001000000034060000BA
:1027B00080250000D416000034060000A440044028
:1027C0003406000039000000B41700003406000091
:1027D000A84004409C210000B417000040090000FC
:1027E00001000000988004404009000083000000C0
:1027F0000C800040F8340000340600001000000097
:1028000098220000A0160000982200003406000064
:102810000001000078220000C028000054210000C0
:10282000F0180000C0280000F01800004009000067
:10283000030000000C800040400900000000000080
:1028400008800040400900000700000008800040A8
:1028500098280000201700000C060000864D594201
:102860004155C4FF68270000010600004009000030
:1028700000000000001300103406000004130010D4
:10288000F01800000C0600008955415254305F4C8E
:1028900053D2FFFF5C2800009D2800000349087800
:1028A0003F1F386004CD08CA9847000014800040DC
:1028B0008855415254305F52D8FFFFFF88280000EE
:1028C00029060000008000408855415254305F5472
:1028D000D8FFFFFFB028000029060000008000405C
:1028E00084584F46C6FFFFFFC8280000F1280000AB
:1028F000FEF7C4F8FEF7CAF804CD08CA98470000EE
:1029000083584FCEE02800000D290000FEF7B6F8EE
:10291000FEF7C4F804CD08CA98470000865350411A
:102920004345D3FF00290000010600008C21000070
:1029300000250000F015000044070000180000000A
:102940008C21000084070000642900005807000063
:10295000F8FFFFFF0C0600008553504143C5FFFF01
:102960001C29000001060000B40A00005C2A0000D7
:102970000C060000834944AE5829000001060000FF
:1029800074120000340600001F000000282500001B
:10299000082A0000642900000C060000C22EA2FFD5
:1029A0007429000001060000340600002200000027
:1029B000240B0000B8180000440700002C000000A1
:1029C0004C03000060020000440F0000780B000080
:1029D000D41800001C210000CC0B0000B80100003E
:1029E0003407000014000000440F0000780B0000C2
:1029F00074120000082A00000C060000845459508C
:102A0000C5FFFFFF9C29000001060000F015000033
:102A10004407000034000000EC280000F416000019
:102A20000C23000038170000840700003C1600004B
:102A3000A00700005C2A000058070000F0FFFFFF1D
:102A40003407000008000000201700000C060000FA
:102A500084454D49D4FFFFFFFC290000612A000096
:102A600038683F1DFEF70AF80449087004490868F1
:102A7000401C086004CD08CA984700000080004050
:102A8000DC100010834B45D9502A000001060000DD
:102A9000082900009C2A00000C060000A12A000062
:102AA000054A064B19684908FCD310683F1F386077
:102AB00004CD08CA98470000008000401480004000
:102AC000843F4B45D9FFFFFF842A0000D12A000034
:102AD000FDF7D4FFFDF7E2FF084B1968490806D35C
:102AE000404001383F1F386004CD08CA9847404035
:102AF0003F1F386004CD08CA98470000148000408A
:102B0000834352D3C02A0000010600008C2100003C
:102B1000840700002C2B000058070000F8FFFFFF7F
:102B20000C0600008243D2FF002B000001060000CB
:102B30004009000000000000DC10001060020000EE
:102B4000020D0AFF0C0600008D0D0A46495348206D
:102B5000494F3A0D8AFFFFFF242B00008B49525149
:102B6000535F524553554DC5482B0000712B000053
:102B700062B6C04604CD08CA984700008C4952513D
:102B8000535F53555350454EC4FFFFFF5C2B00006D
:102B9000952B000072B6C04604CD08CA98470000C5
:102BA0008F5359535449434B5F4952515F4F46C667
:102BB0007C2B0000B92B000002490520086004CDE1
:102BC00008CA984710E000E08E5359535449434BCC
:102BD0005F4952515F4FCEFFA02B0000E12B000058
:102BE00002490720086004CD08CA984710E000E0B9
:102BF0008F0D0A494E54455252555054533A0D8A3E
:102C0000C82B00008A464C4153485F534156C5FFCC
:102C1000F02B000001060000180D00001C3400001D
:102C20007C23000044070000200000002C2B000043
:102C3000600200000F4E4F5448494E4720544F2029
:102C4000534156450C060000202D0000B818000026
:102C500034060000008000004C2300004407000000
:102C6000280000002C2B000060020000144C41538F
:102C70005420464C41534820504147452055534528
:102C800044FFFFFF0C060000C40A0000B818000053
:102C9000302D0000F0180000180D0000382D000045
:102CA000282D0000F0180000180D00001C34000052
:102CB0004C2300004407000058000000683000006A
:102CC0001C340000E80A0000F0180000302D00005D
:102CD000B8180000C40A0000F0180000282D0000F9
:102CE000B8180000100B0000F018000034060000B7
:102CF00000100000202D000098180000A8300000EF
:102D00002C2B0000443300001C3300000C06000094
:102D1000180D00005C2D0000340700008CFFFFFF41
:102D20002906000004000010290600000800001019
:102D3000290600000C0000103D2D000038683F1DE2
:102D4000044A1040044A126880183F1F386004CDBE
:102D500008CA9847FF0F0000040000100106000099
:102D6000AC0D00005C170000D41600004C0D0000F4
:102D70005C170000B818000034060000630600006D
:102D80004C230000440700002800000054210000EC
:102D90005C1700005C170000B8180000382D000018
:102DA00038170000F0180000340700000001000090
:102DB0005C170000B8180000340600002906000067
:102DC0004C230000F4160000B81800003406000080
:102DD0001D0600004C2300004825000044070000A9
:102DE000100000002017000034070000C40000009D
:102DF000542100005C170000B818000034060000E1
:102E0000340600004C2300004407000010000000BE
:102E10005421000034070000D8FFFFFF5C170000BA
:102E2000B818000034060000600200004C230000C7
:102E300044070000200000005C170000542100003F
:102E4000D41800000C230000CC0B00003407000055
:102E5000A0FFFFFF5C170000B81800003406000058
:102E60000C0600004C230000FC2300004407000077
:102E70003C0000005C170000B81800001C34000083
:102E8000E42300004407000068FFFFFF5C17000018
:102E90005C170000B8180000382D0000381700003B
:102EA000F01800003407000048FFFFFF2017000063
:102EB000A0160000300D00005C170000B8180000DC
:102EC0005C170000100B0000F0180000382D000007
:102ED00038170000F01800000C060000E12E00007A
:102EE0000648074932220260064B1A68120B4260FC
:102EF0008260054B984704CD08CA98471811001006
:102F00006811001004000010F11FFF1F112F0000B6
:102F10000748084934220260074B1A68120B4260C6
:102F20008260064AC260064B984704CD08CA98479B
:102F300018110010681100100400001080BB000080
:102F4000F11FFF1F492F0000084809493322026082
:102F5000084A12684260084A8260084AC260084A09
:102F60000261084B984704CD08CA98471811001011
:102F70006811001004000010000000100010000094
:102F800080BB0000F11FFF1F8C464C4153485F4639
:102F90004F524745D4FFFFFF042C000001060000FC
:102FA000400900000040000004000010202D000037
:102FB000B818000034060000008000004C23000018
:102FC000FC230000440700002C000000902B0000B0
:102FD000DC2E00000C2F00006C2B000034060000DB
:102FE00000100000202D0000981800003407000099
:102FF000BCFFFFFF30340000180D0000E423000088
:103000004407000010000000903700003407000063
:103010001C00000034060000F03700001C340000E3
:10302000AC0D0000300D0000F01800004009000059
:1030300000400000040000103406000011111111BE
:103040005C170000282D0000F0180000302D000053
:10305000F0180000A83000002C2B000044330000C2
:103060001C3300000C06000001060000780B000075
:1030700034060000AF0F0010780B00002C23000076
:1030800034060000FF00000034180000902B000000
:10309000DC2E00000C2F0000DC2E0000442F00006E
:1030A0006C2B00000C060000010600003406000036
:1030B000004000005C170000202D0000F018000008
:1030C0005C170000D4160000B8180000F8340000A7
:1030D0004C230000440700007C000000BC160000E8
:1030E00034060000080000000C2300005C170000FC
:1030F000B8180000100B0000F01800005421000068
:10310000B8180000C40A0000F01800002C2B0000C2
:103110006002000017414444454420574F52445335
:103120002046524F4D205041474520FFBC1600001D
:1031300020270000BC16000034060000001000002C
:103140000C230000202D0000F018000034070000C0
:103150000C000000BC160000B0310000BC160000DE
:1031600034060000001000000C2300005C17000073
:1031700034060000008000002C23000044070000FB
:103180002000000020170000A016000034060000F8
:10319000001000000C2300003407000024FFFFFF94
:1031A00020170000A0160000201700000C060000E9
:1031B000010600005C17000034060000001000004B
:1031C0000C230000D41600005C170000B8180000A3
:1031D0001C2100004407000048000000902B000064
:1031E000DC2E00000C2F00006C2B00002C2B0000AC
:1031F000600200001745524153454420424144209B
:10320000464C41534820504147452020202700008C
:1032100020170000A0160000201700000C06000078
:10322000542100005C1700005C170000BC16000071
:10323000381700002C230000440700000C00000099
:103240003407000088FFFFFF2C2B00006002000005
:103250000E464C4153482050414745204F4B20FFDC
:103260002017000034060000001000002C2300008E
:1032700020270000A0160000201700000C06000008
:1032800084504F46C6FFFFFF882F00000106000054
:103290004009000000000000041100100C060000AE
:1032A00083504FCE8032000001060000400900002C
:1032B0002B0A0000041100100C06000081D0FFFF53
:1032C000A032000029060000041100108545484F77
:1032D00046C6FFFFBC320000010600008C21000042
:1032E0003406000008110010F01800000C06000061
:1032F0008445484FCEFFFFFFCC320000010600009E
:103300009C2100003406000008110010F018000095
:103310000C060000832E44D3F032000001060000AA
:10332000780600003C270000340600002C3800001E
:1033300098120000082A00000C060000832E56D3C5
:10334000143300000106000098060000CC210000A4
:10335000982200003C2700003406000021380000BD
:1033600098120000082A00000C0600008444554D05
:10337000D0FFFFFF3C33000001060000F416000000
:10338000F40D000018090000602400008C210000EA
:10339000840700002C2B00005C170000340600009E
:1033A0000A00000084260000CC2100008C210000CF
:1033B000840700005C170000B81800003406000005
:1033C0000E00000084260000542100005807000071
:1033D000E4FFFFFFCC2A00004407000008000000C3
:1033E0008816000058070000ACFFFFFF2017000000
:1033F0002C2B00002C0900000C06000085564241D1
:1034000053C5FFFF6C330000290600007410001044
:103410008544424153C5FFFFFC33000029060000EC
:10342000100000108552424153C5FFFF10340000C8
:10343000290600000000001083434CD32434000010
:103440000106000060020000041B5B324AFFFFFF20
:1034500060020000041B5B3B48FFFFFF2C2B0000B9
:103460000C060000C1A8FFFF383400000106000070
:103470003406000029000000B8070000FC2300000B
:1034800044070000280000002C2B000088020000E8
:103490003406000011100010D4180000440700008A
:1034A0001000000034070000C8FFFFFF0C060000FA
:1034B000340600003E38000098120000082A000080
:1034C0000C060000C1DCFFFF6434000001060000B0
:1034D0008C210000640B0000440B0000B8180000B1
:1034E0000C2300000C1900000C06000086535953F1
:1034F000434CCBFFC4340000FD340000034908688E
:103500003F1F386004CD08CA984700000000001033
:103510008553544354D2FFFFEC34000029060000C9
:10352000701000108544454C41D9FFFF1035000054
:103530003535000039683F1D38683F1D0A4CC043CF
:10354000401C2060094A1160094A1160002806D019
:10355000084A10680721116021680029FCD1106019
:1035600004CD08CA984700007010001014E000E075
:1035700018E000E010E000E0824DD3FF24350000A9
:1035800001060000340600007FBB0000303500005B
:103590000C06000087574F52444341D47835000051
:1035A00001060000780B0000D41600008C210000FA
:1035B000780C0000340600000D000000780C0000BC
:1035C000780B0000340600000D000000440F0000DE
:1035D0005C170000D4180000340600000A00000048
:1035E000101600000C1900005C1700001C210000E0
:1035F000940B000034060000840000000C2300003F
:10360000BC1600000C190000340600000D0000007C
:10361000780C0000340600008A000000780C0000DE
:10362000F40B0000180D0000500C0000A016000064
:103630003406000000110010F01800000C06000015
:1036400085574F5244D3FFFF943500000106000018
:10365000BC21000028290000180D0000EC28000003
:103660008C210000F41600001C210000D41800007A
:10367000340600000D0000004C230000FC23000075
:10368000440700001C000000201700005C17000029
:10369000AC0D0000300D0000F41600002C230000DB
:1036A000340B0000B81800000C23000034060000A2
:1036B0004A000000E423000044070000100000005E
:1036C0002C2B0000BC210000282900005C17000002
:1036D000D80A0000B81800007C230000440700004E
:1036E0000C000000340700005C0000005C170000C4
:1036F0007C290000AC210000282900005C17000094
:103700001C210000D4180000340600000D00000049
:103710004C23000044070000100000004009000096
:1037200000000000DC100010AC0D0000300D0000A7
:10373000B81800005C170000FC23000044070000DC
:1037400020FFFFFF201700002C2B00000C060000BC
:10375000874D59574F5244D34036000001060000B0
:103760004009000000400000FC1000104C36000032
:103770004009000000000000FC1000100C060000D2
:1037800089464953485F4F4E4CD9FFFF50370000E0
:10379000953700000749084C2160084C2160084912
:1037A000084C2160084C21600849094C216004CD77
:1037B00008CA9847F03700000011001008000010F8
:1037C00074100010F01000100C0000101000001019
:1037D000F410001084464953C8FFFFFF80370000F3
:1037E00001060000A83000002C050000AC1300000A
:1037F000990D0A46495348205265666572656E63A5
:1038000065204D6F64656C3A0D8AFFFFD437000068
:103810000352554E2000203F2000203C43523E20C2
:10382000005641522043454C4C53200044494354D8
:10383000494F4E415259204259544553200020438C
:103840004F4D4D454E54204C494E452043414E4E20
:103850004F5420424520454D5054592015002043D7
:10386000414E5420464F5247455420464953482024
:10387000494E20464C41534820150020494E2046D1
:103880004C415348202D2053454520464C41534838
:103890005F464F5247455420150020444943544940
:1038A0004F4E4152592046554C4C202D20534545F2
:1038B000202E44532015002052414D2056415220C5
:1038C00053504143452046554C4C202D20534545EF
:1038D000202E565320150020495320414C5245417B
:1038E000445920444546494E4544201500203F2078
:1038F0004E4F5420574F5244201500203F204E4F2A
:103900005420574F5244204F52204E554D4245525D
:103910002015002043415553454420412053544134
:10392000434B204552524F522015002053544143DF
:103930004B204552524F52205748494C452045583C
:1039400045435554494E47204F5220434F4D50490F
:103950004C494E47201500204552524F52202D20F1
:103960004E4F5420434F4D50494C494E472015006F
:10397000204552524F52202D20455845435554451D
:1039800044205748494C4520434F4D50494C494EDF
:103990004720150001060000400900000700000054
:1039A00010E000E0400900005F1801008080044042
:1039B0004009000070ED000038820440400900001A
:1039C00000000000408004404009000000000000AA
:1039D000448004404009000001000000448004408D
:1039E0004009000003000000088004403406000085
:1039F0000C800440B81800009C210000282500001D
:103A000044070000E8FFFFFF40090000030000003A
:103A100070800440400900000000000074800440F1
:103A200040090000010000007480044040090000CB
:103A3000006CDC02000000100C060000D0B5040091
:103A400016001F00300039002200E31700F007F8CD
:103A5000300039002200E31700F001F8D0BD30B487
:103A6000DC0F03D05B42524200D25B1E0D106C4053
:103A700013D0F446002502D349424042A94100F048
:103A80000DF8E40703D35B425242AB41244202D516
:103A900049424042A94130BC604730BC124224D068
:103AA000994228D970B500251B4202D00C00002194
:103AB00009E00024012649186441944200D3A41A65
:103AC0007641F8D33100012601E0764109D2001891
:103AD00064416D41A41A9D41F7D2A4185D41B61905
:103AE000F5D3300022002B0070BD1B42D8D108B5A1
:103AF000C046C04608BD01D19042D3D202000B009F
:103B0000002100207047000000B5BFF34F8F03482D
:103B100003490860BFF34F8FFEE700000400FA0579
:103B20000CED00E000B5FEE780B5FFF7EDFF01BD4D
:103B300000B5FEE700B5FEE700B5FEE700B5FEE71D
:103B400000B5FEE700B5FEE780B5FCF73DFF01BD1F
:023B50007047BC
:0400000500003B516B
:00000001FF
