:10000000480D001071090000253C0000293C00004B
:10001000313C0000353C0000393C00005ABCFEEF8A
:100020000000000000000000000000003D3C000057
:10003000413C000000000000453C0000493C00003D
:10004000110600004406000007000000282B0000F5
:100050001C06000039060000080000001106000020
:1000600054000000282B0000302A0000540000003B
:10007000282B000044060000FDFFFFFFC40B00001A
:10008000641900001C060000110600003809000079
:100090008C0B0000BC190000001600004C09000089
:1000A0001C060000110600008C0B000084190000E3
:1000B00028180000782200001824000054070000CF
:1000C000180000004406000062000000282B000019
:1000D000EC1700001C060000440600000A000000A7
:1000E000182400005407000014000000440600001B
:1000F00064000000282B00001C06000044060000DD
:1001000068000000282B00001C06000011060000FB
:100110006C21000058220000D8200000A40000003C
:100120001C060000110600005822000058220000A2
:10013000D8200000A40000001C06000011060000EA
:1001400038090000281800008C0B0000BC190000C2
:10015000440600000A0000001824000054070000B4
:10016000100000000C01000044070000080000001F
:1001700024010000302A00004C0900001C06000089
:10018000390600006C0B001039060000700B0010DF
:1001900039060000940B0010390600009C0B00107B
:1001A00011060000440600008239000064130000BC
:1001B000D42A00007814000011060000780B00001B
:1001C000641900001C06000011060000840C0000E9
:1001D000080C0000BC19000098220000B8010000C3
:1001E0001C06000011060000B40B0000841900007A
:1001F000C8240000440600003F3A0000E40E00005E
:100200001C06000011060000B40B00008419000059
:1002100044060000583A0000E40E00001C060000EE
:1002200011060000F823000044060000133A000005
:10023000E40E00001C06000011060000201700005C
:1002400080010000841900000418000070240000E0
:1002500044060000FB390000E40E00001C0600000C
:10026000110600006C170000281800004013000061
:10027000D42A000040130000D82300005C0C0000CA
:10028000A01700001C06000011060000F40B00007F
:10029000440600005E000000F41100006009000048
:1002A00001000000600B00101C0600001106000099
:1002B000E821000028180000A0170000A019000085
:1002C0008C0B000084190000140F0000540700007C
:1002D00058000000041800008C0B00008419000076
:1002E000A0080000EC170000DC1600008C0B0000DA
:1002F00084190000A008000038210000C820000078
:1003000084190000E82100005407000010000000DC
:1003100068220000C8200000641900006C1700006B
:10032000440700008CFFFFFF6C1700001C06000054
:1003300011060000280B0000D40F0000080C00007C
:10034000A80D0000C80600001C06000011060000F1
:100350006C1700002818000020220000A0170000E1
:1003600084190000C80100001C06000011060000EE
:10037000A01700005822000088170000CC080000D9
:100380006C17000004180000A0170000CC08000043
:100390006C1700001C06000011060000201700006A
:1003A00090010000BC1900001C06000011060000AE
:1003B000201700009001000084190000F8230000BD
:1003C00044060000FB390000E40E00001C0600009B
:1003D0001106000030030000540700003C0000003C
:1003E000B40B0000841900004824000054070000EA
:1003F00014000000DC0D0000C801000044070000EC
:100400000C000000DC0D0000DC0A000038020000D7
:1004100044070000C0FFFFFF080C00004C10000064
:10042000C820000084190000E821000054070000E3
:1004300010000000901A0000440700000C000000AB
:10044000EC170000C01A000038020000440700004A
:1004500084FFFFFF11060000341A0000100900009D
:100460002409000088020000D0030000B40B000043
:1004700084190000C8240000540700003800000060
:10048000440600008C0B0010841900005407000083
:1004900024000000440600008C0B001084190000AA
:1004A00064130000D42A00008C0B000084190000A3
:1004B000082800004406000010000000282B00005F
:1004C000F82B00004407000098FFFFFF1106000012
:1004D000080C0000F8230000E00C00001C060000DF
:1004E000110600006009000000000000800B0010F1
:1004F0001C06000039060000800B001011060000E9
:10050000EC24000054070000080000006C250000E7
:100510001C06000011060000EC2400005407000037
:1005200008000000A02000001C06000011060000CA
:10053000F82B000044060000240A000064130000A9
:10054000D42A0000440600007F0A00006413000063
:10055000D42A0000440600008C0A00006413000046
:10056000D42A0000F82B00001C0600001106000031
:10057000EC050000843100001C060000110600009C
:1005800004180000C0170000D82300004406000033
:100590007F000000C0170000A019000048240000E0
:1005A00054070000E0FFFFFF04180000EC170000F4
:1005B0001C0600000A00000001000000000000000E
:1005C00000000000F00F0010700F0010980A0010DB
:1005D000FC0A0010100000100000000000000000E5
:1005E000D83800008E0A000000000000F10500006D
:1005F000054806490E2203680B6004300431013AB5
:10060000F9D104CD08CA9847B40500005C0B00106E
:10061000361F3560154604CD08CA984721060000EC
:100620003568361D04CD08CA9847000001CA3F1F2F
:10063000386004CD08CA984701CA3F1F386004CD0E
:1006400008CA98474906000001CD3F1F386004CD15
:1006500008CA98475906000001CD3F1F386004CDF5
:1006600008CA9847690600003D683F1D04CD08CAC6
:1006700098470000361F3560456808303F1F3860D6
:1006800004CD08CA984700008D06000004480549BB
:100690000968401A3F1F386004CD08CA9847000017
:1006A000380A00107C0B0010AD0600000448054914
:1006B0000968401A3F1F386004CD08CA98470000F7
:1006C0005C0B0010780B0010CD0600003B683F1D4E
:1006D0003A683F1D93465A46187884461178484038
:1006E0003F24204019D1521C5B1C18781178884295
:1006F000F9D08024001B884210D15B1C1878FF2899
:10070000FBD008333F1F3B60012062463F1F3A6029
:100710003F1F386004CD08CA98475B1C18788024B6
:100720002042FAD01B1D064803401B68002B00D056
:10073000D1E700203F1F386004CD08CA9847000069
:10074000FCFFFFFF490700002B68ED1804CD08CA25
:10075000984700005907000038683F1D0028F3D073
:100760002D1D04CD08CA98476D0700000123746849
:100770003268944203D0D2183260A41AE4D1083609
:100780002D1D04CD08CA98478D0700003B683F1D0A
:10079000EDE700009907000038683F1D3A683F1DEB
:1007A000361F3260361F306004CD08CA98470000FB
:1007B000B507000038683F1D00787F2108403F1FC3
:1007C000386004CD08CA9847CD07000039683F1D3E
:1007D000094A9246094B1C68121910780132884266
:1007E00001D00028F9D15446121B1A703F1F3860FF
:1007F00004CD08CA98470000980A0010600B00104A
:100800000508000039683F1D3A683F1D10784840D0
:10081000107004CD08CA98471D0800000A218842BC
:1008200005D138683F1D0D203F1F386002E00D21C3
:10083000884203D100F05CF900F062F904CD08CAE7
:1008400098470000490800003868017801290FD056
:10085000022910D001440A78622A12D0252A10D029
:10086000642A10D0232A0ED0682A0ED0242A0CD055
:1008700004CD08CA984742782E2AEBD104CD08CA85
:100880009847022402E00A2400E0102400220A70A3
:10089000024A146004CD08CA984700005C0B00109F
:1008A000A508000038683F1D39683F1D72B6C04674
:1008B0004843C11762B6C046024608463F1F3A6029
:1008C0003F1F386004CD08CA98470000D1080000D7
:1008D00038683F1D3B683F1D3A683F1D00280CD01B
:1008E00072B6C04603F02AF962B6C0463F1F3A60AE
:1008F0003F1F386004CD08CA98474040401E02465A
:100900003F1F3A603F1F386004CD08CA9847000077
:1009100015090000024A176804CD08CA984700006C
:100920006C0B001029090000024A166804CD08CAA1
:1009300098470000700B00103D090000024A116842
:100940008C4604CD08CA98475C0B00105109000082
:10095000024A6146116004CD08CA98475C0B00103A
:100960006509000002CD04CD116004CD08CA984786
:100970000A490B480B4C0160001DA042FBD30A48FA
:100980000A4C0160001DA042FBD3094F094E0AA585
:10099000361F356004CD08CA9847000011111111A7
:1009A00000000010400D0010EC0E001000100010B0
:1009B000F00F0010700F0010EC0500007C3A0000F2
:1009C00044280000F82B000044060000FB00000053
:1009D000282B000044060000F7000000282B000030
:1009E0008015000008CA9F463FB5504659466246EA
:1009F00007B4014A08CA9847100A0000010A00001B
:100A00003568361D07BC82468B4694463FBD0000C4
:100A1000110600006822000004360000641900007E
:100A2000FC090000464953482041524D2048692D99
:100A30004C6576656C2049535220546573742121AE
:100A400021204C50433131317820333278342052D8
:100A50004D2056312E3720284329323031342D3263
:100A600030313520412D5445414D20464F52544898
:100A7000203A204D61792032342032303136002046
:100A800061742031383A34333A3237001000206F25
:100A90006B2C20676F206669736820696E20424165
:100AA00053452000844E4F4FD0FFFFFF0000000051
:100AB00011060000B80A0000BD0A000000BF024D88
:100AC00004CD08CA98470000CC0A00001C060000AC
:100AD00087455845435554C5A40A0000E10A000063
:100AE00000F006F800F00CF804CF08CA98470000A0
:100AF0007246024C21688909FCD3104714800040DB
:100B00007246024913240C70104700000080004018
:100B10007246024911240C7010470000008000400A
:100B20008242CCFFD00A000011060000300B00000A
:100B3000350B0000034D20203F1F386004CD08CA4C
:100B400098470000480B00001C0600008255D0FFAB
:100B5000200B000039060000780B00108546454E3A
:100B600043C5FFFF4C0B000039060000840B00104A
:100B70008244D0FF5C0B0000390600007C0B0010A3
:100B800084424153C5FFFFFF700B0000390600008F
:100B90005C0B00108743555252454ED4800B000029
:100BA00039060000880B00108553544154C5FFFFDF
:100BB000940B000039060000680B0010834F55D4D9
:100BC000A80B000039060000640B00108249CEFF1C
:100BD000BC0B000039060000600B0010835041C4BC
:100BE000CC0B000039060000380A0010835449C2BB
:100BF000DC0B000039060000980A001084484552BA
:100C0000C5FFFFFFEC0B000011060000780B000091
:100C1000841900001C06000085414C4C4FD4FFFF96
:100C2000FC0B00001106000088060000C017000041
:100C3000F8230000EC240000540700000800000026
:100C4000A0010000780B0000641900001C060000E1
:100C500087414C49474E45C4180C0000610C000008
:100C600038683F1DC01C034908403F1F386004CD51
:100C700008CA9847FCFFFFFF85414C4947CEFFFF5C
:100C8000500C000011060000080C00008822000033
:100C9000D823000028180000A0170000080C00004E
:100CA0009407000044060000FF0000000817000041
:100CB000D819000068070000ECFFFFFF6C17000068
:100CC00044060000FCFFFFFFF4250000780B000045
:100CD000BC1900001C06000081ACFFFF780C00006E
:100CE0001106000088060000EC24000054070000F4
:100CF00008000000A0010000C80100001C06000060
:100D00008243ACFFD80C00001106000088060000EA
:100D1000EC2400005407000008000000A0010000BF
:100D2000080C0000D819000068220000B80100007B
:100D30001C06000088564152414C4C4FD4FFFFFF27
:100D4000000D000011060000A80600009822000017
:100D500064230000C0170000F8230000EC2400000A
:100D60005407000018000000440600009F390000EE
:100D700064130000D42A000078140000540B000013
:100D800084190000041800009822000028230000A5
:100D9000540B0000641900001C060000864C4154EE
:100DA0004553D4FF340D000011060000A00B0000D5
:100DB000841900001C060000834C46C19C0D0000F5
:100DC000C50D000038683F1D08383F1F386004CD4E
:100DD00008CA9847834346C1B80D0000E10D0000E2
:100DE00038683F1D001F3F1F386004CD08CA984770
:100DF000834E46C1D40D00001106000054000000CF
:100E0000F8230000CC21000028180000A0190000E1
:100E100044060000FF000000F82300005407000013
:100E2000E4FFFFFF44060000FFFFFFFF7C0500001A
:100E30001C060000835046C1F00D000011060000A2
:100E4000682200007C050000E8210000281800004E
:100E5000A019000044060000FF000000F823000075
:100E600054070000E4FFFFFF54000000D8230000F7
:100E70001C060000883F414C49474E45C4FFFFFF18
:100E8000340E0000110600004406000003000000BC
:100E9000F4250000540700003C0000006002000040
:100EA0002E56414C5545204D555354204245204522
:100EB00056454E204E4F54204F444420414E44202E
:100EC0004D554C5449504C45204F4620342120FF6D
:100ED000781400001C060000863F4552524FD2FF96
:100EE000740E0000110600000418000054070000F2
:100EF000100000004C110000440700000800000032
:100F0000EC1700001C0600008544494749D4FFFF48
:100F1000D80E0000190F00003A683F1D38683F1DC9
:100F200030380FD4092802DDC01F0A280ADB90429E
:100F300008DA024601203F1F3A603F1F386004CDA7
:100F400008CA984700203F1F386004CD08CA984758
:100F500087454E434C4F53C5080F0000610F0000FA
:100F600038683F1D39680022521E491E491C521C18
:100F70000B789842FAD03F1F3A60002B08D11846F0
:100F8000521C3F1F3A603F1F386004CD08CA984783
:100F9000491C521C0B78984201D0002BF8D1104606
:100FA000401C3F1F3A603F1F386004CD08CA984775
:100FB000C180FFFF500F0000BD0F00003568361DD7
:100FC00004CD08CA9847000084574F52C4FFFFFF62
:100FD000B00F000011060000F40B0000D40B00005D
:100FE00084190000D8230000041800005C0F0000E2
:100FF000D40B000064190000C0170000F8230000A3
:10100000A017000088170000080C0000D819000085
:10101000D8230000080C0000E82100008817000019
:10102000C818000058220000080C0000E821000049
:101030006C170000D8230000D81900001C0600001F
:10104000864E554D4245D2FFC80F000011060000E4
:10105000380900004408000058220000582200000F
:10106000DC16000028180000E8210000A01900008C
:10107000440600002D000000182400006822000033
:10108000F425000028180000A0170000D823000055
:1010900044060000FFFFFFFFC8200000BC1900004D
:1010A000AC02000028180000A0190000582200001F
:1010B000F8230000540700006C000000281800000E
:1010C000A0190000440600002E000000F8230000D4
:1010D000540700004400000028180000A019000078
:1010E000440600002C0000001824000054070000F3
:1010F0001400000044060000FFFFFFFF440700004B
:1011000098FFFFFF4C090000682200004406000021
:10111000E3390000E40E00005822000044070000FC
:1011200078FFFFFFEC1700006C1700005407000069
:1011300008000000A02000004C0900001C06000070
:10114000854552524FD2FFFF4010000011060000AB
:10115000080C000040130000D42A000064130000B3
:10116000D42A0000B8290000B40B00008419000044
:101170005407000040000000F4040000841900003F
:101180005407000030000000F4040000841900003F
:101190003C0E0000C00D000084190000A00B0000F0
:1011A000BC190000F404000084190000780B000052
:1011B000BC190000E004000078140000C1A7FFFF84
:1011C000401100001106000030030000C824000098
:1011D00044060000D5390000E40E0000EC170000C2
:1011E000C01A00001C060000864558504543D4FF35
:1011F000BC11000011060000E8210000C01700002B
:10120000D8230000C0170000E8210000D429000006
:1012100094070000682B0000180800002818000040
:1012200044060000090000001824000054070000D4
:101230000C000000EC170000280B0000281800002C
:101240005400000018240000C017000044060000ED
:101250007F0000001824000014260000540700003E
:1012600060000000EC1700002818000008170000BC
:10127000CC21000018240000281800006C17000082
:1012800078220000F8230000D8230000A0170000F7
:101290005407000010000000400000004407000058
:1012A000700000005C0000005822000008170000D9
:1012B000E8210000D8190000440700005400000095
:1012C00028180000440600000D000000182400004B
:1012D000540700001C00000054170000EC17000029
:1012E000280B0000582200004407000008000000FE
:1012F0002818000008170000D81900005822000024
:1013000008170000E8210000D8190000282B000071
:101310006807000000FFFFFFB8290000E821000077
:101320006413000004180000CC210000D81900004C
:101330001C06000085434F554ED4FFFFE811000006
:101340001106000028180000E82100000418000021
:10135000A01900001C06000084244C45CEFFFFFFAE
:1013600034130000691300003A684040115C0943DF
:1013700001D0401CFAE73F1F386004CD08CA9847E7
:1013800086464F524745D4FF58130000110600000F
:10139000C4110000281800004406000000400000AE
:1013A000482400004406000046390000E40E000016
:1013B00028180000440600000080000048240000B7
:1013C0004406000063390000E40E00002818000005
:1013D000C00D0000A0170000A80D00003C0E00008A
:1013E000C00D00002818000084190000A00B0000A8
:1013F000BC190000281800002022000084190000F9
:10140000440600002D0600001824000054070000C8
:101410001400000044060000FCFFFFFF540B000016
:101420006419000088170000182400005407000009
:10143000A8FFFFFF6C17000084190000A00B00003C
:10144000BC190000F80D0000780B0000BC1900006A
:1014500020340000F83300001C060000834259C508
:101460008013000069140000FFF782FA8541424FA3
:1014700052D4FFFF5C1400001106000010090000A8
:10148000240900006009000000000000640B001047
:1014900044060000F8380000A80D0000C80600004F
:1014A0005407000010000000EC170000DC0D0000E5
:1014B000DC0A000044060000900B001084190000B4
:1014C000540700006C0000004406000034150000C2
:1014D00064130000D42A0000982B00005407000079
:1014E000F8FFFFFF682B00004406000043000000E7
:1014F0001824000054070000E0FFFFFF682B0000E5
:10150000440600004F0000001824000054070000AB
:10151000C8FFFFFF682B0000440600000D0000001C
:101520001824000054070000B0FFFFFFF82B000054
:1015300054040000204572726F722048616C742060
:101540002845484F4E2F45484F464629202D2054C8
:101550006F20434F6E74696E7565205479706520F5
:10156000434F207468656E20456E7465723A2000A2
:101570005404000084434F4CC4FFFFFF6C14000070
:10158000110600006C0500002C0500007814000016
:10159000900D0A464953482053797374656D3A0D8E
:1015A0008AFFFFFF74150000832E53C890150000BA
:1015B0001106000044060000100000008800000032
:1015C0001C060000832E53C4A8150000110600005D
:1015D000440600000A000000880000001C0600000D
:1015E000832E53C2C41500001106000078220000AB
:1015F000880000001C060000822ED3FFE0150000CA
:10160000110600008001000084190000201700006E
:101610002022000018240000C82400005407000005
:10162000680000006002000005544F533E20FFFF99
:101630008001000084190000201700002022000013
:101640009407000008170000841900008C0B0000AC
:1016500084190000440600000A000000182400005D
:1016600054070000100000000C01000044070000B7
:101670000800000024010000302A00009822000029
:1016800088070000C0FFFFFF1C060000843244559D
:10169000D0FFFFFFF81500009D16000038687A683B
:1016A0003F1F3A603F1F386004CD08CA98470000CA
:1016B000842D4455D0FFFFFF8C160000110600005A
:1016C0002818000054070000080000002818000037
:1016D0001C06000083524FD4B0160000E116000033
:1016E0003A683F1D39683F1D38683F1D3F1F39600C
:1016F0003F1F3A603F1F386004CD08CA984700007A
:1017000081C9FFFFD41600000D17000030683F1F8D
:10171000386004CD08CA9847835350C000170000B2
:101720002517000038463F1F386004CD08CA984787
:10173000835250C0181700003D17000030463F1F6D
:10174000386004CD08CA9847854C454156C5FFFF0F
:1017500030170000591700003268726004CD08CAC3
:10176000984700008252BEFF481700007117000022
:101770003068361D3F1F386004CD08CA9847000006
:1017800081D2FFFF641700008D17000030683F1FF3
:10179000386004CD08CA9847823ED2FF8017000007
:1017A000A517000039683F1D361F316004CD08CAF7
:1017B00098470000844F5645D2FFFFFF981700005E
:1017C000C51700003A683F1D38683F1D3F1F38604D
:1017D0003F1F3A603F1F386004CD08CA9847000099
:1017E0008444524FD0FFFFFFB4170000F1170000F0
:1017F0003F1D04CD08CA984784535741D0FFFFFFCF
:10180000E0170000091800003A683F1D38683F1DC6
:101810003F1F3A603F1F386004CD08CA9847000058
:10182000834455D0F81700002D18000038683F1F7A
:10183000386004CD08CA9847900D0A537461636BF1
:101840002053747566663A0D8AFFFFFF201800006A
:1018500087414E44424954D33818000061180000B3
:1018600004CF39683F1D08681040086004CD08CADD
:101870009847000087534554424954D350180000FC
:101880008518000004CF39683F1D086810430860C0
:1018900004CD08CA9847000087434C52424954D3AC
:1018A00074180000A918000004CF39683F1D0868AB
:1018B0009043086004CD08CA9847000085434D4F07
:1018C00056C5FFFF98180000CD18000039683F1D6D
:1018D0003A683F1D3B683F1D002907D018781070FB
:1018E000491E002902D0521C5B1CF7D104CD08CA46
:1018F000984700008446494CCCFFFFFFBC1800000D
:101900000519000038683F1D39683F1D3A683F1DC2
:10191000002904D08B181070521C9A42FBD104CDC0
:1019200008CA98478545524153C5FFFFF418000087
:101930001106000058220000001900001C060000DB
:1019400086424C414E4BD3FF241900001106000083
:10195000280B0000001900001C060000822BA1FFCC
:10196000401900006919000039683F1D38683F1DA3
:101970000A688018086004CD08CA984781C0FFFF34
:101980005C1900008919000039683F1D08683F1F75
:10199000386004CD08CA98478243C0FF7C19000014
:1019A000A519000039683F1D08783F1F386004CD35
:1019B00008CA984781A1FFFF98190000C1190000CB
:1019C00038683F1D39683F1D016004CD08CA98473B
:1019D0008243A1FFB4190000DD19000038683F1DE3
:1019E00039683F1D017004CD08CA98479F0D0A52FF
:1019F00065616420616E64205772697465204D656D
:101A00006D6F727920576974683A0D8AD019000099
:101A100081DDFFFFEC1900001106000060090000E5
:101A2000C0000000680B00101C060000C1DBFFFFB7
:101A3000101A0000110600006009000000000000FC
:101A4000680B00101C060000C95B434F4D50494C09
:101A500045DDFFFF2C1A00001106000030030000D6
:101A6000C824000044060000FB390000E40E00001A
:101A7000EC170000DC0D0000E00C00001C0600006C
:101A8000C8444C4954455241CCFFFFFF481A00005E
:101A900011060000B40B0000841900005407000078
:101AA0001000000004180000C01A0000C01A000056
:101AB0001C060000C74C4954455241CC801A000016
:101AC00011060000B40B0000841900005407000048
:101AD000100000004C03000044060000E00C000071
:101AE0001C0600008223BEFFB41A0000110600008D
:101AF000EC170000EC1700009801000084190000AA
:101B0000E40B0000C0170000F82300001C060000D2
:101B100084484F4CC4FFFFFFE41A00001106000088
:101B200044060000FFFFFFFF980100006419000059
:101B30009801000084190000D81900001C0600005C
:101B400084534947CEFFFFFF101B00001106000021
:101B5000DC160000EC240000540700001000000018
:101B6000440600002D0000001C1B00001C060000A5
:101B70008223D3FF401B000011060000A41B0000BD
:101B8000C0170000C017000014260000C824000081
:101B900054070000E8FFFFFF1C06000081A3FFFFC1
:101BA000701B0000110600008C0B0000841900005F
:101BB0006C030000DC160000440600000900000071
:101BC000C017000048240000540700001000000067
:101BD0004406000007000000D8230000440600006F
:101BE00030000000D82300001C1B00001C06000071
:101BF000823CA3FF9C1B000011060000600900004E
:101C0000380A00109C0B00101C06000085444F454C
:101C100053BEFFFFF01B0000110600006C17000010
:101C2000A80D00003C0E000028180000DC0D00008C
:101C3000440600007306000004180000BC190000F0
:101C4000BC1900001C060000873C4255494C44D397
:101C50000C1C000011060000941E00001C06000071
:101C6000C52B4C4F4FD0FFFF481C00001106000051
:101C700088220000200200004C03000088070000BA
:101C8000CC0400001C060000C44C4F4FD0FFFFFFE7
:101C9000601C0000110600008822000020020000E5
:101CA0004C03000068070000CC0400001C06000084
:101CB000C244CFFF881C0000110600004C03000046
:101CC00094070000080C0000882200001C06000099
:101CD000C5454E4449C6FFFFB01C00001106000078
:101CE000E40100007822000020020000080C00003F
:101CF000C0170000F823000004180000BC19000001
:101D00001C060000C4544845CEFFFFFFD01C000055
:101D100011060000DC1C00001C060000C4454C53EA
:101D2000C5FFFFFF041D000011060000782200001F
:101D3000200200004C03000044070000080C0000D3
:101D400058220000E00C0000041800007822000077
:101D5000DC1C0000782200001C060000C249C6FFFF
:101D60001C1D0000110600004C0300005407000079
:101D7000080C000058220000E00C0000782200004F
:101D80001C060000C5554E5449CCFFFF5C1D0000E9
:101D90001106000068220000200200004C03000031
:101DA00054070000CC0400001C060000C541474158
:101DB00049CEFFFF841D00001106000068220000CC
:101DC000200200004C03000044070000CC04000087
:101DD0001C060000C65245504541D4FFAC1D000012
:101DE00011060000A0170000A0170000B81D000099
:101DF0006C1700006C17000078220000F823000028
:101E0000DC1C00001C060000C55748494CC5FFFFFC
:101E1000D41D000011060000641D00000422000013
:101E20001C060000C542454749CEFFFF081E0000C2
:101E300011060000E4010000080C00006822000008
:101E40001C060000970D0A496E7369646520436F94
:101E50006C6F6E20574F5244533A0D8A241E000077
:101E600089494D4D4544494154C5FFFF441E00007A
:101E700011060000A80D000044060000400000000C
:101E8000000800001C060000864352454154C5FF6F
:101E9000601E0000110600008806000044060000D5
:101EA0000F000000F8230000EC240000540700009D
:101EB00008000000A00100003003000054070000EB
:101EC00024000000EC170000F80D0000482A000074
:101ED00044060000BF39000064130000D42A00004B
:101EE00078140000080C000028180000F40400001A
:101EF000BC19000028180000A019000044060000CA
:101F00001F000000A4250000B801000028180000F0
:101F1000440600008000000000080000080C0000DB
:101F20004406000080000000000800006822000055
:101F3000780B000064190000A80D0000E00C000000
:101F4000A00B0000BC1900004C0300003906000083
:101F5000080C000020220000E00C00001C0600001D
:101F600088434F4E5354414ED4FFFFFF881E00005C
:101F700011060000841F00001C06000083434FCEA2
:101F8000601F000011060000941E000044060000BF
:101F9000FCFFFFFF780B000064190000E00C00005C
:101FA000E00400001C060000885641524941424CA2
:101FB000C5FFFFFF7C1F000011060000CC1F0000C2
:101FC0001C060000835641D2A81F00001106000025
:101FD000941E000044060000F8FFFFFF780B00008D
:101FE000641900004C0300002D0600006822000068
:101FF000440D0000E00C0000E00400001C0600009E
:10200000C1BBFFFFC41F000011060000AC030000AD
:102010004C0300001C060000341A0000E00400001D
:102020001C060000C1BAFFFF0020000011060000DE
:102030000402000098030000941E0000181A00001B
:1020400044060000F8FFFFFF780B00006419000051
:102050004C030000110600001C060000960D0A4308
:10206000524541544520574F524453205769746894
:102070003A0D8AFF2420000084444142D3FFFFFF31
:102080005C20000011060000281800001405000064
:102090001C06000087444E45474154C57820000087
:1020A000A520000038683F1D3A683F1DC043D24359
:1020B000521C3F1F3A603F1F386004CD08CA984742
:1020C000834450CC9420000039060000980B001087
:1020D00083442ED2C020000011060000A01700008B
:1020E00004180000C017000084200000F81B000046
:1020F000781B00004C1B0000EC1A00006C1700005D
:10210000C0170000F8230000F4290000D42A0000C2
:102110001C0600008244AEFFD02000001106000023
:1021200058220000D8200000302A00001C060000C1
:102130008244ABFF142100003D21000038683F1DA0
:1021400039683F1D3B683F1D3A683F1D5218584192
:102150003F1F3A603F1F386004CD08CA984700000F
:1021600084532D3EC4FFFFFF302100007121000089
:102170003A683F1D4040124300D5401E3F1F3A6061
:102180003F1F386004CD08CA984700008232AAFF7A
:10219000602100009921000038683F1D40003F1F6A
:1021A000386004CD08CA98478232AFFF8C21000006
:1021B000B521000038683F1D40103F1F386004CD36
:1021C00008CA98478231ADFFA8210000D121000044
:1021D00038683F1D401E3F1F386004CD08CA98472D
:1021E0008231ABFFC4210000ED21000038683F1DA3
:1021F000401C3F1F386004CD08CA98478232ABFFAD
:10220000E02100000922000038683F1D801C3F1FAC
:10221000386004CD08CA98478234ABFFFC21000027
:102220002522000038683F1D001D3F1F386004CD87
:1022300008CA98478234ADFF1822000041220000EE
:1022400038683F1D001F3F1F386004CD08CA9847FB
:1022500081B0FFFF342200003906000000000000BA
:1022600081B1FFFF5022000039060000010000008C
:1022700081B2FFFF6022000039060000020000006A
:1022800081B3FFFF70220000390600000300000048
:1022900081B4FFFF80220000390600000400000026
:1022A000824DAAFF9022000011060000981600003F
:1022B00050260000A01700008C2500000418000024
:1022C0008C250000A00800006C1700001405000019
:1022D0001C060000824DAFFFA02200001106000086
:1022E000C0170000A0170000A01700008420000005
:1022F000881700008C250000CC0800006C17000037
:102300008817000050260000FC040000041800009C
:102310006C170000FC040000041800001C060000FC
:1023200081AAFFFFD422000011060000A8220000AD
:10233000EC1700001C060000842F4D4FC4FFFFFF68
:102340002023000011060000A01700006C210000EF
:102350006C170000DC2200001C06000081AFFFFFAC
:102360003823000011060000442300000418000078
:10237000EC1700001C060000834D4FC45C230000D6
:102380001106000044230000EC1700001C060000AA
:10239000852A2F4D4FC4FFFF78230000110600004F
:1023A000A0170000A82200006C170000DC2200002B
:1023B0001C060000822AAFFF9023000011060000D7
:1023C0009C23000004180000EC1700001C0600000D
:1023D00081ABFFFFB4230000DD23000038683F1D00
:1023E00039683F1D40183F1F386004CD08CA984720
:1023F00081ADFFFFD0230000FD23000038683F1DA2
:1024000039683F1D081A3F1F386004CD08CA984735
:1024100081BDFFFFF02300001D240000404039680B
:102420003F1D3A683F1D891A04D03F1F386004CD14
:1024300008CA984701383F1F386004CD08CA98473A
:1024400081BCFFFF102400004D24000040400138F3
:1024500039683F1D3A683F1D914200DC40403F1FF4
:10246000386004CD08CA98478255BCFF402400005C
:10247000110600009816000050260000EC24000011
:102480005407000018000000EC170000EC240000C6
:10249000C8240000440700000C000000F8230000DE
:1024A000EC2400001C06000081BEFFFF6824000031
:1024B0001106000004180000482400001C0600005B
:1024C0008230BDFFA8240000CD24000040403968C0
:1024D0003F1D002900D1401E3F1F386004CD08CAAF
:1024E000984700008230BCFFC0240000F1240000A7
:1024F00039683F1D40400138094300D440403F1F28
:10250000386004CD08CA9847834249CEE4240000CD
:102510001106000060090000020000005C0B0010C2
:102520001C060000834845D808250000110600005D
:1025300060090000100000005C0B00101C06000089
:1025400087444543494D41CC242500001106000035
:10255000600900000A0000005C0B00101C0600006F
:10256000864E45474154C5FF4025000071250000B7
:1025700038683F1DC043401C3F1F386004CD08CA67
:1025800098470000834142D36025000011060000F7
:1025900028180000FC0400001C060000834D49CEF2
:1025A000842500001106000098160000B0240000E9
:1025B000540700000800000004180000EC17000099
:1025C0001C060000834D41D89C2500001106000028
:1025D000981600004824000054070000080000007E
:1025E00004180000EC1700001C06000083414EC4D4
:1025F000C4250000F925000038683F1D39683F1DDB
:1026000008403F1F386004CD08CA9847824FD2FF68
:10261000EC2500001926000038683F1D39683F1D71
:1026200008433F1F386004CD08CA9847834E4FD4F3
:102630000C2600003926000038683F1DC0433F1FAC
:10264000386004CD08CA984783584FD22C26000022
:102650005526000038683F1D39683F1D48403F1F20
:10266000386004CD08CA984784535854C8FFFFFF08
:10267000482600007926000038683F1D00B23F1F41
:10268000386004CD08CA984784535854C2FFFFFFEE
:10269000682600009926000038683F1D40B23F1FA1
:1026A000386004CD08CA984784524556D7FFFFFFCB
:1026B00088260000B926000038683F1D00BA3F1F79
:1026C000386004CD08CA9847834153D2A826000039
:1026D000D52600003A683F1D38683F1D10413F1F56
:1026E000386004CD08CA9847834C53D2C8260000EE
:1026F000F52600003A683F1D38683F1DD0403F1F57
:10270000386004CD08CA9847834C53CCE8260000B3
:10271000152700003A683F1D38683F1D90403F1F55
:10272000386004CD08CA9847822ED2FF08270000DF
:1027300011060000A01700006C2100006C170000BB
:10274000D82000001C060000832E52D52827000048
:1027500011060000A017000058220000F81B00001E
:10276000781B0000EC1A0000281800006C1700000D
:1027700004180000F8230000F4290000D42A000007
:102780001C0600008255AEFF48270000110600001D
:10279000582200001C2100001C06000081BFFFFF22
:1027A000842700001106000084190000BC270000E7
:1027B0001C06000081AEFFFF9C27000011060000F0
:1027C0006C2100001C2100001C060000822EC2FFAC
:1027D000B427000011060000782200003C01000030
:1027E0001C060000822EC8FFCC2700001106000046
:1027F00044060000100000003C0100001C06000020
:10280000822EC4FFE42700001106000044060000E9
:102810000A0000003C0100001C060000910D0A4E59
:10282000554D4245522053747566663A0D8AFFFF36
:10283000002800008A55415254305F494E49D4FF68
:102840001C2800001106000044060000400D001086
:1028500084190000C8240000540700001C00000078
:1028600044060000440D001084190000A017000069
:10287000440700001000000044060000802500000E
:10288000A017000044060000A440044044060000D5
:10289000390000008018000044060000A8400440F1
:1028A000682200008018000060090000010000009C
:1028B0009880044060090000830000000C80004004
:1028C000E035000044060000100000006423000012
:1028D0006C170000642300004406000000010000A3
:1028E000442300008C29000020220000BC190000B5
:1028F0008C290000BC1900006009000003000000E2
:102900000C800040600900000000000008800040CA
:1029100060090000070000000880004064290000F2
:10292000EC1700001C060000864D59424155C4FFBB
:1029300034280000110600006009000000000000BB
:10294000400D001044060000440D0010BC190000AA
:102950001C0600008955415254305F4C53D2FFFF92
:102960002829000069290000034908783F1F3860C2
:1029700004CD08CA98470000148000408855415291
:1029800054305F52D8FFFFFF542900003906000081
:10299000008000408855415254305F54D8FFFFFFFB
:1029A0007C290000390600000080004084584F4612
:1029B000C6FFFFFF94290000BD290000FEF798F82C
:1029C000FEF79EF804CD08CA9847000083584FCE02
:1029D000AC290000D9290000FEF78AF8FEF798F824
:1029E00004CD08CA98470000865350414345D3FFA1
:1029F000CC2900001106000058220000CC25000060
:102A0000BC16000054070000180000005822000007
:102A100094070000302A000068070000F8FFFFFF5D
:102A20001C0600008553504143C5FFFFE829000004
:102A300011060000280B0000282B00001C060000D7
:102A4000834944AE242A0000110600004013000010
:102A5000440600001F000000F4250000D42A0000F6
:102A6000302A00001C060000C22EA2FF402A0000EF
:102A7000110600004406000022000000B40B000014
:102A800084190000540700002C0000004C030000D3
:102A900060020000D40F0000080C0000A019000024
:102AA000E82100005C0C0000B801000044070000B1
:102AB00014000000D40F0000080C000040130000B8
:102AC000D42A00001C06000084545950C5FFFFFFA3
:102AD000682A000011060000BC1600005407000020
:102AE00034000000B8290000C0170000D8230000FF
:102AF000041800009407000008170000B007000049
:102B0000282B000068070000F0FFFFFF44070000CB
:102B100008000000EC1700001C06000084454D4929
:102B2000D4FFFFFFC82A00002D2B000038683F1D8E
:102B3000FDF7DEFF0449087004490868401C08607E
:102B400004CD08CA9847000000800040640B0010C4
:102B5000834B45D91C2B000011060000D42900002E
:102B6000682B00001C0600006D2B0000054A064B78
:102B700019684908FCD310683F1F386004CD08CAA3
:102B8000984700000080004014800040843F4B457F
:102B9000D9FFFFFF502B00009D2B0000FDF7A8FF81
:102BA000FDF7B6FF084B1968490806D340400138C5
:102BB0003F1F386004CD08CA984740403F1F386027
:102BC00004CD08CA9847000014800040834352D3C4
:102BD0008C2B000011060000582200009407000012
:102BE000F82B000068070000F8FFFFFF1C0600003C
:102BF0008243D2FFCC2B00001106000060090000C8
:102C000000000000640B001060020000020D0AFFCB
:102C10001C0600008D0D0A4649534820494F3A0DC5
:102C20008AFFFFFFF02B00008B495251535F524542
:102C300053554DC5142C00003D2C000062B6C04613
:102C400004CD08CA984700008C495251535F535530
:102C50005350454EC4FFFFFF282C0000612C00009C
:102C600072B6C04604CD08CA984700008F53595326
:102C70005449434B5F4952515F4F46C6482C0000B0
:102C8000852C000002490520086004CD08CA984739
:102C900010E000E08E5359535449434B5F49525161
:102CA0005F4FCEFF6C2C0000AD2C000002490720C6
:102CB000086004CD08CA984710E000E08F0D0A496B
:102CC0004E54455252555054533A0D8A942C00009C
:102CD0008A464C4153485F534156C5FFBC2C000007
:102CE00011060000A80D0000F83400004824000080
:102CF0005407000020000000F82B000060020000D4
:102D00000F4E4F5448494E4720544F20534156458B
:102D10001C060000F42D0000841900004406000089
:102D20000080000018240000540700002800000064
:102D3000F82B000060020000144C41535420464C14
:102D400041534820504147452055534544FFFFFF1C
:102D50001C060000D4290000540B00008419000058
:102D6000042E0000BC190000A80D00000C2E00006D
:102D7000FC2D0000BC190000A80D0000F834000074
:102D800018240000540700005C00000044310000DB
:102D9000F8340000780B0000BC190000042E00007D
:102DA00084190000540B0000BC190000FC2D000029
:102DB00084190000A00B0000BC19000044060000AC
:102DC00000100000F42D00006419000084310000A0
:102DD000F82B000020340000F8330000D429000054
:102DE0001C060000A80D0000302E00004407000063
:102DF00088FFFFFF390600000400001039060000BC
:102E000008000010390600000C000010112E000010
:102E100038683F1D044A1040044A126880183F1F5A
:102E2000386004CD08CA9847FF0F00000400001066
:102E3000110600003C0E000028180000A01700003A
:102E4000DC0D000028180000841900004406000072
:102E5000730600001824000054070000280000003A
:102E60002022000028180000281800008419000003
:102E70000C2E000004180000BC19000044070000DC
:102E8000000100002818000084190000440600001A
:102E90003906000018240000C01700008419000043
:102EA000440600002D06000018240000142600002F
:102EB0005407000010000000EC1700004407000059
:102EC000C40000002022000028180000841900001F
:102ED00044060000440600001824000054070000C7
:102EE000100000002022000044070000D8FFFFFF70
:102EF0002818000084190000440600006002000049
:102F000018240000540700002000000028180000CA
:102F100020220000A0190000D82300005C0C000053
:102F200044070000A0FFFFFF2818000084190000DC
:102F3000440600001C06000018240000C8240000FD
:102F4000540700003C00000028180000841900000D
:102F5000F8340000B02400005407000068FFFFFFB1
:102F60002818000028180000841900000C2E00000A
:102F700004180000BC1900004407000048FFFFFFD0
:102F8000EC1700006C170000C00D000028180000AE
:102F90008419000028180000A00B0000BC190000D4
:102FA0000C2E000004180000BC1900001C060000D4
:102FB000B52F00000648074932220260064B1A6806
:102FC000120B42608260054B984704CD08CA9847AF
:102FD000A00B0010F00B001004000010F11FFF1FE9
:102FE000E52F00000748084934220260074B1A68A1
:102FF000120B42608260064AC260064B984704CDBD
:1030000008CA9847A00B0010F00B00100400001035
:1030100080BB0000F11FFF1F1D3000000848094958
:1030200033220260084A12684260084A8260084AF5
:10303000C260084A0261084B984704CD08CA984705
:10304000A00B0010F00B0010040000100000001096
:103050000010000080BB0000F11FFF1F8C464C4198
:1030600053485F464F524745D4FFFFFFD02C000026
:1030700011060000B82900006009000000400000AF
:1030800004000010F42D0000841900004406000024
:103090000080000018240000C8240000540700002D
:1030A0002C0000005C2C0000B02F0000E02F00007E
:1030B000382C00004406000000100000F42D000031
:1030C0006419000044070000BCFFFFFF0C3500003E
:1030D000A80D0000B02400005407000010000000FC
:1030E00078380000440700001C000000440600007F
:1030F000D8380000F83400003C0E0000C00D00007D
:10310000BC1900006009000000400000040000102D
:10311000440600001111111128180000FC2D0000B8
:10312000BC190000042E0000BC190000843100000E
:10313000F82B000020340000F8330000D4290000F0
:103140001C06000011060000080C000044060000E8
:10315000370A0010080C0000F823000044060000A5
:10316000FF000000001900005C2C0000B02F0000E0
:10317000E02F0000B02F000018300000382C0000B5
:103180001C0600001106000044060000004000007C
:1031900028180000F42D0000BC19000028180000B9
:1031A000A017000084190000E0350000182400007A
:1031B000540700007C00000088170000440600004F
:1031C00008000000D823000028180000841900001F
:1031D000A00B0000BC190000202200008419000090
:1031E000540B0000BC190000F82B00006002000026
:1031F00017414444454420574F5244532046524FB0
:103200004D205041474520FF88170000EC27000063
:10321000881700004406000000100000D8230000BA
:10322000F42D0000BC190000440700000C00000051
:10323000881700008C320000881700004406000048
:1032400000100000D82300002818000044060000E9
:1032500000800000F8230000540700002000000058
:10326000EC1700006C17000044060000001000007E
:10327000D82300004407000024FFFFFFEC170000E4
:103280006C170000EC1700001C060000110600007F
:10329000281800004406000000100000D823000099
:1032A000A01700002818000084190000E821000081
:1032B00054070000480000005C2C0000B02F000004
:1032C000E02F0000382C0000F82B00006002000006
:1032D000174552415345442042414420464C4153F6
:1032E0004820504147452020EC270000EC17000003
:1032F0006C170000EC1700001C06000020220000E4
:103300002818000028180000881700000418000082
:10331000F8230000540700000C00000044070000E0
:1033200088FFFFFFF82B0000600200000E464C41B2
:1033300053482050414745204F4B20FFEC170000D9
:103340004406000000100000F8230000EC270000F5
:103350006C170000EC1700001C06000084504F465C
:10336000C6FFFFFF5C30000011060000600900008E
:10337000000000008C0B00101C06000083504FCE94
:103380005C33000011060000600900008E0A000096
:103390008C0B00101C06000081D0FFFF7C33000066
:1033A000390600008C0B00108545484F46C6FFFFCC
:1033B0009833000011060000582200004406000067
:1033C000900B0010BC1900001C0600008445484FFB
:1033D000CEFFFFFFA83300001106000068220000A6
:1033E00044060000900B0010BC1900001C060000F1
:1033F000832E44D3CC330000110600008806000061
:10340000082800004406000014390000641300007E
:10341000D42A00001C060000832E56D3F03300008F
:1034200011060000A8060000982200006423000096
:103430000828000044060000093900006413000059
:10344000D42A00001C0600008444554DD0FFFFFF25
:103450001834000011060000C0170000840E0000A0
:10346000380900002C2500005822000094070000B5
:10347000F82B000028180000440600000A00000095
:1034800050270000982200005822000094070000F6
:103490002818000084190000440600000E000000F7
:1034A000502700002022000068070000E4FFFFFF13
:1034B000982B00005407000008000000541700007B
:1034C00068070000ACFFFFFFEC170000F82B0000BE
:1034D0004C0900001C0600008556424153C5FFFF01
:1034E0004834000039060000FC0A001085444241BF
:1034F00053C5FFFFD834000039060000100000104B
:103500008552424153C5FFFFEC34000039060000EC
:103510000000001083434CD300350000110600006A
:1035200060020000041B5B324AFFFFFF60020000E4
:10353000041B5B3B48FFFFFFF82B00001C0600004C
:10354000C1A8FFFF1435000011060000440600006A
:1035500029000000C8070000C8240000540700002C
:1035600034000000F82B00004406000010000000AA
:10357000282B00008802000044060000990A001071
:10358000A0190000540700001000000044070000CC
:10359000BCFFFFFF1C0600004406000026390000A7
:1035A00064130000D42A00001C060000C1DCFFFFE9
:1035B000403500001106000058220000F40B000006
:1035C000D40B000084190000D8230000D819000093
:1035D0001C06000086535953434CCBFFAC3500000A
:1035E000E5350000034908683F1F386004CD08CA6C
:1035F00098470000000000108553544354D2FFFF49
:10360000D435000039060000F80A00108544454C06
:1036100041D9FFFFF83500001D36000039683F1D15
:1036200038683F1D0A4CC043401C2060094A1160A5
:10363000094A1160002806D0084A10680721116065
:1036400021680029FCD1106004CD08CA9847000009
:10365000F80A001014E000E018E000E010E000E0DC
:10366000824DD3FF0C360000110600004406000016
:103670007FBB0000183600001C06000087574F5221
:10368000444341D46036000011060000080C0000DD
:10369000A017000058220000080D0000440600009A
:1036A0000D000000080D0000080C0000440600009A
:1036B0000D000000D40F000028180000A019000021
:1036C000440600000A000000DC160000D8190000C3
:1036D00028180000E8210000240C00004406000027
:1036E00084000000D823000088170000D8190000CB
:1036F000440600000D000000080D00004406000014
:103700008A000000080D0000840C0000A80D0000D5
:10371000E00C00006C17000044060000880B00104D
:10372000BC1900001C06000085574F5244D3FFFF10
:103730007C3600001106000088220000F4290000F9
:10374000A80D0000B829000058220000C017000092
:10375000E8210000A0190000440600000D00000050
:1037600018240000C8240000540700001C000000BA
:10377000EC170000281800003C0E0000C00D0000EF
:10378000C0170000F8230000C40B000084190000DB
:10379000D8230000440600004A000000B0240000C6
:1037A0005407000010000000F82B000088220000E1
:1037B000F429000028180000680B0000841900009C
:1037C00048240000540700000C00000044070000DB
:1037D0005C00000028180000482A00007822000041
:1037E000F429000028180000E8210000A0190000BA
:1037F000440600000D0000001824000054070000DB
:10380000100000006009000000000000640B0010C0
:103810003C0E0000C00D00008419000028180000B4
:10382000C82400005407000020FFFFFFEC17000031
:10383000F82B00001C060000874D59574F5244D307
:103840002837000011060000600900000040000059
:10385000840B0010343700006009000000000000F5
:10386000840B00101C06000089464953485F4F4EE8
:103870004CD9FFFF383800007D3800000749084C5C
:103880002160084C21600849084C2160084C2160E7
:103890000849094C216004CD08CA9847D83800006F
:1038A000880B001008000010FC0A0010780B0010B4
:1038B0000C000010100000107C0B001084464953CF
:1038C000C8FFFFFF683800001106000084310000C7
:1038D0002C05000078140000990D0A464953482031
:1038E0005265666572656E6365204D6F64656C3AFE
:1038F0000D8AFFFFBC3800000352554E2000203FC8
:103900002000203C43523E20005641522043454C6B
:103910004C53200044494354494F4E415259204290
:1039200059544553200020434F4D4D454E54204C93
:10393000494E452043414E4E4F5420424520454D6F
:103940005054592015002043414E5420464F5247B1
:103950004554204649534820494E20464C4153483F
:1039600020150020494E20464C415348202D20531D
:10397000454520464C4153485F464F5247455420E9
:1039800015002044494354494F4E41525920465551
:103990004C4C202D20534545202E4453201500200B
:1039A00052414D20564152205350414345204655E7
:1039B0004C4C202D20534545202E565320150020D9
:1039C000495320414C524541445920444546494EB3
:1039D0004544201500203F204E4F5420574F52445D
:1039E000201500203F204E4F5420574F5244204F67
:1039F00052204E554D42455220150020434155530B
:103A00004544204120535441434B204552524F528C
:103A100020150020535441434B204552524F522011
:103A20005748494C4520455845435554494E472031
:103A30004F5220434F4D50494C494E4720150020CE
:103A40004552524F52202D204E4F5420434F4D503F
:103A5000494C494E47201500204552524F52202DC7
:103A6000204558454355544544205748494C452026
:103A7000434F4D50494C494E472015001106000058
:103A8000600900000000000014E000E06009000090
:103A90000000000018E000E06009000007000000DE
:103AA00010E000E0600900005F1801008080044021
:103AB0006009000070ED00003882044060090000D9
:103AC0000000000040800440600900000000000089
:103AD000448004406009000001000000448004406C
:103AE0006009000003000000088004404406000054
:103AF0000C8004408419000068220000F4250000B6
:103B000054070000E8FFFFFF600900000300000009
:103B100070800440600900000000000074800440D0
:103B2000600900000100000074800440600900008A
:103B3000006CDC02000000101C060000D0B5040080
:103B400016001F00300039002200E31700F007F8CC
:103B5000300039002200E31700F001F8D0BD30B486
:103B6000DC0F03D05B42524200D25B1E0D106C4052
:103B700013D0F446002502D349424042A94100F047
:103B80000DF8E40703D35B425242AB41244202D515
:103B900049424042A94130BC604730BC124224D067
:103BA000994228D970B500251B4202D00C00002193
:103BB00009E00024012649186441944200D3A41A64
:103BC0007641F8D33100012601E0764109D2001890
:103BD00064416D41A41A9D41F7D2A4185D41B61904
:103BE000F5D3300022002B0070BD1B42D8D108B5A0
:103BF000C046C04608BD01D19042D3D202000B009E
:103C0000002100207047000000B5BFF34F8F03482C
:103C100003490860BFF34F8FFEE700000400FA0578
:103C20000CED00E000B5FEE780B5FFF7EDFF01BD4C
:103C300000B5FEE700B5FEE700B5FEE700B5FEE71C
:103C400000B5FEE700B5FEE780B5FCF7CDFE01BD8F
:023C50007047BB
:0400000500003C516A
:00000001FF
