:10000000480D001055080000C5390000C93900002E
:10001000D1390000D5390000D939000056C9FEEFAA
:10002000000000000000000000000000DD390000BA
:10003000E139000000000000E5390000E939000066
:10004000050500003805000007000000D428000066
:10005000100500002D050000080000000505000047
:1000600054000000D4280000DC27000054000000E9
:10007000D428000038050000FDFFFFFF200A000023
:1000800080170000100500002D0500006C0B00100B
:100090002D050000700B00102D050000940B0010C2
:1000A0002D0500009C0B0010050500003805000020
:1000B0000A370000B011000080280000C4120000C0
:1000C00005050000D409000080170000100500009D
:1000D00005050000E00A0000640A0000D8170000CF
:1000E000B4200000C000000010050000050500005D
:1000F000100A0000A0170000E422000038050000EC
:10010000C7370000400D0000100500000505000085
:10011000100A0000A017000038050000E0370000BA
:10012000400D00001005000005050000142200002D
:10013000380500009B370000400D0000100500004E
:10014000050500003C15000088000000A017000015
:10015000201600008C2200003805000083370000C4
:10016000400D000010050000050500008815000086
:10017000441600008C110000802800008C11000043
:10018000F4210000B80A0000BC15000010050000B2
:1001900005050000500A0000380500005E00000060
:1001A000501000004408000001000000600B001027
:1001B00010050000050500000420000044160000A2
:1001C000BC150000BC170000E8090000A0170000E3
:1001D000700D0000480600005800000020160000C6
:1001E000E8090000A01700009407000008160000AE
:1001F000F8140000E8090000A017000094070000B0
:10020000541F0000E41E0000A0170000042000009E
:10021000480600001000000084200000E41E0000DA
:100220008017000088150000380600008CFFFFFFD3
:10023000881500001005000005050000A009000059
:10024000300E0000640A0000040C0000BC05000031
:100250001005000005050000881500004416000088
:100260003C200000BC150000A0170000D0000000DA
:100270001005000005050000BC15000074200000FA
:10028000A4150000B8070000881500002016000023
:10029000BC150000B807000088150000100500001C
:1002A000050500003C15000098000000D81700006C
:1002B00010050000050500003C1500009800000036
:1002C000A01700001422000038050000833700004A
:1002D000400D000010050000050500003802000078
:1002E000480600003C000000100A0000A0170000B3
:1002F000642200004806000014000000380C0000D2
:10030000D0000000380600000C000000380C00008F
:10031000540900004001000038060000C0FFFFFF44
:10032000640A0000A80E0000E41E0000A0170000F0
:10033000042000004806000010000000AC18000077
:10034000380600000C00000008160000DC18000051
:10035000400100003806000084FFFFFF0505000093
:1003600050180000F4070000080800009001000089
:10037000D8020000100A0000A0170000E4220000CC
:100380004806000044000000380500008C0B0010F7
:10039000A0170000480600003000000038050000EB
:1003A0008C0B0010A0170000B01100008028000086
:1003B0001C080000E8090000A017000068230000E6
:1003C000D8250000300800003805000010000000AB
:1003D000D4280000A4290000380600008CFFFFFF8D
:1003E00005050000640A0000142200003C0B000018
:1003F0001005000005050000440800000000000092
:10040000800B0010100500002D050000800B00106F
:100410000505000008230000480600000800000051
:1004200088230000100500000505000008230000D7
:100430004806000008000000BC1E00001005000077
:1004400005050000A429000038050000DC080000B4
:10045000B011000080280000A42900001005000051
:1004600005050000E0040000082F00001005000052
:100470000505000020160000DC150000F421000036
:10048000380500007F000000DC150000BC170000EC
:100490006422000048060000E0FFFFFF2016000075
:1004A00008160000100500000A000000010000000E
:1004B0000000000000000000F00F0010700F00109E
:1004C000980A0010FC0A0010100000100000000044
:1004D0000000000060360000180900000000000065
:1004E000E5040000054806490E2203680B6004304D
:1004F0000431013AF9D104CD08CA9847A804000094
:100500005C0B0010361F3560154604CD08CA9847AD
:10051000150500003568361D04CD08CA984700004F
:1005200001CA3F1F386004CD08CA984701CA3F1F5F
:10053000386004CD08CA98473D05000001CD3F1F33
:10054000386004CD08CA98474D05000001CD3F1F13
:10055000386004CD08CA98475D0500003D683F1D1E
:1005600004CD08CA98470000361F3560456808303A
:100570003F1F386004CD08CA98470000810500007D
:10058000044805490968401A3F1F386004CD08CA6D
:1005900098470000380A00107C0B0010A1050000ED
:1005A000044805490968401A3F1F386004CD08CA4D
:1005B000984700005C0B0010780B0010C10500008C
:1005C0003B683F1D3A683F1D93465A46187884465B
:1005D000117848403F24204019D1521C5B1C1878E8
:1005E00011788842F9D08024001B884210D15B1C0E
:1005F0001878FF28FBD008333F1F3B60012062467C
:100600003F1F3A603F1F386004CD08CA98475B1C03
:10061000187880242042FAD01B1D064803401B682E
:10062000002B00D0D1E700203F1F386004CD08CA5E
:1006300098470000FCFFFFFF3D0600002B68ED1807
:1006400004CD08CA984700004D06000038683F1DD9
:100650000028F3D02D1D04CD08CA9847610600007C
:10066000012374683268944203D0D2183260A41A0D
:10067000E4D108362D1D04CD08CA98478106000034
:100680003B683F1DEDE700008D06000038683F1D08
:100690003A683F1D361F3260361F306004CD08CAED
:1006A00098470000A906000038683F1D00787F21A8
:1006B00008403F1F386004CD08CA9847C1060000B3
:1006C00039683F1D094A9246094B1C681219107877
:1006D0000132884201D00028F9D15446121B1A7009
:1006E0003F1F386004CD08CA98470000980A0010E0
:1006F000600B0010F906000039683F1D3A683F1D85
:1007000010784840107004CD08CA984711070000BF
:100710000A21884205D138683F1D0D203F1F3860EF
:1007200002E00D21884203D100F01EF900F024F907
:1007300004CD08CA984700003D07000038680178DA
:1007400001290FD0022910D001440A78622A12D060
:10075000252A10D0642A10D0232A0ED0682A0ED061
:10076000242A0CD004CD08CA984742782E2AEBD10F
:1007700004CD08CA9847022402E00A2400E01024AD
:1007800000220A70024A146004CD08CA984700008B
:100790005C0B00109907000038683F1D39683F1D49
:1007A0004843C117024608463F1F3A603F1F386062
:1007B00004CD08CA98470000BD07000038683F1DF7
:1007C0003B683F1D3A683F1D002808D003F086F8BB
:1007D0003F1F3A603F1F386004CD08CA9847404029
:1007E000401E02463F1F3A603F1F386004CD08CAD2
:1007F00098470000F9070000024A176804CD08CAAC
:10080000984700006C0B00100D080000024A1668A3
:1008100004CD08CA98470000700B001021080000A2
:10082000024A11688C4604CD08CA98475C0B001038
:1008300035080000024A6146116004CD08CA984795
:100840005C0B00104908000002CD04CD116004CDFE
:1008500008CA98470A490B480B4C0160001DA0428A
:10086000FBD30A480A4C0160001DA042FBD3094F8C
:10087000094E0AA5361F356004CD08CA9847000006
:100880001111111100000010400D0010EC0E0010AD
:1008900000100010F00F0010700F0010E0040000B6
:1008A0000438000030260000A429000038050000AC
:1008B000FB000000D428000038050000F70000000D
:1008C000D4280000CC13000008CA9F4603B5024993
:1008D00008680130086003BDF80A00104649534813
:1008E0002041524D204C504338313220313678343B
:1008F000524D2053524D2056312E37202843293255
:100900003031342D3230313520412D5445414D2088
:10091000464F525448203A20206F6B2C20676F209E
:100920006669736820696E204241534520000000CB
:10093000844E4F4FD0FFFFFF000000004109000030
:1009400004CD08CA9847000087455845435554C50B
:10095000300900005909000000F006F800F00CF81A
:1009600004CF08CA984700007246024C2168C908A3
:10097000FCD31047084006407246024913240C700D
:10098000104700001C4006407246024911240C70BA
:10099000104700001C4006408242CCFF480900007E
:1009A0002D050000200000008255D0FF98090000AE
:1009B0002D050000780B00108546454E43C5FFFF0E
:1009C000A80900002D050000840B00108244D0FF10
:1009D000B80900002D0500007C0B00108442415333
:1009E000C5FFFFFFCC0900002D0500005C0B0010C7
:1009F0008743555252454ED4DC0900002D050000B6
:100A0000880B00108553544154C5FFFFF0090000C6
:100A10002D050000680B0010834F55D4040A000018
:100A20002D050000640B00108249CEFF180A00005B
:100A30002D050000600B0010835041C4280A0000FF
:100A40002D050000380A0010835449C2380A0000FE
:100A50002D050000980A001084484552C5FFFFFF8D
:100A6000480A000005050000D4090000A017000096
:100A70001005000085414C4C4FD4FFFF580A000080
:100A8000050500007C050000DC15000014220000B4
:100A9000082300004806000008000000A80000002D
:100AA000D4090000801700001005000087414C4960
:100AB000474E45C4740A0000BD0A000038683F1D57
:100AC000C01C034908403F1F386004CD08CA98473E
:100AD000FCFFFFFF85414C4947CEFFFFAC0A0000F9
:100AE00005050000640A0000A4200000F4210000B5
:100AF00044160000BC150000640A000088060000CF
:100B000038050000FF00000024150000F417000065
:100B10005C060000ECFFFFFF8815000038050000B0
:100B2000FCFFFFFF10240000D4090000D8170000CC
:100B30001005000081ACFFFFD40A0000050500008D
:100B40007C050000082300004806000008000000A3
:100B5000A8000000D0000000100500008243ACFF98
:100B6000340B0000050500007C0500000823000090
:100B70004806000008000000A8000000640A000009
:100B8000F417000084200000C000000010050000E1
:100B900088564152414C4C4FD4FFFFFF5C0B000084
:100BA000050500009C050000B42000008021000025
:100BB000DC15000014220000082300004806000095
:100BC000180000003805000027370000B0110000B1
:100BD00080280000C4120000B0090000A017000027
:100BE00020160000B420000044210000B0090000DD
:100BF0008017000010050000864C41544553D4FF77
:100C0000900B000005050000FC090000A017000083
:100C100010050000834C46C1F80B0000210C0000B9
:100C200038683F1D08383F1F386004CD08CA984710
:100C3000834346C1140C00003D0C000038683F1D82
:100C4000001F3F1F386004CD08CA9847834E46C135
:100C5000300C0000050500005400000014220000C4
:100C6000E81F000044160000BC1700003805000013
:100C7000FF0000001422000048060000E4FFFFFF10
:100C800038050000FFFFFFFF7004000010050000A2
:100C9000835046C14C0C0000050500008420000074
:100CA000700400000420000044160000BC1700007F
:100CB00038050000FF000000142200004806000074
:100CC000E4FFFFFF54000000F421000010050000C5
:100CD000883F414C49474E45C4FFFFFF900C000040
:100CE0000505000038050000030000001024000086
:100CF000480600003C000000680100002E56414CF0
:100D00005545204D555354204245204556454E20CB
:100D10004E4F54204F444420414E44204D554C5496
:100D200049504C45204F4620342120FFC41200007A
:100D300010050000863F4552524FD2FFD00C0000F4
:100D40000505000020160000480600001000000005
:100D5000A80F000038060000080000000816000078
:100D6000100500008544494749D4FFFF340D0000B9
:100D7000750D00003A683F1D38683F1D30380FD4AC
:100D8000092802DDC01F0A280ADB904208DA024661
:100D900001203F1F3A603F1F386004CD08CA9847C2
:100DA00000203F1F386004CD08CA984787454E434E
:100DB0004C4F53C5640D0000BD0D000038683F1D49
:100DC00039680022521E491E491C521C0B78984259
:100DD000FAD03F1F3A60002B08D11846521C3F1F23
:100DE0003A603F1F386004CD08CA9847491C521C1E
:100DF0000B78984201D0002BF8D11046401C3F1FC1
:100E00003A603F1F386004CD08CA9847C180FFFF91
:100E1000AC0D0000190E00003568361D04CD08CA5F
:100E20009847000084574F52C4FFFFFF0C0E00008C
:100E300005050000500A0000300A0000A01700005D
:100E4000F421000020160000B80D0000300A000058
:100E500080170000DC15000014220000BC15000003
:100E6000A4150000640A0000F4170000F42100003B
:100E7000640A000004200000A4150000E41600002D
:100E800074200000640A000004200000881500009F
:100E9000F4210000F417000010050000864E554DA7
:100EA0004245D2FF240E0000050500001C0800008A
:100EB000380700007420000074200000F8140000BF
:100EC0004416000004200000BC1700003805000094
:100ED0002D000000342200008420000010240000B7
:100EE00044160000BC150000F42100003805000085
:100EF000FFFFFFFFE41E0000D8170000B401000050
:100F000044160000BC1700007420000014220000EA
:100F1000480600006C00000044160000BC170000EA
:100F2000380500002E0000001422000048060000D2
:100F30004400000044160000BC1700003805000003
:100F40002C000000342200004806000014000000BD
:100F500038050000FFFFFFFF3806000098FFFFFF85
:100F60003008000084200000380500006B370000C6
:100F7000400D0000742000003806000078FFFFFFDD
:100F80000816000088150000480600000800000050
:100F9000BC1E0000300800001005000085455252BC
:100FA0004FD2FFFF9C0E000005050000640A000000
:100FB0008C11000080280000B01100008028000083
:100FC00064270000100A0000A01700004806000077
:100FD0004000000008040000A017000048060000C0
:100FE0003000000008040000A0170000980C00006A
:100FF0001C0C0000A0170000FC090000D81700001E
:1010000008040000A0170000D4090000D817000051
:10101000F4030000C4120000C1A7FFFF9C0F0000F2
:101020000505000038020000E42200003805000039
:101030005D370000400D000008160000DC180000BD
:1010400010050000864558504543D4FF1810000095
:101050000505000004200000DC150000F42100005C
:10106000DC15000004200000802700008806000036
:10107000142900000C070000441600003805000089
:101080000900000034220000480600000C000000A7
:1010900008160000A00900004416000054000000DB
:1010A00034220000DC150000380500007F0000003D
:1010B00034220000302400004806000050000000E8
:1010C000081600004416000024150000E81F000068
:1010D000342200004416000088150000942000000F
:1010E00014220000F4210000BC1500004806000096
:1010F0001000000040000000380600006000000002
:101100005C00000038060000540000004416000097
:10111000380500000D0000003422000048060000E1
:101120001C0000007015000008160000A009000057
:10113000742000003806000008000000441600007B
:1011400024150000F417000074200000241500008E
:1011500004200000F4170000D42800005C06000002
:1011600010FFFFFF6427000004200000B011000002
:1011700020160000E81F0000F41700001005000012
:1011800085434F554ED4FFFF441000000505000075
:10119000441600000420000020160000BC170000C8
:1011A0001005000084244C45CEFFFFFF8011000095
:1011B000B51100003A684040115C094301D0401C61
:1011C000FAE73F1F386004CD08CA984786464F5259
:1011D0004745D4FFA41100000505000020100000C1
:1011E00044160000380500000038000064220000AA
:1011F00038050000CE360000400D00004416000007
:10120000380500000040000064220000380500009E
:10121000EB360000400D0000441600001C0C0000DE
:10122000BC150000040C0000980C00001C0C000011
:1012300044160000A0170000FC090000D8170000A9
:10124000441600003C200000A017000038050000F4
:1012500021050000342200004806000014000000B0
:1012600038050000FCFFFFFFB009000080170000F8
:10127000A41500003422000048060000A8FFFFFF6C
:1012800088150000A0170000FC090000D817000016
:10129000540C0000D4090000D8170000B031000041
:1012A0007C31000010050000834259C5CC110000BC
:1012B000B5120000FFF7CEFA8541424F52D4FFFF2E
:1012C000A812000005050000F4070000080800004F
:1012D0004408000000000000640B00103805000006
:1012E00080360000040C0000BC0500004806000029
:1012F0001000000008160000380C0000540900001F
:1013000038050000900B0010A017000048060000F0
:101310006C0000003805000080130000B0110000D0
:10132000802800004429000048060000F8FFFFFF65
:10133000142900003805000043000000342200009A
:1013400048060000E0FFFFFF1429000038050000F8
:101350004F0000003422000048060000C8FFFFFFD5
:1013600014290000380500000D00000034220000A0
:1013700048060000B0FFFFFFA42900005C03000046
:10138000204572726F722048616C74202845484F66
:101390004E2F45484F464629202D20546F20434F5D
:1013A0006E74696E7565205479706520434F2074A2
:1013B00068656E20456E7465723A20005C0300001B
:1013C00084434F4CC4FFFFFFB81200000505000026
:1013D00060040000400400005C030000900D0A4619
:1013E0004953482053797374656D3A0D8AFFFFFFA6
:1013F000C0130000832E53C8DC1300000505000055
:101400001C080000482300001C14000030080000E5
:1014100010050000822ED3FFF41300000505000024
:1014200088000000A01700003C1500003C200000D0
:1014300034220000E422000048060000680000009A
:101440006801000005544F533E20FFFF8800000054
:10145000A01700003C1500003C200000880600009A
:1014600024150000A0170000E8090000A0170000E4
:10147000380500000A000000342200004806000081
:1014800010000000D8250000380600000800000009
:10149000A8250000DC270000B42000007C06000026
:1014A000C0FFFFFF1005000084324455D0FFFFFF4E
:1014B00014140000B914000038687A683F1F3A60BD
:1014C0003F1F386004CD08CA98470000842D44555A
:1014D000D0FFFFFFA814000005050000441600001F
:1014E0004806000008000000441600001005000037
:1014F00083524FD4CC140000FD1400003A683F1D05
:1015000039683F1D38683F1D3F1F39603F1F3A60F3
:101510003F1F386004CD08CA9847000081C9FFFF0B
:10152000F01400002915000030683F1F386004CD1A
:1015300008CA9847835350C01C150000411500008D
:1015400038463F1F386004CD08CA9847835250C0C0
:10155000341500005915000030463F1F386004CD97
:1015600008CA9847854C454156C5FFFF4C150000F9
:10157000751500003268726004CD08CA98470000F3
:101580008252BEFF641500008D1500003068361DC4
:101590003F1F386004CD08CA9847000081D2FFFF82
:1015A00080150000A915000030683F1F386004CD89
:1015B00008CA9847823ED2FF9C150000C115000062
:1015C00039683F1D361F316004CD08CA98470000B6
:1015D000844F5645D2FFFFFFB4150000E11500000F
:1015E0003A683F1D38683F1D3F1F38603F1F3A6013
:1015F0003F1F386004CD08CA984700008444524F0A
:10160000D0FFFFFFD01500000D1600003F1D04CDD8
:1016100008CA984784535741D0FFFFFFFC150000CC
:10162000251600003A683F1D38683F1D3F1F3A608D
:101630003F1F386004CD08CA98470000834455D046
:10164000141600004916000038683F1F386004CDAA
:1016500008CA9847900D0A537461636B20537475E0
:1016600066663A0D8AFFFFFF3C16000087414E4434
:10167000424954D3541600007D16000004CF396847
:101680003F1D08681040086004CD08CA9847000054
:1016900087534554424954D36C160000A1160000EC
:1016A00004CF39683F1D08681043086004CD08CA9C
:1016B0009847000087434C52424954D3901600008B
:1016C000C516000004CF39683F1D086890430860C4
:1016D00004CD08CA9847000085434D4F56C5FFFF0B
:1016E000B4160000E916000039683F1D3A683F1D36
:1016F0003B683F1D002907D018781070491E00294B
:1017000002D0521C5B1CF7D104CD08CA98470000D8
:101710008446494CCCFFFFFFD8160000211700007B
:1017200038683F1D39683F1D3A683F1D002904D0C5
:101730008B181070521C9A42FBD104CD08CA9847EE
:101740008545524153C5FFFF1017000005050000F5
:10175000742000001C1700001005000086424C4158
:101760004E4BD3FF4017000005050000A009000004
:101770001C17000010050000822BA1FF5C17000061
:101780008517000039683F1D38683F1D0A688018BA
:10179000086004CD08CA984781C0FFFF7817000091
:1017A000A517000039683F1D08683F1F386004CD49
:1017B00008CA98478243C0FF98170000C11700006D
:1017C00039683F1D08783F1F386004CD08CA984724
:1017D00081A1FFFFB4170000DD17000038683F1D2E
:1017E00039683F1D016004CD08CA98478243A1FFB4
:1017F000D0170000F917000038683F1D39683F1DF9
:10180000017004CD08CA98479F0D0A526561642093
:10181000616E64205772697465204D656D6F7279D1
:1018200020576974683A0D8AEC17000081DDFFFFCC
:10183000081800000505000044080000C000000072
:10184000680B001010050000C1DBFFFF2C18000022
:10185000050500004408000000000000680B0010AF
:1018600010050000C95B434F4D50494C45DDFFFF5B
:10187000481800000505000038020000E4220000BE
:101880003805000083370000400D000008160000F6
:10189000380C00003C0B000010050000C8444C4907
:1018A00054455241CCFFFFFF6418000005050000BD
:1018B000100A0000A01700004806000010000000F9
:1018C00020160000DC180000DC18000010050000E5
:1018D000C74C4954455241CC9C18000005050000F6
:1018E000100A0000A01700004806000010000000C9
:1018F00054020000380500003C0B000010050000F9
:101900008223BEFFD0180000050500000816000065
:1019100008160000A0000000A0170000400A000008
:10192000DC150000142200001005000084484F4C14
:10193000C4FFFFFF00190000050500003805000086
:10194000FFFFFFFFA000000080170000A0000000C4
:10195000A0170000F4170000100500008453494749
:10196000CEFFFFFF2C19000005050000F814000051
:1019700008230000480600001000000038050000A1
:101980002D00000038190000100500008223D3FF4D
:101990005C19000005050000C0190000DC150000FE
:1019A000DC15000030240000E4220000480600009E
:1019B000E8FFFFFF1005000081A3FFFF8C19000066
:1019C00005050000E8090000A017000074020000EF
:1019D000F81400003805000009000000DC150000C4
:1019E00064220000480600001000000038050000D6
:1019F00007000000F421000038050000300000005E
:101A0000F42100003819000010050000823CA3FFFB
:101A1000B81900000505000044080000380A00104D
:101A20009C0B00101005000085444F4553BEFFFF7E
:101A30000C1A00000505000088150000040C0000C9
:101A4000980C000044160000380C00003805000017
:101A50006705000020160000D8170000D817000006
:101A600010050000873C4255494C44D3281A000019
:101A700005050000B01C000010050000C52B4C4FF0
:101A80004FD0FFFF641A000005050000A4200000ED
:101A900028010000540200007C060000E003000062
:101AA00010050000C44C4F4FD0FFFFFF7C1A000010
:101AB00005050000A42000002801000054020000D9
:101AC0005C060000E003000010050000C244CFFFE8
:101AD000A41A00000505000054020000880600005A
:101AE000640A0000A420000010050000C5454E4413
:101AF00049C6FFFFCC1A000005050000EC000000FD
:101B00009420000028010000640A0000DC15000099
:101B10001422000020160000D81700001005000055
:101B2000C4544845CEFFFFFFEC1A00000505000035
:101B3000F81A000010050000C4454C53C5FFFFFF14
:101B4000201B000005050000942000002801000073
:101B50005402000038060000640A000074200000EF
:101B60003C0B00002016000094200000F81A000032
:101B70009420000010050000C249C6FF381B000079
:101B8000050500005402000048060000640A000039
:101B9000742000003C0B00009420000010050000A1
:101BA000C5554E5449CCFFFF781B000005050000C9
:101BB00084200000280100005402000048060000B4
:101BC000E003000010050000C541474149CEFFFF7A
:101BD000A01B000005050000842000002801000073
:101BE0005402000038060000E00300001005000069
:101BF000C65245504541D4FFC81B000005050000F2
:101C0000BC150000BC150000D41B000088150000A6
:101C1000881500009420000014220000F81A00002B
:101C200010050000C55748494CC5FFFFF01B0000D8
:101C300005050000801B00002020000010050000AA
:101C4000C542454749CEFFFF241C000005050000A2
:101C5000EC000000640A0000842000001005000071
:101C6000970D0A496E7369646520436F6C6F6E202F
:101C7000574F5244533A0D8A401C000089494D4D3C
:101C80004544494154C5FFFF601C000005050000A4
:101C9000040C00003805000040000000F4060000BD
:101CA00010050000864352454154C5FF7C1C0000CE
:101CB000050500007C050000380500000F0000004D
:101CC000142200000823000048060000080000005D
:101CD000A8000000380200004806000024000000B0
:101CE00008160000540C0000F4270000380500001E
:101CF00047370000B011000080280000C412000027
:101D0000640A00004416000008040000D817000010
:101D100044160000BC170000380500001F0000003A
:101D2000C0230000C0000000441600003805000079
:101D300080000000F4060000640A0000380500007E
:101D400080000000F406000084200000D409000098
:101D500080170000040C00003C0B0000FC09000090
:101D6000D8170000540200002D050000640A00008E
:101D70003C2000003C0B00001005000088434F4E43
:101D80005354414ED4FFFFFFA41C00000505000082
:101D9000A01D00001005000083434FCE7C1D0000F5
:101DA00005050000B01C000038050000FCFFFFFF27
:101DB000D4090000801700003C0B0000F403000071
:101DC00010050000885641524941424CC5FFFFFFB3
:101DD000981D000005050000E81D0000100500002A
:101DE000835641D2C41D000005050000B01C000050
:101DF00038050000F8FFFFFFD4090000801700003D
:101E0000540200002105000084200000A00B000007
:101E10003C0B0000F403000010050000C1BBFFFFF5
:101E2000E01D000005050000B4020000540200009F
:101E30001005000050180000F40300001005000019
:101E4000C1BAFFFF1C1E0000050500000C010000C8
:101E5000A0020000B01C000034180000380500008B
:101E6000F8FFFFFFD40900008017000054020000B3
:101E70000505000010050000960D0A435245415427
:101E80004520574F52445320576974683A0D8AFFD2
:101E9000401E000084444142D3FFFFFF781E000033
:101EA000050500004416000028040000100500008D
:101EB00087444E45474154C5941E0000C11E000092
:101EC00038683F1D3A683F1DC043D243521C3F1F34
:101ED0003A603F1F386004CD08CA9847834450CC0D
:101EE000B01E00002D050000980B001083442ED278
:101EF000DC1E000005050000BC15000020160000D7
:101F0000DC150000A01E0000141A00009419000047
:101F1000681900000819000088150000DC15000091
:101F200014220000A02700008028000010050000F7
:101F30008244AEFFEC1E0000050500007420000086
:101F4000F41E0000DC270000100500008244ABFFF7
:101F5000301F0000591F000038683F1D39683F1DC1
:101F60003B683F1D3A683F1D521858413F1F3A6079
:101F70003F1F386004CD08CA9847000084532D3EA7
:101F8000C4FFFFFF4C1F00008D1F00003A683F1D7B
:101F90004040124300D5401E3F1F3A603F1F38604B
:101FA00004CD08CA984700008232AAFF7C1F0000B7
:101FB000B51F000038683F1D40003F1F386004CD4A
:101FC00008CA98478232AFFFA81F0000D11F000047
:101FD00038683F1D40103F1F386004CD08CA98473D
:101FE0008231ADFFC41F0000ED1F000038683F1DA7
:101FF000401E3F1F386004CD08CA98478231ABFFAE
:10200000E01F00000920000038683F1D401C3F1FF2
:10201000386004CD08CA98478232ABFFFC1F00002D
:102020002520000038683F1D801C3F1F386004CD0C
:1020300008CA98478234ABFF1820000041200000F6
:1020400038683F1D001D3F1F386004CD08CA9847FF
:102050008234ADFF342000005D20000038683F1D51
:10206000001F3F1F386004CD08CA984781B0FFFFAA
:10207000502000002D0500000000000081B1FFFF8E
:102080006C2000002D0500000100000081B2FFFF60
:102090007C2000002D0500000200000081B3FFFF3E
:1020A0008C2000002D0500000300000081B4FFFF1C
:1020B0009C2000002D05000004000000824DAAFFB6
:1020C000AC20000005050000B41400006C240000E2
:1020D000BC150000A823000020160000A823000063
:1020E0009407000088150000280400001005000077
:1020F000824DAFFFBC20000005050000DC1500008C
:10210000BC150000BC150000A01E0000A4150000B6
:10211000A8230000B807000088150000A4150000DF
:102120006C24000010040000201600008815000038
:1021300010040000201600001005000081AAFFFF17
:10214000F020000005050000C42000000816000073
:1021500010050000842F4D4FC4FFFFFF3C210000FD
:1021600005050000BC150000881F00008815000050
:10217000F82000001005000081AFFFFF542100008F
:102180000505000060210000201600000816000070
:1021900010050000834D4FC47821000005050000A4
:1021A000602100000816000010050000852A2F4D50
:1021B0004FC4FFFF9421000005050000BC1500007E
:1021C000C420000088150000F82000001005000061
:1021D000822AAFFFAC21000005050000B8210000F5
:1021E00020160000081600001005000081ABFFFF5C
:1021F000D0210000F921000038683F1D39683F1DDB
:1022000040183F1F386004CD08CA984781ADFFFFD2
:10221000EC2100001922000038683F1D39683F1D7D
:10222000081A3F1F386004CD08CA984781BDFFFFD8
:102230000C22000039220000404039683F1D3A68F6
:102240003F1D891A04D03F1F386004CD08CA984743
:1022500001383F1F386004CD08CA984781BCFFFF92
:102260002C220000692200004040013839683F1DDF
:102270003A683F1D914200DC40403F1F386004CD6A
:1022800008CA98478255BCFF5C2200000505000083
:10229000B41400006C24000008230000480600006D
:1022A000180000000816000008230000E4220000C7
:1022B000380600000C000000142200000823000073
:1022C0001005000081BEFFFF84220000050500000C
:1022D0002016000064220000100500008230BDFFBF
:1022E000C4220000E9220000404039683F1D002957
:1022F00000D1401E3F1F386004CD08CA9847000037
:102300008230BCFFDC2200000D23000039683F1D35
:1023100040400138094300D440403F1F386004CD9D
:1023200008CA9847834249CE0023000005050000F3
:1023300044080000020000005C0B001010050000C3
:10234000834845D824230000050500004408000008
:10235000100000005C0B001010050000874445438E
:10236000494D41CC40230000050500004408000011
:102370000A0000005C0B001010050000864E454767
:102380004154C5FF5C2300008D23000038683F1DC9
:10239000C043401C3F1F386004CD08CA9847000066
:1023A000834142D37C230000050500004416000051
:1023B0001004000010050000834D49CEA02300004A
:1023C00005050000B4140000CC22000048060000FF
:1023D000080000002016000008160000100500008C
:1023E000834D41D8B823000005050000B414000057
:1023F00064220000480600000800000020160000CB
:10240000081600001005000083414EC4E0230000C0
:102410001524000038683F1D39683F1D08403F1FE4
:10242000386004CD08CA9847824FD2FF08240000C4
:102430003524000038683F1D39683F1D08433F1FA1
:10244000386004CD08CA9847834E4FD42824000032
:102450005524000038683F1DC0433F1F386004CD3D
:1024600008CA984783584FD24824000071240000BE
:1024700038683F1D39683F1D48403F1F386004CD14
:1024800008CA984784535854C8FFFFFF64240000CB
:102490009524000038683F1D00B23F1F386004CD0E
:1024A00008CA984784535854C2FFFFFF8424000091
:1024B000B524000038683F1D40B23F1F386004CD8E
:1024C00008CA984784524556D7FFFFFFA42400004E
:1024D000D524000038683F1D00BA3F1F386004CD86
:1024E00008CA9847834153D2C4240000F124000055
:1024F0003A683F1D38683F1D10413F1F386004CDCA
:1025000008CA9847834C53D2E424000011250000E8
:102510003A683F1D38683F1DD0403F1F386004CDEA
:1025200008CA9847834C53CC04250000312500008D
:102530003A683F1D38683F1D90403F1F386004CD0A
:1025400008CA9847822ED2FF242500000505000006
:10255000BC150000881F000088150000F41E000054
:1025600010050000832E52D544250000050500000B
:10257000BC15000074200000141A0000941900001B
:1025800008190000441600008815000020160000FD
:1025900014220000A0270000802800001005000081
:1025A0008255AEFF64250000050500007420000080
:1025B000381F00001005000081BFFFFFA0250000AC
:1025C00005050000A0170000D82500001005000038
:1025D00081AEFFFFB825000005050000881F000040
:1025E000381F000010050000822EC8FFD025000013
:1025F000050500001C08000048230000A825000075
:102600003008000010050000910D0A4E554D42455E
:10261000522053747566663A0D8AFFFFE825000064
:102620008A55415254305F494E49D4FF0826000074
:102630000505000038050000400D0010A01700003F
:10264000E4220000480600001C00000038050000DD
:10265000440D0010A0170000BC1500003806000053
:10266000100000003805000080250000BC150000A7
:102670004408000001000000948004404408000069
:10268000FF000000F08004408815000038050000BD
:1026900010000000442100007033000020160000EC
:1026A0008021000084200000142200004408000063
:1026B0000000000020400640380500002040064091
:1026C000D817000044080000050000000040064044
:1026D00010050000864D59424155C4FF20260000D8
:1026E000050500004408000000000000400D001037
:1026F00038050000440D0010D81700001005000038
:102700008955415254305F4C53D2FFFFD42600000C
:1027100015270000034908783F1F386004CD08CA18
:1027200098470000084006408855415254305F5297
:10273000D8FFFFFF002700002D05000014400640D1
:102740008855415254305F54D8FFFFFF28270000BE
:102750002D0500001C40064084584F46C6FFFFFF71
:102760004027000069270000FEF7FEF8FEF704F995
:1027700004CD08CA9847000083584FCE5827000060
:1027800085270000FEF7F0F8FEF7FEF804CD08CA32
:1027900098470000865350414345D3FF78270000F7
:1027A0000505000074200000E8230000D814000094
:1027B0004806000018000000742000008806000091
:1027C000DC2700005C060000F8FFFFFF100500009A
:1027D0008553504143C5FFFF9427000005050000C5
:1027E000A0090000D428000010050000834944AE71
:1027F000D0270000050500008C11000038050000FE
:102800001F0000001024000080280000DC270000CA
:1028100010050000C22EA2FFEC27000005050000F5
:102820003805000022000000100A0000A017000078
:10283000480600002C00000054020000680100005F
:10284000300E0000640A0000BC17000004200000E5
:10285000B80A0000C00000003806000014000000A4
:10286000300E0000640A00008C1100008028000077
:102870001005000084545950C5FFFFFF14280000C4
:1028800005050000D81400004806000034000000D0
:1028900064270000DC150000F42100002016000071
:1028A0008806000024150000A4060000D4280000BB
:1028B0005C060000F0FFFFFF380600000800000083
:1028C000081600001005000084454D49D4FFFFFFA5
:1028D00074280000D928000038683F1DFEF744F82E
:1028E0000449087004490868401C086004CD08CAFF
:1028F000984700001C400640640B0010834B45D9EC
:10290000C8280000050500008027000014290000E9
:102910001005000019290000054A064B19684908EE
:10292000FCD310683F1F386004CD08CA98470000E8
:102930001440064008400640843F4B45D9FFFFFF46
:10294000FC28000049290000FEF70EF8FEF71CF8ED
:10295000084B1968490806D3404001383F1F3860CA
:1029600004CD08CA984740403F1F386004CD08CACC
:102970009847000008400640834352D3382900009E
:10298000050500007420000088060000A42900004E
:102990005C060000F8FFFFFF100500008243D2FF35
:1029A0007829000005050000440800000000000030
:1029B000640B001068010000020D0AFF1005000002
:1029C0008D0D0A4649534820494F3A0D8AFFFFFFB3
:1029D0009C2900008B495251535F524553554DC5B8
:1029E000C0290000E929000062B6C04604CD08CA2B
:1029F000984700008C495251535F53555350454EF0
:102A0000C4FFFFFFD42900000D2A000072B6C046A3
:102A100004CD08CA984700008F5359535449434B7B
:102A20005F4952515F4F46C6F4290000312A000029
:102A300002490520086004CD08CA984710E000E06C
:102A40008E5359535449434B5F4952515F4FCEFF08
:102A5000182A0000592A000002490720086004CD06
:102A600008CA984710E000E08F0D0A494E544552BD
:102A700052555054533A0D8A402A00008A464C4120
:102A800053485F534156C5FF682A00000505000002
:102A9000040C00009432000064220000480600008C
:102AA00020000000A4290000680100000F4E4F54D0
:102AB00048494E4720544F205341564510050000C9
:102AC0008C2B0000A017000038050000004000001B
:102AD000342200004806000028000000A42900005D
:102AE00068010000144C41535420464C4153482087
:102AF000504147452055534544FFFFFF1005000056
:102B0000B0090000A01700009C2B0000D81700009F
:102B1000040C0000A42B0000942B0000D817000028
:102B2000040C00009432000034220000480600002B
:102B30004C000000C82E000094320000D4090000B0
:102B4000D81700009C2B0000A0170000B00900005F
:102B5000D8170000942B0000A0170000FC0900000B
:102B6000D817000038050000000400008C2B00007E
:102B700080170000082F000010050000040C000062
:102B8000C82B00003806000098FFFFFF2D0500004D
:102B9000040000102D050000080000102D050000A5
:102BA0000C000010A92B000038683F1D044A10409B
:102BB000044A126880183F1F386004CD08CA98473D
:102BC000FF0F00000400001005050000980C000035
:102BD00044160000BC150000380C0000441600002C
:102BE000A01700003805000067050000342200002F
:102BF00048060000280000003C20000044160000A9
:102C000044160000A0170000A42B000020160000AE
:102C1000D81700003806000000010000441600002C
:102C2000A0170000380500002D0500003422000028
:102C3000DC150000A0170000380500002105000089
:102C4000342200003024000048060000100000007C
:102C50000816000038060000C40000003C200000F8
:102C600044160000A01700003805000038050000D9
:102C70003422000048060000100000003C20000044
:102C800038060000D8FFFFFF44160000A017000020
:102C900038050000680100003422000048060000EA
:102CA00020000000441600003C200000BC1700007B
:102CB000F4210000B80A000038060000A0FFFFFF62
:102CC00044160000A01700003805000010050000A1
:102CD00034220000E4220000480600003C0000000E
:102CE00044160000A017000094320000CC2200001F
:102CF0004806000068FFFFFF44160000441600006D
:102D0000A0170000A42B000020160000D817000018
:102D10003806000048FFFFFF081600008815000075
:102D20001C0C000044160000A01700004416000010
:102D3000FC090000D8170000A42B0000201600009A
:102D4000D8170000100500004D2D00000648074967
:102D500032220260064B1A68920A42608260054B7A
:102D6000984704CD08CA9847A00B0010F00B00103C
:102D700004000010F11FFF1F7D2D000007480849C7
:102D800034220260074B1A68920A42608260064A47
:102D9000C260064B984704CD08CA9847A00B0010A4
:102DA000F00B001004000010C05D0000F11FFF1FB9
:102DB000B52D00000848094933220260084A12680C
:102DC0004260084A8260084AC260084A0261084BB1
:102DD000984704CD08CA9847A00B0010F00B0010CC
:102DE000040000100000001000040000C05D00009E
:102DF000F11FFF1F8C464C4153485F464F524745D9
:102E0000D4FFFFFF7C2A00000505000044080000F5
:102E100000380000040000108C2B0000A0170000F8
:102E2000380500000040000034220000E4220000C9
:102E3000480600002C000000082A0000482D000071
:102E4000782D0000E429000038050000000400008F
:102E50008C2B00008017000038060000BCFFFFFF2D
:102E6000A8320000040C0000CC220000480600003C
:102E70001000000000360000380600001C000000B2
:102E8000380500006036000094320000980C000005
:102E90001C0C0000D8170000440800000038000097
:102EA0000400001038050000111111114416000033
:102EB000942B0000D81700009C2B0000D8170000AE
:102EC000082F00001005000005050000640A00003E
:102ED00038050000370A0010640A000014220000C0
:102EE00038050000FF0000001C170000082A000041
:102EF000482D0000782D0000482D0000B02D000066
:102F0000E429000010050000050500003805000058
:102F100000380000441600008C2B0000D817000079
:102F200044160000BC150000A0170000703300001C
:102F300034220000480600007C000000A4150000B8
:102F40003805000008000000F421000044160000CD
:102F5000A0170000FC090000D81700003C2000006A
:102F6000A0170000B0090000D8170000A429000035
:102F70006801000017414444454420574F524453D0
:102F80002046524F4D205041474520FFA4150000D8
:102F9000F0250000A4150000380500000004000022
:102FA000F42100008C2B0000D81700003806000028
:102FB0000C000000A415000010300000A415000053
:102FC0003805000000040000F42100004416000051
:102FD00038050000004000001422000048060000F0
:102FE00020000000081600008815000038050000C9
:102FF00000040000F42100003806000024FFFFFF59
:1030000008160000881500000816000010050000D2
:10301000050500004416000038050000000400000B
:10302000F4210000BC15000044160000A0170000A9
:10303000042000004806000048000000082A0000A4
:10304000482D0000782D0000E4290000A42900008C
:103050006801000017455241534544204241442035
:10306000464C41534820504147452020F025000060
:103070000816000088150000081600001005000062
:103080003C2000004416000044160000A415000077
:103090002016000014220000480600000C0000006A
:1030A0003806000088FFFFFFA42900006801000027
:1030B0000E464C4153482050414745204F4B20FF7E
:1030C000081600003805000000040000142200006B
:1030D000F02500008815000008160000100500000B
:1030E00084504F46C6FFFFFFF42D00000505000089
:1030F00044080000000000008C0B001010050000C8
:1031000083504FCEE0300000050500004408000069
:10311000180900008C0B00101005000081D0FFFF83
:10312000003100002D0500008C0B00108545484F34
:1031300046C6FFFF1C31000005050000742000009A
:1031400038050000900B0010D81700001005000093
:103150008445484FCEFFFFFF2C31000005050000DD
:103160008420000038050000900B0010D8170000E4
:1031700010050000832E44D35031000005050000E7
:103180007C0500001C08000068230000D825000012
:1031900030080000380500009C360000B011000027
:1031A0008028000010050000832E56D374310000E3
:1031B000050500009C050000B420000080210000EF
:1031C0001C08000068230000D8250000300800001B
:1031D0003805000091360000B01100008028000082
:1031E000100500008444554DD0FFFFFFA8310000BA
:1031F00005050000DC150000E00C00001C080000C4
:10320000482300007420000088060000A429000064
:1032100044160000380500000A0000006C2500007C
:10322000B42000007420000088060000441600004E
:10323000A0170000380500000E0000006C250000FB
:103240003C2000005C060000E4FFFFFF4429000072
:103250004806000008000000701500005C06000031
:10326000ACFFFFFF08160000A42900003008000092
:10327000100500008556424153C5FFFFE4310000B0
:103280002D050000FC0A00108544424153C5FFFF94
:10329000743200002D0500001000001085524241DC
:1032A00053C5FFFF883200002D050000000000100C
:1032B00083434CD39C3200000505000068010000E8
:1032C000041B5B324AFFFFFF68010000041B5B3BED
:1032D00048FFFFFFA429000010050000C1A8FFFF60
:1032E000B03200000505000038050000290000008C
:1032F000BC060000E4220000480600002800000090
:10330000A42900009001000038050000990A00106F
:10331000BC1700004806000010000000380600003E
:10332000C8FFFFFF1005000038050000AE360000A2
:10333000B01100008028000010050000C1DCFFFF74
:10334000DC3200000505000074200000500A000077
:10335000300A0000A0170000F4210000F41700005C
:103360001005000086535953434CCBFF3C330000FB
:1033700075330000034908683F1F386004CD08CA50
:1033800098470000000000108553544354D2FFFFBB
:10339000643300002D050000F80A00108544454CF8
:1033A00041D9FFFF88330000AD33000039683F1D6D
:1033B00038683F1D0A4CC043401C2060094A116018
:1033C000094A1160002806D0084A106807211160D8
:1033D00021680029FCD1106004CD08CA984700007C
:1033E000F80A001014E000E018E000E010E000E04F
:1033F000824DD3FF9C33000005050000A833000078
:103400001005000087574F52444341D4F033000069
:1034100005050000640A0000BC15000074200000CF
:10342000640B0000380500000D000000640B000074
:10343000640A0000380500000D000000300E000096
:1034400044160000BC170000380500000A00000008
:10345000F8140000F41700004416000004200000D7
:10346000800A00003805000084000000F4210000FC
:10347000A4150000F4170000380500000D0000003E
:10348000640B0000380500008A000000640B000097
:10349000E00A0000040C00003C0B0000881500004E
:1034A00038050000880B0010D81700001005000038
:1034B00085574F5244D3FFFF043400000505000038
:1034C000A4200000A0270000040C000064270000D6
:1034D00074200000DC15000004200000BC17000070
:1034E000380500000D00000034220000E422000036
:1034F000480600001C0000000816000044160000EA
:10350000980C00001C0C0000DC15000014220000C8
:10351000200A0000A0170000F42100003805000078
:103520004A000000CC220000480600001000000005
:10353000A4290000A4200000A027000044160000D9
:10354000C4090000A0170000642200004806000023
:103550000C000000380600005C000000441600006B
:10356000F427000094200000A0270000441600006B
:1035700004200000BC170000380500000D0000000A
:10358000342200004806000010000000440800003B
:1035900000000000640B0010980C00001C0C0000E0
:1035A000A017000044160000E422000048060000B6
:1035B00020FFFFFF08160000A429000010050000EE
:1035C000874D59574F5244D3B034000005050000D1
:1035D0004408000000380000840B0010BC340000D8
:1035E0004408000000000000840B001010050000DB
:1035F00089464953485F4F4E4CD9FFFFC035000004
:10360000053600000749084C2160084C2160084934
:10361000084C2160084C21600849094C216004CD08
:1036200008CA984760360000880B00100800001098
:10363000FC0A0010780B00100C00001010000010A5
:103640007C0B001084464953C8FFFFFFF035000093
:1036500005050000082F000040040000C41200000F
:10366000990D0A46495348205265666572656E6336
:1036700065204D6F64656C3A0D8AFFFF443600008B
:103680000352554E2000203F2000203C43523E2054
:10369000005641522043454C4C532000444943546A
:1036A000494F4E415259204259544553200020431E
:1036B0004F4D4D454E54204C494E452043414E4EB2
:1036C0004F5420424520454D505459201500204369
:1036D000414E5420464F52474554204649534820B6
:1036E000494E20464C41534820150020494E204663
:1036F0004C415348202D2053454520464C415348CA
:103700005F464F52474554201500204449435449D1
:103710004F4E4152592046554C4C202D2053454583
:10372000202E44532015002052414D205641522056
:1037300053504143452046554C4C202D2053454580
:10374000202E565320150020495320414C5245410C
:10375000445920444546494E4544201500203F2009
:103760004E4F5420574F5244201500203F204E4FBB
:103770005420574F5244204F52204E554D424552EF
:1037800020150020434155534544204120535441C6
:10379000434B204552524F52201500205354414371
:1037A0004B204552524F52205748494C45204558CE
:1037B00045435554494E47204F5220434F4D5049A1
:1037C0004C494E47201500204552524F52202D2083
:1037D0004E4F5420434F4D50494C494E4720150001
:1037E000204552524F52202D2045584543555445AF
:1037F00044205748494C4520434F4D50494C494E71
:1038000047201500050500004408000007000000DF
:1038100010E000E044080000FFC001008080044088
:1038200044080000060109FF00C0004044080000F1
:1038300000200000002000A044080000000000005C
:10384000002100A04408000070ED00003882044010
:1038500044080000000000004080044044080000CC
:103860000000000044800440440800000100000003
:103870004480044044080000010000000880044027
:103880004408000000366E010000001038050000FA
:103890000C800440A01700008420000010240000C9
:1038A00048060000E8FFFFFF440800000300000096
:1038B0007080044044080000000000007480044050
:1038C0004408000001000000748004404408000027
:1038D00000366E010000001010050000D0B5040095
:1038E00016001F00300039002200E31700F007F82F
:1038F000300039002200E31700F001F8D0BD30B4E9
:10390000DC0F03D05B42524200D25B1E0D106C40B4
:1039100013D0F446002502D349424042A94100F0A9
:103920000DF8E40703D35B425242AB41244202D577
:1039300049424042A94130BC604730BC124224D0C9
:10394000994228D970B500251B4202D00C000021F5
:1039500009E00024012649186441944200D3A41AC6
:103960007641F8D33100012601E0764109D20018F2
:1039700064416D41A41A9D41F7D2A4185D41B61966
:10398000F5D3300022002B0070BD1B42D8D108B502
:10399000C046C04608BD01D19042D3D202000B0000
:1039A000002100207047000000B5BFF34F8F03488F
:1039B00003490860BFF34F8FFEE700000400FA05DB
:1039C0000CED00E000B5FEE780B5FFF7EDFF01BDAF
:1039D00000B5FEE700B5FEE700B5FEE700B5FEE77F
:1039E00000B5FEE700B5FEE780B5FCF76FFF01BD4F
:0239F00070471E
:04000005000039F1CD
:00000001FF
